{
	"IT/LIT2025032/NFT_MARKETPLACE_ASSIGNMENT/MarketplaceContract.sol": {
		"Marketplace": {
			"abi": [
				{
					"inputs": [
						{
							"internalType": "address",
							"name": "tokenAddress",
							"type": "address"
						},
						{
							"internalType": "address",
							"name": "nftAddress",
							"type": "address"
						}
					],
					"stateMutability": "nonpayable",
					"type": "constructor"
				},
				{
					"inputs": [
						{
							"internalType": "uint256",
							"name": "tokenId",
							"type": "uint256"
						}
					],
					"name": "aNFT",
					"outputs": [
						{
							"components": [
								{
									"components": [
										{
											"internalType": "uint256",
											"name": "NFTId",
											"type": "uint256"
										},
										{
											"internalType": "string",
											"name": "name",
											"type": "string"
										},
										{
											"internalType": "string",
											"name": "description",
											"type": "string"
										}
									],
									"internalType": "struct Marketplace.NFTInfo",
									"name": "nft",
									"type": "tuple"
								},
								{
									"internalType": "address",
									"name": "seller",
									"type": "address"
								},
								{
									"internalType": "uint256",
									"name": "price",
									"type": "uint256"
								},
								{
									"internalType": "bool",
									"name": "sold",
									"type": "bool"
								}
							],
							"internalType": "struct Marketplace.Listing",
							"name": "",
							"type": "tuple"
						}
					],
					"stateMutability": "view",
					"type": "function"
				},
				{
					"inputs": [],
					"name": "allListedNFTs",
					"outputs": [
						{
							"components": [
								{
									"components": [
										{
											"internalType": "uint256",
											"name": "NFTId",
											"type": "uint256"
										},
										{
											"internalType": "string",
											"name": "name",
											"type": "string"
										},
										{
											"internalType": "string",
											"name": "description",
											"type": "string"
										}
									],
									"internalType": "struct Marketplace.NFTInfo",
									"name": "nft",
									"type": "tuple"
								},
								{
									"internalType": "address",
									"name": "seller",
									"type": "address"
								},
								{
									"internalType": "uint256",
									"name": "price",
									"type": "uint256"
								},
								{
									"internalType": "bool",
									"name": "sold",
									"type": "bool"
								}
							],
							"internalType": "struct Marketplace.Listing[]",
							"name": "",
							"type": "tuple[]"
						}
					],
					"stateMutability": "view",
					"type": "function"
				},
				{
					"inputs": [
						{
							"internalType": "address",
							"name": "buyer",
							"type": "address"
						}
					],
					"name": "allNFT",
					"outputs": [
						{
							"components": [
								{
									"components": [
										{
											"internalType": "uint256",
											"name": "NFTId",
											"type": "uint256"
										},
										{
											"internalType": "string",
											"name": "name",
											"type": "string"
										},
										{
											"internalType": "string",
											"name": "description",
											"type": "string"
										}
									],
									"internalType": "struct Marketplace.NFTInfo",
									"name": "nft",
									"type": "tuple"
								},
								{
									"internalType": "address",
									"name": "seller",
									"type": "address"
								},
								{
									"internalType": "uint256",
									"name": "price",
									"type": "uint256"
								},
								{
									"internalType": "bool",
									"name": "sold",
									"type": "bool"
								}
							],
							"internalType": "struct Marketplace.Listing[]",
							"name": "",
							"type": "tuple[]"
						}
					],
					"stateMutability": "view",
					"type": "function"
				},
				{
					"inputs": [],
					"name": "allSoldNFTs",
					"outputs": [
						{
							"components": [
								{
									"components": [
										{
											"internalType": "uint256",
											"name": "NFTId",
											"type": "uint256"
										},
										{
											"internalType": "string",
											"name": "name",
											"type": "string"
										},
										{
											"internalType": "string",
											"name": "description",
											"type": "string"
										}
									],
									"internalType": "struct Marketplace.NFTInfo",
									"name": "nft",
									"type": "tuple"
								},
								{
									"internalType": "address",
									"name": "seller",
									"type": "address"
								},
								{
									"internalType": "uint256",
									"name": "price",
									"type": "uint256"
								},
								{
									"internalType": "bool",
									"name": "sold",
									"type": "bool"
								}
							],
							"internalType": "struct Marketplace.Listing[]",
							"name": "",
							"type": "tuple[]"
						}
					],
					"stateMutability": "view",
					"type": "function"
				},
				{
					"inputs": [
						{
							"internalType": "uint256",
							"name": "NFTid",
							"type": "uint256"
						}
					],
					"name": "buyNFT",
					"outputs": [],
					"stateMutability": "nonpayable",
					"type": "function"
				},
				{
					"inputs": [
						{
							"internalType": "uint256",
							"name": "nft_Id",
							"type": "uint256"
						},
						{
							"internalType": "uint256",
							"name": "Price",
							"type": "uint256"
						}
					],
					"name": "listNFT",
					"outputs": [],
					"stateMutability": "nonpayable",
					"type": "function"
				}
			],
			"devdoc": {
				"kind": "dev",
				"methods": {},
				"version": 1
			},
			"evm": {
				"assembly": "    /* \"IT/LIT2025032/NFT_MARKETPLACE_ASSIGNMENT/MarketplaceContract.sol\":507:4272  contract Marketplace{... */\n  mstore(0x40, 0x80)\n    /* \"IT/LIT2025032/NFT_MARKETPLACE_ASSIGNMENT/MarketplaceContract.sol\":592:725  constructor(address tokenAddress, address nftAddress){... */\n  callvalue\n  dup1\n  iszero\n  tag_1\n  jumpi\n  revert(0x00, 0x00)\ntag_1:\n  pop\n  mload(0x40)\n  sub(codesize, bytecodeSize)\n  dup1\n  bytecodeSize\n  dup4\n  codecopy\n  dup2\n  dup2\n  add\n  0x40\n  mstore\n  dup2\n  add\n  swap1\n  tag_2\n  swap2\n  swap1\n  tag_3\n  jump\t// in\ntag_2:\n    /* \"IT/LIT2025032/NFT_MARKETPLACE_ASSIGNMENT/MarketplaceContract.sol\":671:683  tokenAddress */\n  dup2\n    /* \"IT/LIT2025032/NFT_MARKETPLACE_ASSIGNMENT/MarketplaceContract.sol\":656:661  token */\n  0x00\n  0x00\n    /* \"IT/LIT2025032/NFT_MARKETPLACE_ASSIGNMENT/MarketplaceContract.sol\":656:684  token = IToken(tokenAddress) */\n  0x0100\n  exp\n  dup2\n  sload\n  dup2\n  0xffffffffffffffffffffffffffffffffffffffff\n  mul\n  not\n  and\n  swap1\n  dup4\n  0xffffffffffffffffffffffffffffffffffffffff\n  and\n  mul\n  or\n  swap1\n  sstore\n  pop\n    /* \"IT/LIT2025032/NFT_MARKETPLACE_ASSIGNMENT/MarketplaceContract.sol\":706:716  nftAddress */\n  dup1\n    /* \"IT/LIT2025032/NFT_MARKETPLACE_ASSIGNMENT/MarketplaceContract.sol\":695:698  nft */\n  0x01\n  0x00\n    /* \"IT/LIT2025032/NFT_MARKETPLACE_ASSIGNMENT/MarketplaceContract.sol\":695:717  nft = INFT(nftAddress) */\n  0x0100\n  exp\n  dup2\n  sload\n  dup2\n  0xffffffffffffffffffffffffffffffffffffffff\n  mul\n  not\n  and\n  swap1\n  dup4\n  0xffffffffffffffffffffffffffffffffffffffff\n  and\n  mul\n  or\n  swap1\n  sstore\n  pop\n    /* \"IT/LIT2025032/NFT_MARKETPLACE_ASSIGNMENT/MarketplaceContract.sol\":592:725  constructor(address tokenAddress, address nftAddress){... */\n  pop\n  pop\n    /* \"IT/LIT2025032/NFT_MARKETPLACE_ASSIGNMENT/MarketplaceContract.sol\":507:4272  contract Marketplace{... */\n  jump(tag_6)\n    /* \"#utility.yul\":88:205   */\ntag_8:\n    /* \"#utility.yul\":197:198   */\n  0x00\n    /* \"#utility.yul\":194:195   */\n  0x00\n    /* \"#utility.yul\":187:199   */\n  revert\n    /* \"#utility.yul\":334:460   */\ntag_10:\n    /* \"#utility.yul\":371:378   */\n  0x00\n    /* \"#utility.yul\":411:453   */\n  0xffffffffffffffffffffffffffffffffffffffff\n    /* \"#utility.yul\":404:409   */\n  dup3\n    /* \"#utility.yul\":400:454   */\n  and\n    /* \"#utility.yul\":389:454   */\n  swap1\n  pop\n    /* \"#utility.yul\":334:460   */\n  swap2\n  swap1\n  pop\n  jump\t// out\n    /* \"#utility.yul\":466:562   */\ntag_11:\n    /* \"#utility.yul\":503:510   */\n  0x00\n    /* \"#utility.yul\":532:556   */\n  tag_20\n    /* \"#utility.yul\":550:555   */\n  dup3\n    /* \"#utility.yul\":532:556   */\n  tag_10\n  jump\t// in\ntag_20:\n    /* \"#utility.yul\":521:556   */\n  swap1\n  pop\n    /* \"#utility.yul\":466:562   */\n  swap2\n  swap1\n  pop\n  jump\t// out\n    /* \"#utility.yul\":568:690   */\ntag_12:\n    /* \"#utility.yul\":641:665   */\n  tag_22\n    /* \"#utility.yul\":659:664   */\n  dup2\n    /* \"#utility.yul\":641:665   */\n  tag_11\n  jump\t// in\ntag_22:\n    /* \"#utility.yul\":634:639   */\n  dup2\n    /* \"#utility.yul\":631:666   */\n  eq\n    /* \"#utility.yul\":621:684   */\n  tag_23\n  jumpi\n    /* \"#utility.yul\":680:681   */\n  0x00\n    /* \"#utility.yul\":677:678   */\n  0x00\n    /* \"#utility.yul\":670:682   */\n  revert\n    /* \"#utility.yul\":621:684   */\ntag_23:\n    /* \"#utility.yul\":568:690   */\n  pop\n  jump\t// out\n    /* \"#utility.yul\":696:839   */\ntag_13:\n    /* \"#utility.yul\":753:758   */\n  0x00\n    /* \"#utility.yul\":784:790   */\n  dup2\n    /* \"#utility.yul\":778:791   */\n  mload\n    /* \"#utility.yul\":769:791   */\n  swap1\n  pop\n    /* \"#utility.yul\":800:833   */\n  tag_25\n    /* \"#utility.yul\":827:832   */\n  dup2\n    /* \"#utility.yul\":800:833   */\n  tag_12\n  jump\t// in\ntag_25:\n    /* \"#utility.yul\":696:839   */\n  swap3\n  swap2\n  pop\n  pop\n  jump\t// out\n    /* \"#utility.yul\":845:1352   */\ntag_3:\n    /* \"#utility.yul\":924:930   */\n  0x00\n    /* \"#utility.yul\":932:938   */\n  0x00\n    /* \"#utility.yul\":981:983   */\n  0x40\n    /* \"#utility.yul\":969:978   */\n  dup4\n    /* \"#utility.yul\":960:967   */\n  dup6\n    /* \"#utility.yul\":956:979   */\n  sub\n    /* \"#utility.yul\":952:984   */\n  slt\n    /* \"#utility.yul\":949:1068   */\n  iszero\n  tag_27\n  jumpi\n    /* \"#utility.yul\":987:1066   */\n  tag_28\n  tag_8\n  jump\t// in\ntag_28:\n    /* \"#utility.yul\":949:1068   */\ntag_27:\n    /* \"#utility.yul\":1107:1108   */\n  0x00\n    /* \"#utility.yul\":1132:1196   */\n  tag_29\n    /* \"#utility.yul\":1188:1195   */\n  dup6\n    /* \"#utility.yul\":1179:1185   */\n  dup3\n    /* \"#utility.yul\":1168:1177   */\n  dup7\n    /* \"#utility.yul\":1164:1186   */\n  add\n    /* \"#utility.yul\":1132:1196   */\n  tag_13\n  jump\t// in\ntag_29:\n    /* \"#utility.yul\":1122:1196   */\n  swap3\n  pop\n    /* \"#utility.yul\":1078:1206   */\n  pop\n    /* \"#utility.yul\":1245:1247   */\n  0x20\n    /* \"#utility.yul\":1271:1335   */\n  tag_30\n    /* \"#utility.yul\":1327:1334   */\n  dup6\n    /* \"#utility.yul\":1318:1324   */\n  dup3\n    /* \"#utility.yul\":1307:1316   */\n  dup7\n    /* \"#utility.yul\":1303:1325   */\n  add\n    /* \"#utility.yul\":1271:1335   */\n  tag_13\n  jump\t// in\ntag_30:\n    /* \"#utility.yul\":1261:1335   */\n  swap2\n  pop\n    /* \"#utility.yul\":1216:1345   */\n  pop\n    /* \"#utility.yul\":845:1352   */\n  swap3\n  pop\n  swap3\n  swap1\n  pop\n  jump\t// out\n    /* \"IT/LIT2025032/NFT_MARKETPLACE_ASSIGNMENT/MarketplaceContract.sol\":507:4272  contract Marketplace{... */\ntag_6:\n  dataSize(sub_0)\n  dup1\n  dataOffset(sub_0)\n  0x00\n  codecopy\n  0x00\n  return\nstop\n\nsub_0: assembly {\n        /* \"IT/LIT2025032/NFT_MARKETPLACE_ASSIGNMENT/MarketplaceContract.sol\":507:4272  contract Marketplace{... */\n      mstore(0x40, 0x80)\n      callvalue\n      dup1\n      iszero\n      tag_1\n      jumpi\n      revert(0x00, 0x00)\n    tag_1:\n      pop\n      jumpi(tag_2, lt(calldatasize, 0x04))\n      shr(0xe0, calldataload(0x00))\n      dup1\n      0x2557bdc9\n      eq\n      tag_3\n      jumpi\n      dup1\n      0x51ed8288\n      eq\n      tag_4\n      jumpi\n      dup1\n      0x7a5f270d\n      eq\n      tag_5\n      jumpi\n      dup1\n      0x94383f14\n      eq\n      tag_6\n      jumpi\n      dup1\n      0xca74e355\n      eq\n      tag_7\n      jumpi\n      dup1\n      0xec01c796\n      eq\n      tag_8\n      jumpi\n    tag_2:\n      revert(0x00, 0x00)\n        /* \"IT/LIT2025032/NFT_MARKETPLACE_ASSIGNMENT/MarketplaceContract.sol\":2435:3081  function allListedNFTs() public view returns (Listing[] memory){... */\n    tag_3:\n      tag_9\n      tag_10\n      jump\t// in\n    tag_9:\n      mload(0x40)\n      tag_11\n      swap2\n      swap1\n      tag_12\n      jump\t// in\n    tag_11:\n      mload(0x40)\n      dup1\n      swap2\n      sub\n      swap1\n      return\n        /* \"IT/LIT2025032/NFT_MARKETPLACE_ASSIGNMENT/MarketplaceContract.sol\":1898:2427  function buyNFT(uint256 NFTid) public {... */\n    tag_4:\n      tag_13\n      0x04\n      dup1\n      calldatasize\n      sub\n      dup2\n      add\n      swap1\n      tag_14\n      swap2\n      swap1\n      tag_15\n      jump\t// in\n    tag_14:\n      tag_16\n      jump\t// in\n    tag_13:\n      stop\n        /* \"IT/LIT2025032/NFT_MARKETPLACE_ASSIGNMENT/MarketplaceContract.sol\":3089:3746  function allSoldNFTs() public view returns (Listing[] memory){... */\n    tag_5:\n      tag_17\n      tag_18\n      jump\t// in\n    tag_17:\n      mload(0x40)\n      tag_19\n      swap2\n      swap1\n      tag_12\n      jump\t// in\n    tag_19:\n      mload(0x40)\n      dup1\n      swap2\n      sub\n      swap1\n      return\n        /* \"IT/LIT2025032/NFT_MARKETPLACE_ASSIGNMENT/MarketplaceContract.sol\":1119:1890  function listNFT(uint256 nft_Id, uint256 Price) public {... */\n    tag_6:\n      tag_20\n      0x04\n      dup1\n      calldatasize\n      sub\n      dup2\n      add\n      swap1\n      tag_21\n      swap2\n      swap1\n      tag_22\n      jump\t// in\n    tag_21:\n      tag_23\n      jump\t// in\n    tag_20:\n      stop\n        /* \"IT/LIT2025032/NFT_MARKETPLACE_ASSIGNMENT/MarketplaceContract.sol\":3754:3864  function aNFT(uint256 tokenId) public view returns (Listing memory){... */\n    tag_7:\n      tag_24\n      0x04\n      dup1\n      calldatasize\n      sub\n      dup2\n      add\n      swap1\n      tag_25\n      swap2\n      swap1\n      tag_15\n      jump\t// in\n    tag_25:\n      tag_26\n      jump\t// in\n    tag_24:\n      mload(0x40)\n      tag_27\n      swap2\n      swap1\n      tag_28\n      jump\t// in\n    tag_27:\n      mload(0x40)\n      dup1\n      swap2\n      sub\n      swap1\n      return\n        /* \"IT/LIT2025032/NFT_MARKETPLACE_ASSIGNMENT/MarketplaceContract.sol\":3872:4263  function allNFT(address buyer) public view returns (Listing[] memory){... */\n    tag_8:\n      tag_29\n      0x04\n      dup1\n      calldatasize\n      sub\n      dup2\n      add\n      swap1\n      tag_30\n      swap2\n      swap1\n      tag_31\n      jump\t// in\n    tag_30:\n      tag_32\n      jump\t// in\n    tag_29:\n      mload(0x40)\n      tag_33\n      swap2\n      swap1\n      tag_12\n      jump\t// in\n    tag_33:\n      mload(0x40)\n      dup1\n      swap2\n      sub\n      swap1\n      return\n        /* \"IT/LIT2025032/NFT_MARKETPLACE_ASSIGNMENT/MarketplaceContract.sol\":2435:3081  function allListedNFTs() public view returns (Listing[] memory){... */\n    tag_10:\n        /* \"IT/LIT2025032/NFT_MARKETPLACE_ASSIGNMENT/MarketplaceContract.sol\":2481:2497  Listing[] memory */\n      0x60\n        /* \"IT/LIT2025032/NFT_MARKETPLACE_ASSIGNMENT/MarketplaceContract.sol\":2509:2522  uint256 count */\n      0x00\n        /* \"IT/LIT2025032/NFT_MARKETPLACE_ASSIGNMENT/MarketplaceContract.sol\":2525:2526  0 */\n      0x00\n        /* \"IT/LIT2025032/NFT_MARKETPLACE_ASSIGNMENT/MarketplaceContract.sol\":2509:2526  uint256 count = 0 */\n      swap1\n      pop\n        /* \"IT/LIT2025032/NFT_MARKETPLACE_ASSIGNMENT/MarketplaceContract.sol\":2542:2551  uint256 i */\n      0x00\n        /* \"IT/LIT2025032/NFT_MARKETPLACE_ASSIGNMENT/MarketplaceContract.sol\":2554:2555  0 */\n      0x00\n        /* \"IT/LIT2025032/NFT_MARKETPLACE_ASSIGNMENT/MarketplaceContract.sol\":2542:2555  uint256 i = 0 */\n      swap1\n      pop\n        /* \"IT/LIT2025032/NFT_MARKETPLACE_ASSIGNMENT/MarketplaceContract.sol\":2537:2697  for (uint256 i = 0 ; i<allListedNFTsIds.length; i++){... */\n    tag_35:\n        /* \"IT/LIT2025032/NFT_MARKETPLACE_ASSIGNMENT/MarketplaceContract.sol\":2560:2576  allListedNFTsIds */\n      0x03\n        /* \"IT/LIT2025032/NFT_MARKETPLACE_ASSIGNMENT/MarketplaceContract.sol\":2560:2583  allListedNFTsIds.length */\n      dup1\n      sload\n      swap1\n      pop\n        /* \"IT/LIT2025032/NFT_MARKETPLACE_ASSIGNMENT/MarketplaceContract.sol\":2558:2559  i */\n      dup2\n        /* \"IT/LIT2025032/NFT_MARKETPLACE_ASSIGNMENT/MarketplaceContract.sol\":2558:2583  i<allListedNFTsIds.length */\n      lt\n        /* \"IT/LIT2025032/NFT_MARKETPLACE_ASSIGNMENT/MarketplaceContract.sol\":2537:2697  for (uint256 i = 0 ; i<allListedNFTsIds.length; i++){... */\n      iszero\n      tag_36\n      jumpi\n        /* \"IT/LIT2025032/NFT_MARKETPLACE_ASSIGNMENT/MarketplaceContract.sol\":2609:2617  listings */\n      0x02\n        /* \"IT/LIT2025032/NFT_MARKETPLACE_ASSIGNMENT/MarketplaceContract.sol\":2609:2638  listings[allListedNFTsIds[i]] */\n      0x00\n        /* \"IT/LIT2025032/NFT_MARKETPLACE_ASSIGNMENT/MarketplaceContract.sol\":2618:2634  allListedNFTsIds */\n      0x03\n        /* \"IT/LIT2025032/NFT_MARKETPLACE_ASSIGNMENT/MarketplaceContract.sol\":2635:2636  i */\n      dup4\n        /* \"IT/LIT2025032/NFT_MARKETPLACE_ASSIGNMENT/MarketplaceContract.sol\":2618:2637  allListedNFTsIds[i] */\n      dup2\n      sload\n      dup2\n      lt\n      tag_38\n      jumpi\n      tag_39\n      tag_40\n      jump\t// in\n    tag_39:\n    tag_38:\n      swap1\n      0x00\n      mstore\n      keccak256(0x00, 0x20)\n      add\n      sload\n        /* \"IT/LIT2025032/NFT_MARKETPLACE_ASSIGNMENT/MarketplaceContract.sol\":2609:2638  listings[allListedNFTsIds[i]] */\n      dup2\n      mstore\n      0x20\n      add\n      swap1\n      dup2\n      mstore\n      0x20\n      add\n      0x00\n      keccak256\n        /* \"IT/LIT2025032/NFT_MARKETPLACE_ASSIGNMENT/MarketplaceContract.sol\":2609:2643  listings[allListedNFTsIds[i]].sold */\n      0x05\n      add\n      0x00\n      swap1\n      sload\n      swap1\n      0x0100\n      exp\n      swap1\n      div\n      0xff\n      and\n        /* \"IT/LIT2025032/NFT_MARKETPLACE_ASSIGNMENT/MarketplaceContract.sol\":2604:2686  if (!listings[allListedNFTsIds[i]].sold){... */\n      tag_42\n      jumpi\n        /* \"IT/LIT2025032/NFT_MARKETPLACE_ASSIGNMENT/MarketplaceContract.sol\":2663:2670  count++ */\n      dup2\n      dup1\n      tag_43\n      swap1\n      tag_44\n      jump\t// in\n    tag_43:\n      swap3\n      pop\n      pop\n        /* \"IT/LIT2025032/NFT_MARKETPLACE_ASSIGNMENT/MarketplaceContract.sol\":2604:2686  if (!listings[allListedNFTsIds[i]].sold){... */\n    tag_42:\n        /* \"IT/LIT2025032/NFT_MARKETPLACE_ASSIGNMENT/MarketplaceContract.sol\":2585:2588  i++ */\n      dup1\n      dup1\n      0x01\n      add\n      swap2\n      pop\n      pop\n        /* \"IT/LIT2025032/NFT_MARKETPLACE_ASSIGNMENT/MarketplaceContract.sol\":2537:2697  for (uint256 i = 0 ; i<allListedNFTsIds.length; i++){... */\n      jump(tag_35)\n    tag_36:\n      pop\n        /* \"IT/LIT2025032/NFT_MARKETPLACE_ASSIGNMENT/MarketplaceContract.sol\":2709:2742  Listing[] memory list_of_all_NFTs */\n      0x00\n        /* \"IT/LIT2025032/NFT_MARKETPLACE_ASSIGNMENT/MarketplaceContract.sol\":2759:2764  count */\n      dup2\n        /* \"IT/LIT2025032/NFT_MARKETPLACE_ASSIGNMENT/MarketplaceContract.sol\":2745:2765  new Listing[](count) */\n      0xffffffffffffffff\n      dup2\n      gt\n      iszero\n      tag_45\n      jumpi\n      tag_46\n      tag_47\n      jump\t// in\n    tag_46:\n    tag_45:\n      mload(0x40)\n      swap1\n      dup1\n      dup3\n      mstore\n      dup1\n      0x20\n      mul\n      0x20\n      add\n      dup3\n      add\n      0x40\n      mstore\n      dup1\n      iszero\n      tag_48\n      jumpi\n      dup2\n      0x20\n      add\n    tag_49:\n      tag_50\n      tag_51\n      jump\t// in\n    tag_50:\n      dup2\n      mstore\n      0x20\n      add\n      swap1\n      0x01\n      swap1\n      sub\n      swap1\n      dup2\n      tag_49\n      jumpi\n      swap1\n      pop\n    tag_48:\n      pop\n        /* \"IT/LIT2025032/NFT_MARKETPLACE_ASSIGNMENT/MarketplaceContract.sol\":2709:2765  Listing[] memory list_of_all_NFTs = new Listing[](count) */\n      swap1\n      pop\n        /* \"IT/LIT2025032/NFT_MARKETPLACE_ASSIGNMENT/MarketplaceContract.sol\":2778:2791  uint256 index */\n      0x00\n        /* \"IT/LIT2025032/NFT_MARKETPLACE_ASSIGNMENT/MarketplaceContract.sol\":2792:2793  0 */\n      0x00\n        /* \"IT/LIT2025032/NFT_MARKETPLACE_ASSIGNMENT/MarketplaceContract.sol\":2778:2793  uint256 index=0 */\n      swap1\n      pop\n        /* \"IT/LIT2025032/NFT_MARKETPLACE_ASSIGNMENT/MarketplaceContract.sol\":2809:2818  uint256 i */\n      0x00\n        /* \"IT/LIT2025032/NFT_MARKETPLACE_ASSIGNMENT/MarketplaceContract.sol\":2821:2822  0 */\n      0x00\n        /* \"IT/LIT2025032/NFT_MARKETPLACE_ASSIGNMENT/MarketplaceContract.sol\":2809:2822  uint256 i = 0 */\n      swap1\n      pop\n        /* \"IT/LIT2025032/NFT_MARKETPLACE_ASSIGNMENT/MarketplaceContract.sol\":2804:3038  for (uint256 i = 0 ; i<allListedNFTsIds.length; i++){... */\n    tag_52:\n        /* \"IT/LIT2025032/NFT_MARKETPLACE_ASSIGNMENT/MarketplaceContract.sol\":2827:2843  allListedNFTsIds */\n      0x03\n        /* \"IT/LIT2025032/NFT_MARKETPLACE_ASSIGNMENT/MarketplaceContract.sol\":2827:2850  allListedNFTsIds.length */\n      dup1\n      sload\n      swap1\n      pop\n        /* \"IT/LIT2025032/NFT_MARKETPLACE_ASSIGNMENT/MarketplaceContract.sol\":2825:2826  i */\n      dup2\n        /* \"IT/LIT2025032/NFT_MARKETPLACE_ASSIGNMENT/MarketplaceContract.sol\":2825:2850  i<allListedNFTsIds.length */\n      lt\n        /* \"IT/LIT2025032/NFT_MARKETPLACE_ASSIGNMENT/MarketplaceContract.sol\":2804:3038  for (uint256 i = 0 ; i<allListedNFTsIds.length; i++){... */\n      iszero\n      tag_53\n      jumpi\n        /* \"IT/LIT2025032/NFT_MARKETPLACE_ASSIGNMENT/MarketplaceContract.sol\":2876:2884  listings */\n      0x02\n        /* \"IT/LIT2025032/NFT_MARKETPLACE_ASSIGNMENT/MarketplaceContract.sol\":2876:2905  listings[allListedNFTsIds[i]] */\n      0x00\n        /* \"IT/LIT2025032/NFT_MARKETPLACE_ASSIGNMENT/MarketplaceContract.sol\":2885:2901  allListedNFTsIds */\n      0x03\n        /* \"IT/LIT2025032/NFT_MARKETPLACE_ASSIGNMENT/MarketplaceContract.sol\":2902:2903  i */\n      dup4\n        /* \"IT/LIT2025032/NFT_MARKETPLACE_ASSIGNMENT/MarketplaceContract.sol\":2885:2904  allListedNFTsIds[i] */\n      dup2\n      sload\n      dup2\n      lt\n      tag_55\n      jumpi\n      tag_56\n      tag_40\n      jump\t// in\n    tag_56:\n    tag_55:\n      swap1\n      0x00\n      mstore\n      keccak256(0x00, 0x20)\n      add\n      sload\n        /* \"IT/LIT2025032/NFT_MARKETPLACE_ASSIGNMENT/MarketplaceContract.sol\":2876:2905  listings[allListedNFTsIds[i]] */\n      dup2\n      mstore\n      0x20\n      add\n      swap1\n      dup2\n      mstore\n      0x20\n      add\n      0x00\n      keccak256\n        /* \"IT/LIT2025032/NFT_MARKETPLACE_ASSIGNMENT/MarketplaceContract.sol\":2876:2910  listings[allListedNFTsIds[i]].sold */\n      0x05\n      add\n      0x00\n      swap1\n      sload\n      swap1\n      0x0100\n      exp\n      swap1\n      div\n      0xff\n      and\n        /* \"IT/LIT2025032/NFT_MARKETPLACE_ASSIGNMENT/MarketplaceContract.sol\":2871:3027  if (!listings[allListedNFTsIds[i]].sold){... */\n      tag_58\n      jumpi\n        /* \"IT/LIT2025032/NFT_MARKETPLACE_ASSIGNMENT/MarketplaceContract.sol\":2956:2964  listings */\n      0x02\n        /* \"IT/LIT2025032/NFT_MARKETPLACE_ASSIGNMENT/MarketplaceContract.sol\":2956:2985  listings[allListedNFTsIds[i]] */\n      0x00\n        /* \"IT/LIT2025032/NFT_MARKETPLACE_ASSIGNMENT/MarketplaceContract.sol\":2965:2981  allListedNFTsIds */\n      0x03\n        /* \"IT/LIT2025032/NFT_MARKETPLACE_ASSIGNMENT/MarketplaceContract.sol\":2982:2983  i */\n      dup4\n        /* \"IT/LIT2025032/NFT_MARKETPLACE_ASSIGNMENT/MarketplaceContract.sol\":2965:2984  allListedNFTsIds[i] */\n      dup2\n      sload\n      dup2\n      lt\n      tag_59\n      jumpi\n      tag_60\n      tag_40\n      jump\t// in\n    tag_60:\n    tag_59:\n      swap1\n      0x00\n      mstore\n      keccak256(0x00, 0x20)\n      add\n      sload\n        /* \"IT/LIT2025032/NFT_MARKETPLACE_ASSIGNMENT/MarketplaceContract.sol\":2956:2985  listings[allListedNFTsIds[i]] */\n      dup2\n      mstore\n      0x20\n      add\n      swap1\n      dup2\n      mstore\n      0x20\n      add\n      0x00\n      keccak256\n        /* \"IT/LIT2025032/NFT_MARKETPLACE_ASSIGNMENT/MarketplaceContract.sol\":2930:2985  list_of_all_NFTs[index] = listings[allListedNFTsIds[i]] */\n      mload(0x40)\n      dup1\n      0x80\n      add\n      0x40\n      mstore\n      swap1\n      dup2\n      0x00\n      dup3\n      add\n      mload(0x40)\n      dup1\n      0x60\n      add\n      0x40\n      mstore\n      swap1\n      dup2\n      0x00\n      dup3\n      add\n      sload\n      dup2\n      mstore\n      0x20\n      add\n      0x01\n      dup3\n      add\n      dup1\n      sload\n      tag_62\n      swap1\n      tag_63\n      jump\t// in\n    tag_62:\n      dup1\n      0x1f\n      add\n      0x20\n      dup1\n      swap2\n      div\n      mul\n      0x20\n      add\n      mload(0x40)\n      swap1\n      dup2\n      add\n      0x40\n      mstore\n      dup1\n      swap3\n      swap2\n      swap1\n      dup2\n      dup2\n      mstore\n      0x20\n      add\n      dup3\n      dup1\n      sload\n      tag_64\n      swap1\n      tag_63\n      jump\t// in\n    tag_64:\n      dup1\n      iszero\n      tag_65\n      jumpi\n      dup1\n      0x1f\n      lt\n      tag_66\n      jumpi\n      0x0100\n      dup1\n      dup4\n      sload\n      div\n      mul\n      dup4\n      mstore\n      swap2\n      0x20\n      add\n      swap2\n      jump(tag_65)\n    tag_66:\n      dup3\n      add\n      swap2\n      swap1\n      0x00\n      mstore\n      keccak256(0x00, 0x20)\n      swap1\n    tag_67:\n      dup2\n      sload\n      dup2\n      mstore\n      swap1\n      0x01\n      add\n      swap1\n      0x20\n      add\n      dup1\n      dup4\n      gt\n      tag_67\n      jumpi\n      dup3\n      swap1\n      sub\n      0x1f\n      and\n      dup3\n      add\n      swap2\n    tag_65:\n      pop\n      pop\n      pop\n      pop\n      pop\n      dup2\n      mstore\n      0x20\n      add\n      0x02\n      dup3\n      add\n      dup1\n      sload\n      tag_68\n      swap1\n      tag_63\n      jump\t// in\n    tag_68:\n      dup1\n      0x1f\n      add\n      0x20\n      dup1\n      swap2\n      div\n      mul\n      0x20\n      add\n      mload(0x40)\n      swap1\n      dup2\n      add\n      0x40\n      mstore\n      dup1\n      swap3\n      swap2\n      swap1\n      dup2\n      dup2\n      mstore\n      0x20\n      add\n      dup3\n      dup1\n      sload\n      tag_69\n      swap1\n      tag_63\n      jump\t// in\n    tag_69:\n      dup1\n      iszero\n      tag_70\n      jumpi\n      dup1\n      0x1f\n      lt\n      tag_71\n      jumpi\n      0x0100\n      dup1\n      dup4\n      sload\n      div\n      mul\n      dup4\n      mstore\n      swap2\n      0x20\n      add\n      swap2\n      jump(tag_70)\n    tag_71:\n      dup3\n      add\n      swap2\n      swap1\n      0x00\n      mstore\n      keccak256(0x00, 0x20)\n      swap1\n    tag_72:\n      dup2\n      sload\n      dup2\n      mstore\n      swap1\n      0x01\n      add\n      swap1\n      0x20\n      add\n      dup1\n      dup4\n      gt\n      tag_72\n      jumpi\n      dup3\n      swap1\n      sub\n      0x1f\n      and\n      dup3\n      add\n      swap2\n    tag_70:\n      pop\n      pop\n      pop\n      pop\n      pop\n      dup2\n      mstore\n      pop\n      pop\n      dup2\n      mstore\n      0x20\n      add\n      0x03\n      dup3\n      add\n      0x00\n      swap1\n      sload\n      swap1\n      0x0100\n      exp\n      swap1\n      div\n      0xffffffffffffffffffffffffffffffffffffffff\n      and\n      0xffffffffffffffffffffffffffffffffffffffff\n      and\n      0xffffffffffffffffffffffffffffffffffffffff\n      and\n      dup2\n      mstore\n      0x20\n      add\n      0x04\n      dup3\n      add\n      sload\n      dup2\n      mstore\n      0x20\n      add\n      0x05\n      dup3\n      add\n      0x00\n      swap1\n      sload\n      swap1\n      0x0100\n      exp\n      swap1\n      div\n      0xff\n      and\n      iszero\n      iszero\n      iszero\n      iszero\n      dup2\n      mstore\n      pop\n      pop\n        /* \"IT/LIT2025032/NFT_MARKETPLACE_ASSIGNMENT/MarketplaceContract.sol\":2930:2946  list_of_all_NFTs */\n      dup4\n        /* \"IT/LIT2025032/NFT_MARKETPLACE_ASSIGNMENT/MarketplaceContract.sol\":2947:2952  index */\n      dup4\n        /* \"IT/LIT2025032/NFT_MARKETPLACE_ASSIGNMENT/MarketplaceContract.sol\":2930:2953  list_of_all_NFTs[index] */\n      dup2\n      mload\n      dup2\n      lt\n      tag_73\n      jumpi\n      tag_74\n      tag_40\n      jump\t// in\n    tag_74:\n    tag_73:\n      0x20\n      mul\n      0x20\n      add\n      add\n        /* \"IT/LIT2025032/NFT_MARKETPLACE_ASSIGNMENT/MarketplaceContract.sol\":2930:2985  list_of_all_NFTs[index] = listings[allListedNFTsIds[i]] */\n      dup2\n      swap1\n      mstore\n      pop\n        /* \"IT/LIT2025032/NFT_MARKETPLACE_ASSIGNMENT/MarketplaceContract.sol\":3004:3011  index++ */\n      dup2\n      dup1\n      tag_75\n      swap1\n      tag_44\n      jump\t// in\n    tag_75:\n      swap3\n      pop\n      pop\n        /* \"IT/LIT2025032/NFT_MARKETPLACE_ASSIGNMENT/MarketplaceContract.sol\":2871:3027  if (!listings[allListedNFTsIds[i]].sold){... */\n    tag_58:\n        /* \"IT/LIT2025032/NFT_MARKETPLACE_ASSIGNMENT/MarketplaceContract.sol\":2852:2855  i++ */\n      dup1\n      dup1\n      0x01\n      add\n      swap2\n      pop\n      pop\n        /* \"IT/LIT2025032/NFT_MARKETPLACE_ASSIGNMENT/MarketplaceContract.sol\":2804:3038  for (uint256 i = 0 ; i<allListedNFTsIds.length; i++){... */\n      jump(tag_52)\n    tag_53:\n      pop\n        /* \"IT/LIT2025032/NFT_MARKETPLACE_ASSIGNMENT/MarketplaceContract.sol\":3057:3073  list_of_all_NFTs */\n      dup2\n        /* \"IT/LIT2025032/NFT_MARKETPLACE_ASSIGNMENT/MarketplaceContract.sol\":3050:3073  return list_of_all_NFTs */\n      swap4\n      pop\n      pop\n      pop\n      pop\n        /* \"IT/LIT2025032/NFT_MARKETPLACE_ASSIGNMENT/MarketplaceContract.sol\":2435:3081  function allListedNFTs() public view returns (Listing[] memory){... */\n      swap1\n      jump\t// out\n        /* \"IT/LIT2025032/NFT_MARKETPLACE_ASSIGNMENT/MarketplaceContract.sol\":1898:2427  function buyNFT(uint256 NFTid) public {... */\n    tag_16:\n        /* \"IT/LIT2025032/NFT_MARKETPLACE_ASSIGNMENT/MarketplaceContract.sol\":1989:1990  0 */\n      0x00\n        /* \"IT/LIT2025032/NFT_MARKETPLACE_ASSIGNMENT/MarketplaceContract.sol\":1955:1991  listings[NFTid].seller != address(0) */\n      0xffffffffffffffffffffffffffffffffffffffff\n      and\n        /* \"IT/LIT2025032/NFT_MARKETPLACE_ASSIGNMENT/MarketplaceContract.sol\":1955:1963  listings */\n      0x02\n        /* \"IT/LIT2025032/NFT_MARKETPLACE_ASSIGNMENT/MarketplaceContract.sol\":1955:1970  listings[NFTid] */\n      0x00\n        /* \"IT/LIT2025032/NFT_MARKETPLACE_ASSIGNMENT/MarketplaceContract.sol\":1964:1969  NFTid */\n      dup4\n        /* \"IT/LIT2025032/NFT_MARKETPLACE_ASSIGNMENT/MarketplaceContract.sol\":1955:1970  listings[NFTid] */\n      dup2\n      mstore\n      0x20\n      add\n      swap1\n      dup2\n      mstore\n      0x20\n      add\n      0x00\n      keccak256\n        /* \"IT/LIT2025032/NFT_MARKETPLACE_ASSIGNMENT/MarketplaceContract.sol\":1955:1977  listings[NFTid].seller */\n      0x03\n      add\n      0x00\n      swap1\n      sload\n      swap1\n      0x0100\n      exp\n      swap1\n      div\n      0xffffffffffffffffffffffffffffffffffffffff\n      and\n        /* \"IT/LIT2025032/NFT_MARKETPLACE_ASSIGNMENT/MarketplaceContract.sol\":1955:1991  listings[NFTid].seller != address(0) */\n      0xffffffffffffffffffffffffffffffffffffffff\n      and\n      sub\n        /* \"IT/LIT2025032/NFT_MARKETPLACE_ASSIGNMENT/MarketplaceContract.sol\":1947:2010  require(listings[NFTid].seller != address(0), \"NFT not listed\") */\n      tag_77\n      jumpi\n      mload(0x40)\n      0x08c379a000000000000000000000000000000000000000000000000000000000\n      dup2\n      mstore\n      0x04\n      add\n      tag_78\n      swap1\n      tag_79\n      jump\t// in\n    tag_78:\n      mload(0x40)\n      dup1\n      swap2\n      sub\n      swap1\n      revert\n    tag_77:\n        /* \"IT/LIT2025032/NFT_MARKETPLACE_ASSIGNMENT/MarketplaceContract.sol\":2030:2038  listings */\n      0x02\n        /* \"IT/LIT2025032/NFT_MARKETPLACE_ASSIGNMENT/MarketplaceContract.sol\":2030:2045  listings[NFTid] */\n      0x00\n        /* \"IT/LIT2025032/NFT_MARKETPLACE_ASSIGNMENT/MarketplaceContract.sol\":2039:2044  NFTid */\n      dup3\n        /* \"IT/LIT2025032/NFT_MARKETPLACE_ASSIGNMENT/MarketplaceContract.sol\":2030:2045  listings[NFTid] */\n      dup2\n      mstore\n      0x20\n      add\n      swap1\n      dup2\n      mstore\n      0x20\n      add\n      0x00\n      keccak256\n        /* \"IT/LIT2025032/NFT_MARKETPLACE_ASSIGNMENT/MarketplaceContract.sol\":2030:2050  listings[NFTid].sold */\n      0x05\n      add\n      0x00\n      swap1\n      sload\n      swap1\n      0x0100\n      exp\n      swap1\n      div\n      0xff\n      and\n        /* \"IT/LIT2025032/NFT_MARKETPLACE_ASSIGNMENT/MarketplaceContract.sol\":2029:2050  !listings[NFTid].sold */\n      iszero\n        /* \"IT/LIT2025032/NFT_MARKETPLACE_ASSIGNMENT/MarketplaceContract.sol\":2021:2071  require(!listings[NFTid].sold, \"NFT Already sold\") */\n      tag_80\n      jumpi\n      mload(0x40)\n      0x08c379a000000000000000000000000000000000000000000000000000000000\n      dup2\n      mstore\n      0x04\n      add\n      tag_81\n      swap1\n      tag_82\n      jump\t// in\n    tag_81:\n      mload(0x40)\n      dup1\n      swap2\n      sub\n      swap1\n      revert\n    tag_80:\n        /* \"IT/LIT2025032/NFT_MARKETPLACE_ASSIGNMENT/MarketplaceContract.sol\":2123:2131  listings */\n      0x02\n        /* \"IT/LIT2025032/NFT_MARKETPLACE_ASSIGNMENT/MarketplaceContract.sol\":2123:2138  listings[NFTid] */\n      0x00\n        /* \"IT/LIT2025032/NFT_MARKETPLACE_ASSIGNMENT/MarketplaceContract.sol\":2132:2137  NFTid */\n      dup3\n        /* \"IT/LIT2025032/NFT_MARKETPLACE_ASSIGNMENT/MarketplaceContract.sol\":2123:2138  listings[NFTid] */\n      dup2\n      mstore\n      0x20\n      add\n      swap1\n      dup2\n      mstore\n      0x20\n      add\n      0x00\n      keccak256\n        /* \"IT/LIT2025032/NFT_MARKETPLACE_ASSIGNMENT/MarketplaceContract.sol\":2123:2144  listings[NFTid].price */\n      0x04\n      add\n      sload\n        /* \"IT/LIT2025032/NFT_MARKETPLACE_ASSIGNMENT/MarketplaceContract.sol\":2090:2095  token */\n      0x00\n      0x00\n      swap1\n      sload\n      swap1\n      0x0100\n      exp\n      swap1\n      div\n      0xffffffffffffffffffffffffffffffffffffffff\n      and\n        /* \"IT/LIT2025032/NFT_MARKETPLACE_ASSIGNMENT/MarketplaceContract.sol\":2090:2109  token.balanceOfUser */\n      0xffffffffffffffffffffffffffffffffffffffff\n      and\n      0x12cae7af\n        /* \"IT/LIT2025032/NFT_MARKETPLACE_ASSIGNMENT/MarketplaceContract.sol\":2110:2120  msg.sender */\n      caller\n        /* \"IT/LIT2025032/NFT_MARKETPLACE_ASSIGNMENT/MarketplaceContract.sol\":2090:2121  token.balanceOfUser(msg.sender) */\n      mload(0x40)\n      dup3\n      0xffffffff\n      and\n      0xe0\n      shl\n      dup2\n      mstore\n      0x04\n      add\n      tag_83\n      swap2\n      swap1\n      tag_84\n      jump\t// in\n    tag_83:\n      0x20\n      mload(0x40)\n      dup1\n      dup4\n      sub\n      dup2\n      dup7\n      gas\n      staticcall\n      iszero\n      dup1\n      iszero\n      tag_86\n      jumpi\n      returndatacopy(0x00, 0x00, returndatasize)\n      revert(0x00, returndatasize)\n    tag_86:\n      pop\n      pop\n      pop\n      pop\n      mload(0x40)\n      returndatasize\n      not(0x1f)\n      0x1f\n      dup3\n      add\n      and\n      dup3\n      add\n      dup1\n      0x40\n      mstore\n      pop\n      dup2\n      add\n      swap1\n      tag_87\n      swap2\n      swap1\n      tag_88\n      jump\t// in\n    tag_87:\n        /* \"IT/LIT2025032/NFT_MARKETPLACE_ASSIGNMENT/MarketplaceContract.sol\":2090:2144  token.balanceOfUser(msg.sender)>=listings[NFTid].price */\n      lt\n      iszero\n        /* \"IT/LIT2025032/NFT_MARKETPLACE_ASSIGNMENT/MarketplaceContract.sol\":2082:2179  require(token.balanceOfUser(msg.sender)>=listings[NFTid].price, \"Insufficient tokens to buy NFT\") */\n      tag_89\n      jumpi\n      mload(0x40)\n      0x08c379a000000000000000000000000000000000000000000000000000000000\n      dup2\n      mstore\n      0x04\n      add\n      tag_90\n      swap1\n      tag_91\n      jump\t// in\n    tag_90:\n      mload(0x40)\n      dup1\n      swap2\n      sub\n      swap1\n      revert\n    tag_89:\n        /* \"IT/LIT2025032/NFT_MARKETPLACE_ASSIGNMENT/MarketplaceContract.sol\":2192:2197  token */\n      0x00\n      0x00\n      swap1\n      sload\n      swap1\n      0x0100\n      exp\n      swap1\n      div\n      0xffffffffffffffffffffffffffffffffffffffff\n      and\n        /* \"IT/LIT2025032/NFT_MARKETPLACE_ASSIGNMENT/MarketplaceContract.sol\":2192:2210  token.transferFrom */\n      0xffffffffffffffffffffffffffffffffffffffff\n      and\n      0x23b872dd\n        /* \"IT/LIT2025032/NFT_MARKETPLACE_ASSIGNMENT/MarketplaceContract.sol\":2211:2221  msg.sender */\n      caller\n        /* \"IT/LIT2025032/NFT_MARKETPLACE_ASSIGNMENT/MarketplaceContract.sol\":2222:2230  listings */\n      0x02\n        /* \"IT/LIT2025032/NFT_MARKETPLACE_ASSIGNMENT/MarketplaceContract.sol\":2222:2237  listings[NFTid] */\n      0x00\n        /* \"IT/LIT2025032/NFT_MARKETPLACE_ASSIGNMENT/MarketplaceContract.sol\":2231:2236  NFTid */\n      dup6\n        /* \"IT/LIT2025032/NFT_MARKETPLACE_ASSIGNMENT/MarketplaceContract.sol\":2222:2237  listings[NFTid] */\n      dup2\n      mstore\n      0x20\n      add\n      swap1\n      dup2\n      mstore\n      0x20\n      add\n      0x00\n      keccak256\n        /* \"IT/LIT2025032/NFT_MARKETPLACE_ASSIGNMENT/MarketplaceContract.sol\":2222:2244  listings[NFTid].seller */\n      0x03\n      add\n      0x00\n      swap1\n      sload\n      swap1\n      0x0100\n      exp\n      swap1\n      div\n      0xffffffffffffffffffffffffffffffffffffffff\n      and\n        /* \"IT/LIT2025032/NFT_MARKETPLACE_ASSIGNMENT/MarketplaceContract.sol\":2245:2253  listings */\n      0x02\n        /* \"IT/LIT2025032/NFT_MARKETPLACE_ASSIGNMENT/MarketplaceContract.sol\":2245:2260  listings[NFTid] */\n      0x00\n        /* \"IT/LIT2025032/NFT_MARKETPLACE_ASSIGNMENT/MarketplaceContract.sol\":2254:2259  NFTid */\n      dup7\n        /* \"IT/LIT2025032/NFT_MARKETPLACE_ASSIGNMENT/MarketplaceContract.sol\":2245:2260  listings[NFTid] */\n      dup2\n      mstore\n      0x20\n      add\n      swap1\n      dup2\n      mstore\n      0x20\n      add\n      0x00\n      keccak256\n        /* \"IT/LIT2025032/NFT_MARKETPLACE_ASSIGNMENT/MarketplaceContract.sol\":2245:2266  listings[NFTid].price */\n      0x04\n      add\n      sload\n        /* \"IT/LIT2025032/NFT_MARKETPLACE_ASSIGNMENT/MarketplaceContract.sol\":2192:2267  token.transferFrom(msg.sender,listings[NFTid].seller,listings[NFTid].price) */\n      mload(0x40)\n      dup5\n      0xffffffff\n      and\n      0xe0\n      shl\n      dup2\n      mstore\n      0x04\n      add\n      tag_92\n      swap4\n      swap3\n      swap2\n      swap1\n      tag_93\n      jump\t// in\n    tag_92:\n      0x20\n      mload(0x40)\n      dup1\n      dup4\n      sub\n      dup2\n      0x00\n      dup8\n      gas\n      call\n      iszero\n      dup1\n      iszero\n      tag_95\n      jumpi\n      returndatacopy(0x00, 0x00, returndatasize)\n      revert(0x00, returndatasize)\n    tag_95:\n      pop\n      pop\n      pop\n      pop\n      mload(0x40)\n      returndatasize\n      not(0x1f)\n      0x1f\n      dup3\n      add\n      and\n      dup3\n      add\n      dup1\n      0x40\n      mstore\n      pop\n      dup2\n      add\n      swap1\n      tag_96\n      swap2\n      swap1\n      tag_97\n      jump\t// in\n    tag_96:\n      pop\n        /* \"IT/LIT2025032/NFT_MARKETPLACE_ASSIGNMENT/MarketplaceContract.sol\":2278:2281  nft */\n      0x01\n      0x00\n      swap1\n      sload\n      swap1\n      0x0100\n      exp\n      swap1\n      div\n      0xffffffffffffffffffffffffffffffffffffffff\n      and\n        /* \"IT/LIT2025032/NFT_MARKETPLACE_ASSIGNMENT/MarketplaceContract.sol\":2278:2293  nft.transferNFT */\n      0xffffffffffffffffffffffffffffffffffffffff\n      and\n      0x2aafe132\n        /* \"IT/LIT2025032/NFT_MARKETPLACE_ASSIGNMENT/MarketplaceContract.sol\":2294:2299  NFTid */\n      dup3\n        /* \"IT/LIT2025032/NFT_MARKETPLACE_ASSIGNMENT/MarketplaceContract.sol\":2308:2312  this */\n      address\n        /* \"IT/LIT2025032/NFT_MARKETPLACE_ASSIGNMENT/MarketplaceContract.sol\":2314:2324  msg.sender */\n      caller\n        /* \"IT/LIT2025032/NFT_MARKETPLACE_ASSIGNMENT/MarketplaceContract.sol\":2278:2325  nft.transferNFT(NFTid,address(this),msg.sender) */\n      mload(0x40)\n      dup5\n      0xffffffff\n      and\n      0xe0\n      shl\n      dup2\n      mstore\n      0x04\n      add\n      tag_98\n      swap4\n      swap3\n      swap2\n      swap1\n      tag_99\n      jump\t// in\n    tag_98:\n      0x00\n      mload(0x40)\n      dup1\n      dup4\n      sub\n      dup2\n      0x00\n      dup8\n      dup1\n      extcodesize\n      iszero\n      dup1\n      iszero\n      tag_100\n      jumpi\n      revert(0x00, 0x00)\n    tag_100:\n      pop\n      gas\n      call\n      iszero\n      dup1\n      iszero\n      tag_102\n      jumpi\n      returndatacopy(0x00, 0x00, returndatasize)\n      revert(0x00, returndatasize)\n    tag_102:\n      pop\n      pop\n      pop\n      pop\n        /* \"IT/LIT2025032/NFT_MARKETPLACE_ASSIGNMENT/MarketplaceContract.sol\":2359:2363  true */\n      0x01\n        /* \"IT/LIT2025032/NFT_MARKETPLACE_ASSIGNMENT/MarketplaceContract.sol\":2338:2346  listings */\n      0x02\n        /* \"IT/LIT2025032/NFT_MARKETPLACE_ASSIGNMENT/MarketplaceContract.sol\":2338:2353  listings[NFTid] */\n      0x00\n        /* \"IT/LIT2025032/NFT_MARKETPLACE_ASSIGNMENT/MarketplaceContract.sol\":2347:2352  NFTid */\n      dup4\n        /* \"IT/LIT2025032/NFT_MARKETPLACE_ASSIGNMENT/MarketplaceContract.sol\":2338:2353  listings[NFTid] */\n      dup2\n      mstore\n      0x20\n      add\n      swap1\n      dup2\n      mstore\n      0x20\n      add\n      0x00\n      keccak256\n        /* \"IT/LIT2025032/NFT_MARKETPLACE_ASSIGNMENT/MarketplaceContract.sol\":2338:2358  listings[NFTid].sold */\n      0x05\n      add\n      0x00\n        /* \"IT/LIT2025032/NFT_MARKETPLACE_ASSIGNMENT/MarketplaceContract.sol\":2338:2363  listings[NFTid].sold=true */\n      0x0100\n      exp\n      dup2\n      sload\n      dup2\n      0xff\n      mul\n      not\n      and\n      swap1\n      dup4\n      iszero\n      iszero\n      mul\n      or\n      swap1\n      sstore\n      pop\n        /* \"IT/LIT2025032/NFT_MARKETPLACE_ASSIGNMENT/MarketplaceContract.sol\":2374:2393  purchasedNFTsOfUser */\n      0x04\n        /* \"IT/LIT2025032/NFT_MARKETPLACE_ASSIGNMENT/MarketplaceContract.sol\":2374:2405  purchasedNFTsOfUser[msg.sender] */\n      0x00\n        /* \"IT/LIT2025032/NFT_MARKETPLACE_ASSIGNMENT/MarketplaceContract.sol\":2394:2404  msg.sender */\n      caller\n        /* \"IT/LIT2025032/NFT_MARKETPLACE_ASSIGNMENT/MarketplaceContract.sol\":2374:2405  purchasedNFTsOfUser[msg.sender] */\n      0xffffffffffffffffffffffffffffffffffffffff\n      and\n      0xffffffffffffffffffffffffffffffffffffffff\n      and\n      dup2\n      mstore\n      0x20\n      add\n      swap1\n      dup2\n      mstore\n      0x20\n      add\n      0x00\n      keccak256\n        /* \"IT/LIT2025032/NFT_MARKETPLACE_ASSIGNMENT/MarketplaceContract.sol\":2411:2416  NFTid */\n      dup2\n        /* \"IT/LIT2025032/NFT_MARKETPLACE_ASSIGNMENT/MarketplaceContract.sol\":2374:2417  purchasedNFTsOfUser[msg.sender].push(NFTid) */\n      swap1\n      dup1\n      0x01\n      dup2\n      sload\n      add\n      dup1\n      dup3\n      sstore\n      dup1\n      swap2\n      pop\n      pop\n      0x01\n      swap1\n      sub\n      swap1\n      0x00\n      mstore\n      keccak256(0x00, 0x20)\n      add\n      0x00\n      swap1\n      swap2\n      swap1\n      swap2\n      swap1\n      swap2\n      pop\n      sstore\n        /* \"IT/LIT2025032/NFT_MARKETPLACE_ASSIGNMENT/MarketplaceContract.sol\":1898:2427  function buyNFT(uint256 NFTid) public {... */\n      pop\n      jump\t// out\n        /* \"IT/LIT2025032/NFT_MARKETPLACE_ASSIGNMENT/MarketplaceContract.sol\":3089:3746  function allSoldNFTs() public view returns (Listing[] memory){... */\n    tag_18:\n        /* \"IT/LIT2025032/NFT_MARKETPLACE_ASSIGNMENT/MarketplaceContract.sol\":3133:3149  Listing[] memory */\n      0x60\n        /* \"IT/LIT2025032/NFT_MARKETPLACE_ASSIGNMENT/MarketplaceContract.sol\":3161:3174  uint256 count */\n      0x00\n        /* \"IT/LIT2025032/NFT_MARKETPLACE_ASSIGNMENT/MarketplaceContract.sol\":3177:3178  0 */\n      0x00\n        /* \"IT/LIT2025032/NFT_MARKETPLACE_ASSIGNMENT/MarketplaceContract.sol\":3161:3178  uint256 count = 0 */\n      swap1\n      pop\n        /* \"IT/LIT2025032/NFT_MARKETPLACE_ASSIGNMENT/MarketplaceContract.sol\":3194:3203  uint256 i */\n      0x00\n        /* \"IT/LIT2025032/NFT_MARKETPLACE_ASSIGNMENT/MarketplaceContract.sol\":3206:3207  0 */\n      0x00\n        /* \"IT/LIT2025032/NFT_MARKETPLACE_ASSIGNMENT/MarketplaceContract.sol\":3194:3207  uint256 i = 0 */\n      swap1\n      pop\n        /* \"IT/LIT2025032/NFT_MARKETPLACE_ASSIGNMENT/MarketplaceContract.sol\":3189:3348  for (uint256 i = 0 ; i<allListedNFTsIds.length; i++){... */\n    tag_105:\n        /* \"IT/LIT2025032/NFT_MARKETPLACE_ASSIGNMENT/MarketplaceContract.sol\":3212:3228  allListedNFTsIds */\n      0x03\n        /* \"IT/LIT2025032/NFT_MARKETPLACE_ASSIGNMENT/MarketplaceContract.sol\":3212:3235  allListedNFTsIds.length */\n      dup1\n      sload\n      swap1\n      pop\n        /* \"IT/LIT2025032/NFT_MARKETPLACE_ASSIGNMENT/MarketplaceContract.sol\":3210:3211  i */\n      dup2\n        /* \"IT/LIT2025032/NFT_MARKETPLACE_ASSIGNMENT/MarketplaceContract.sol\":3210:3235  i<allListedNFTsIds.length */\n      lt\n        /* \"IT/LIT2025032/NFT_MARKETPLACE_ASSIGNMENT/MarketplaceContract.sol\":3189:3348  for (uint256 i = 0 ; i<allListedNFTsIds.length; i++){... */\n      iszero\n      tag_106\n      jumpi\n        /* \"IT/LIT2025032/NFT_MARKETPLACE_ASSIGNMENT/MarketplaceContract.sol\":3260:3268  listings */\n      0x02\n        /* \"IT/LIT2025032/NFT_MARKETPLACE_ASSIGNMENT/MarketplaceContract.sol\":3260:3289  listings[allListedNFTsIds[i]] */\n      0x00\n        /* \"IT/LIT2025032/NFT_MARKETPLACE_ASSIGNMENT/MarketplaceContract.sol\":3269:3285  allListedNFTsIds */\n      0x03\n        /* \"IT/LIT2025032/NFT_MARKETPLACE_ASSIGNMENT/MarketplaceContract.sol\":3286:3287  i */\n      dup4\n        /* \"IT/LIT2025032/NFT_MARKETPLACE_ASSIGNMENT/MarketplaceContract.sol\":3269:3288  allListedNFTsIds[i] */\n      dup2\n      sload\n      dup2\n      lt\n      tag_108\n      jumpi\n      tag_109\n      tag_40\n      jump\t// in\n    tag_109:\n    tag_108:\n      swap1\n      0x00\n      mstore\n      keccak256(0x00, 0x20)\n      add\n      sload\n        /* \"IT/LIT2025032/NFT_MARKETPLACE_ASSIGNMENT/MarketplaceContract.sol\":3260:3289  listings[allListedNFTsIds[i]] */\n      dup2\n      mstore\n      0x20\n      add\n      swap1\n      dup2\n      mstore\n      0x20\n      add\n      0x00\n      keccak256\n        /* \"IT/LIT2025032/NFT_MARKETPLACE_ASSIGNMENT/MarketplaceContract.sol\":3260:3294  listings[allListedNFTsIds[i]].sold */\n      0x05\n      add\n      0x00\n      swap1\n      sload\n      swap1\n      0x0100\n      exp\n      swap1\n      div\n      0xff\n      and\n        /* \"IT/LIT2025032/NFT_MARKETPLACE_ASSIGNMENT/MarketplaceContract.sol\":3256:3337  if (listings[allListedNFTsIds[i]].sold){... */\n      iszero\n      tag_111\n      jumpi\n        /* \"IT/LIT2025032/NFT_MARKETPLACE_ASSIGNMENT/MarketplaceContract.sol\":3314:3321  count++ */\n      dup2\n      dup1\n      tag_112\n      swap1\n      tag_44\n      jump\t// in\n    tag_112:\n      swap3\n      pop\n      pop\n        /* \"IT/LIT2025032/NFT_MARKETPLACE_ASSIGNMENT/MarketplaceContract.sol\":3256:3337  if (listings[allListedNFTsIds[i]].sold){... */\n    tag_111:\n        /* \"IT/LIT2025032/NFT_MARKETPLACE_ASSIGNMENT/MarketplaceContract.sol\":3237:3240  i++ */\n      dup1\n      dup1\n      0x01\n      add\n      swap2\n      pop\n      pop\n        /* \"IT/LIT2025032/NFT_MARKETPLACE_ASSIGNMENT/MarketplaceContract.sol\":3189:3348  for (uint256 i = 0 ; i<allListedNFTsIds.length; i++){... */\n      jump(tag_105)\n    tag_106:\n      pop\n        /* \"IT/LIT2025032/NFT_MARKETPLACE_ASSIGNMENT/MarketplaceContract.sol\":3360:3398  Listing[] memory list_of_all_sold_NFTs */\n      0x00\n        /* \"IT/LIT2025032/NFT_MARKETPLACE_ASSIGNMENT/MarketplaceContract.sol\":3415:3420  count */\n      dup2\n        /* \"IT/LIT2025032/NFT_MARKETPLACE_ASSIGNMENT/MarketplaceContract.sol\":3401:3421  new Listing[](count) */\n      0xffffffffffffffff\n      dup2\n      gt\n      iszero\n      tag_113\n      jumpi\n      tag_114\n      tag_47\n      jump\t// in\n    tag_114:\n    tag_113:\n      mload(0x40)\n      swap1\n      dup1\n      dup3\n      mstore\n      dup1\n      0x20\n      mul\n      0x20\n      add\n      dup3\n      add\n      0x40\n      mstore\n      dup1\n      iszero\n      tag_115\n      jumpi\n      dup2\n      0x20\n      add\n    tag_116:\n      tag_117\n      tag_51\n      jump\t// in\n    tag_117:\n      dup2\n      mstore\n      0x20\n      add\n      swap1\n      0x01\n      swap1\n      sub\n      swap1\n      dup2\n      tag_116\n      jumpi\n      swap1\n      pop\n    tag_115:\n      pop\n        /* \"IT/LIT2025032/NFT_MARKETPLACE_ASSIGNMENT/MarketplaceContract.sol\":3360:3421  Listing[] memory list_of_all_sold_NFTs = new Listing[](count) */\n      swap1\n      pop\n        /* \"IT/LIT2025032/NFT_MARKETPLACE_ASSIGNMENT/MarketplaceContract.sol\":3434:3447  uint256 index */\n      0x00\n        /* \"IT/LIT2025032/NFT_MARKETPLACE_ASSIGNMENT/MarketplaceContract.sol\":3448:3449  0 */\n      0x00\n        /* \"IT/LIT2025032/NFT_MARKETPLACE_ASSIGNMENT/MarketplaceContract.sol\":3434:3449  uint256 index=0 */\n      swap1\n      pop\n        /* \"IT/LIT2025032/NFT_MARKETPLACE_ASSIGNMENT/MarketplaceContract.sol\":3465:3474  uint256 i */\n      0x00\n        /* \"IT/LIT2025032/NFT_MARKETPLACE_ASSIGNMENT/MarketplaceContract.sol\":3477:3478  0 */\n      0x00\n        /* \"IT/LIT2025032/NFT_MARKETPLACE_ASSIGNMENT/MarketplaceContract.sol\":3465:3478  uint256 i = 0 */\n      swap1\n      pop\n        /* \"IT/LIT2025032/NFT_MARKETPLACE_ASSIGNMENT/MarketplaceContract.sol\":3460:3698  for (uint256 i = 0 ; i<allListedNFTsIds.length; i++){... */\n    tag_118:\n        /* \"IT/LIT2025032/NFT_MARKETPLACE_ASSIGNMENT/MarketplaceContract.sol\":3483:3499  allListedNFTsIds */\n      0x03\n        /* \"IT/LIT2025032/NFT_MARKETPLACE_ASSIGNMENT/MarketplaceContract.sol\":3483:3506  allListedNFTsIds.length */\n      dup1\n      sload\n      swap1\n      pop\n        /* \"IT/LIT2025032/NFT_MARKETPLACE_ASSIGNMENT/MarketplaceContract.sol\":3481:3482  i */\n      dup2\n        /* \"IT/LIT2025032/NFT_MARKETPLACE_ASSIGNMENT/MarketplaceContract.sol\":3481:3506  i<allListedNFTsIds.length */\n      lt\n        /* \"IT/LIT2025032/NFT_MARKETPLACE_ASSIGNMENT/MarketplaceContract.sol\":3460:3698  for (uint256 i = 0 ; i<allListedNFTsIds.length; i++){... */\n      iszero\n      tag_119\n      jumpi\n        /* \"IT/LIT2025032/NFT_MARKETPLACE_ASSIGNMENT/MarketplaceContract.sol\":3531:3539  listings */\n      0x02\n        /* \"IT/LIT2025032/NFT_MARKETPLACE_ASSIGNMENT/MarketplaceContract.sol\":3531:3560  listings[allListedNFTsIds[i]] */\n      0x00\n        /* \"IT/LIT2025032/NFT_MARKETPLACE_ASSIGNMENT/MarketplaceContract.sol\":3540:3556  allListedNFTsIds */\n      0x03\n        /* \"IT/LIT2025032/NFT_MARKETPLACE_ASSIGNMENT/MarketplaceContract.sol\":3557:3558  i */\n      dup4\n        /* \"IT/LIT2025032/NFT_MARKETPLACE_ASSIGNMENT/MarketplaceContract.sol\":3540:3559  allListedNFTsIds[i] */\n      dup2\n      sload\n      dup2\n      lt\n      tag_121\n      jumpi\n      tag_122\n      tag_40\n      jump\t// in\n    tag_122:\n    tag_121:\n      swap1\n      0x00\n      mstore\n      keccak256(0x00, 0x20)\n      add\n      sload\n        /* \"IT/LIT2025032/NFT_MARKETPLACE_ASSIGNMENT/MarketplaceContract.sol\":3531:3560  listings[allListedNFTsIds[i]] */\n      dup2\n      mstore\n      0x20\n      add\n      swap1\n      dup2\n      mstore\n      0x20\n      add\n      0x00\n      keccak256\n        /* \"IT/LIT2025032/NFT_MARKETPLACE_ASSIGNMENT/MarketplaceContract.sol\":3531:3565  listings[allListedNFTsIds[i]].sold */\n      0x05\n      add\n      0x00\n      swap1\n      sload\n      swap1\n      0x0100\n      exp\n      swap1\n      div\n      0xff\n      and\n        /* \"IT/LIT2025032/NFT_MARKETPLACE_ASSIGNMENT/MarketplaceContract.sol\":3527:3687  if (listings[allListedNFTsIds[i]].sold){... */\n      iszero\n      tag_124\n      jumpi\n        /* \"IT/LIT2025032/NFT_MARKETPLACE_ASSIGNMENT/MarketplaceContract.sol\":3616:3624  listings */\n      0x02\n        /* \"IT/LIT2025032/NFT_MARKETPLACE_ASSIGNMENT/MarketplaceContract.sol\":3616:3645  listings[allListedNFTsIds[i]] */\n      0x00\n        /* \"IT/LIT2025032/NFT_MARKETPLACE_ASSIGNMENT/MarketplaceContract.sol\":3625:3641  allListedNFTsIds */\n      0x03\n        /* \"IT/LIT2025032/NFT_MARKETPLACE_ASSIGNMENT/MarketplaceContract.sol\":3642:3643  i */\n      dup4\n        /* \"IT/LIT2025032/NFT_MARKETPLACE_ASSIGNMENT/MarketplaceContract.sol\":3625:3644  allListedNFTsIds[i] */\n      dup2\n      sload\n      dup2\n      lt\n      tag_125\n      jumpi\n      tag_126\n      tag_40\n      jump\t// in\n    tag_126:\n    tag_125:\n      swap1\n      0x00\n      mstore\n      keccak256(0x00, 0x20)\n      add\n      sload\n        /* \"IT/LIT2025032/NFT_MARKETPLACE_ASSIGNMENT/MarketplaceContract.sol\":3616:3645  listings[allListedNFTsIds[i]] */\n      dup2\n      mstore\n      0x20\n      add\n      swap1\n      dup2\n      mstore\n      0x20\n      add\n      0x00\n      keccak256\n        /* \"IT/LIT2025032/NFT_MARKETPLACE_ASSIGNMENT/MarketplaceContract.sol\":3585:3645  list_of_all_sold_NFTs[index] = listings[allListedNFTsIds[i]] */\n      mload(0x40)\n      dup1\n      0x80\n      add\n      0x40\n      mstore\n      swap1\n      dup2\n      0x00\n      dup3\n      add\n      mload(0x40)\n      dup1\n      0x60\n      add\n      0x40\n      mstore\n      swap1\n      dup2\n      0x00\n      dup3\n      add\n      sload\n      dup2\n      mstore\n      0x20\n      add\n      0x01\n      dup3\n      add\n      dup1\n      sload\n      tag_128\n      swap1\n      tag_63\n      jump\t// in\n    tag_128:\n      dup1\n      0x1f\n      add\n      0x20\n      dup1\n      swap2\n      div\n      mul\n      0x20\n      add\n      mload(0x40)\n      swap1\n      dup2\n      add\n      0x40\n      mstore\n      dup1\n      swap3\n      swap2\n      swap1\n      dup2\n      dup2\n      mstore\n      0x20\n      add\n      dup3\n      dup1\n      sload\n      tag_129\n      swap1\n      tag_63\n      jump\t// in\n    tag_129:\n      dup1\n      iszero\n      tag_130\n      jumpi\n      dup1\n      0x1f\n      lt\n      tag_131\n      jumpi\n      0x0100\n      dup1\n      dup4\n      sload\n      div\n      mul\n      dup4\n      mstore\n      swap2\n      0x20\n      add\n      swap2\n      jump(tag_130)\n    tag_131:\n      dup3\n      add\n      swap2\n      swap1\n      0x00\n      mstore\n      keccak256(0x00, 0x20)\n      swap1\n    tag_132:\n      dup2\n      sload\n      dup2\n      mstore\n      swap1\n      0x01\n      add\n      swap1\n      0x20\n      add\n      dup1\n      dup4\n      gt\n      tag_132\n      jumpi\n      dup3\n      swap1\n      sub\n      0x1f\n      and\n      dup3\n      add\n      swap2\n    tag_130:\n      pop\n      pop\n      pop\n      pop\n      pop\n      dup2\n      mstore\n      0x20\n      add\n      0x02\n      dup3\n      add\n      dup1\n      sload\n      tag_133\n      swap1\n      tag_63\n      jump\t// in\n    tag_133:\n      dup1\n      0x1f\n      add\n      0x20\n      dup1\n      swap2\n      div\n      mul\n      0x20\n      add\n      mload(0x40)\n      swap1\n      dup2\n      add\n      0x40\n      mstore\n      dup1\n      swap3\n      swap2\n      swap1\n      dup2\n      dup2\n      mstore\n      0x20\n      add\n      dup3\n      dup1\n      sload\n      tag_134\n      swap1\n      tag_63\n      jump\t// in\n    tag_134:\n      dup1\n      iszero\n      tag_135\n      jumpi\n      dup1\n      0x1f\n      lt\n      tag_136\n      jumpi\n      0x0100\n      dup1\n      dup4\n      sload\n      div\n      mul\n      dup4\n      mstore\n      swap2\n      0x20\n      add\n      swap2\n      jump(tag_135)\n    tag_136:\n      dup3\n      add\n      swap2\n      swap1\n      0x00\n      mstore\n      keccak256(0x00, 0x20)\n      swap1\n    tag_137:\n      dup2\n      sload\n      dup2\n      mstore\n      swap1\n      0x01\n      add\n      swap1\n      0x20\n      add\n      dup1\n      dup4\n      gt\n      tag_137\n      jumpi\n      dup3\n      swap1\n      sub\n      0x1f\n      and\n      dup3\n      add\n      swap2\n    tag_135:\n      pop\n      pop\n      pop\n      pop\n      pop\n      dup2\n      mstore\n      pop\n      pop\n      dup2\n      mstore\n      0x20\n      add\n      0x03\n      dup3\n      add\n      0x00\n      swap1\n      sload\n      swap1\n      0x0100\n      exp\n      swap1\n      div\n      0xffffffffffffffffffffffffffffffffffffffff\n      and\n      0xffffffffffffffffffffffffffffffffffffffff\n      and\n      0xffffffffffffffffffffffffffffffffffffffff\n      and\n      dup2\n      mstore\n      0x20\n      add\n      0x04\n      dup3\n      add\n      sload\n      dup2\n      mstore\n      0x20\n      add\n      0x05\n      dup3\n      add\n      0x00\n      swap1\n      sload\n      swap1\n      0x0100\n      exp\n      swap1\n      div\n      0xff\n      and\n      iszero\n      iszero\n      iszero\n      iszero\n      dup2\n      mstore\n      pop\n      pop\n        /* \"IT/LIT2025032/NFT_MARKETPLACE_ASSIGNMENT/MarketplaceContract.sol\":3585:3606  list_of_all_sold_NFTs */\n      dup4\n        /* \"IT/LIT2025032/NFT_MARKETPLACE_ASSIGNMENT/MarketplaceContract.sol\":3607:3612  index */\n      dup4\n        /* \"IT/LIT2025032/NFT_MARKETPLACE_ASSIGNMENT/MarketplaceContract.sol\":3585:3613  list_of_all_sold_NFTs[index] */\n      dup2\n      mload\n      dup2\n      lt\n      tag_138\n      jumpi\n      tag_139\n      tag_40\n      jump\t// in\n    tag_139:\n    tag_138:\n      0x20\n      mul\n      0x20\n      add\n      add\n        /* \"IT/LIT2025032/NFT_MARKETPLACE_ASSIGNMENT/MarketplaceContract.sol\":3585:3645  list_of_all_sold_NFTs[index] = listings[allListedNFTsIds[i]] */\n      dup2\n      swap1\n      mstore\n      pop\n        /* \"IT/LIT2025032/NFT_MARKETPLACE_ASSIGNMENT/MarketplaceContract.sol\":3664:3671  index++ */\n      dup2\n      dup1\n      tag_140\n      swap1\n      tag_44\n      jump\t// in\n    tag_140:\n      swap3\n      pop\n      pop\n        /* \"IT/LIT2025032/NFT_MARKETPLACE_ASSIGNMENT/MarketplaceContract.sol\":3527:3687  if (listings[allListedNFTsIds[i]].sold){... */\n    tag_124:\n        /* \"IT/LIT2025032/NFT_MARKETPLACE_ASSIGNMENT/MarketplaceContract.sol\":3508:3511  i++ */\n      dup1\n      dup1\n      0x01\n      add\n      swap2\n      pop\n      pop\n        /* \"IT/LIT2025032/NFT_MARKETPLACE_ASSIGNMENT/MarketplaceContract.sol\":3460:3698  for (uint256 i = 0 ; i<allListedNFTsIds.length; i++){... */\n      jump(tag_118)\n    tag_119:\n      pop\n        /* \"IT/LIT2025032/NFT_MARKETPLACE_ASSIGNMENT/MarketplaceContract.sol\":3717:3738  list_of_all_sold_NFTs */\n      dup2\n        /* \"IT/LIT2025032/NFT_MARKETPLACE_ASSIGNMENT/MarketplaceContract.sol\":3710:3738  return list_of_all_sold_NFTs */\n      swap4\n      pop\n      pop\n      pop\n      pop\n        /* \"IT/LIT2025032/NFT_MARKETPLACE_ASSIGNMENT/MarketplaceContract.sol\":3089:3746  function allSoldNFTs() public view returns (Listing[] memory){... */\n      swap1\n      jump\t// out\n        /* \"IT/LIT2025032/NFT_MARKETPLACE_ASSIGNMENT/MarketplaceContract.sol\":1119:1890  function listNFT(uint256 nft_Id, uint256 Price) public {... */\n    tag_23:\n        /* \"IT/LIT2025032/NFT_MARKETPLACE_ASSIGNMENT/MarketplaceContract.sol\":1199:1200  0 */\n      0x00\n        /* \"IT/LIT2025032/NFT_MARKETPLACE_ASSIGNMENT/MarketplaceContract.sol\":1193:1198  Price */\n      dup2\n        /* \"IT/LIT2025032/NFT_MARKETPLACE_ASSIGNMENT/MarketplaceContract.sol\":1193:1200  Price>0 */\n      gt\n        /* \"IT/LIT2025032/NFT_MARKETPLACE_ASSIGNMENT/MarketplaceContract.sol\":1185:1243  require(Price>0, \"Please enter correct price for the NFT\") */\n      tag_142\n      jumpi\n      mload(0x40)\n      0x08c379a000000000000000000000000000000000000000000000000000000000\n      dup2\n      mstore\n      0x04\n      add\n      tag_143\n      swap1\n      tag_144\n      jump\t// in\n    tag_143:\n      mload(0x40)\n      dup1\n      swap2\n      sub\n      swap1\n      revert\n    tag_142:\n        /* \"IT/LIT2025032/NFT_MARKETPLACE_ASSIGNMENT/MarketplaceContract.sol\":1257:1270  uint256 idNFT */\n      0x00\n        /* \"IT/LIT2025032/NFT_MARKETPLACE_ASSIGNMENT/MarketplaceContract.sol\":1272:1293  string memory nameNFT */\n      0x00\n        /* \"IT/LIT2025032/NFT_MARKETPLACE_ASSIGNMENT/MarketplaceContract.sol\":1295:1316  string memory descNFT */\n      0x00\n        /* \"IT/LIT2025032/NFT_MARKETPLACE_ASSIGNMENT/MarketplaceContract.sol\":1318:1334  address ownerNFT */\n      0x00\n        /* \"IT/LIT2025032/NFT_MARKETPLACE_ASSIGNMENT/MarketplaceContract.sol\":1338:1341  nft */\n      0x01\n      0x00\n      swap1\n      sload\n      swap1\n      0x0100\n      exp\n      swap1\n      div\n      0xffffffffffffffffffffffffffffffffffffffff\n      and\n        /* \"IT/LIT2025032/NFT_MARKETPLACE_ASSIGNMENT/MarketplaceContract.sol\":1338:1346  nft.nfts */\n      0xffffffffffffffffffffffffffffffffffffffff\n      and\n      0x265aa621\n        /* \"IT/LIT2025032/NFT_MARKETPLACE_ASSIGNMENT/MarketplaceContract.sol\":1347:1353  nft_Id */\n      dup8\n        /* \"IT/LIT2025032/NFT_MARKETPLACE_ASSIGNMENT/MarketplaceContract.sol\":1338:1354  nft.nfts(nft_Id) */\n      mload(0x40)\n      dup3\n      0xffffffff\n      and\n      0xe0\n      shl\n      dup2\n      mstore\n      0x04\n      add\n      tag_145\n      swap2\n      swap1\n      tag_146\n      jump\t// in\n    tag_145:\n      0x00\n      mload(0x40)\n      dup1\n      dup4\n      sub\n      dup2\n      dup7\n      gas\n      staticcall\n      iszero\n      dup1\n      iszero\n      tag_148\n      jumpi\n      returndatacopy(0x00, 0x00, returndatasize)\n      revert(0x00, returndatasize)\n    tag_148:\n      pop\n      pop\n      pop\n      pop\n      mload(0x40)\n      returndatasize\n      0x00\n      dup3\n      returndatacopy\n      returndatasize\n      not(0x1f)\n      0x1f\n      dup3\n      add\n      and\n      dup3\n      add\n      dup1\n      0x40\n      mstore\n      pop\n      dup2\n      add\n      swap1\n      tag_149\n      swap2\n      swap1\n      tag_150\n      jump\t// in\n    tag_149:\n        /* \"IT/LIT2025032/NFT_MARKETPLACE_ASSIGNMENT/MarketplaceContract.sol\":1256:1354  (uint256 idNFT, string memory nameNFT, string memory descNFT, address ownerNFT) = nft.nfts(nft_Id) */\n      swap4\n      pop\n      swap4\n      pop\n      swap4\n      pop\n      swap4\n      pop\n        /* \"IT/LIT2025032/NFT_MARKETPLACE_ASSIGNMENT/MarketplaceContract.sol\":1393:1394  0 */\n      0x00\n        /* \"IT/LIT2025032/NFT_MARKETPLACE_ASSIGNMENT/MarketplaceContract.sol\":1375:1395  ownerNFT!=address(0) */\n      0xffffffffffffffffffffffffffffffffffffffff\n      and\n        /* \"IT/LIT2025032/NFT_MARKETPLACE_ASSIGNMENT/MarketplaceContract.sol\":1375:1383  ownerNFT */\n      dup2\n        /* \"IT/LIT2025032/NFT_MARKETPLACE_ASSIGNMENT/MarketplaceContract.sol\":1375:1395  ownerNFT!=address(0) */\n      0xffffffffffffffffffffffffffffffffffffffff\n      and\n      sub\n        /* \"IT/LIT2025032/NFT_MARKETPLACE_ASSIGNMENT/MarketplaceContract.sol\":1367:1417  require(ownerNFT!=address(0), \"NFT doesn't exist\") */\n      tag_151\n      jumpi\n      mload(0x40)\n      0x08c379a000000000000000000000000000000000000000000000000000000000\n      dup2\n      mstore\n      0x04\n      add\n      tag_152\n      swap1\n      tag_153\n      jump\t// in\n    tag_152:\n      mload(0x40)\n      dup1\n      swap2\n      sub\n      swap1\n      revert\n    tag_151:\n        /* \"IT/LIT2025032/NFT_MARKETPLACE_ASSIGNMENT/MarketplaceContract.sol\":1446:1456  msg.sender */\n      caller\n        /* \"IT/LIT2025032/NFT_MARKETPLACE_ASSIGNMENT/MarketplaceContract.sol\":1436:1456  ownerNFT==msg.sender */\n      0xffffffffffffffffffffffffffffffffffffffff\n      and\n        /* \"IT/LIT2025032/NFT_MARKETPLACE_ASSIGNMENT/MarketplaceContract.sol\":1436:1444  ownerNFT */\n      dup2\n        /* \"IT/LIT2025032/NFT_MARKETPLACE_ASSIGNMENT/MarketplaceContract.sol\":1436:1456  ownerNFT==msg.sender */\n      0xffffffffffffffffffffffffffffffffffffffff\n      and\n      eq\n        /* \"IT/LIT2025032/NFT_MARKETPLACE_ASSIGNMENT/MarketplaceContract.sol\":1428:1493  require(ownerNFT==msg.sender, \"You are not the owner of the NFT\") */\n      tag_154\n      jumpi\n      mload(0x40)\n      0x08c379a000000000000000000000000000000000000000000000000000000000\n      dup2\n      mstore\n      0x04\n      add\n      tag_155\n      swap1\n      tag_156\n      jump\t// in\n    tag_155:\n      mload(0x40)\n      dup1\n      swap2\n      sub\n      swap1\n      revert\n    tag_154:\n        /* \"IT/LIT2025032/NFT_MARKETPLACE_ASSIGNMENT/MarketplaceContract.sol\":1506:1509  nft */\n      0x01\n      0x00\n      swap1\n      sload\n      swap1\n      0x0100\n      exp\n      swap1\n      div\n      0xffffffffffffffffffffffffffffffffffffffff\n      and\n        /* \"IT/LIT2025032/NFT_MARKETPLACE_ASSIGNMENT/MarketplaceContract.sol\":1506:1521  nft.transferNFT */\n      0xffffffffffffffffffffffffffffffffffffffff\n      and\n      0x2aafe132\n        /* \"IT/LIT2025032/NFT_MARKETPLACE_ASSIGNMENT/MarketplaceContract.sol\":1522:1528  nft_Id */\n      dup8\n        /* \"IT/LIT2025032/NFT_MARKETPLACE_ASSIGNMENT/MarketplaceContract.sol\":1529:1539  msg.sender */\n      caller\n        /* \"IT/LIT2025032/NFT_MARKETPLACE_ASSIGNMENT/MarketplaceContract.sol\":1548:1552  this */\n      address\n        /* \"IT/LIT2025032/NFT_MARKETPLACE_ASSIGNMENT/MarketplaceContract.sol\":1506:1554  nft.transferNFT(nft_Id,msg.sender,address(this)) */\n      mload(0x40)\n      dup5\n      0xffffffff\n      and\n      0xe0\n      shl\n      dup2\n      mstore\n      0x04\n      add\n      tag_157\n      swap4\n      swap3\n      swap2\n      swap1\n      tag_99\n      jump\t// in\n    tag_157:\n      0x00\n      mload(0x40)\n      dup1\n      dup4\n      sub\n      dup2\n      0x00\n      dup8\n      dup1\n      extcodesize\n      iszero\n      dup1\n      iszero\n      tag_158\n      jumpi\n      revert(0x00, 0x00)\n    tag_158:\n      pop\n      gas\n      call\n      iszero\n      dup1\n      iszero\n      tag_160\n      jumpi\n      returndatacopy(0x00, 0x00, returndatasize)\n      revert(0x00, returndatasize)\n    tag_160:\n      pop\n      pop\n      pop\n      pop\n        /* \"IT/LIT2025032/NFT_MARKETPLACE_ASSIGNMENT/MarketplaceContract.sol\":1586:1840  Listing({... */\n      mload(0x40)\n      dup1\n      0x80\n      add\n      0x40\n      mstore\n      dup1\n        /* \"IT/LIT2025032/NFT_MARKETPLACE_ASSIGNMENT/MarketplaceContract.sol\":1615:1741  NFTInfo({... */\n      mload(0x40)\n      dup1\n      0x60\n      add\n      0x40\n      mstore\n      dup1\n        /* \"IT/LIT2025032/NFT_MARKETPLACE_ASSIGNMENT/MarketplaceContract.sol\":1649:1654  idNFT */\n      dup8\n        /* \"IT/LIT2025032/NFT_MARKETPLACE_ASSIGNMENT/MarketplaceContract.sol\":1615:1741  NFTInfo({... */\n      dup2\n      mstore\n      0x20\n      add\n        /* \"IT/LIT2025032/NFT_MARKETPLACE_ASSIGNMENT/MarketplaceContract.sol\":1679:1686  nameNFT */\n      dup7\n        /* \"IT/LIT2025032/NFT_MARKETPLACE_ASSIGNMENT/MarketplaceContract.sol\":1615:1741  NFTInfo({... */\n      dup2\n      mstore\n      0x20\n      add\n        /* \"IT/LIT2025032/NFT_MARKETPLACE_ASSIGNMENT/MarketplaceContract.sol\":1718:1725  descNFT */\n      dup6\n        /* \"IT/LIT2025032/NFT_MARKETPLACE_ASSIGNMENT/MarketplaceContract.sol\":1615:1741  NFTInfo({... */\n      dup2\n      mstore\n      pop\n        /* \"IT/LIT2025032/NFT_MARKETPLACE_ASSIGNMENT/MarketplaceContract.sol\":1586:1840  Listing({... */\n      dup2\n      mstore\n      0x20\n      add\n        /* \"IT/LIT2025032/NFT_MARKETPLACE_ASSIGNMENT/MarketplaceContract.sol\":1764:1774  msg.sender */\n      caller\n        /* \"IT/LIT2025032/NFT_MARKETPLACE_ASSIGNMENT/MarketplaceContract.sol\":1586:1840  Listing({... */\n      0xffffffffffffffffffffffffffffffffffffffff\n      and\n      dup2\n      mstore\n      0x20\n      add\n        /* \"IT/LIT2025032/NFT_MARKETPLACE_ASSIGNMENT/MarketplaceContract.sol\":1797:1802  Price */\n      dup7\n        /* \"IT/LIT2025032/NFT_MARKETPLACE_ASSIGNMENT/MarketplaceContract.sol\":1586:1840  Listing({... */\n      dup2\n      mstore\n      0x20\n      add\n        /* \"IT/LIT2025032/NFT_MARKETPLACE_ASSIGNMENT/MarketplaceContract.sol\":1823:1828  false */\n      0x00\n        /* \"IT/LIT2025032/NFT_MARKETPLACE_ASSIGNMENT/MarketplaceContract.sol\":1586:1840  Listing({... */\n      iszero\n      iszero\n      dup2\n      mstore\n      pop\n        /* \"IT/LIT2025032/NFT_MARKETPLACE_ASSIGNMENT/MarketplaceContract.sol\":1567:1575  listings */\n      0x02\n        /* \"IT/LIT2025032/NFT_MARKETPLACE_ASSIGNMENT/MarketplaceContract.sol\":1567:1583  listings[nft_Id] */\n      0x00\n        /* \"IT/LIT2025032/NFT_MARKETPLACE_ASSIGNMENT/MarketplaceContract.sol\":1576:1582  nft_Id */\n      dup9\n        /* \"IT/LIT2025032/NFT_MARKETPLACE_ASSIGNMENT/MarketplaceContract.sol\":1567:1583  listings[nft_Id] */\n      dup2\n      mstore\n      0x20\n      add\n      swap1\n      dup2\n      mstore\n      0x20\n      add\n      0x00\n      keccak256\n        /* \"IT/LIT2025032/NFT_MARKETPLACE_ASSIGNMENT/MarketplaceContract.sol\":1567:1840  listings[nft_Id] = Listing({... */\n      0x00\n      dup3\n      add\n      mload\n      dup2\n      0x00\n      add\n      0x00\n      dup3\n      add\n      mload\n      dup2\n      0x00\n      add\n      sstore\n      0x20\n      dup3\n      add\n      mload\n      dup2\n      0x01\n      add\n      swap1\n      dup2\n      tag_161\n      swap2\n      swap1\n      tag_162\n      jump\t// in\n    tag_161:\n      pop\n      0x40\n      dup3\n      add\n      mload\n      dup2\n      0x02\n      add\n      swap1\n      dup2\n      tag_163\n      swap2\n      swap1\n      tag_162\n      jump\t// in\n    tag_163:\n      pop\n      pop\n      pop\n      0x20\n      dup3\n      add\n      mload\n      dup2\n      0x03\n      add\n      exp(0x0100, 0x00)\n      dup2\n      sload\n      dup2\n      0xffffffffffffffffffffffffffffffffffffffff\n      mul\n      not\n      and\n      swap1\n      dup4\n      0xffffffffffffffffffffffffffffffffffffffff\n      and\n      mul\n      or\n      swap1\n      sstore\n      pop\n      0x40\n      dup3\n      add\n      mload\n      dup2\n      0x04\n      add\n      sstore\n      0x60\n      dup3\n      add\n      mload\n      dup2\n      0x05\n      add\n      exp(0x0100, 0x00)\n      dup2\n      sload\n      dup2\n      0xff\n      mul\n      not\n      and\n      swap1\n      dup4\n      iszero\n      iszero\n      mul\n      or\n      swap1\n      sstore\n      pop\n      swap1\n      pop\n      pop\n        /* \"IT/LIT2025032/NFT_MARKETPLACE_ASSIGNMENT/MarketplaceContract.sol\":1853:1869  allListedNFTsIds */\n      0x03\n        /* \"IT/LIT2025032/NFT_MARKETPLACE_ASSIGNMENT/MarketplaceContract.sol\":1875:1881  nft_Id */\n      dup7\n        /* \"IT/LIT2025032/NFT_MARKETPLACE_ASSIGNMENT/MarketplaceContract.sol\":1853:1882  allListedNFTsIds.push(nft_Id) */\n      swap1\n      dup1\n      0x01\n      dup2\n      sload\n      add\n      dup1\n      dup3\n      sstore\n      dup1\n      swap2\n      pop\n      pop\n      0x01\n      swap1\n      sub\n      swap1\n      0x00\n      mstore\n      keccak256(0x00, 0x20)\n      add\n      0x00\n      swap1\n      swap2\n      swap1\n      swap2\n      swap1\n      swap2\n      pop\n      sstore\n        /* \"IT/LIT2025032/NFT_MARKETPLACE_ASSIGNMENT/MarketplaceContract.sol\":1174:1890  {... */\n      pop\n      pop\n      pop\n      pop\n        /* \"IT/LIT2025032/NFT_MARKETPLACE_ASSIGNMENT/MarketplaceContract.sol\":1119:1890  function listNFT(uint256 nft_Id, uint256 Price) public {... */\n      pop\n      pop\n      jump\t// out\n        /* \"IT/LIT2025032/NFT_MARKETPLACE_ASSIGNMENT/MarketplaceContract.sol\":3754:3864  function aNFT(uint256 tokenId) public view returns (Listing memory){... */\n    tag_26:\n        /* \"IT/LIT2025032/NFT_MARKETPLACE_ASSIGNMENT/MarketplaceContract.sol\":3806:3820  Listing memory */\n      tag_165\n      tag_51\n      jump\t// in\n    tag_165:\n        /* \"IT/LIT2025032/NFT_MARKETPLACE_ASSIGNMENT/MarketplaceContract.sol\":3839:3847  listings */\n      0x02\n        /* \"IT/LIT2025032/NFT_MARKETPLACE_ASSIGNMENT/MarketplaceContract.sol\":3839:3856  listings[tokenId] */\n      0x00\n        /* \"IT/LIT2025032/NFT_MARKETPLACE_ASSIGNMENT/MarketplaceContract.sol\":3848:3855  tokenId */\n      dup4\n        /* \"IT/LIT2025032/NFT_MARKETPLACE_ASSIGNMENT/MarketplaceContract.sol\":3839:3856  listings[tokenId] */\n      dup2\n      mstore\n      0x20\n      add\n      swap1\n      dup2\n      mstore\n      0x20\n      add\n      0x00\n      keccak256\n        /* \"IT/LIT2025032/NFT_MARKETPLACE_ASSIGNMENT/MarketplaceContract.sol\":3832:3856  return listings[tokenId] */\n      mload(0x40)\n      dup1\n      0x80\n      add\n      0x40\n      mstore\n      swap1\n      dup2\n      0x00\n      dup3\n      add\n      mload(0x40)\n      dup1\n      0x60\n      add\n      0x40\n      mstore\n      swap1\n      dup2\n      0x00\n      dup3\n      add\n      sload\n      dup2\n      mstore\n      0x20\n      add\n      0x01\n      dup3\n      add\n      dup1\n      sload\n      tag_167\n      swap1\n      tag_63\n      jump\t// in\n    tag_167:\n      dup1\n      0x1f\n      add\n      0x20\n      dup1\n      swap2\n      div\n      mul\n      0x20\n      add\n      mload(0x40)\n      swap1\n      dup2\n      add\n      0x40\n      mstore\n      dup1\n      swap3\n      swap2\n      swap1\n      dup2\n      dup2\n      mstore\n      0x20\n      add\n      dup3\n      dup1\n      sload\n      tag_168\n      swap1\n      tag_63\n      jump\t// in\n    tag_168:\n      dup1\n      iszero\n      tag_169\n      jumpi\n      dup1\n      0x1f\n      lt\n      tag_170\n      jumpi\n      0x0100\n      dup1\n      dup4\n      sload\n      div\n      mul\n      dup4\n      mstore\n      swap2\n      0x20\n      add\n      swap2\n      jump(tag_169)\n    tag_170:\n      dup3\n      add\n      swap2\n      swap1\n      0x00\n      mstore\n      keccak256(0x00, 0x20)\n      swap1\n    tag_171:\n      dup2\n      sload\n      dup2\n      mstore\n      swap1\n      0x01\n      add\n      swap1\n      0x20\n      add\n      dup1\n      dup4\n      gt\n      tag_171\n      jumpi\n      dup3\n      swap1\n      sub\n      0x1f\n      and\n      dup3\n      add\n      swap2\n    tag_169:\n      pop\n      pop\n      pop\n      pop\n      pop\n      dup2\n      mstore\n      0x20\n      add\n      0x02\n      dup3\n      add\n      dup1\n      sload\n      tag_172\n      swap1\n      tag_63\n      jump\t// in\n    tag_172:\n      dup1\n      0x1f\n      add\n      0x20\n      dup1\n      swap2\n      div\n      mul\n      0x20\n      add\n      mload(0x40)\n      swap1\n      dup2\n      add\n      0x40\n      mstore\n      dup1\n      swap3\n      swap2\n      swap1\n      dup2\n      dup2\n      mstore\n      0x20\n      add\n      dup3\n      dup1\n      sload\n      tag_173\n      swap1\n      tag_63\n      jump\t// in\n    tag_173:\n      dup1\n      iszero\n      tag_174\n      jumpi\n      dup1\n      0x1f\n      lt\n      tag_175\n      jumpi\n      0x0100\n      dup1\n      dup4\n      sload\n      div\n      mul\n      dup4\n      mstore\n      swap2\n      0x20\n      add\n      swap2\n      jump(tag_174)\n    tag_175:\n      dup3\n      add\n      swap2\n      swap1\n      0x00\n      mstore\n      keccak256(0x00, 0x20)\n      swap1\n    tag_176:\n      dup2\n      sload\n      dup2\n      mstore\n      swap1\n      0x01\n      add\n      swap1\n      0x20\n      add\n      dup1\n      dup4\n      gt\n      tag_176\n      jumpi\n      dup3\n      swap1\n      sub\n      0x1f\n      and\n      dup3\n      add\n      swap2\n    tag_174:\n      pop\n      pop\n      pop\n      pop\n      pop\n      dup2\n      mstore\n      pop\n      pop\n      dup2\n      mstore\n      0x20\n      add\n      0x03\n      dup3\n      add\n      0x00\n      swap1\n      sload\n      swap1\n      0x0100\n      exp\n      swap1\n      div\n      0xffffffffffffffffffffffffffffffffffffffff\n      and\n      0xffffffffffffffffffffffffffffffffffffffff\n      and\n      0xffffffffffffffffffffffffffffffffffffffff\n      and\n      dup2\n      mstore\n      0x20\n      add\n      0x04\n      dup3\n      add\n      sload\n      dup2\n      mstore\n      0x20\n      add\n      0x05\n      dup3\n      add\n      0x00\n      swap1\n      sload\n      swap1\n      0x0100\n      exp\n      swap1\n      div\n      0xff\n      and\n      iszero\n      iszero\n      iszero\n      iszero\n      dup2\n      mstore\n      pop\n      pop\n      swap1\n      pop\n        /* \"IT/LIT2025032/NFT_MARKETPLACE_ASSIGNMENT/MarketplaceContract.sol\":3754:3864  function aNFT(uint256 tokenId) public view returns (Listing memory){... */\n      swap2\n      swap1\n      pop\n      jump\t// out\n        /* \"IT/LIT2025032/NFT_MARKETPLACE_ASSIGNMENT/MarketplaceContract.sol\":3872:4263  function allNFT(address buyer) public view returns (Listing[] memory){... */\n    tag_32:\n        /* \"IT/LIT2025032/NFT_MARKETPLACE_ASSIGNMENT/MarketplaceContract.sol\":3924:3940  Listing[] memory */\n      0x60\n        /* \"IT/LIT2025032/NFT_MARKETPLACE_ASSIGNMENT/MarketplaceContract.sol\":3954:3995  Listing[] memory list_of_all_NFTs_of_User */\n      0x00\n        /* \"IT/LIT2025032/NFT_MARKETPLACE_ASSIGNMENT/MarketplaceContract.sol\":4012:4031  purchasedNFTsOfUser */\n      0x04\n        /* \"IT/LIT2025032/NFT_MARKETPLACE_ASSIGNMENT/MarketplaceContract.sol\":4012:4038  purchasedNFTsOfUser[buyer] */\n      0x00\n        /* \"IT/LIT2025032/NFT_MARKETPLACE_ASSIGNMENT/MarketplaceContract.sol\":4032:4037  buyer */\n      dup5\n        /* \"IT/LIT2025032/NFT_MARKETPLACE_ASSIGNMENT/MarketplaceContract.sol\":4012:4038  purchasedNFTsOfUser[buyer] */\n      0xffffffffffffffffffffffffffffffffffffffff\n      and\n      0xffffffffffffffffffffffffffffffffffffffff\n      and\n      dup2\n      mstore\n      0x20\n      add\n      swap1\n      dup2\n      mstore\n      0x20\n      add\n      0x00\n      keccak256\n        /* \"IT/LIT2025032/NFT_MARKETPLACE_ASSIGNMENT/MarketplaceContract.sol\":4012:4045  purchasedNFTsOfUser[buyer].length */\n      dup1\n      sload\n      swap1\n      pop\n        /* \"IT/LIT2025032/NFT_MARKETPLACE_ASSIGNMENT/MarketplaceContract.sol\":3998:4046  new Listing[](purchasedNFTsOfUser[buyer].length) */\n      0xffffffffffffffff\n      dup2\n      gt\n      iszero\n      tag_178\n      jumpi\n      tag_179\n      tag_47\n      jump\t// in\n    tag_179:\n    tag_178:\n      mload(0x40)\n      swap1\n      dup1\n      dup3\n      mstore\n      dup1\n      0x20\n      mul\n      0x20\n      add\n      dup3\n      add\n      0x40\n      mstore\n      dup1\n      iszero\n      tag_180\n      jumpi\n      dup2\n      0x20\n      add\n    tag_181:\n      tag_182\n      tag_51\n      jump\t// in\n    tag_182:\n      dup2\n      mstore\n      0x20\n      add\n      swap1\n      0x01\n      swap1\n      sub\n      swap1\n      dup2\n      tag_181\n      jumpi\n      swap1\n      pop\n    tag_180:\n      pop\n        /* \"IT/LIT2025032/NFT_MARKETPLACE_ASSIGNMENT/MarketplaceContract.sol\":3954:4046  Listing[] memory list_of_all_NFTs_of_User = new Listing[](purchasedNFTsOfUser[buyer].length) */\n      swap1\n      pop\n        /* \"IT/LIT2025032/NFT_MARKETPLACE_ASSIGNMENT/MarketplaceContract.sol\":4064:4073  uint256 i */\n      0x00\n        /* \"IT/LIT2025032/NFT_MARKETPLACE_ASSIGNMENT/MarketplaceContract.sol\":4074:4075  0 */\n      0x00\n        /* \"IT/LIT2025032/NFT_MARKETPLACE_ASSIGNMENT/MarketplaceContract.sol\":4064:4075  uint256 i=0 */\n      swap1\n      pop\n        /* \"IT/LIT2025032/NFT_MARKETPLACE_ASSIGNMENT/MarketplaceContract.sol\":4059:4212  for (uint256 i=0;i<purchasedNFTsOfUser[buyer].length;i++){... */\n    tag_183:\n        /* \"IT/LIT2025032/NFT_MARKETPLACE_ASSIGNMENT/MarketplaceContract.sol\":4078:4097  purchasedNFTsOfUser */\n      0x04\n        /* \"IT/LIT2025032/NFT_MARKETPLACE_ASSIGNMENT/MarketplaceContract.sol\":4078:4104  purchasedNFTsOfUser[buyer] */\n      0x00\n        /* \"IT/LIT2025032/NFT_MARKETPLACE_ASSIGNMENT/MarketplaceContract.sol\":4098:4103  buyer */\n      dup6\n        /* \"IT/LIT2025032/NFT_MARKETPLACE_ASSIGNMENT/MarketplaceContract.sol\":4078:4104  purchasedNFTsOfUser[buyer] */\n      0xffffffffffffffffffffffffffffffffffffffff\n      and\n      0xffffffffffffffffffffffffffffffffffffffff\n      and\n      dup2\n      mstore\n      0x20\n      add\n      swap1\n      dup2\n      mstore\n      0x20\n      add\n      0x00\n      keccak256\n        /* \"IT/LIT2025032/NFT_MARKETPLACE_ASSIGNMENT/MarketplaceContract.sol\":4078:4111  purchasedNFTsOfUser[buyer].length */\n      dup1\n      sload\n      swap1\n      pop\n        /* \"IT/LIT2025032/NFT_MARKETPLACE_ASSIGNMENT/MarketplaceContract.sol\":4076:4077  i */\n      dup2\n        /* \"IT/LIT2025032/NFT_MARKETPLACE_ASSIGNMENT/MarketplaceContract.sol\":4076:4111  i<purchasedNFTsOfUser[buyer].length */\n      lt\n        /* \"IT/LIT2025032/NFT_MARKETPLACE_ASSIGNMENT/MarketplaceContract.sol\":4059:4212  for (uint256 i=0;i<purchasedNFTsOfUser[buyer].length;i++){... */\n      iszero\n      tag_184\n      jumpi\n        /* \"IT/LIT2025032/NFT_MARKETPLACE_ASSIGNMENT/MarketplaceContract.sol\":4161:4169  listings */\n      0x02\n        /* \"IT/LIT2025032/NFT_MARKETPLACE_ASSIGNMENT/MarketplaceContract.sol\":4161:4200  listings[purchasedNFTsOfUser[buyer][i]] */\n      0x00\n        /* \"IT/LIT2025032/NFT_MARKETPLACE_ASSIGNMENT/MarketplaceContract.sol\":4170:4189  purchasedNFTsOfUser */\n      0x04\n        /* \"IT/LIT2025032/NFT_MARKETPLACE_ASSIGNMENT/MarketplaceContract.sol\":4170:4196  purchasedNFTsOfUser[buyer] */\n      0x00\n        /* \"IT/LIT2025032/NFT_MARKETPLACE_ASSIGNMENT/MarketplaceContract.sol\":4190:4195  buyer */\n      dup8\n        /* \"IT/LIT2025032/NFT_MARKETPLACE_ASSIGNMENT/MarketplaceContract.sol\":4170:4196  purchasedNFTsOfUser[buyer] */\n      0xffffffffffffffffffffffffffffffffffffffff\n      and\n      0xffffffffffffffffffffffffffffffffffffffff\n      and\n      dup2\n      mstore\n      0x20\n      add\n      swap1\n      dup2\n      mstore\n      0x20\n      add\n      0x00\n      keccak256\n        /* \"IT/LIT2025032/NFT_MARKETPLACE_ASSIGNMENT/MarketplaceContract.sol\":4197:4198  i */\n      dup4\n        /* \"IT/LIT2025032/NFT_MARKETPLACE_ASSIGNMENT/MarketplaceContract.sol\":4170:4199  purchasedNFTsOfUser[buyer][i] */\n      dup2\n      sload\n      dup2\n      lt\n      tag_186\n      jumpi\n      tag_187\n      tag_40\n      jump\t// in\n    tag_187:\n    tag_186:\n      swap1\n      0x00\n      mstore\n      keccak256(0x00, 0x20)\n      add\n      sload\n        /* \"IT/LIT2025032/NFT_MARKETPLACE_ASSIGNMENT/MarketplaceContract.sol\":4161:4200  listings[purchasedNFTsOfUser[buyer][i]] */\n      dup2\n      mstore\n      0x20\n      add\n      swap1\n      dup2\n      mstore\n      0x20\n      add\n      0x00\n      keccak256\n        /* \"IT/LIT2025032/NFT_MARKETPLACE_ASSIGNMENT/MarketplaceContract.sol\":4131:4200  list_of_all_NFTs_of_User[i] = listings[purchasedNFTsOfUser[buyer][i]] */\n      mload(0x40)\n      dup1\n      0x80\n      add\n      0x40\n      mstore\n      swap1\n      dup2\n      0x00\n      dup3\n      add\n      mload(0x40)\n      dup1\n      0x60\n      add\n      0x40\n      mstore\n      swap1\n      dup2\n      0x00\n      dup3\n      add\n      sload\n      dup2\n      mstore\n      0x20\n      add\n      0x01\n      dup3\n      add\n      dup1\n      sload\n      tag_189\n      swap1\n      tag_63\n      jump\t// in\n    tag_189:\n      dup1\n      0x1f\n      add\n      0x20\n      dup1\n      swap2\n      div\n      mul\n      0x20\n      add\n      mload(0x40)\n      swap1\n      dup2\n      add\n      0x40\n      mstore\n      dup1\n      swap3\n      swap2\n      swap1\n      dup2\n      dup2\n      mstore\n      0x20\n      add\n      dup3\n      dup1\n      sload\n      tag_190\n      swap1\n      tag_63\n      jump\t// in\n    tag_190:\n      dup1\n      iszero\n      tag_191\n      jumpi\n      dup1\n      0x1f\n      lt\n      tag_192\n      jumpi\n      0x0100\n      dup1\n      dup4\n      sload\n      div\n      mul\n      dup4\n      mstore\n      swap2\n      0x20\n      add\n      swap2\n      jump(tag_191)\n    tag_192:\n      dup3\n      add\n      swap2\n      swap1\n      0x00\n      mstore\n      keccak256(0x00, 0x20)\n      swap1\n    tag_193:\n      dup2\n      sload\n      dup2\n      mstore\n      swap1\n      0x01\n      add\n      swap1\n      0x20\n      add\n      dup1\n      dup4\n      gt\n      tag_193\n      jumpi\n      dup3\n      swap1\n      sub\n      0x1f\n      and\n      dup3\n      add\n      swap2\n    tag_191:\n      pop\n      pop\n      pop\n      pop\n      pop\n      dup2\n      mstore\n      0x20\n      add\n      0x02\n      dup3\n      add\n      dup1\n      sload\n      tag_194\n      swap1\n      tag_63\n      jump\t// in\n    tag_194:\n      dup1\n      0x1f\n      add\n      0x20\n      dup1\n      swap2\n      div\n      mul\n      0x20\n      add\n      mload(0x40)\n      swap1\n      dup2\n      add\n      0x40\n      mstore\n      dup1\n      swap3\n      swap2\n      swap1\n      dup2\n      dup2\n      mstore\n      0x20\n      add\n      dup3\n      dup1\n      sload\n      tag_195\n      swap1\n      tag_63\n      jump\t// in\n    tag_195:\n      dup1\n      iszero\n      tag_196\n      jumpi\n      dup1\n      0x1f\n      lt\n      tag_197\n      jumpi\n      0x0100\n      dup1\n      dup4\n      sload\n      div\n      mul\n      dup4\n      mstore\n      swap2\n      0x20\n      add\n      swap2\n      jump(tag_196)\n    tag_197:\n      dup3\n      add\n      swap2\n      swap1\n      0x00\n      mstore\n      keccak256(0x00, 0x20)\n      swap1\n    tag_198:\n      dup2\n      sload\n      dup2\n      mstore\n      swap1\n      0x01\n      add\n      swap1\n      0x20\n      add\n      dup1\n      dup4\n      gt\n      tag_198\n      jumpi\n      dup3\n      swap1\n      sub\n      0x1f\n      and\n      dup3\n      add\n      swap2\n    tag_196:\n      pop\n      pop\n      pop\n      pop\n      pop\n      dup2\n      mstore\n      pop\n      pop\n      dup2\n      mstore\n      0x20\n      add\n      0x03\n      dup3\n      add\n      0x00\n      swap1\n      sload\n      swap1\n      0x0100\n      exp\n      swap1\n      div\n      0xffffffffffffffffffffffffffffffffffffffff\n      and\n      0xffffffffffffffffffffffffffffffffffffffff\n      and\n      0xffffffffffffffffffffffffffffffffffffffff\n      and\n      dup2\n      mstore\n      0x20\n      add\n      0x04\n      dup3\n      add\n      sload\n      dup2\n      mstore\n      0x20\n      add\n      0x05\n      dup3\n      add\n      0x00\n      swap1\n      sload\n      swap1\n      0x0100\n      exp\n      swap1\n      div\n      0xff\n      and\n      iszero\n      iszero\n      iszero\n      iszero\n      dup2\n      mstore\n      pop\n      pop\n        /* \"IT/LIT2025032/NFT_MARKETPLACE_ASSIGNMENT/MarketplaceContract.sol\":4131:4155  list_of_all_NFTs_of_User */\n      dup3\n        /* \"IT/LIT2025032/NFT_MARKETPLACE_ASSIGNMENT/MarketplaceContract.sol\":4156:4157  i */\n      dup3\n        /* \"IT/LIT2025032/NFT_MARKETPLACE_ASSIGNMENT/MarketplaceContract.sol\":4131:4158  list_of_all_NFTs_of_User[i] */\n      dup2\n      mload\n      dup2\n      lt\n      tag_199\n      jumpi\n      tag_200\n      tag_40\n      jump\t// in\n    tag_200:\n    tag_199:\n      0x20\n      mul\n      0x20\n      add\n      add\n        /* \"IT/LIT2025032/NFT_MARKETPLACE_ASSIGNMENT/MarketplaceContract.sol\":4131:4200  list_of_all_NFTs_of_User[i] = listings[purchasedNFTsOfUser[buyer][i]] */\n      dup2\n      swap1\n      mstore\n      pop\n        /* \"IT/LIT2025032/NFT_MARKETPLACE_ASSIGNMENT/MarketplaceContract.sol\":4112:4115  i++ */\n      dup1\n      dup1\n      0x01\n      add\n      swap2\n      pop\n      pop\n        /* \"IT/LIT2025032/NFT_MARKETPLACE_ASSIGNMENT/MarketplaceContract.sol\":4059:4212  for (uint256 i=0;i<purchasedNFTsOfUser[buyer].length;i++){... */\n      jump(tag_183)\n    tag_184:\n      pop\n        /* \"IT/LIT2025032/NFT_MARKETPLACE_ASSIGNMENT/MarketplaceContract.sol\":4231:4255  list_of_all_NFTs_of_User */\n      dup1\n        /* \"IT/LIT2025032/NFT_MARKETPLACE_ASSIGNMENT/MarketplaceContract.sol\":4224:4255  return list_of_all_NFTs_of_User */\n      swap2\n      pop\n      pop\n        /* \"IT/LIT2025032/NFT_MARKETPLACE_ASSIGNMENT/MarketplaceContract.sol\":3872:4263  function allNFT(address buyer) public view returns (Listing[] memory){... */\n      swap2\n      swap1\n      pop\n      jump\t// out\n    tag_51:\n      mload(0x40)\n      dup1\n      0x80\n      add\n      0x40\n      mstore\n      dup1\n      tag_201\n      tag_202\n      jump\t// in\n    tag_201:\n      dup2\n      mstore\n      0x20\n      add\n      and(0xffffffffffffffffffffffffffffffffffffffff, 0x00)\n      dup2\n      mstore\n      0x20\n      add\n      0x00\n      dup2\n      mstore\n      0x20\n      add\n      iszero(iszero(0x00))\n      dup2\n      mstore\n      pop\n      swap1\n      jump\t// out\n    tag_202:\n      mload(0x40)\n      dup1\n      0x60\n      add\n      0x40\n      mstore\n      dup1\n      0x00\n      dup2\n      mstore\n      0x20\n      add\n      0x60\n      dup2\n      mstore\n      0x20\n      add\n      0x60\n      dup2\n      mstore\n      pop\n      swap1\n      jump\t// out\n        /* \"#utility.yul\":7:144   */\n    tag_203:\n        /* \"#utility.yul\":97:103   */\n      0x00\n        /* \"#utility.yul\":131:136   */\n      dup2\n        /* \"#utility.yul\":125:137   */\n      mload\n        /* \"#utility.yul\":115:137   */\n      swap1\n      pop\n        /* \"#utility.yul\":7:144   */\n      swap2\n      swap1\n      pop\n      jump\t// out\n        /* \"#utility.yul\":150:357   */\n    tag_204:\n        /* \"#utility.yul\":272:283   */\n      0x00\n        /* \"#utility.yul\":306:312   */\n      dup3\n        /* \"#utility.yul\":301:304   */\n      dup3\n        /* \"#utility.yul\":294:313   */\n      mstore\n        /* \"#utility.yul\":346:350   */\n      0x20\n        /* \"#utility.yul\":341:344   */\n      dup3\n        /* \"#utility.yul\":337:351   */\n      add\n        /* \"#utility.yul\":322:351   */\n      swap1\n      pop\n        /* \"#utility.yul\":150:357   */\n      swap3\n      swap2\n      pop\n      pop\n      jump\t// out\n        /* \"#utility.yul\":363:518   */\n    tag_205:\n        /* \"#utility.yul\":453:457   */\n      0x00\n        /* \"#utility.yul\":476:479   */\n      dup2\n        /* \"#utility.yul\":468:479   */\n      swap1\n      pop\n        /* \"#utility.yul\":506:510   */\n      0x20\n        /* \"#utility.yul\":501:504   */\n      dup3\n        /* \"#utility.yul\":497:511   */\n      add\n        /* \"#utility.yul\":489:511   */\n      swap1\n      pop\n        /* \"#utility.yul\":363:518   */\n      swap2\n      swap1\n      pop\n      jump\t// out\n        /* \"#utility.yul\":524:601   */\n    tag_206:\n        /* \"#utility.yul\":561:568   */\n      0x00\n        /* \"#utility.yul\":590:595   */\n      dup2\n        /* \"#utility.yul\":579:595   */\n      swap1\n      pop\n        /* \"#utility.yul\":524:601   */\n      swap2\n      swap1\n      pop\n      jump\t// out\n        /* \"#utility.yul\":607:715   */\n    tag_207:\n        /* \"#utility.yul\":684:708   */\n      tag_280\n        /* \"#utility.yul\":702:707   */\n      dup2\n        /* \"#utility.yul\":684:708   */\n      tag_206\n      jump\t// in\n    tag_280:\n        /* \"#utility.yul\":679:682   */\n      dup3\n        /* \"#utility.yul\":672:709   */\n      mstore\n        /* \"#utility.yul\":607:715   */\n      pop\n      pop\n      jump\t// out\n        /* \"#utility.yul\":721:820   */\n    tag_208:\n        /* \"#utility.yul\":773:779   */\n      0x00\n        /* \"#utility.yul\":807:812   */\n      dup2\n        /* \"#utility.yul\":801:813   */\n      mload\n        /* \"#utility.yul\":791:813   */\n      swap1\n      pop\n        /* \"#utility.yul\":721:820   */\n      swap2\n      swap1\n      pop\n      jump\t// out\n        /* \"#utility.yul\":826:985   */\n    tag_209:\n        /* \"#utility.yul\":900:911   */\n      0x00\n        /* \"#utility.yul\":934:940   */\n      dup3\n        /* \"#utility.yul\":929:932   */\n      dup3\n        /* \"#utility.yul\":922:941   */\n      mstore\n        /* \"#utility.yul\":974:978   */\n      0x20\n        /* \"#utility.yul\":969:972   */\n      dup3\n        /* \"#utility.yul\":965:979   */\n      add\n        /* \"#utility.yul\":950:979   */\n      swap1\n      pop\n        /* \"#utility.yul\":826:985   */\n      swap3\n      swap2\n      pop\n      pop\n      jump\t// out\n        /* \"#utility.yul\":991:1130   */\n    tag_210:\n        /* \"#utility.yul\":1080:1086   */\n      dup3\n        /* \"#utility.yul\":1075:1078   */\n      dup2\n        /* \"#utility.yul\":1070:1073   */\n      dup4\n        /* \"#utility.yul\":1064:1087   */\n      mcopy\n        /* \"#utility.yul\":1121:1122   */\n      0x00\n        /* \"#utility.yul\":1112:1118   */\n      dup4\n        /* \"#utility.yul\":1107:1110   */\n      dup4\n        /* \"#utility.yul\":1103:1119   */\n      add\n        /* \"#utility.yul\":1096:1123   */\n      mstore\n        /* \"#utility.yul\":991:1130   */\n      pop\n      pop\n      pop\n      jump\t// out\n        /* \"#utility.yul\":1136:1238   */\n    tag_211:\n        /* \"#utility.yul\":1177:1183   */\n      0x00\n        /* \"#utility.yul\":1228:1230   */\n      0x1f\n        /* \"#utility.yul\":1224:1231   */\n      not\n        /* \"#utility.yul\":1219:1221   */\n      0x1f\n        /* \"#utility.yul\":1212:1217   */\n      dup4\n        /* \"#utility.yul\":1208:1222   */\n      add\n        /* \"#utility.yul\":1204:1232   */\n      and\n        /* \"#utility.yul\":1194:1232   */\n      swap1\n      pop\n        /* \"#utility.yul\":1136:1238   */\n      swap2\n      swap1\n      pop\n      jump\t// out\n        /* \"#utility.yul\":1244:1601   */\n    tag_212:\n        /* \"#utility.yul\":1322:1325   */\n      0x00\n        /* \"#utility.yul\":1350:1389   */\n      tag_286\n        /* \"#utility.yul\":1383:1388   */\n      dup3\n        /* \"#utility.yul\":1350:1389   */\n      tag_208\n      jump\t// in\n    tag_286:\n        /* \"#utility.yul\":1405:1466   */\n      tag_287\n        /* \"#utility.yul\":1459:1465   */\n      dup2\n        /* \"#utility.yul\":1454:1457   */\n      dup6\n        /* \"#utility.yul\":1405:1466   */\n      tag_209\n      jump\t// in\n    tag_287:\n        /* \"#utility.yul\":1398:1466   */\n      swap4\n      pop\n        /* \"#utility.yul\":1475:1540   */\n      tag_288\n        /* \"#utility.yul\":1533:1539   */\n      dup2\n        /* \"#utility.yul\":1528:1531   */\n      dup6\n        /* \"#utility.yul\":1521:1525   */\n      0x20\n        /* \"#utility.yul\":1514:1519   */\n      dup7\n        /* \"#utility.yul\":1510:1526   */\n      add\n        /* \"#utility.yul\":1475:1540   */\n      tag_210\n      jump\t// in\n    tag_288:\n        /* \"#utility.yul\":1565:1594   */\n      tag_289\n        /* \"#utility.yul\":1587:1593   */\n      dup2\n        /* \"#utility.yul\":1565:1594   */\n      tag_211\n      jump\t// in\n    tag_289:\n        /* \"#utility.yul\":1560:1563   */\n      dup5\n        /* \"#utility.yul\":1556:1595   */\n      add\n        /* \"#utility.yul\":1549:1595   */\n      swap2\n      pop\n        /* \"#utility.yul\":1326:1601   */\n      pop\n        /* \"#utility.yul\":1244:1601   */\n      swap3\n      swap2\n      pop\n      pop\n      jump\t// out\n        /* \"#utility.yul\":1671:2516   */\n    tag_213:\n        /* \"#utility.yul\":1776:1779   */\n      0x00\n        /* \"#utility.yul\":1812:1816   */\n      0x60\n        /* \"#utility.yul\":1807:1810   */\n      dup4\n        /* \"#utility.yul\":1803:1817   */\n      add\n        /* \"#utility.yul\":1900:1904   */\n      0x00\n        /* \"#utility.yul\":1893:1898   */\n      dup4\n        /* \"#utility.yul\":1889:1905   */\n      add\n        /* \"#utility.yul\":1883:1906   */\n      mload\n        /* \"#utility.yul\":1919:1982   */\n      tag_291\n        /* \"#utility.yul\":1976:1980   */\n      0x00\n        /* \"#utility.yul\":1971:1974   */\n      dup7\n        /* \"#utility.yul\":1967:1981   */\n      add\n        /* \"#utility.yul\":1953:1965   */\n      dup3\n        /* \"#utility.yul\":1919:1982   */\n      tag_207\n      jump\t// in\n    tag_291:\n        /* \"#utility.yul\":1827:1992   */\n      pop\n        /* \"#utility.yul\":2074:2078   */\n      0x20\n        /* \"#utility.yul\":2067:2072   */\n      dup4\n        /* \"#utility.yul\":2063:2079   */\n      add\n        /* \"#utility.yul\":2057:2080   */\n      mload\n        /* \"#utility.yul\":2127:2130   */\n      dup5\n        /* \"#utility.yul\":2121:2125   */\n      dup3\n        /* \"#utility.yul\":2117:2131   */\n      sub\n        /* \"#utility.yul\":2110:2114   */\n      0x20\n        /* \"#utility.yul\":2105:2108   */\n      dup7\n        /* \"#utility.yul\":2101:2115   */\n      add\n        /* \"#utility.yul\":2094:2132   */\n      mstore\n        /* \"#utility.yul\":2153:2226   */\n      tag_292\n        /* \"#utility.yul\":2221:2225   */\n      dup3\n        /* \"#utility.yul\":2207:2219   */\n      dup3\n        /* \"#utility.yul\":2153:2226   */\n      tag_212\n      jump\t// in\n    tag_292:\n        /* \"#utility.yul\":2145:2226   */\n      swap2\n      pop\n        /* \"#utility.yul\":2002:2237   */\n      pop\n        /* \"#utility.yul\":2326:2330   */\n      0x40\n        /* \"#utility.yul\":2319:2324   */\n      dup4\n        /* \"#utility.yul\":2315:2331   */\n      add\n        /* \"#utility.yul\":2309:2332   */\n      mload\n        /* \"#utility.yul\":2379:2382   */\n      dup5\n        /* \"#utility.yul\":2373:2377   */\n      dup3\n        /* \"#utility.yul\":2369:2383   */\n      sub\n        /* \"#utility.yul\":2362:2366   */\n      0x40\n        /* \"#utility.yul\":2357:2360   */\n      dup7\n        /* \"#utility.yul\":2353:2367   */\n      add\n        /* \"#utility.yul\":2346:2384   */\n      mstore\n        /* \"#utility.yul\":2405:2478   */\n      tag_293\n        /* \"#utility.yul\":2473:2477   */\n      dup3\n        /* \"#utility.yul\":2459:2471   */\n      dup3\n        /* \"#utility.yul\":2405:2478   */\n      tag_212\n      jump\t// in\n    tag_293:\n        /* \"#utility.yul\":2397:2478   */\n      swap2\n      pop\n        /* \"#utility.yul\":2247:2489   */\n      pop\n        /* \"#utility.yul\":2506:2510   */\n      dup1\n        /* \"#utility.yul\":2499:2510   */\n      swap2\n      pop\n        /* \"#utility.yul\":1781:2516   */\n      pop\n        /* \"#utility.yul\":1671:2516   */\n      swap3\n      swap2\n      pop\n      pop\n      jump\t// out\n        /* \"#utility.yul\":2522:2648   */\n    tag_214:\n        /* \"#utility.yul\":2559:2566   */\n      0x00\n        /* \"#utility.yul\":2599:2641   */\n      0xffffffffffffffffffffffffffffffffffffffff\n        /* \"#utility.yul\":2592:2597   */\n      dup3\n        /* \"#utility.yul\":2588:2642   */\n      and\n        /* \"#utility.yul\":2577:2642   */\n      swap1\n      pop\n        /* \"#utility.yul\":2522:2648   */\n      swap2\n      swap1\n      pop\n      jump\t// out\n        /* \"#utility.yul\":2654:2750   */\n    tag_215:\n        /* \"#utility.yul\":2691:2698   */\n      0x00\n        /* \"#utility.yul\":2720:2744   */\n      tag_296\n        /* \"#utility.yul\":2738:2743   */\n      dup3\n        /* \"#utility.yul\":2720:2744   */\n      tag_214\n      jump\t// in\n    tag_296:\n        /* \"#utility.yul\":2709:2744   */\n      swap1\n      pop\n        /* \"#utility.yul\":2654:2750   */\n      swap2\n      swap1\n      pop\n      jump\t// out\n        /* \"#utility.yul\":2756:2864   */\n    tag_216:\n        /* \"#utility.yul\":2833:2857   */\n      tag_298\n        /* \"#utility.yul\":2851:2856   */\n      dup2\n        /* \"#utility.yul\":2833:2857   */\n      tag_215\n      jump\t// in\n    tag_298:\n        /* \"#utility.yul\":2828:2831   */\n      dup3\n        /* \"#utility.yul\":2821:2858   */\n      mstore\n        /* \"#utility.yul\":2756:2864   */\n      pop\n      pop\n      jump\t// out\n        /* \"#utility.yul\":2870:2960   */\n    tag_217:\n        /* \"#utility.yul\":2904:2911   */\n      0x00\n        /* \"#utility.yul\":2947:2952   */\n      dup2\n        /* \"#utility.yul\":2940:2953   */\n      iszero\n        /* \"#utility.yul\":2933:2954   */\n      iszero\n        /* \"#utility.yul\":2922:2954   */\n      swap1\n      pop\n        /* \"#utility.yul\":2870:2960   */\n      swap2\n      swap1\n      pop\n      jump\t// out\n        /* \"#utility.yul\":2966:3065   */\n    tag_218:\n        /* \"#utility.yul\":3037:3058   */\n      tag_301\n        /* \"#utility.yul\":3052:3057   */\n      dup2\n        /* \"#utility.yul\":3037:3058   */\n      tag_217\n      jump\t// in\n    tag_301:\n        /* \"#utility.yul\":3032:3035   */\n      dup3\n        /* \"#utility.yul\":3025:3059   */\n      mstore\n        /* \"#utility.yul\":2966:3065   */\n      pop\n      pop\n      jump\t// out\n        /* \"#utility.yul\":3135:4097   */\n    tag_219:\n        /* \"#utility.yul\":3240:3243   */\n      0x00\n        /* \"#utility.yul\":3276:3280   */\n      0x80\n        /* \"#utility.yul\":3271:3274   */\n      dup4\n        /* \"#utility.yul\":3267:3281   */\n      add\n        /* \"#utility.yul\":3362:3366   */\n      0x00\n        /* \"#utility.yul\":3355:3360   */\n      dup4\n        /* \"#utility.yul\":3351:3367   */\n      add\n        /* \"#utility.yul\":3345:3368   */\n      mload\n        /* \"#utility.yul\":3415:3418   */\n      dup5\n        /* \"#utility.yul\":3409:3413   */\n      dup3\n        /* \"#utility.yul\":3405:3419   */\n      sub\n        /* \"#utility.yul\":3398:3402   */\n      0x00\n        /* \"#utility.yul\":3393:3396   */\n      dup7\n        /* \"#utility.yul\":3389:3403   */\n      add\n        /* \"#utility.yul\":3382:3420   */\n      mstore\n        /* \"#utility.yul\":3441:3540   */\n      tag_303\n        /* \"#utility.yul\":3535:3539   */\n      dup3\n        /* \"#utility.yul\":3521:3533   */\n      dup3\n        /* \"#utility.yul\":3441:3540   */\n      tag_213\n      jump\t// in\n    tag_303:\n        /* \"#utility.yul\":3433:3540   */\n      swap2\n      pop\n        /* \"#utility.yul\":3291:3551   */\n      pop\n        /* \"#utility.yul\":3635:3639   */\n      0x20\n        /* \"#utility.yul\":3628:3633   */\n      dup4\n        /* \"#utility.yul\":3624:3640   */\n      add\n        /* \"#utility.yul\":3618:3641   */\n      mload\n        /* \"#utility.yul\":3654:3717   */\n      tag_304\n        /* \"#utility.yul\":3711:3715   */\n      0x20\n        /* \"#utility.yul\":3706:3709   */\n      dup7\n        /* \"#utility.yul\":3702:3716   */\n      add\n        /* \"#utility.yul\":3688:3700   */\n      dup3\n        /* \"#utility.yul\":3654:3717   */\n      tag_216\n      jump\t// in\n    tag_304:\n        /* \"#utility.yul\":3561:3727   */\n      pop\n        /* \"#utility.yul\":3810:3814   */\n      0x40\n        /* \"#utility.yul\":3803:3808   */\n      dup4\n        /* \"#utility.yul\":3799:3815   */\n      add\n        /* \"#utility.yul\":3793:3816   */\n      mload\n        /* \"#utility.yul\":3829:3892   */\n      tag_305\n        /* \"#utility.yul\":3886:3890   */\n      0x40\n        /* \"#utility.yul\":3881:3884   */\n      dup7\n        /* \"#utility.yul\":3877:3891   */\n      add\n        /* \"#utility.yul\":3863:3875   */\n      dup3\n        /* \"#utility.yul\":3829:3892   */\n      tag_207\n      jump\t// in\n    tag_305:\n        /* \"#utility.yul\":3737:3902   */\n      pop\n        /* \"#utility.yul\":3984:3988   */\n      0x60\n        /* \"#utility.yul\":3977:3982   */\n      dup4\n        /* \"#utility.yul\":3973:3989   */\n      add\n        /* \"#utility.yul\":3967:3990   */\n      mload\n        /* \"#utility.yul\":4003:4060   */\n      tag_306\n        /* \"#utility.yul\":4054:4058   */\n      0x60\n        /* \"#utility.yul\":4049:4052   */\n      dup7\n        /* \"#utility.yul\":4045:4059   */\n      add\n        /* \"#utility.yul\":4031:4043   */\n      dup3\n        /* \"#utility.yul\":4003:4060   */\n      tag_218\n      jump\t// in\n    tag_306:\n        /* \"#utility.yul\":3912:4070   */\n      pop\n        /* \"#utility.yul\":4087:4091   */\n      dup1\n        /* \"#utility.yul\":4080:4091   */\n      swap2\n      pop\n        /* \"#utility.yul\":3245:4097   */\n      pop\n        /* \"#utility.yul\":3135:4097   */\n      swap3\n      swap2\n      pop\n      pop\n      jump\t// out\n        /* \"#utility.yul\":4103:4351   */\n    tag_220:\n        /* \"#utility.yul\":4218:4228   */\n      0x00\n        /* \"#utility.yul\":4253:4345   */\n      tag_308\n        /* \"#utility.yul\":4341:4344   */\n      dup4\n        /* \"#utility.yul\":4333:4339   */\n      dup4\n        /* \"#utility.yul\":4253:4345   */\n      tag_219\n      jump\t// in\n    tag_308:\n        /* \"#utility.yul\":4239:4345   */\n      swap1\n      pop\n        /* \"#utility.yul\":4103:4351   */\n      swap3\n      swap2\n      pop\n      pop\n      jump\t// out\n        /* \"#utility.yul\":4357:4493   */\n    tag_221:\n        /* \"#utility.yul\":4450:4454   */\n      0x00\n        /* \"#utility.yul\":4482:4486   */\n      0x20\n        /* \"#utility.yul\":4477:4480   */\n      dup3\n        /* \"#utility.yul\":4473:4487   */\n      add\n        /* \"#utility.yul\":4465:4487   */\n      swap1\n      pop\n        /* \"#utility.yul\":4357:4493   */\n      swap2\n      swap1\n      pop\n      jump\t// out\n        /* \"#utility.yul\":4567:5662   */\n    tag_222:\n        /* \"#utility.yul\":4732:4735   */\n      0x00\n        /* \"#utility.yul\":4761:4838   */\n      tag_311\n        /* \"#utility.yul\":4832:4837   */\n      dup3\n        /* \"#utility.yul\":4761:4838   */\n      tag_203\n      jump\t// in\n    tag_311:\n        /* \"#utility.yul\":4854:4963   */\n      tag_312\n        /* \"#utility.yul\":4956:4962   */\n      dup2\n        /* \"#utility.yul\":4951:4954   */\n      dup6\n        /* \"#utility.yul\":4854:4963   */\n      tag_204\n      jump\t// in\n    tag_312:\n        /* \"#utility.yul\":4847:4963   */\n      swap4\n      pop\n        /* \"#utility.yul\":4989:4992   */\n      dup4\n        /* \"#utility.yul\":5034:5038   */\n      0x20\n        /* \"#utility.yul\":5026:5032   */\n      dup3\n        /* \"#utility.yul\":5022:5039   */\n      mul\n        /* \"#utility.yul\":5017:5020   */\n      dup6\n        /* \"#utility.yul\":5013:5040   */\n      add\n        /* \"#utility.yul\":5064:5143   */\n      tag_313\n        /* \"#utility.yul\":5137:5142   */\n      dup6\n        /* \"#utility.yul\":5064:5143   */\n      tag_205\n      jump\t// in\n    tag_313:\n        /* \"#utility.yul\":5166:5173   */\n      dup1\n        /* \"#utility.yul\":5197:5198   */\n      0x00\n        /* \"#utility.yul\":5182:5617   */\n    tag_314:\n        /* \"#utility.yul\":5207:5213   */\n      dup6\n        /* \"#utility.yul\":5204:5205   */\n      dup2\n        /* \"#utility.yul\":5201:5214   */\n      lt\n        /* \"#utility.yul\":5182:5617   */\n      iszero\n      tag_316\n      jumpi\n        /* \"#utility.yul\":5278:5287   */\n      dup5\n        /* \"#utility.yul\":5272:5276   */\n      dup5\n        /* \"#utility.yul\":5268:5288   */\n      sub\n        /* \"#utility.yul\":5263:5266   */\n      dup10\n        /* \"#utility.yul\":5256:5289   */\n      mstore\n        /* \"#utility.yul\":5329:5335   */\n      dup2\n        /* \"#utility.yul\":5323:5336   */\n      mload\n        /* \"#utility.yul\":5357:5467   */\n      tag_317\n        /* \"#utility.yul\":5462:5466   */\n      dup6\n        /* \"#utility.yul\":5447:5460   */\n      dup3\n        /* \"#utility.yul\":5357:5467   */\n      tag_220\n      jump\t// in\n    tag_317:\n        /* \"#utility.yul\":5349:5467   */\n      swap5\n      pop\n        /* \"#utility.yul\":5490:5573   */\n      tag_318\n        /* \"#utility.yul\":5566:5572   */\n      dup4\n        /* \"#utility.yul\":5490:5573   */\n      tag_221\n      jump\t// in\n    tag_318:\n        /* \"#utility.yul\":5480:5573   */\n      swap3\n      pop\n        /* \"#utility.yul\":5602:5606   */\n      0x20\n        /* \"#utility.yul\":5597:5600   */\n      dup11\n        /* \"#utility.yul\":5593:5607   */\n      add\n        /* \"#utility.yul\":5586:5607   */\n      swap10\n      pop\n        /* \"#utility.yul\":5242:5617   */\n      pop\n        /* \"#utility.yul\":5229:5230   */\n      0x01\n        /* \"#utility.yul\":5226:5227   */\n      dup2\n        /* \"#utility.yul\":5222:5231   */\n      add\n        /* \"#utility.yul\":5217:5231   */\n      swap1\n      pop\n        /* \"#utility.yul\":5182:5617   */\n      jump(tag_314)\n    tag_316:\n        /* \"#utility.yul\":5186:5200   */\n      pop\n        /* \"#utility.yul\":5633:5637   */\n      dup3\n        /* \"#utility.yul\":5626:5637   */\n      swap8\n      pop\n        /* \"#utility.yul\":5653:5656   */\n      dup8\n        /* \"#utility.yul\":5646:5656   */\n      swap6\n      pop\n        /* \"#utility.yul\":4737:5662   */\n      pop\n      pop\n      pop\n      pop\n      pop\n        /* \"#utility.yul\":4567:5662   */\n      swap3\n      swap2\n      pop\n      pop\n      jump\t// out\n        /* \"#utility.yul\":5668:6133   */\n    tag_12:\n        /* \"#utility.yul\":5857:5861   */\n      0x00\n        /* \"#utility.yul\":5895:5897   */\n      0x20\n        /* \"#utility.yul\":5884:5893   */\n      dup3\n        /* \"#utility.yul\":5880:5898   */\n      add\n        /* \"#utility.yul\":5872:5898   */\n      swap1\n      pop\n        /* \"#utility.yul\":5944:5953   */\n      dup2\n        /* \"#utility.yul\":5938:5942   */\n      dup2\n        /* \"#utility.yul\":5934:5954   */\n      sub\n        /* \"#utility.yul\":5930:5931   */\n      0x00\n        /* \"#utility.yul\":5919:5928   */\n      dup4\n        /* \"#utility.yul\":5915:5932   */\n      add\n        /* \"#utility.yul\":5908:5955   */\n      mstore\n        /* \"#utility.yul\":5972:6126   */\n      tag_320\n        /* \"#utility.yul\":6121:6125   */\n      dup2\n        /* \"#utility.yul\":6112:6118   */\n      dup5\n        /* \"#utility.yul\":5972:6126   */\n      tag_222\n      jump\t// in\n    tag_320:\n        /* \"#utility.yul\":5964:6126   */\n      swap1\n      pop\n        /* \"#utility.yul\":5668:6133   */\n      swap3\n      swap2\n      pop\n      pop\n      jump\t// out\n        /* \"#utility.yul\":6139:6214   */\n    tag_223:\n        /* \"#utility.yul\":6172:6178   */\n      0x00\n        /* \"#utility.yul\":6205:6207   */\n      0x40\n        /* \"#utility.yul\":6199:6208   */\n      mload\n        /* \"#utility.yul\":6189:6208   */\n      swap1\n      pop\n        /* \"#utility.yul\":6139:6214   */\n      swap1\n      jump\t// out\n        /* \"#utility.yul\":6220:6337   */\n    tag_224:\n        /* \"#utility.yul\":6329:6330   */\n      0x00\n        /* \"#utility.yul\":6326:6327   */\n      0x00\n        /* \"#utility.yul\":6319:6331   */\n      revert\n        /* \"#utility.yul\":6343:6460   */\n    tag_225:\n        /* \"#utility.yul\":6452:6453   */\n      0x00\n        /* \"#utility.yul\":6449:6450   */\n      0x00\n        /* \"#utility.yul\":6442:6454   */\n      revert\n        /* \"#utility.yul\":6466:6588   */\n    tag_226:\n        /* \"#utility.yul\":6539:6563   */\n      tag_325\n        /* \"#utility.yul\":6557:6562   */\n      dup2\n        /* \"#utility.yul\":6539:6563   */\n      tag_206\n      jump\t// in\n    tag_325:\n        /* \"#utility.yul\":6532:6537   */\n      dup2\n        /* \"#utility.yul\":6529:6564   */\n      eq\n        /* \"#utility.yul\":6519:6582   */\n      tag_326\n      jumpi\n        /* \"#utility.yul\":6578:6579   */\n      0x00\n        /* \"#utility.yul\":6575:6576   */\n      0x00\n        /* \"#utility.yul\":6568:6580   */\n      revert\n        /* \"#utility.yul\":6519:6582   */\n    tag_326:\n        /* \"#utility.yul\":6466:6588   */\n      pop\n      jump\t// out\n        /* \"#utility.yul\":6594:6733   */\n    tag_227:\n        /* \"#utility.yul\":6640:6645   */\n      0x00\n        /* \"#utility.yul\":6678:6684   */\n      dup2\n        /* \"#utility.yul\":6665:6685   */\n      calldataload\n        /* \"#utility.yul\":6656:6685   */\n      swap1\n      pop\n        /* \"#utility.yul\":6694:6727   */\n      tag_328\n        /* \"#utility.yul\":6721:6726   */\n      dup2\n        /* \"#utility.yul\":6694:6727   */\n      tag_226\n      jump\t// in\n    tag_328:\n        /* \"#utility.yul\":6594:6733   */\n      swap3\n      swap2\n      pop\n      pop\n      jump\t// out\n        /* \"#utility.yul\":6739:7068   */\n    tag_15:\n        /* \"#utility.yul\":6798:6804   */\n      0x00\n        /* \"#utility.yul\":6847:6849   */\n      0x20\n        /* \"#utility.yul\":6835:6844   */\n      dup3\n        /* \"#utility.yul\":6826:6833   */\n      dup5\n        /* \"#utility.yul\":6822:6845   */\n      sub\n        /* \"#utility.yul\":6818:6850   */\n      slt\n        /* \"#utility.yul\":6815:6934   */\n      iszero\n      tag_330\n      jumpi\n        /* \"#utility.yul\":6853:6932   */\n      tag_331\n      tag_224\n      jump\t// in\n    tag_331:\n        /* \"#utility.yul\":6815:6934   */\n    tag_330:\n        /* \"#utility.yul\":6973:6974   */\n      0x00\n        /* \"#utility.yul\":6998:7051   */\n      tag_332\n        /* \"#utility.yul\":7043:7050   */\n      dup5\n        /* \"#utility.yul\":7034:7040   */\n      dup3\n        /* \"#utility.yul\":7023:7032   */\n      dup6\n        /* \"#utility.yul\":7019:7041   */\n      add\n        /* \"#utility.yul\":6998:7051   */\n      tag_227\n      jump\t// in\n    tag_332:\n        /* \"#utility.yul\":6988:7051   */\n      swap2\n      pop\n        /* \"#utility.yul\":6944:7061   */\n      pop\n        /* \"#utility.yul\":6739:7068   */\n      swap3\n      swap2\n      pop\n      pop\n      jump\t// out\n        /* \"#utility.yul\":7074:7548   */\n    tag_22:\n        /* \"#utility.yul\":7142:7148   */\n      0x00\n        /* \"#utility.yul\":7150:7156   */\n      0x00\n        /* \"#utility.yul\":7199:7201   */\n      0x40\n        /* \"#utility.yul\":7187:7196   */\n      dup4\n        /* \"#utility.yul\":7178:7185   */\n      dup6\n        /* \"#utility.yul\":7174:7197   */\n      sub\n        /* \"#utility.yul\":7170:7202   */\n      slt\n        /* \"#utility.yul\":7167:7286   */\n      iszero\n      tag_334\n      jumpi\n        /* \"#utility.yul\":7205:7284   */\n      tag_335\n      tag_224\n      jump\t// in\n    tag_335:\n        /* \"#utility.yul\":7167:7286   */\n    tag_334:\n        /* \"#utility.yul\":7325:7326   */\n      0x00\n        /* \"#utility.yul\":7350:7403   */\n      tag_336\n        /* \"#utility.yul\":7395:7402   */\n      dup6\n        /* \"#utility.yul\":7386:7392   */\n      dup3\n        /* \"#utility.yul\":7375:7384   */\n      dup7\n        /* \"#utility.yul\":7371:7393   */\n      add\n        /* \"#utility.yul\":7350:7403   */\n      tag_227\n      jump\t// in\n    tag_336:\n        /* \"#utility.yul\":7340:7403   */\n      swap3\n      pop\n        /* \"#utility.yul\":7296:7413   */\n      pop\n        /* \"#utility.yul\":7452:7454   */\n      0x20\n        /* \"#utility.yul\":7478:7531   */\n      tag_337\n        /* \"#utility.yul\":7523:7530   */\n      dup6\n        /* \"#utility.yul\":7514:7520   */\n      dup3\n        /* \"#utility.yul\":7503:7512   */\n      dup7\n        /* \"#utility.yul\":7499:7521   */\n      add\n        /* \"#utility.yul\":7478:7531   */\n      tag_227\n      jump\t// in\n    tag_337:\n        /* \"#utility.yul\":7468:7531   */\n      swap2\n      pop\n        /* \"#utility.yul\":7423:7541   */\n      pop\n        /* \"#utility.yul\":7074:7548   */\n      swap3\n      pop\n      swap3\n      swap1\n      pop\n      jump\t// out\n        /* \"#utility.yul\":7618:8590   */\n    tag_228:\n        /* \"#utility.yul\":7733:7736   */\n      0x00\n        /* \"#utility.yul\":7769:7773   */\n      0x80\n        /* \"#utility.yul\":7764:7767   */\n      dup4\n        /* \"#utility.yul\":7760:7774   */\n      add\n        /* \"#utility.yul\":7855:7859   */\n      0x00\n        /* \"#utility.yul\":7848:7853   */\n      dup4\n        /* \"#utility.yul\":7844:7860   */\n      add\n        /* \"#utility.yul\":7838:7861   */\n      mload\n        /* \"#utility.yul\":7908:7911   */\n      dup5\n        /* \"#utility.yul\":7902:7906   */\n      dup3\n        /* \"#utility.yul\":7898:7912   */\n      sub\n        /* \"#utility.yul\":7891:7895   */\n      0x00\n        /* \"#utility.yul\":7886:7889   */\n      dup7\n        /* \"#utility.yul\":7882:7896   */\n      add\n        /* \"#utility.yul\":7875:7913   */\n      mstore\n        /* \"#utility.yul\":7934:8033   */\n      tag_339\n        /* \"#utility.yul\":8028:8032   */\n      dup3\n        /* \"#utility.yul\":8014:8026   */\n      dup3\n        /* \"#utility.yul\":7934:8033   */\n      tag_213\n      jump\t// in\n    tag_339:\n        /* \"#utility.yul\":7926:8033   */\n      swap2\n      pop\n        /* \"#utility.yul\":7784:8044   */\n      pop\n        /* \"#utility.yul\":8128:8132   */\n      0x20\n        /* \"#utility.yul\":8121:8126   */\n      dup4\n        /* \"#utility.yul\":8117:8133   */\n      add\n        /* \"#utility.yul\":8111:8134   */\n      mload\n        /* \"#utility.yul\":8147:8210   */\n      tag_340\n        /* \"#utility.yul\":8204:8208   */\n      0x20\n        /* \"#utility.yul\":8199:8202   */\n      dup7\n        /* \"#utility.yul\":8195:8209   */\n      add\n        /* \"#utility.yul\":8181:8193   */\n      dup3\n        /* \"#utility.yul\":8147:8210   */\n      tag_216\n      jump\t// in\n    tag_340:\n        /* \"#utility.yul\":8054:8220   */\n      pop\n        /* \"#utility.yul\":8303:8307   */\n      0x40\n        /* \"#utility.yul\":8296:8301   */\n      dup4\n        /* \"#utility.yul\":8292:8308   */\n      add\n        /* \"#utility.yul\":8286:8309   */\n      mload\n        /* \"#utility.yul\":8322:8385   */\n      tag_341\n        /* \"#utility.yul\":8379:8383   */\n      0x40\n        /* \"#utility.yul\":8374:8377   */\n      dup7\n        /* \"#utility.yul\":8370:8384   */\n      add\n        /* \"#utility.yul\":8356:8368   */\n      dup3\n        /* \"#utility.yul\":8322:8385   */\n      tag_207\n      jump\t// in\n    tag_341:\n        /* \"#utility.yul\":8230:8395   */\n      pop\n        /* \"#utility.yul\":8477:8481   */\n      0x60\n        /* \"#utility.yul\":8470:8475   */\n      dup4\n        /* \"#utility.yul\":8466:8482   */\n      add\n        /* \"#utility.yul\":8460:8483   */\n      mload\n        /* \"#utility.yul\":8496:8553   */\n      tag_342\n        /* \"#utility.yul\":8547:8551   */\n      0x60\n        /* \"#utility.yul\":8542:8545   */\n      dup7\n        /* \"#utility.yul\":8538:8552   */\n      add\n        /* \"#utility.yul\":8524:8536   */\n      dup3\n        /* \"#utility.yul\":8496:8553   */\n      tag_218\n      jump\t// in\n    tag_342:\n        /* \"#utility.yul\":8405:8563   */\n      pop\n        /* \"#utility.yul\":8580:8584   */\n      dup1\n        /* \"#utility.yul\":8573:8584   */\n      swap2\n      pop\n        /* \"#utility.yul\":7738:8590   */\n      pop\n        /* \"#utility.yul\":7618:8590   */\n      swap3\n      swap2\n      pop\n      pop\n      jump\t// out\n        /* \"#utility.yul\":8596:8961   */\n    tag_28:\n        /* \"#utility.yul\":8735:8739   */\n      0x00\n        /* \"#utility.yul\":8773:8775   */\n      0x20\n        /* \"#utility.yul\":8762:8771   */\n      dup3\n        /* \"#utility.yul\":8758:8776   */\n      add\n        /* \"#utility.yul\":8750:8776   */\n      swap1\n      pop\n        /* \"#utility.yul\":8822:8831   */\n      dup2\n        /* \"#utility.yul\":8816:8820   */\n      dup2\n        /* \"#utility.yul\":8812:8832   */\n      sub\n        /* \"#utility.yul\":8808:8809   */\n      0x00\n        /* \"#utility.yul\":8797:8806   */\n      dup4\n        /* \"#utility.yul\":8793:8810   */\n      add\n        /* \"#utility.yul\":8786:8833   */\n      mstore\n        /* \"#utility.yul\":8850:8954   */\n      tag_344\n        /* \"#utility.yul\":8949:8953   */\n      dup2\n        /* \"#utility.yul\":8940:8946   */\n      dup5\n        /* \"#utility.yul\":8850:8954   */\n      tag_228\n      jump\t// in\n    tag_344:\n        /* \"#utility.yul\":8842:8954   */\n      swap1\n      pop\n        /* \"#utility.yul\":8596:8961   */\n      swap3\n      swap2\n      pop\n      pop\n      jump\t// out\n        /* \"#utility.yul\":8967:9089   */\n    tag_229:\n        /* \"#utility.yul\":9040:9064   */\n      tag_346\n        /* \"#utility.yul\":9058:9063   */\n      dup2\n        /* \"#utility.yul\":9040:9064   */\n      tag_215\n      jump\t// in\n    tag_346:\n        /* \"#utility.yul\":9033:9038   */\n      dup2\n        /* \"#utility.yul\":9030:9065   */\n      eq\n        /* \"#utility.yul\":9020:9083   */\n      tag_347\n      jumpi\n        /* \"#utility.yul\":9079:9080   */\n      0x00\n        /* \"#utility.yul\":9076:9077   */\n      0x00\n        /* \"#utility.yul\":9069:9081   */\n      revert\n        /* \"#utility.yul\":9020:9083   */\n    tag_347:\n        /* \"#utility.yul\":8967:9089   */\n      pop\n      jump\t// out\n        /* \"#utility.yul\":9095:9234   */\n    tag_230:\n        /* \"#utility.yul\":9141:9146   */\n      0x00\n        /* \"#utility.yul\":9179:9185   */\n      dup2\n        /* \"#utility.yul\":9166:9186   */\n      calldataload\n        /* \"#utility.yul\":9157:9186   */\n      swap1\n      pop\n        /* \"#utility.yul\":9195:9228   */\n      tag_349\n        /* \"#utility.yul\":9222:9227   */\n      dup2\n        /* \"#utility.yul\":9195:9228   */\n      tag_229\n      jump\t// in\n    tag_349:\n        /* \"#utility.yul\":9095:9234   */\n      swap3\n      swap2\n      pop\n      pop\n      jump\t// out\n        /* \"#utility.yul\":9240:9569   */\n    tag_31:\n        /* \"#utility.yul\":9299:9305   */\n      0x00\n        /* \"#utility.yul\":9348:9350   */\n      0x20\n        /* \"#utility.yul\":9336:9345   */\n      dup3\n        /* \"#utility.yul\":9327:9334   */\n      dup5\n        /* \"#utility.yul\":9323:9346   */\n      sub\n        /* \"#utility.yul\":9319:9351   */\n      slt\n        /* \"#utility.yul\":9316:9435   */\n      iszero\n      tag_351\n      jumpi\n        /* \"#utility.yul\":9354:9433   */\n      tag_352\n      tag_224\n      jump\t// in\n    tag_352:\n        /* \"#utility.yul\":9316:9435   */\n    tag_351:\n        /* \"#utility.yul\":9474:9475   */\n      0x00\n        /* \"#utility.yul\":9499:9552   */\n      tag_353\n        /* \"#utility.yul\":9544:9551   */\n      dup5\n        /* \"#utility.yul\":9535:9541   */\n      dup3\n        /* \"#utility.yul\":9524:9533   */\n      dup6\n        /* \"#utility.yul\":9520:9542   */\n      add\n        /* \"#utility.yul\":9499:9552   */\n      tag_230\n      jump\t// in\n    tag_353:\n        /* \"#utility.yul\":9489:9552   */\n      swap2\n      pop\n        /* \"#utility.yul\":9445:9562   */\n      pop\n        /* \"#utility.yul\":9240:9569   */\n      swap3\n      swap2\n      pop\n      pop\n      jump\t// out\n        /* \"#utility.yul\":9575:9755   */\n    tag_40:\n        /* \"#utility.yul\":9623:9700   */\n      0x4e487b7100000000000000000000000000000000000000000000000000000000\n        /* \"#utility.yul\":9620:9621   */\n      0x00\n        /* \"#utility.yul\":9613:9701   */\n      mstore\n        /* \"#utility.yul\":9720:9724   */\n      0x32\n        /* \"#utility.yul\":9717:9718   */\n      0x04\n        /* \"#utility.yul\":9710:9725   */\n      mstore\n        /* \"#utility.yul\":9744:9748   */\n      0x24\n        /* \"#utility.yul\":9741:9742   */\n      0x00\n        /* \"#utility.yul\":9734:9749   */\n      revert\n        /* \"#utility.yul\":9761:9941   */\n    tag_231:\n        /* \"#utility.yul\":9809:9886   */\n      0x4e487b7100000000000000000000000000000000000000000000000000000000\n        /* \"#utility.yul\":9806:9807   */\n      0x00\n        /* \"#utility.yul\":9799:9887   */\n      mstore\n        /* \"#utility.yul\":9906:9910   */\n      0x11\n        /* \"#utility.yul\":9903:9904   */\n      0x04\n        /* \"#utility.yul\":9896:9911   */\n      mstore\n        /* \"#utility.yul\":9930:9934   */\n      0x24\n        /* \"#utility.yul\":9927:9928   */\n      0x00\n        /* \"#utility.yul\":9920:9935   */\n      revert\n        /* \"#utility.yul\":9947:10180   */\n    tag_44:\n        /* \"#utility.yul\":9986:9989   */\n      0x00\n        /* \"#utility.yul\":10009:10033   */\n      tag_357\n        /* \"#utility.yul\":10027:10032   */\n      dup3\n        /* \"#utility.yul\":10009:10033   */\n      tag_206\n      jump\t// in\n    tag_357:\n        /* \"#utility.yul\":10000:10033   */\n      swap2\n      pop\n        /* \"#utility.yul\":10055:10121   */\n      0xffffffffffffffffffffffffffffffffffffffffffffffffffffffffffffffff\n        /* \"#utility.yul\":10048:10053   */\n      dup3\n        /* \"#utility.yul\":10045:10122   */\n      sub\n        /* \"#utility.yul\":10042:10145   */\n      tag_358\n      jumpi\n        /* \"#utility.yul\":10125:10143   */\n      tag_359\n      tag_231\n      jump\t// in\n    tag_359:\n        /* \"#utility.yul\":10042:10145   */\n    tag_358:\n        /* \"#utility.yul\":10172:10173   */\n      0x01\n        /* \"#utility.yul\":10165:10170   */\n      dup3\n        /* \"#utility.yul\":10161:10174   */\n      add\n        /* \"#utility.yul\":10154:10174   */\n      swap1\n      pop\n        /* \"#utility.yul\":9947:10180   */\n      swap2\n      swap1\n      pop\n      jump\t// out\n        /* \"#utility.yul\":10186:10366   */\n    tag_47:\n        /* \"#utility.yul\":10234:10311   */\n      0x4e487b7100000000000000000000000000000000000000000000000000000000\n        /* \"#utility.yul\":10231:10232   */\n      0x00\n        /* \"#utility.yul\":10224:10312   */\n      mstore\n        /* \"#utility.yul\":10331:10335   */\n      0x41\n        /* \"#utility.yul\":10328:10329   */\n      0x04\n        /* \"#utility.yul\":10321:10336   */\n      mstore\n        /* \"#utility.yul\":10355:10359   */\n      0x24\n        /* \"#utility.yul\":10352:10353   */\n      0x00\n        /* \"#utility.yul\":10345:10360   */\n      revert\n        /* \"#utility.yul\":10372:10552   */\n    tag_232:\n        /* \"#utility.yul\":10420:10497   */\n      0x4e487b7100000000000000000000000000000000000000000000000000000000\n        /* \"#utility.yul\":10417:10418   */\n      0x00\n        /* \"#utility.yul\":10410:10498   */\n      mstore\n        /* \"#utility.yul\":10517:10521   */\n      0x22\n        /* \"#utility.yul\":10514:10515   */\n      0x04\n        /* \"#utility.yul\":10507:10522   */\n      mstore\n        /* \"#utility.yul\":10541:10545   */\n      0x24\n        /* \"#utility.yul\":10538:10539   */\n      0x00\n        /* \"#utility.yul\":10531:10546   */\n      revert\n        /* \"#utility.yul\":10558:10878   */\n    tag_63:\n        /* \"#utility.yul\":10602:10608   */\n      0x00\n        /* \"#utility.yul\":10639:10640   */\n      0x02\n        /* \"#utility.yul\":10633:10637   */\n      dup3\n        /* \"#utility.yul\":10629:10641   */\n      div\n        /* \"#utility.yul\":10619:10641   */\n      swap1\n      pop\n        /* \"#utility.yul\":10686:10687   */\n      0x01\n        /* \"#utility.yul\":10680:10684   */\n      dup3\n        /* \"#utility.yul\":10676:10688   */\n      and\n        /* \"#utility.yul\":10707:10725   */\n      dup1\n        /* \"#utility.yul\":10697:10778   */\n      tag_363\n      jumpi\n        /* \"#utility.yul\":10763:10767   */\n      0x7f\n        /* \"#utility.yul\":10755:10761   */\n      dup3\n        /* \"#utility.yul\":10751:10768   */\n      and\n        /* \"#utility.yul\":10741:10768   */\n      swap2\n      pop\n        /* \"#utility.yul\":10697:10778   */\n    tag_363:\n        /* \"#utility.yul\":10825:10827   */\n      0x20\n        /* \"#utility.yul\":10817:10823   */\n      dup3\n        /* \"#utility.yul\":10814:10828   */\n      lt\n        /* \"#utility.yul\":10794:10812   */\n      dup2\n        /* \"#utility.yul\":10791:10829   */\n      sub\n        /* \"#utility.yul\":10788:10872   */\n      tag_364\n      jumpi\n        /* \"#utility.yul\":10844:10862   */\n      tag_365\n      tag_232\n      jump\t// in\n    tag_365:\n        /* \"#utility.yul\":10788:10872   */\n    tag_364:\n        /* \"#utility.yul\":10609:10878   */\n      pop\n        /* \"#utility.yul\":10558:10878   */\n      swap2\n      swap1\n      pop\n      jump\t// out\n        /* \"#utility.yul\":10884:11053   */\n    tag_233:\n        /* \"#utility.yul\":10968:10979   */\n      0x00\n        /* \"#utility.yul\":11002:11008   */\n      dup3\n        /* \"#utility.yul\":10997:11000   */\n      dup3\n        /* \"#utility.yul\":10990:11009   */\n      mstore\n        /* \"#utility.yul\":11042:11046   */\n      0x20\n        /* \"#utility.yul\":11037:11040   */\n      dup3\n        /* \"#utility.yul\":11033:11047   */\n      add\n        /* \"#utility.yul\":11018:11047   */\n      swap1\n      pop\n        /* \"#utility.yul\":10884:11053   */\n      swap3\n      swap2\n      pop\n      pop\n      jump\t// out\n        /* \"#utility.yul\":11059:11223   */\n    tag_234:\n        /* \"#utility.yul\":11199:11215   */\n      0x4e4654206e6f74206c6973746564000000000000000000000000000000000000\n        /* \"#utility.yul\":11195:11196   */\n      0x00\n        /* \"#utility.yul\":11187:11193   */\n      dup3\n        /* \"#utility.yul\":11183:11197   */\n      add\n        /* \"#utility.yul\":11176:11216   */\n      mstore\n        /* \"#utility.yul\":11059:11223   */\n      pop\n      jump\t// out\n        /* \"#utility.yul\":11229:11595   */\n    tag_235:\n        /* \"#utility.yul\":11371:11374   */\n      0x00\n        /* \"#utility.yul\":11392:11459   */\n      tag_369\n        /* \"#utility.yul\":11456:11458   */\n      0x0e\n        /* \"#utility.yul\":11451:11454   */\n      dup4\n        /* \"#utility.yul\":11392:11459   */\n      tag_233\n      jump\t// in\n    tag_369:\n        /* \"#utility.yul\":11385:11459   */\n      swap2\n      pop\n        /* \"#utility.yul\":11468:11561   */\n      tag_370\n        /* \"#utility.yul\":11557:11560   */\n      dup3\n        /* \"#utility.yul\":11468:11561   */\n      tag_234\n      jump\t// in\n    tag_370:\n        /* \"#utility.yul\":11586:11588   */\n      0x20\n        /* \"#utility.yul\":11581:11584   */\n      dup3\n        /* \"#utility.yul\":11577:11589   */\n      add\n        /* \"#utility.yul\":11570:11589   */\n      swap1\n      pop\n        /* \"#utility.yul\":11229:11595   */\n      swap2\n      swap1\n      pop\n      jump\t// out\n        /* \"#utility.yul\":11601:12020   */\n    tag_79:\n        /* \"#utility.yul\":11767:11771   */\n      0x00\n        /* \"#utility.yul\":11805:11807   */\n      0x20\n        /* \"#utility.yul\":11794:11803   */\n      dup3\n        /* \"#utility.yul\":11790:11808   */\n      add\n        /* \"#utility.yul\":11782:11808   */\n      swap1\n      pop\n        /* \"#utility.yul\":11854:11863   */\n      dup2\n        /* \"#utility.yul\":11848:11852   */\n      dup2\n        /* \"#utility.yul\":11844:11864   */\n      sub\n        /* \"#utility.yul\":11840:11841   */\n      0x00\n        /* \"#utility.yul\":11829:11838   */\n      dup4\n        /* \"#utility.yul\":11825:11842   */\n      add\n        /* \"#utility.yul\":11818:11865   */\n      mstore\n        /* \"#utility.yul\":11882:12013   */\n      tag_372\n        /* \"#utility.yul\":12008:12012   */\n      dup2\n        /* \"#utility.yul\":11882:12013   */\n      tag_235\n      jump\t// in\n    tag_372:\n        /* \"#utility.yul\":11874:12013   */\n      swap1\n      pop\n        /* \"#utility.yul\":11601:12020   */\n      swap2\n      swap1\n      pop\n      jump\t// out\n        /* \"#utility.yul\":12026:12192   */\n    tag_236:\n        /* \"#utility.yul\":12166:12184   */\n      0x4e465420416c726561647920736f6c6400000000000000000000000000000000\n        /* \"#utility.yul\":12162:12163   */\n      0x00\n        /* \"#utility.yul\":12154:12160   */\n      dup3\n        /* \"#utility.yul\":12150:12164   */\n      add\n        /* \"#utility.yul\":12143:12185   */\n      mstore\n        /* \"#utility.yul\":12026:12192   */\n      pop\n      jump\t// out\n        /* \"#utility.yul\":12198:12564   */\n    tag_237:\n        /* \"#utility.yul\":12340:12343   */\n      0x00\n        /* \"#utility.yul\":12361:12428   */\n      tag_375\n        /* \"#utility.yul\":12425:12427   */\n      0x10\n        /* \"#utility.yul\":12420:12423   */\n      dup4\n        /* \"#utility.yul\":12361:12428   */\n      tag_233\n      jump\t// in\n    tag_375:\n        /* \"#utility.yul\":12354:12428   */\n      swap2\n      pop\n        /* \"#utility.yul\":12437:12530   */\n      tag_376\n        /* \"#utility.yul\":12526:12529   */\n      dup3\n        /* \"#utility.yul\":12437:12530   */\n      tag_236\n      jump\t// in\n    tag_376:\n        /* \"#utility.yul\":12555:12557   */\n      0x20\n        /* \"#utility.yul\":12550:12553   */\n      dup3\n        /* \"#utility.yul\":12546:12558   */\n      add\n        /* \"#utility.yul\":12539:12558   */\n      swap1\n      pop\n        /* \"#utility.yul\":12198:12564   */\n      swap2\n      swap1\n      pop\n      jump\t// out\n        /* \"#utility.yul\":12570:12989   */\n    tag_82:\n        /* \"#utility.yul\":12736:12740   */\n      0x00\n        /* \"#utility.yul\":12774:12776   */\n      0x20\n        /* \"#utility.yul\":12763:12772   */\n      dup3\n        /* \"#utility.yul\":12759:12777   */\n      add\n        /* \"#utility.yul\":12751:12777   */\n      swap1\n      pop\n        /* \"#utility.yul\":12823:12832   */\n      dup2\n        /* \"#utility.yul\":12817:12821   */\n      dup2\n        /* \"#utility.yul\":12813:12833   */\n      sub\n        /* \"#utility.yul\":12809:12810   */\n      0x00\n        /* \"#utility.yul\":12798:12807   */\n      dup4\n        /* \"#utility.yul\":12794:12811   */\n      add\n        /* \"#utility.yul\":12787:12834   */\n      mstore\n        /* \"#utility.yul\":12851:12982   */\n      tag_378\n        /* \"#utility.yul\":12977:12981   */\n      dup2\n        /* \"#utility.yul\":12851:12982   */\n      tag_237\n      jump\t// in\n    tag_378:\n        /* \"#utility.yul\":12843:12982   */\n      swap1\n      pop\n        /* \"#utility.yul\":12570:12989   */\n      swap2\n      swap1\n      pop\n      jump\t// out\n        /* \"#utility.yul\":12995:13113   */\n    tag_238:\n        /* \"#utility.yul\":13082:13106   */\n      tag_380\n        /* \"#utility.yul\":13100:13105   */\n      dup2\n        /* \"#utility.yul\":13082:13106   */\n      tag_215\n      jump\t// in\n    tag_380:\n        /* \"#utility.yul\":13077:13080   */\n      dup3\n        /* \"#utility.yul\":13070:13107   */\n      mstore\n        /* \"#utility.yul\":12995:13113   */\n      pop\n      pop\n      jump\t// out\n        /* \"#utility.yul\":13119:13341   */\n    tag_84:\n        /* \"#utility.yul\":13212:13216   */\n      0x00\n        /* \"#utility.yul\":13250:13252   */\n      0x20\n        /* \"#utility.yul\":13239:13248   */\n      dup3\n        /* \"#utility.yul\":13235:13253   */\n      add\n        /* \"#utility.yul\":13227:13253   */\n      swap1\n      pop\n        /* \"#utility.yul\":13263:13334   */\n      tag_382\n        /* \"#utility.yul\":13331:13332   */\n      0x00\n        /* \"#utility.yul\":13320:13329   */\n      dup4\n        /* \"#utility.yul\":13316:13333   */\n      add\n        /* \"#utility.yul\":13307:13313   */\n      dup5\n        /* \"#utility.yul\":13263:13334   */\n      tag_238\n      jump\t// in\n    tag_382:\n        /* \"#utility.yul\":13119:13341   */\n      swap3\n      swap2\n      pop\n      pop\n      jump\t// out\n        /* \"#utility.yul\":13347:13490   */\n    tag_239:\n        /* \"#utility.yul\":13404:13409   */\n      0x00\n        /* \"#utility.yul\":13435:13441   */\n      dup2\n        /* \"#utility.yul\":13429:13442   */\n      mload\n        /* \"#utility.yul\":13420:13442   */\n      swap1\n      pop\n        /* \"#utility.yul\":13451:13484   */\n      tag_384\n        /* \"#utility.yul\":13478:13483   */\n      dup2\n        /* \"#utility.yul\":13451:13484   */\n      tag_226\n      jump\t// in\n    tag_384:\n        /* \"#utility.yul\":13347:13490   */\n      swap3\n      swap2\n      pop\n      pop\n      jump\t// out\n        /* \"#utility.yul\":13496:13847   */\n    tag_88:\n        /* \"#utility.yul\":13566:13572   */\n      0x00\n        /* \"#utility.yul\":13615:13617   */\n      0x20\n        /* \"#utility.yul\":13603:13612   */\n      dup3\n        /* \"#utility.yul\":13594:13601   */\n      dup5\n        /* \"#utility.yul\":13590:13613   */\n      sub\n        /* \"#utility.yul\":13586:13618   */\n      slt\n        /* \"#utility.yul\":13583:13702   */\n      iszero\n      tag_386\n      jumpi\n        /* \"#utility.yul\":13621:13700   */\n      tag_387\n      tag_224\n      jump\t// in\n    tag_387:\n        /* \"#utility.yul\":13583:13702   */\n    tag_386:\n        /* \"#utility.yul\":13741:13742   */\n      0x00\n        /* \"#utility.yul\":13766:13830   */\n      tag_388\n        /* \"#utility.yul\":13822:13829   */\n      dup5\n        /* \"#utility.yul\":13813:13819   */\n      dup3\n        /* \"#utility.yul\":13802:13811   */\n      dup6\n        /* \"#utility.yul\":13798:13820   */\n      add\n        /* \"#utility.yul\":13766:13830   */\n      tag_239\n      jump\t// in\n    tag_388:\n        /* \"#utility.yul\":13756:13830   */\n      swap2\n      pop\n        /* \"#utility.yul\":13712:13840   */\n      pop\n        /* \"#utility.yul\":13496:13847   */\n      swap3\n      swap2\n      pop\n      pop\n      jump\t// out\n        /* \"#utility.yul\":13853:14033   */\n    tag_240:\n        /* \"#utility.yul\":13993:14025   */\n      0x496e73756666696369656e7420746f6b656e7320746f20627579204e46540000\n        /* \"#utility.yul\":13989:13990   */\n      0x00\n        /* \"#utility.yul\":13981:13987   */\n      dup3\n        /* \"#utility.yul\":13977:13991   */\n      add\n        /* \"#utility.yul\":13970:14026   */\n      mstore\n        /* \"#utility.yul\":13853:14033   */\n      pop\n      jump\t// out\n        /* \"#utility.yul\":14039:14405   */\n    tag_241:\n        /* \"#utility.yul\":14181:14184   */\n      0x00\n        /* \"#utility.yul\":14202:14269   */\n      tag_391\n        /* \"#utility.yul\":14266:14268   */\n      0x1e\n        /* \"#utility.yul\":14261:14264   */\n      dup4\n        /* \"#utility.yul\":14202:14269   */\n      tag_233\n      jump\t// in\n    tag_391:\n        /* \"#utility.yul\":14195:14269   */\n      swap2\n      pop\n        /* \"#utility.yul\":14278:14371   */\n      tag_392\n        /* \"#utility.yul\":14367:14370   */\n      dup3\n        /* \"#utility.yul\":14278:14371   */\n      tag_240\n      jump\t// in\n    tag_392:\n        /* \"#utility.yul\":14396:14398   */\n      0x20\n        /* \"#utility.yul\":14391:14394   */\n      dup3\n        /* \"#utility.yul\":14387:14399   */\n      add\n        /* \"#utility.yul\":14380:14399   */\n      swap1\n      pop\n        /* \"#utility.yul\":14039:14405   */\n      swap2\n      swap1\n      pop\n      jump\t// out\n        /* \"#utility.yul\":14411:14830   */\n    tag_91:\n        /* \"#utility.yul\":14577:14581   */\n      0x00\n        /* \"#utility.yul\":14615:14617   */\n      0x20\n        /* \"#utility.yul\":14604:14613   */\n      dup3\n        /* \"#utility.yul\":14600:14618   */\n      add\n        /* \"#utility.yul\":14592:14618   */\n      swap1\n      pop\n        /* \"#utility.yul\":14664:14673   */\n      dup2\n        /* \"#utility.yul\":14658:14662   */\n      dup2\n        /* \"#utility.yul\":14654:14674   */\n      sub\n        /* \"#utility.yul\":14650:14651   */\n      0x00\n        /* \"#utility.yul\":14639:14648   */\n      dup4\n        /* \"#utility.yul\":14635:14652   */\n      add\n        /* \"#utility.yul\":14628:14675   */\n      mstore\n        /* \"#utility.yul\":14692:14823   */\n      tag_394\n        /* \"#utility.yul\":14818:14822   */\n      dup2\n        /* \"#utility.yul\":14692:14823   */\n      tag_241\n      jump\t// in\n    tag_394:\n        /* \"#utility.yul\":14684:14823   */\n      swap1\n      pop\n        /* \"#utility.yul\":14411:14830   */\n      swap2\n      swap1\n      pop\n      jump\t// out\n        /* \"#utility.yul\":14836:14954   */\n    tag_242:\n        /* \"#utility.yul\":14923:14947   */\n      tag_396\n        /* \"#utility.yul\":14941:14946   */\n      dup2\n        /* \"#utility.yul\":14923:14947   */\n      tag_206\n      jump\t// in\n    tag_396:\n        /* \"#utility.yul\":14918:14921   */\n      dup3\n        /* \"#utility.yul\":14911:14948   */\n      mstore\n        /* \"#utility.yul\":14836:14954   */\n      pop\n      pop\n      jump\t// out\n        /* \"#utility.yul\":14960:15402   */\n    tag_93:\n        /* \"#utility.yul\":15109:15113   */\n      0x00\n        /* \"#utility.yul\":15147:15149   */\n      0x60\n        /* \"#utility.yul\":15136:15145   */\n      dup3\n        /* \"#utility.yul\":15132:15150   */\n      add\n        /* \"#utility.yul\":15124:15150   */\n      swap1\n      pop\n        /* \"#utility.yul\":15160:15231   */\n      tag_398\n        /* \"#utility.yul\":15228:15229   */\n      0x00\n        /* \"#utility.yul\":15217:15226   */\n      dup4\n        /* \"#utility.yul\":15213:15230   */\n      add\n        /* \"#utility.yul\":15204:15210   */\n      dup7\n        /* \"#utility.yul\":15160:15231   */\n      tag_238\n      jump\t// in\n    tag_398:\n        /* \"#utility.yul\":15241:15313   */\n      tag_399\n        /* \"#utility.yul\":15309:15311   */\n      0x20\n        /* \"#utility.yul\":15298:15307   */\n      dup4\n        /* \"#utility.yul\":15294:15312   */\n      add\n        /* \"#utility.yul\":15285:15291   */\n      dup6\n        /* \"#utility.yul\":15241:15313   */\n      tag_238\n      jump\t// in\n    tag_399:\n        /* \"#utility.yul\":15323:15395   */\n      tag_400\n        /* \"#utility.yul\":15391:15393   */\n      0x40\n        /* \"#utility.yul\":15380:15389   */\n      dup4\n        /* \"#utility.yul\":15376:15394   */\n      add\n        /* \"#utility.yul\":15367:15373   */\n      dup5\n        /* \"#utility.yul\":15323:15395   */\n      tag_242\n      jump\t// in\n    tag_400:\n        /* \"#utility.yul\":14960:15402   */\n      swap5\n      swap4\n      pop\n      pop\n      pop\n      pop\n      jump\t// out\n        /* \"#utility.yul\":15408:15524   */\n    tag_243:\n        /* \"#utility.yul\":15478:15499   */\n      tag_402\n        /* \"#utility.yul\":15493:15498   */\n      dup2\n        /* \"#utility.yul\":15478:15499   */\n      tag_217\n      jump\t// in\n    tag_402:\n        /* \"#utility.yul\":15471:15476   */\n      dup2\n        /* \"#utility.yul\":15468:15500   */\n      eq\n        /* \"#utility.yul\":15458:15518   */\n      tag_403\n      jumpi\n        /* \"#utility.yul\":15514:15515   */\n      0x00\n        /* \"#utility.yul\":15511:15512   */\n      0x00\n        /* \"#utility.yul\":15504:15516   */\n      revert\n        /* \"#utility.yul\":15458:15518   */\n    tag_403:\n        /* \"#utility.yul\":15408:15524   */\n      pop\n      jump\t// out\n        /* \"#utility.yul\":15530:15667   */\n    tag_244:\n        /* \"#utility.yul\":15584:15589   */\n      0x00\n        /* \"#utility.yul\":15615:15621   */\n      dup2\n        /* \"#utility.yul\":15609:15622   */\n      mload\n        /* \"#utility.yul\":15600:15622   */\n      swap1\n      pop\n        /* \"#utility.yul\":15631:15661   */\n      tag_405\n        /* \"#utility.yul\":15655:15660   */\n      dup2\n        /* \"#utility.yul\":15631:15661   */\n      tag_243\n      jump\t// in\n    tag_405:\n        /* \"#utility.yul\":15530:15667   */\n      swap3\n      swap2\n      pop\n      pop\n      jump\t// out\n        /* \"#utility.yul\":15673:16018   */\n    tag_97:\n        /* \"#utility.yul\":15740:15746   */\n      0x00\n        /* \"#utility.yul\":15789:15791   */\n      0x20\n        /* \"#utility.yul\":15777:15786   */\n      dup3\n        /* \"#utility.yul\":15768:15775   */\n      dup5\n        /* \"#utility.yul\":15764:15787   */\n      sub\n        /* \"#utility.yul\":15760:15792   */\n      slt\n        /* \"#utility.yul\":15757:15876   */\n      iszero\n      tag_407\n      jumpi\n        /* \"#utility.yul\":15795:15874   */\n      tag_408\n      tag_224\n      jump\t// in\n    tag_408:\n        /* \"#utility.yul\":15757:15876   */\n    tag_407:\n        /* \"#utility.yul\":15915:15916   */\n      0x00\n        /* \"#utility.yul\":15940:16001   */\n      tag_409\n        /* \"#utility.yul\":15993:16000   */\n      dup5\n        /* \"#utility.yul\":15984:15990   */\n      dup3\n        /* \"#utility.yul\":15973:15982   */\n      dup6\n        /* \"#utility.yul\":15969:15991   */\n      add\n        /* \"#utility.yul\":15940:16001   */\n      tag_244\n      jump\t// in\n    tag_409:\n        /* \"#utility.yul\":15930:16001   */\n      swap2\n      pop\n        /* \"#utility.yul\":15886:16011   */\n      pop\n        /* \"#utility.yul\":15673:16018   */\n      swap3\n      swap2\n      pop\n      pop\n      jump\t// out\n        /* \"#utility.yul\":16024:16466   */\n    tag_99:\n        /* \"#utility.yul\":16173:16177   */\n      0x00\n        /* \"#utility.yul\":16211:16213   */\n      0x60\n        /* \"#utility.yul\":16200:16209   */\n      dup3\n        /* \"#utility.yul\":16196:16214   */\n      add\n        /* \"#utility.yul\":16188:16214   */\n      swap1\n      pop\n        /* \"#utility.yul\":16224:16295   */\n      tag_411\n        /* \"#utility.yul\":16292:16293   */\n      0x00\n        /* \"#utility.yul\":16281:16290   */\n      dup4\n        /* \"#utility.yul\":16277:16294   */\n      add\n        /* \"#utility.yul\":16268:16274   */\n      dup7\n        /* \"#utility.yul\":16224:16295   */\n      tag_242\n      jump\t// in\n    tag_411:\n        /* \"#utility.yul\":16305:16377   */\n      tag_412\n        /* \"#utility.yul\":16373:16375   */\n      0x20\n        /* \"#utility.yul\":16362:16371   */\n      dup4\n        /* \"#utility.yul\":16358:16376   */\n      add\n        /* \"#utility.yul\":16349:16355   */\n      dup6\n        /* \"#utility.yul\":16305:16377   */\n      tag_238\n      jump\t// in\n    tag_412:\n        /* \"#utility.yul\":16387:16459   */\n      tag_413\n        /* \"#utility.yul\":16455:16457   */\n      0x40\n        /* \"#utility.yul\":16444:16453   */\n      dup4\n        /* \"#utility.yul\":16440:16458   */\n      add\n        /* \"#utility.yul\":16431:16437   */\n      dup5\n        /* \"#utility.yul\":16387:16459   */\n      tag_238\n      jump\t// in\n    tag_413:\n        /* \"#utility.yul\":16024:16466   */\n      swap5\n      swap4\n      pop\n      pop\n      pop\n      pop\n      jump\t// out\n        /* \"#utility.yul\":16472:16697   */\n    tag_245:\n        /* \"#utility.yul\":16612:16646   */\n      0x506c6561736520656e74657220636f727265637420707269636520666f722074\n        /* \"#utility.yul\":16608:16609   */\n      0x00\n        /* \"#utility.yul\":16600:16606   */\n      dup3\n        /* \"#utility.yul\":16596:16610   */\n      add\n        /* \"#utility.yul\":16589:16647   */\n      mstore\n        /* \"#utility.yul\":16681:16689   */\n      0x6865204e46540000000000000000000000000000000000000000000000000000\n        /* \"#utility.yul\":16676:16678   */\n      0x20\n        /* \"#utility.yul\":16668:16674   */\n      dup3\n        /* \"#utility.yul\":16664:16679   */\n      add\n        /* \"#utility.yul\":16657:16690   */\n      mstore\n        /* \"#utility.yul\":16472:16697   */\n      pop\n      jump\t// out\n        /* \"#utility.yul\":16703:17069   */\n    tag_246:\n        /* \"#utility.yul\":16845:16848   */\n      0x00\n        /* \"#utility.yul\":16866:16933   */\n      tag_416\n        /* \"#utility.yul\":16930:16932   */\n      0x26\n        /* \"#utility.yul\":16925:16928   */\n      dup4\n        /* \"#utility.yul\":16866:16933   */\n      tag_233\n      jump\t// in\n    tag_416:\n        /* \"#utility.yul\":16859:16933   */\n      swap2\n      pop\n        /* \"#utility.yul\":16942:17035   */\n      tag_417\n        /* \"#utility.yul\":17031:17034   */\n      dup3\n        /* \"#utility.yul\":16942:17035   */\n      tag_245\n      jump\t// in\n    tag_417:\n        /* \"#utility.yul\":17060:17062   */\n      0x40\n        /* \"#utility.yul\":17055:17058   */\n      dup3\n        /* \"#utility.yul\":17051:17063   */\n      add\n        /* \"#utility.yul\":17044:17063   */\n      swap1\n      pop\n        /* \"#utility.yul\":16703:17069   */\n      swap2\n      swap1\n      pop\n      jump\t// out\n        /* \"#utility.yul\":17075:17494   */\n    tag_144:\n        /* \"#utility.yul\":17241:17245   */\n      0x00\n        /* \"#utility.yul\":17279:17281   */\n      0x20\n        /* \"#utility.yul\":17268:17277   */\n      dup3\n        /* \"#utility.yul\":17264:17282   */\n      add\n        /* \"#utility.yul\":17256:17282   */\n      swap1\n      pop\n        /* \"#utility.yul\":17328:17337   */\n      dup2\n        /* \"#utility.yul\":17322:17326   */\n      dup2\n        /* \"#utility.yul\":17318:17338   */\n      sub\n        /* \"#utility.yul\":17314:17315   */\n      0x00\n        /* \"#utility.yul\":17303:17312   */\n      dup4\n        /* \"#utility.yul\":17299:17316   */\n      add\n        /* \"#utility.yul\":17292:17339   */\n      mstore\n        /* \"#utility.yul\":17356:17487   */\n      tag_419\n        /* \"#utility.yul\":17482:17486   */\n      dup2\n        /* \"#utility.yul\":17356:17487   */\n      tag_246\n      jump\t// in\n    tag_419:\n        /* \"#utility.yul\":17348:17487   */\n      swap1\n      pop\n        /* \"#utility.yul\":17075:17494   */\n      swap2\n      swap1\n      pop\n      jump\t// out\n        /* \"#utility.yul\":17500:17722   */\n    tag_146:\n        /* \"#utility.yul\":17593:17597   */\n      0x00\n        /* \"#utility.yul\":17631:17633   */\n      0x20\n        /* \"#utility.yul\":17620:17629   */\n      dup3\n        /* \"#utility.yul\":17616:17634   */\n      add\n        /* \"#utility.yul\":17608:17634   */\n      swap1\n      pop\n        /* \"#utility.yul\":17644:17715   */\n      tag_421\n        /* \"#utility.yul\":17712:17713   */\n      0x00\n        /* \"#utility.yul\":17701:17710   */\n      dup4\n        /* \"#utility.yul\":17697:17714   */\n      add\n        /* \"#utility.yul\":17688:17694   */\n      dup5\n        /* \"#utility.yul\":17644:17715   */\n      tag_242\n      jump\t// in\n    tag_421:\n        /* \"#utility.yul\":17500:17722   */\n      swap3\n      swap2\n      pop\n      pop\n      jump\t// out\n        /* \"#utility.yul\":17728:17845   */\n    tag_247:\n        /* \"#utility.yul\":17837:17838   */\n      0x00\n        /* \"#utility.yul\":17834:17835   */\n      0x00\n        /* \"#utility.yul\":17827:17839   */\n      revert\n        /* \"#utility.yul\":17851:17968   */\n    tag_248:\n        /* \"#utility.yul\":17960:17961   */\n      0x00\n        /* \"#utility.yul\":17957:17958   */\n      0x00\n        /* \"#utility.yul\":17950:17962   */\n      revert\n        /* \"#utility.yul\":17974:18255   */\n    tag_249:\n        /* \"#utility.yul\":18057:18084   */\n      tag_425\n        /* \"#utility.yul\":18079:18083   */\n      dup3\n        /* \"#utility.yul\":18057:18084   */\n      tag_211\n      jump\t// in\n    tag_425:\n        /* \"#utility.yul\":18049:18055   */\n      dup2\n        /* \"#utility.yul\":18045:18085   */\n      add\n        /* \"#utility.yul\":18187:18193   */\n      dup2\n        /* \"#utility.yul\":18175:18185   */\n      dup2\n        /* \"#utility.yul\":18172:18194   */\n      lt\n        /* \"#utility.yul\":18151:18169   */\n      0xffffffffffffffff\n        /* \"#utility.yul\":18139:18149   */\n      dup3\n        /* \"#utility.yul\":18136:18170   */\n      gt\n        /* \"#utility.yul\":18133:18195   */\n      or\n        /* \"#utility.yul\":18130:18218   */\n      iszero\n      tag_426\n      jumpi\n        /* \"#utility.yul\":18198:18216   */\n      tag_427\n      tag_47\n      jump\t// in\n    tag_427:\n        /* \"#utility.yul\":18130:18218   */\n    tag_426:\n        /* \"#utility.yul\":18238:18248   */\n      dup1\n        /* \"#utility.yul\":18234:18236   */\n      0x40\n        /* \"#utility.yul\":18227:18249   */\n      mstore\n        /* \"#utility.yul\":18017:18255   */\n      pop\n        /* \"#utility.yul\":17974:18255   */\n      pop\n      pop\n      jump\t// out\n        /* \"#utility.yul\":18261:18390   */\n    tag_250:\n        /* \"#utility.yul\":18295:18301   */\n      0x00\n        /* \"#utility.yul\":18322:18342   */\n      tag_429\n      tag_223\n      jump\t// in\n    tag_429:\n        /* \"#utility.yul\":18312:18342   */\n      swap1\n      pop\n        /* \"#utility.yul\":18351:18384   */\n      tag_430\n        /* \"#utility.yul\":18379:18383   */\n      dup3\n        /* \"#utility.yul\":18371:18377   */\n      dup3\n        /* \"#utility.yul\":18351:18384   */\n      tag_249\n      jump\t// in\n    tag_430:\n        /* \"#utility.yul\":18261:18390   */\n      swap2\n      swap1\n      pop\n      jump\t// out\n        /* \"#utility.yul\":18396:18704   */\n    tag_251:\n        /* \"#utility.yul\":18458:18462   */\n      0x00\n        /* \"#utility.yul\":18548:18566   */\n      0xffffffffffffffff\n        /* \"#utility.yul\":18540:18546   */\n      dup3\n        /* \"#utility.yul\":18537:18567   */\n      gt\n        /* \"#utility.yul\":18534:18590   */\n      iszero\n      tag_432\n      jumpi\n        /* \"#utility.yul\":18570:18588   */\n      tag_433\n      tag_47\n      jump\t// in\n    tag_433:\n        /* \"#utility.yul\":18534:18590   */\n    tag_432:\n        /* \"#utility.yul\":18608:18637   */\n      tag_434\n        /* \"#utility.yul\":18630:18636   */\n      dup3\n        /* \"#utility.yul\":18608:18637   */\n      tag_211\n      jump\t// in\n    tag_434:\n        /* \"#utility.yul\":18600:18637   */\n      swap1\n      pop\n        /* \"#utility.yul\":18692:18696   */\n      0x20\n        /* \"#utility.yul\":18686:18690   */\n      dup2\n        /* \"#utility.yul\":18682:18697   */\n      add\n        /* \"#utility.yul\":18674:18697   */\n      swap1\n      pop\n        /* \"#utility.yul\":18396:18704   */\n      swap2\n      swap1\n      pop\n      jump\t// out\n        /* \"#utility.yul\":18710:19144   */\n    tag_252:\n        /* \"#utility.yul\":18799:18804   */\n      0x00\n        /* \"#utility.yul\":18824:18890   */\n      tag_436\n        /* \"#utility.yul\":18840:18889   */\n      tag_437\n        /* \"#utility.yul\":18882:18888   */\n      dup5\n        /* \"#utility.yul\":18840:18889   */\n      tag_251\n      jump\t// in\n    tag_437:\n        /* \"#utility.yul\":18824:18890   */\n      tag_250\n      jump\t// in\n    tag_436:\n        /* \"#utility.yul\":18815:18890   */\n      swap1\n      pop\n        /* \"#utility.yul\":18913:18919   */\n      dup3\n        /* \"#utility.yul\":18906:18911   */\n      dup2\n        /* \"#utility.yul\":18899:18920   */\n      mstore\n        /* \"#utility.yul\":18951:18955   */\n      0x20\n        /* \"#utility.yul\":18944:18949   */\n      dup2\n        /* \"#utility.yul\":18940:18956   */\n      add\n        /* \"#utility.yul\":18989:18992   */\n      dup5\n        /* \"#utility.yul\":18980:18986   */\n      dup5\n        /* \"#utility.yul\":18975:18978   */\n      dup5\n        /* \"#utility.yul\":18971:18987   */\n      add\n        /* \"#utility.yul\":18968:18993   */\n      gt\n        /* \"#utility.yul\":18965:19077   */\n      iszero\n      tag_438\n      jumpi\n        /* \"#utility.yul\":18996:19075   */\n      tag_439\n      tag_248\n      jump\t// in\n    tag_439:\n        /* \"#utility.yul\":18965:19077   */\n    tag_438:\n        /* \"#utility.yul\":19086:19138   */\n      tag_440\n        /* \"#utility.yul\":19131:19137   */\n      dup5\n        /* \"#utility.yul\":19126:19129   */\n      dup3\n        /* \"#utility.yul\":19121:19124   */\n      dup6\n        /* \"#utility.yul\":19086:19138   */\n      tag_210\n      jump\t// in\n    tag_440:\n        /* \"#utility.yul\":18805:19144   */\n      pop\n        /* \"#utility.yul\":18710:19144   */\n      swap4\n      swap3\n      pop\n      pop\n      pop\n      jump\t// out\n        /* \"#utility.yul\":19164:19519   */\n    tag_253:\n        /* \"#utility.yul\":19231:19236   */\n      0x00\n        /* \"#utility.yul\":19280:19283   */\n      dup3\n        /* \"#utility.yul\":19273:19277   */\n      0x1f\n        /* \"#utility.yul\":19265:19271   */\n      dup4\n        /* \"#utility.yul\":19261:19278   */\n      add\n        /* \"#utility.yul\":19257:19284   */\n      slt\n        /* \"#utility.yul\":19247:19369   */\n      tag_442\n      jumpi\n        /* \"#utility.yul\":19288:19367   */\n      tag_443\n      tag_247\n      jump\t// in\n    tag_443:\n        /* \"#utility.yul\":19247:19369   */\n    tag_442:\n        /* \"#utility.yul\":19398:19404   */\n      dup2\n        /* \"#utility.yul\":19392:19405   */\n      mload\n        /* \"#utility.yul\":19423:19513   */\n      tag_444\n        /* \"#utility.yul\":19509:19512   */\n      dup5\n        /* \"#utility.yul\":19501:19507   */\n      dup3\n        /* \"#utility.yul\":19494:19498   */\n      0x20\n        /* \"#utility.yul\":19486:19492   */\n      dup7\n        /* \"#utility.yul\":19482:19499   */\n      add\n        /* \"#utility.yul\":19423:19513   */\n      tag_252\n      jump\t// in\n    tag_444:\n        /* \"#utility.yul\":19414:19513   */\n      swap2\n      pop\n        /* \"#utility.yul\":19237:19519   */\n      pop\n        /* \"#utility.yul\":19164:19519   */\n      swap3\n      swap2\n      pop\n      pop\n      jump\t// out\n        /* \"#utility.yul\":19525:19668   */\n    tag_254:\n        /* \"#utility.yul\":19582:19587   */\n      0x00\n        /* \"#utility.yul\":19613:19619   */\n      dup2\n        /* \"#utility.yul\":19607:19620   */\n      mload\n        /* \"#utility.yul\":19598:19620   */\n      swap1\n      pop\n        /* \"#utility.yul\":19629:19662   */\n      tag_446\n        /* \"#utility.yul\":19656:19661   */\n      dup2\n        /* \"#utility.yul\":19629:19662   */\n      tag_229\n      jump\t// in\n    tag_446:\n        /* \"#utility.yul\":19525:19668   */\n      swap3\n      swap2\n      pop\n      pop\n      jump\t// out\n        /* \"#utility.yul\":19674:20840   */\n    tag_150:\n        /* \"#utility.yul\":19791:19797   */\n      0x00\n        /* \"#utility.yul\":19799:19805   */\n      0x00\n        /* \"#utility.yul\":19807:19813   */\n      0x00\n        /* \"#utility.yul\":19815:19821   */\n      0x00\n        /* \"#utility.yul\":19864:19867   */\n      0x80\n        /* \"#utility.yul\":19852:19861   */\n      dup6\n        /* \"#utility.yul\":19843:19850   */\n      dup8\n        /* \"#utility.yul\":19839:19862   */\n      sub\n        /* \"#utility.yul\":19835:19868   */\n      slt\n        /* \"#utility.yul\":19832:19952   */\n      iszero\n      tag_448\n      jumpi\n        /* \"#utility.yul\":19871:19950   */\n      tag_449\n      tag_224\n      jump\t// in\n    tag_449:\n        /* \"#utility.yul\":19832:19952   */\n    tag_448:\n        /* \"#utility.yul\":19991:19992   */\n      0x00\n        /* \"#utility.yul\":20016:20080   */\n      tag_450\n        /* \"#utility.yul\":20072:20079   */\n      dup8\n        /* \"#utility.yul\":20063:20069   */\n      dup3\n        /* \"#utility.yul\":20052:20061   */\n      dup9\n        /* \"#utility.yul\":20048:20070   */\n      add\n        /* \"#utility.yul\":20016:20080   */\n      tag_239\n      jump\t// in\n    tag_450:\n        /* \"#utility.yul\":20006:20080   */\n      swap5\n      pop\n        /* \"#utility.yul\":19962:20090   */\n      pop\n        /* \"#utility.yul\":20150:20152   */\n      0x20\n        /* \"#utility.yul\":20139:20148   */\n      dup6\n        /* \"#utility.yul\":20135:20153   */\n      add\n        /* \"#utility.yul\":20129:20154   */\n      mload\n        /* \"#utility.yul\":20181:20199   */\n      0xffffffffffffffff\n        /* \"#utility.yul\":20173:20179   */\n      dup2\n        /* \"#utility.yul\":20170:20200   */\n      gt\n        /* \"#utility.yul\":20167:20284   */\n      iszero\n      tag_451\n      jumpi\n        /* \"#utility.yul\":20203:20282   */\n      tag_452\n      tag_225\n      jump\t// in\n    tag_452:\n        /* \"#utility.yul\":20167:20284   */\n    tag_451:\n        /* \"#utility.yul\":20308:20382   */\n      tag_453\n        /* \"#utility.yul\":20374:20381   */\n      dup8\n        /* \"#utility.yul\":20365:20371   */\n      dup3\n        /* \"#utility.yul\":20354:20363   */\n      dup9\n        /* \"#utility.yul\":20350:20372   */\n      add\n        /* \"#utility.yul\":20308:20382   */\n      tag_253\n      jump\t// in\n    tag_453:\n        /* \"#utility.yul\":20298:20382   */\n      swap4\n      pop\n        /* \"#utility.yul\":20100:20392   */\n      pop\n        /* \"#utility.yul\":20452:20454   */\n      0x40\n        /* \"#utility.yul\":20441:20450   */\n      dup6\n        /* \"#utility.yul\":20437:20455   */\n      add\n        /* \"#utility.yul\":20431:20456   */\n      mload\n        /* \"#utility.yul\":20483:20501   */\n      0xffffffffffffffff\n        /* \"#utility.yul\":20475:20481   */\n      dup2\n        /* \"#utility.yul\":20472:20502   */\n      gt\n        /* \"#utility.yul\":20469:20586   */\n      iszero\n      tag_454\n      jumpi\n        /* \"#utility.yul\":20505:20584   */\n      tag_455\n      tag_225\n      jump\t// in\n    tag_455:\n        /* \"#utility.yul\":20469:20586   */\n    tag_454:\n        /* \"#utility.yul\":20610:20684   */\n      tag_456\n        /* \"#utility.yul\":20676:20683   */\n      dup8\n        /* \"#utility.yul\":20667:20673   */\n      dup3\n        /* \"#utility.yul\":20656:20665   */\n      dup9\n        /* \"#utility.yul\":20652:20674   */\n      add\n        /* \"#utility.yul\":20610:20684   */\n      tag_253\n      jump\t// in\n    tag_456:\n        /* \"#utility.yul\":20600:20684   */\n      swap3\n      pop\n        /* \"#utility.yul\":20402:20694   */\n      pop\n        /* \"#utility.yul\":20733:20735   */\n      0x60\n        /* \"#utility.yul\":20759:20823   */\n      tag_457\n        /* \"#utility.yul\":20815:20822   */\n      dup8\n        /* \"#utility.yul\":20806:20812   */\n      dup3\n        /* \"#utility.yul\":20795:20804   */\n      dup9\n        /* \"#utility.yul\":20791:20813   */\n      add\n        /* \"#utility.yul\":20759:20823   */\n      tag_254\n      jump\t// in\n    tag_457:\n        /* \"#utility.yul\":20749:20823   */\n      swap2\n      pop\n        /* \"#utility.yul\":20704:20833   */\n      pop\n        /* \"#utility.yul\":19674:20840   */\n      swap3\n      swap6\n      swap2\n      swap5\n      pop\n      swap3\n      pop\n      jump\t// out\n        /* \"#utility.yul\":20846:21013   */\n    tag_255:\n        /* \"#utility.yul\":20986:21005   */\n      0x4e465420646f65736e2774206578697374000000000000000000000000000000\n        /* \"#utility.yul\":20982:20983   */\n      0x00\n        /* \"#utility.yul\":20974:20980   */\n      dup3\n        /* \"#utility.yul\":20970:20984   */\n      add\n        /* \"#utility.yul\":20963:21006   */\n      mstore\n        /* \"#utility.yul\":20846:21013   */\n      pop\n      jump\t// out\n        /* \"#utility.yul\":21019:21385   */\n    tag_256:\n        /* \"#utility.yul\":21161:21164   */\n      0x00\n        /* \"#utility.yul\":21182:21249   */\n      tag_460\n        /* \"#utility.yul\":21246:21248   */\n      0x11\n        /* \"#utility.yul\":21241:21244   */\n      dup4\n        /* \"#utility.yul\":21182:21249   */\n      tag_233\n      jump\t// in\n    tag_460:\n        /* \"#utility.yul\":21175:21249   */\n      swap2\n      pop\n        /* \"#utility.yul\":21258:21351   */\n      tag_461\n        /* \"#utility.yul\":21347:21350   */\n      dup3\n        /* \"#utility.yul\":21258:21351   */\n      tag_255\n      jump\t// in\n    tag_461:\n        /* \"#utility.yul\":21376:21378   */\n      0x20\n        /* \"#utility.yul\":21371:21374   */\n      dup3\n        /* \"#utility.yul\":21367:21379   */\n      add\n        /* \"#utility.yul\":21360:21379   */\n      swap1\n      pop\n        /* \"#utility.yul\":21019:21385   */\n      swap2\n      swap1\n      pop\n      jump\t// out\n        /* \"#utility.yul\":21391:21810   */\n    tag_153:\n        /* \"#utility.yul\":21557:21561   */\n      0x00\n        /* \"#utility.yul\":21595:21597   */\n      0x20\n        /* \"#utility.yul\":21584:21593   */\n      dup3\n        /* \"#utility.yul\":21580:21598   */\n      add\n        /* \"#utility.yul\":21572:21598   */\n      swap1\n      pop\n        /* \"#utility.yul\":21644:21653   */\n      dup2\n        /* \"#utility.yul\":21638:21642   */\n      dup2\n        /* \"#utility.yul\":21634:21654   */\n      sub\n        /* \"#utility.yul\":21630:21631   */\n      0x00\n        /* \"#utility.yul\":21619:21628   */\n      dup4\n        /* \"#utility.yul\":21615:21632   */\n      add\n        /* \"#utility.yul\":21608:21655   */\n      mstore\n        /* \"#utility.yul\":21672:21803   */\n      tag_463\n        /* \"#utility.yul\":21798:21802   */\n      dup2\n        /* \"#utility.yul\":21672:21803   */\n      tag_256\n      jump\t// in\n    tag_463:\n        /* \"#utility.yul\":21664:21803   */\n      swap1\n      pop\n        /* \"#utility.yul\":21391:21810   */\n      swap2\n      swap1\n      pop\n      jump\t// out\n        /* \"#utility.yul\":21816:21998   */\n    tag_257:\n        /* \"#utility.yul\":21956:21990   */\n      0x596f7520617265206e6f7420746865206f776e6572206f6620746865204e4654\n        /* \"#utility.yul\":21952:21953   */\n      0x00\n        /* \"#utility.yul\":21944:21950   */\n      dup3\n        /* \"#utility.yul\":21940:21954   */\n      add\n        /* \"#utility.yul\":21933:21991   */\n      mstore\n        /* \"#utility.yul\":21816:21998   */\n      pop\n      jump\t// out\n        /* \"#utility.yul\":22004:22370   */\n    tag_258:\n        /* \"#utility.yul\":22146:22149   */\n      0x00\n        /* \"#utility.yul\":22167:22234   */\n      tag_466\n        /* \"#utility.yul\":22231:22233   */\n      0x20\n        /* \"#utility.yul\":22226:22229   */\n      dup4\n        /* \"#utility.yul\":22167:22234   */\n      tag_233\n      jump\t// in\n    tag_466:\n        /* \"#utility.yul\":22160:22234   */\n      swap2\n      pop\n        /* \"#utility.yul\":22243:22336   */\n      tag_467\n        /* \"#utility.yul\":22332:22335   */\n      dup3\n        /* \"#utility.yul\":22243:22336   */\n      tag_257\n      jump\t// in\n    tag_467:\n        /* \"#utility.yul\":22361:22363   */\n      0x20\n        /* \"#utility.yul\":22356:22359   */\n      dup3\n        /* \"#utility.yul\":22352:22364   */\n      add\n        /* \"#utility.yul\":22345:22364   */\n      swap1\n      pop\n        /* \"#utility.yul\":22004:22370   */\n      swap2\n      swap1\n      pop\n      jump\t// out\n        /* \"#utility.yul\":22376:22795   */\n    tag_156:\n        /* \"#utility.yul\":22542:22546   */\n      0x00\n        /* \"#utility.yul\":22580:22582   */\n      0x20\n        /* \"#utility.yul\":22569:22578   */\n      dup3\n        /* \"#utility.yul\":22565:22583   */\n      add\n        /* \"#utility.yul\":22557:22583   */\n      swap1\n      pop\n        /* \"#utility.yul\":22629:22638   */\n      dup2\n        /* \"#utility.yul\":22623:22627   */\n      dup2\n        /* \"#utility.yul\":22619:22639   */\n      sub\n        /* \"#utility.yul\":22615:22616   */\n      0x00\n        /* \"#utility.yul\":22604:22613   */\n      dup4\n        /* \"#utility.yul\":22600:22617   */\n      add\n        /* \"#utility.yul\":22593:22640   */\n      mstore\n        /* \"#utility.yul\":22657:22788   */\n      tag_469\n        /* \"#utility.yul\":22783:22787   */\n      dup2\n        /* \"#utility.yul\":22657:22788   */\n      tag_258\n      jump\t// in\n    tag_469:\n        /* \"#utility.yul\":22649:22788   */\n      swap1\n      pop\n        /* \"#utility.yul\":22376:22795   */\n      swap2\n      swap1\n      pop\n      jump\t// out\n        /* \"#utility.yul\":22801:22942   */\n    tag_259:\n        /* \"#utility.yul\":22850:22854   */\n      0x00\n        /* \"#utility.yul\":22873:22876   */\n      dup2\n        /* \"#utility.yul\":22865:22876   */\n      swap1\n      pop\n        /* \"#utility.yul\":22896:22899   */\n      dup2\n        /* \"#utility.yul\":22893:22894   */\n      0x00\n        /* \"#utility.yul\":22886:22900   */\n      mstore\n        /* \"#utility.yul\":22930:22934   */\n      0x20\n        /* \"#utility.yul\":22927:22928   */\n      0x00\n        /* \"#utility.yul\":22917:22935   */\n      keccak256\n        /* \"#utility.yul\":22909:22935   */\n      swap1\n      pop\n        /* \"#utility.yul\":22801:22942   */\n      swap2\n      swap1\n      pop\n      jump\t// out\n        /* \"#utility.yul\":22948:23041   */\n    tag_260:\n        /* \"#utility.yul\":22985:22991   */\n      0x00\n        /* \"#utility.yul\":23032:23034   */\n      0x20\n        /* \"#utility.yul\":23027:23029   */\n      0x1f\n        /* \"#utility.yul\":23020:23025   */\n      dup4\n        /* \"#utility.yul\":23016:23030   */\n      add\n        /* \"#utility.yul\":23012:23035   */\n      div\n        /* \"#utility.yul\":23002:23035   */\n      swap1\n      pop\n        /* \"#utility.yul\":22948:23041   */\n      swap2\n      swap1\n      pop\n      jump\t// out\n        /* \"#utility.yul\":23047:23154   */\n    tag_261:\n        /* \"#utility.yul\":23091:23099   */\n      0x00\n        /* \"#utility.yul\":23141:23146   */\n      dup3\n        /* \"#utility.yul\":23135:23139   */\n      dup3\n        /* \"#utility.yul\":23131:23147   */\n      shl\n        /* \"#utility.yul\":23110:23147   */\n      swap1\n      pop\n        /* \"#utility.yul\":23047:23154   */\n      swap3\n      swap2\n      pop\n      pop\n      jump\t// out\n        /* \"#utility.yul\":23160:23553   */\n    tag_262:\n        /* \"#utility.yul\":23229:23235   */\n      0x00\n        /* \"#utility.yul\":23279:23280   */\n      0x08\n        /* \"#utility.yul\":23267:23277   */\n      dup4\n        /* \"#utility.yul\":23263:23281   */\n      mul\n        /* \"#utility.yul\":23302:23399   */\n      tag_474\n        /* \"#utility.yul\":23332:23398   */\n      0xffffffffffffffffffffffffffffffffffffffffffffffffffffffffffffffff\n        /* \"#utility.yul\":23321:23330   */\n      dup3\n        /* \"#utility.yul\":23302:23399   */\n      tag_261\n      jump\t// in\n    tag_474:\n        /* \"#utility.yul\":23420:23459   */\n      tag_475\n        /* \"#utility.yul\":23450:23458   */\n      dup7\n        /* \"#utility.yul\":23439:23448   */\n      dup4\n        /* \"#utility.yul\":23420:23459   */\n      tag_261\n      jump\t// in\n    tag_475:\n        /* \"#utility.yul\":23408:23459   */\n      swap6\n      pop\n        /* \"#utility.yul\":23492:23496   */\n      dup1\n        /* \"#utility.yul\":23488:23497   */\n      not\n        /* \"#utility.yul\":23481:23486   */\n      dup5\n        /* \"#utility.yul\":23477:23498   */\n      and\n        /* \"#utility.yul\":23468:23498   */\n      swap4\n      pop\n        /* \"#utility.yul\":23541:23545   */\n      dup1\n        /* \"#utility.yul\":23531:23539   */\n      dup7\n        /* \"#utility.yul\":23527:23546   */\n      and\n        /* \"#utility.yul\":23520:23525   */\n      dup5\n        /* \"#utility.yul\":23517:23547   */\n      or\n        /* \"#utility.yul\":23507:23547   */\n      swap3\n      pop\n        /* \"#utility.yul\":23236:23553   */\n      pop\n      pop\n        /* \"#utility.yul\":23160:23553   */\n      swap4\n      swap3\n      pop\n      pop\n      pop\n      jump\t// out\n        /* \"#utility.yul\":23559:23619   */\n    tag_263:\n        /* \"#utility.yul\":23587:23590   */\n      0x00\n        /* \"#utility.yul\":23608:23613   */\n      dup2\n        /* \"#utility.yul\":23601:23613   */\n      swap1\n      pop\n        /* \"#utility.yul\":23559:23619   */\n      swap2\n      swap1\n      pop\n      jump\t// out\n        /* \"#utility.yul\":23625:23767   */\n    tag_264:\n        /* \"#utility.yul\":23675:23684   */\n      0x00\n        /* \"#utility.yul\":23708:23761   */\n      tag_478\n        /* \"#utility.yul\":23726:23760   */\n      tag_479\n        /* \"#utility.yul\":23735:23759   */\n      tag_480\n        /* \"#utility.yul\":23753:23758   */\n      dup5\n        /* \"#utility.yul\":23735:23759   */\n      tag_206\n      jump\t// in\n    tag_480:\n        /* \"#utility.yul\":23726:23760   */\n      tag_263\n      jump\t// in\n    tag_479:\n        /* \"#utility.yul\":23708:23761   */\n      tag_206\n      jump\t// in\n    tag_478:\n        /* \"#utility.yul\":23695:23761   */\n      swap1\n      pop\n        /* \"#utility.yul\":23625:23767   */\n      swap2\n      swap1\n      pop\n      jump\t// out\n        /* \"#utility.yul\":23773:23848   */\n    tag_265:\n        /* \"#utility.yul\":23816:23819   */\n      0x00\n        /* \"#utility.yul\":23837:23842   */\n      dup2\n        /* \"#utility.yul\":23830:23842   */\n      swap1\n      pop\n        /* \"#utility.yul\":23773:23848   */\n      swap2\n      swap1\n      pop\n      jump\t// out\n        /* \"#utility.yul\":23854:24123   */\n    tag_266:\n        /* \"#utility.yul\":23964:24003   */\n      tag_483\n        /* \"#utility.yul\":23995:24002   */\n      dup4\n        /* \"#utility.yul\":23964:24003   */\n      tag_264\n      jump\t// in\n    tag_483:\n        /* \"#utility.yul\":24025:24116   */\n      tag_484\n        /* \"#utility.yul\":24074:24115   */\n      tag_485\n        /* \"#utility.yul\":24098:24114   */\n      dup3\n        /* \"#utility.yul\":24074:24115   */\n      tag_265\n      jump\t// in\n    tag_485:\n        /* \"#utility.yul\":24066:24072   */\n      dup5\n        /* \"#utility.yul\":24059:24063   */\n      dup5\n        /* \"#utility.yul\":24053:24064   */\n      sload\n        /* \"#utility.yul\":24025:24116   */\n      tag_262\n      jump\t// in\n    tag_484:\n        /* \"#utility.yul\":24019:24023   */\n      dup3\n        /* \"#utility.yul\":24012:24117   */\n      sstore\n        /* \"#utility.yul\":23930:24123   */\n      pop\n        /* \"#utility.yul\":23854:24123   */\n      pop\n      pop\n      pop\n      jump\t// out\n        /* \"#utility.yul\":24129:24202   */\n    tag_267:\n        /* \"#utility.yul\":24174:24177   */\n      0x00\n        /* \"#utility.yul\":24195:24196   */\n      0x00\n        /* \"#utility.yul\":24188:24196   */\n      swap1\n      pop\n        /* \"#utility.yul\":24129:24202   */\n      swap1\n      jump\t// out\n        /* \"#utility.yul\":24208:24397   */\n    tag_268:\n        /* \"#utility.yul\":24285:24317   */\n      tag_488\n      tag_267\n      jump\t// in\n    tag_488:\n        /* \"#utility.yul\":24326:24391   */\n      tag_489\n        /* \"#utility.yul\":24384:24390   */\n      dup2\n        /* \"#utility.yul\":24376:24382   */\n      dup5\n        /* \"#utility.yul\":24370:24374   */\n      dup5\n        /* \"#utility.yul\":24326:24391   */\n      tag_266\n      jump\t// in\n    tag_489:\n        /* \"#utility.yul\":24261:24397   */\n      pop\n        /* \"#utility.yul\":24208:24397   */\n      pop\n      pop\n      jump\t// out\n        /* \"#utility.yul\":24403:24589   */\n    tag_269:\n        /* \"#utility.yul\":24463:24583   */\n    tag_491:\n        /* \"#utility.yul\":24480:24483   */\n      dup2\n        /* \"#utility.yul\":24473:24478   */\n      dup2\n        /* \"#utility.yul\":24470:24484   */\n      lt\n        /* \"#utility.yul\":24463:24583   */\n      iszero\n      tag_493\n      jumpi\n        /* \"#utility.yul\":24534:24573   */\n      tag_494\n        /* \"#utility.yul\":24571:24572   */\n      0x00\n        /* \"#utility.yul\":24564:24569   */\n      dup3\n        /* \"#utility.yul\":24534:24573   */\n      tag_268\n      jump\t// in\n    tag_494:\n        /* \"#utility.yul\":24507:24508   */\n      0x01\n        /* \"#utility.yul\":24500:24505   */\n      dup2\n        /* \"#utility.yul\":24496:24509   */\n      add\n        /* \"#utility.yul\":24487:24509   */\n      swap1\n      pop\n        /* \"#utility.yul\":24463:24583   */\n      jump(tag_491)\n    tag_493:\n        /* \"#utility.yul\":24403:24589   */\n      pop\n      pop\n      jump\t// out\n        /* \"#utility.yul\":24595:25138   */\n    tag_270:\n        /* \"#utility.yul\":24696:24698   */\n      0x1f\n        /* \"#utility.yul\":24691:24694   */\n      dup3\n        /* \"#utility.yul\":24688:24699   */\n      gt\n        /* \"#utility.yul\":24685:25131   */\n      iszero\n      tag_496\n      jumpi\n        /* \"#utility.yul\":24730:24768   */\n      tag_497\n        /* \"#utility.yul\":24762:24767   */\n      dup2\n        /* \"#utility.yul\":24730:24768   */\n      tag_259\n      jump\t// in\n    tag_497:\n        /* \"#utility.yul\":24814:24843   */\n      tag_498\n        /* \"#utility.yul\":24832:24842   */\n      dup5\n        /* \"#utility.yul\":24814:24843   */\n      tag_260\n      jump\t// in\n    tag_498:\n        /* \"#utility.yul\":24804:24812   */\n      dup2\n        /* \"#utility.yul\":24800:24844   */\n      add\n        /* \"#utility.yul\":24997:24999   */\n      0x20\n        /* \"#utility.yul\":24985:24995   */\n      dup6\n        /* \"#utility.yul\":24982:25000   */\n      lt\n        /* \"#utility.yul\":24979:25028   */\n      iszero\n      tag_499\n      jumpi\n        /* \"#utility.yul\":25018:25026   */\n      dup2\n        /* \"#utility.yul\":25003:25026   */\n      swap1\n      pop\n        /* \"#utility.yul\":24979:25028   */\n    tag_499:\n        /* \"#utility.yul\":25041:25121   */\n      tag_500\n        /* \"#utility.yul\":25097:25119   */\n      tag_501\n        /* \"#utility.yul\":25115:25118   */\n      dup6\n        /* \"#utility.yul\":25097:25119   */\n      tag_260\n      jump\t// in\n    tag_501:\n        /* \"#utility.yul\":25087:25095   */\n      dup4\n        /* \"#utility.yul\":25083:25120   */\n      add\n        /* \"#utility.yul\":25070:25081   */\n      dup3\n        /* \"#utility.yul\":25041:25121   */\n      tag_269\n      jump\t// in\n    tag_500:\n        /* \"#utility.yul\":24700:25131   */\n      pop\n      pop\n        /* \"#utility.yul\":24685:25131   */\n    tag_496:\n        /* \"#utility.yul\":24595:25138   */\n      pop\n      pop\n      pop\n      jump\t// out\n        /* \"#utility.yul\":25144:25261   */\n    tag_271:\n        /* \"#utility.yul\":25198:25206   */\n      0x00\n        /* \"#utility.yul\":25248:25253   */\n      dup3\n        /* \"#utility.yul\":25242:25246   */\n      dup3\n        /* \"#utility.yul\":25238:25254   */\n      shr\n        /* \"#utility.yul\":25217:25254   */\n      swap1\n      pop\n        /* \"#utility.yul\":25144:25261   */\n      swap3\n      swap2\n      pop\n      pop\n      jump\t// out\n        /* \"#utility.yul\":25267:25436   */\n    tag_272:\n        /* \"#utility.yul\":25311:25317   */\n      0x00\n        /* \"#utility.yul\":25344:25395   */\n      tag_504\n        /* \"#utility.yul\":25392:25393   */\n      0x00\n        /* \"#utility.yul\":25388:25394   */\n      not\n        /* \"#utility.yul\":25380:25385   */\n      dup5\n        /* \"#utility.yul\":25377:25378   */\n      0x08\n        /* \"#utility.yul\":25373:25386   */\n      mul\n        /* \"#utility.yul\":25344:25395   */\n      tag_271\n      jump\t// in\n    tag_504:\n        /* \"#utility.yul\":25340:25396   */\n      not\n        /* \"#utility.yul\":25425:25429   */\n      dup1\n        /* \"#utility.yul\":25419:25423   */\n      dup4\n        /* \"#utility.yul\":25415:25430   */\n      and\n        /* \"#utility.yul\":25405:25430   */\n      swap2\n      pop\n        /* \"#utility.yul\":25318:25436   */\n      pop\n        /* \"#utility.yul\":25267:25436   */\n      swap3\n      swap2\n      pop\n      pop\n      jump\t// out\n        /* \"#utility.yul\":25441:25736   */\n    tag_273:\n        /* \"#utility.yul\":25517:25521   */\n      0x00\n        /* \"#utility.yul\":25663:25692   */\n      tag_506\n        /* \"#utility.yul\":25688:25691   */\n      dup4\n        /* \"#utility.yul\":25682:25686   */\n      dup4\n        /* \"#utility.yul\":25663:25692   */\n      tag_272\n      jump\t// in\n    tag_506:\n        /* \"#utility.yul\":25655:25692   */\n      swap2\n      pop\n        /* \"#utility.yul\":25725:25728   */\n      dup3\n        /* \"#utility.yul\":25722:25723   */\n      0x02\n        /* \"#utility.yul\":25718:25729   */\n      mul\n        /* \"#utility.yul\":25712:25716   */\n      dup3\n        /* \"#utility.yul\":25709:25730   */\n      or\n        /* \"#utility.yul\":25701:25730   */\n      swap1\n      pop\n        /* \"#utility.yul\":25441:25736   */\n      swap3\n      swap2\n      pop\n      pop\n      jump\t// out\n        /* \"#utility.yul\":25741:27136   */\n    tag_162:\n        /* \"#utility.yul\":25858:25895   */\n      tag_508\n        /* \"#utility.yul\":25891:25894   */\n      dup3\n        /* \"#utility.yul\":25858:25895   */\n      tag_208\n      jump\t// in\n    tag_508:\n        /* \"#utility.yul\":25960:25978   */\n      0xffffffffffffffff\n        /* \"#utility.yul\":25952:25958   */\n      dup2\n        /* \"#utility.yul\":25949:25979   */\n      gt\n        /* \"#utility.yul\":25946:26002   */\n      iszero\n      tag_509\n      jumpi\n        /* \"#utility.yul\":25982:26000   */\n      tag_510\n      tag_47\n      jump\t// in\n    tag_510:\n        /* \"#utility.yul\":25946:26002   */\n    tag_509:\n        /* \"#utility.yul\":26026:26064   */\n      tag_511\n        /* \"#utility.yul\":26058:26062   */\n      dup3\n        /* \"#utility.yul\":26052:26063   */\n      sload\n        /* \"#utility.yul\":26026:26064   */\n      tag_63\n      jump\t// in\n    tag_511:\n        /* \"#utility.yul\":26111:26178   */\n      tag_512\n        /* \"#utility.yul\":26171:26177   */\n      dup3\n        /* \"#utility.yul\":26163:26169   */\n      dup3\n        /* \"#utility.yul\":26157:26161   */\n      dup6\n        /* \"#utility.yul\":26111:26178   */\n      tag_270\n      jump\t// in\n    tag_512:\n        /* \"#utility.yul\":26205:26206   */\n      0x00\n        /* \"#utility.yul\":26229:26233   */\n      0x20\n        /* \"#utility.yul\":26216:26233   */\n      swap1\n      pop\n        /* \"#utility.yul\":26261:26263   */\n      0x1f\n        /* \"#utility.yul\":26253:26259   */\n      dup4\n        /* \"#utility.yul\":26250:26264   */\n      gt\n        /* \"#utility.yul\":26278:26279   */\n      0x01\n        /* \"#utility.yul\":26273:26891   */\n      dup2\n      eq\n      tag_514\n      jumpi\n        /* \"#utility.yul\":26935:26936   */\n      0x00\n        /* \"#utility.yul\":26952:26958   */\n      dup5\n        /* \"#utility.yul\":26949:27026   */\n      iszero\n      tag_515\n      jumpi\n        /* \"#utility.yul\":27001:27010   */\n      dup3\n        /* \"#utility.yul\":26996:26999   */\n      dup8\n        /* \"#utility.yul\":26992:27011   */\n      add\n        /* \"#utility.yul\":26986:27012   */\n      mload\n        /* \"#utility.yul\":26977:27012   */\n      swap1\n      pop\n        /* \"#utility.yul\":26949:27026   */\n    tag_515:\n        /* \"#utility.yul\":27052:27119   */\n      tag_516\n        /* \"#utility.yul\":27112:27118   */\n      dup6\n        /* \"#utility.yul\":27105:27110   */\n      dup3\n        /* \"#utility.yul\":27052:27119   */\n      tag_273\n      jump\t// in\n    tag_516:\n        /* \"#utility.yul\":27046:27050   */\n      dup7\n        /* \"#utility.yul\":27039:27120   */\n      sstore\n        /* \"#utility.yul\":26908:27130   */\n      pop\n        /* \"#utility.yul\":26243:27130   */\n      jump(tag_513)\n        /* \"#utility.yul\":26273:26891   */\n    tag_514:\n        /* \"#utility.yul\":26325:26329   */\n      0x1f\n        /* \"#utility.yul\":26321:26330   */\n      not\n        /* \"#utility.yul\":26313:26319   */\n      dup5\n        /* \"#utility.yul\":26309:26331   */\n      and\n        /* \"#utility.yul\":26359:26396   */\n      tag_517\n        /* \"#utility.yul\":26391:26395   */\n      dup7\n        /* \"#utility.yul\":26359:26396   */\n      tag_259\n      jump\t// in\n    tag_517:\n        /* \"#utility.yul\":26418:26419   */\n      0x00\n        /* \"#utility.yul\":26432:26640   */\n    tag_518:\n        /* \"#utility.yul\":26446:26453   */\n      dup3\n        /* \"#utility.yul\":26443:26444   */\n      dup2\n        /* \"#utility.yul\":26440:26454   */\n      lt\n        /* \"#utility.yul\":26432:26640   */\n      iszero\n      tag_520\n      jumpi\n        /* \"#utility.yul\":26525:26534   */\n      dup5\n        /* \"#utility.yul\":26520:26523   */\n      dup10\n        /* \"#utility.yul\":26516:26535   */\n      add\n        /* \"#utility.yul\":26510:26536   */\n      mload\n        /* \"#utility.yul\":26502:26508   */\n      dup3\n        /* \"#utility.yul\":26495:26537   */\n      sstore\n        /* \"#utility.yul\":26576:26577   */\n      0x01\n        /* \"#utility.yul\":26568:26574   */\n      dup3\n        /* \"#utility.yul\":26564:26578   */\n      add\n        /* \"#utility.yul\":26554:26578   */\n      swap2\n      pop\n        /* \"#utility.yul\":26623:26625   */\n      0x20\n        /* \"#utility.yul\":26612:26621   */\n      dup6\n        /* \"#utility.yul\":26608:26626   */\n      add\n        /* \"#utility.yul\":26595:26626   */\n      swap5\n      pop\n        /* \"#utility.yul\":26469:26473   */\n      0x20\n        /* \"#utility.yul\":26466:26467   */\n      dup2\n        /* \"#utility.yul\":26462:26474   */\n      add\n        /* \"#utility.yul\":26457:26474   */\n      swap1\n      pop\n        /* \"#utility.yul\":26432:26640   */\n      jump(tag_518)\n    tag_520:\n        /* \"#utility.yul\":26668:26674   */\n      dup7\n        /* \"#utility.yul\":26659:26666   */\n      dup4\n        /* \"#utility.yul\":26656:26675   */\n      lt\n        /* \"#utility.yul\":26653:26832   */\n      iszero\n      tag_521\n      jumpi\n        /* \"#utility.yul\":26726:26735   */\n      dup5\n        /* \"#utility.yul\":26721:26724   */\n      dup10\n        /* \"#utility.yul\":26717:26736   */\n      add\n        /* \"#utility.yul\":26711:26737   */\n      mload\n        /* \"#utility.yul\":26769:26817   */\n      tag_522\n        /* \"#utility.yul\":26811:26815   */\n      0x1f\n        /* \"#utility.yul\":26803:26809   */\n      dup10\n        /* \"#utility.yul\":26799:26816   */\n      and\n        /* \"#utility.yul\":26788:26797   */\n      dup3\n        /* \"#utility.yul\":26769:26817   */\n      tag_272\n      jump\t// in\n    tag_522:\n        /* \"#utility.yul\":26761:26767   */\n      dup4\n        /* \"#utility.yul\":26754:26818   */\n      sstore\n        /* \"#utility.yul\":26676:26832   */\n      pop\n        /* \"#utility.yul\":26653:26832   */\n    tag_521:\n        /* \"#utility.yul\":26878:26879   */\n      0x01\n        /* \"#utility.yul\":26874:26875   */\n      0x02\n        /* \"#utility.yul\":26866:26872   */\n      dup9\n        /* \"#utility.yul\":26862:26876   */\n      mul\n        /* \"#utility.yul\":26858:26880   */\n      add\n        /* \"#utility.yul\":26852:26856   */\n      dup9\n        /* \"#utility.yul\":26845:26881   */\n      sstore\n        /* \"#utility.yul\":26280:26891   */\n      pop\n      pop\n      pop\n        /* \"#utility.yul\":26243:27130   */\n    tag_513:\n      pop\n        /* \"#utility.yul\":25833:27136   */\n      pop\n      pop\n      pop\n        /* \"#utility.yul\":25741:27136   */\n      pop\n      pop\n      jump\t// out\n\n    auxdata: 0xa264697066735822122031b211d417a755003259bca9d0553ce48e848d4d42b8844e183a2af18929e47564736f6c634300081f0033\n}\n",
				"bytecode": {
					"linkReferences": {},
					"object": "608060405234801561000f575f5ffd5b5060405161239a38038061239a83398181016040528101906100319190610115565b815f5f6101000a81548173ffffffffffffffffffffffffffffffffffffffff021916908373ffffffffffffffffffffffffffffffffffffffff1602179055508060015f6101000a81548173ffffffffffffffffffffffffffffffffffffffff021916908373ffffffffffffffffffffffffffffffffffffffff1602179055505050610153565b5f5ffd5b5f73ffffffffffffffffffffffffffffffffffffffff82169050919050565b5f6100e4826100bb565b9050919050565b6100f4816100da565b81146100fe575f5ffd5b50565b5f8151905061010f816100eb565b92915050565b5f5f6040838503121561012b5761012a6100b7565b5b5f61013885828601610101565b925050602061014985828601610101565b9150509250929050565b61223a806101605f395ff3fe608060405234801561000f575f5ffd5b5060043610610060575f3560e01c80632557bdc91461006457806351ed8288146100825780637a5f270d1461009e57806394383f14146100bc578063ca74e355146100d8578063ec01c79614610108575b5f5ffd5b61006c610138565b604051610079919061173c565b60405180910390f35b61009c60048036038101906100979190611797565b61048d565b005b6100a661087d565b6040516100b3919061173c565b60405180910390f35b6100d660048036038101906100d191906117c2565b610bd4565b005b6100f260048036038101906100ed9190611797565b610f66565b6040516100ff9190611860565b60405180910390f35b610122600480360381019061011d91906118aa565b611146565b60405161012f919061173c565b60405180910390f35b60605f5f90505f5f90505b6003805490508110156101ad5760025f60038381548110610167576101666118d5565b5b905f5260205f20015481526020019081526020015f206005015f9054906101000a900460ff166101a057818061019c9061192f565b9250505b8080600101915050610143565b505f8167ffffffffffffffff8111156101c9576101c8611976565b5b60405190808252806020026020018201604052801561020257816020015b6101ef611489565b8152602001906001900390816101e75790505b5090505f5f90505f5f90505b6003805490508110156104835760025f60038381548110610232576102316118d5565b5b905f5260205f20015481526020019081526020015f206005015f9054906101000a900460ff166104765760025f60038381548110610273576102726118d5565b5b905f5260205f20015481526020019081526020015f206040518060800160405290815f82016040518060600160405290815f82015481526020016001820180546102bc906119d0565b80601f01602080910402602001604051908101604052809291908181526020018280546102e8906119d0565b80156103335780601f1061030a57610100808354040283529160200191610333565b820191905f5260205f20905b81548152906001019060200180831161031657829003601f168201915b5050505050815260200160028201805461034c906119d0565b80601f0160208091040260200160405190810160405280929190818152602001828054610378906119d0565b80156103c35780601f1061039a576101008083540402835291602001916103c3565b820191905f5260205f20905b8154815290600101906020018083116103a657829003601f168201915b5050505050815250508152602001600382015f9054906101000a900473ffffffffffffffffffffffffffffffffffffffff1673ffffffffffffffffffffffffffffffffffffffff1673ffffffffffffffffffffffffffffffffffffffff16815260200160048201548152602001600582015f9054906101000a900460ff16151515158152505083838151811061045c5761045b6118d5565b5b602002602001018190525081806104729061192f565b9250505b808060010191505061020e565b5081935050505090565b5f73ffffffffffffffffffffffffffffffffffffffff1660025f8381526020019081526020015f206003015f9054906101000a900473ffffffffffffffffffffffffffffffffffffffff1673ffffffffffffffffffffffffffffffffffffffff160361052e576040517f08c379a000000000000000000000000000000000000000000000000000000000815260040161052590611a5a565b60405180910390fd5b60025f8281526020019081526020015f206005015f9054906101000a900460ff161561058f576040517f08c379a000000000000000000000000000000000000000000000000000000000815260040161058690611ac2565b60405180910390fd5b60025f8281526020019081526020015f20600401545f5f9054906101000a900473ffffffffffffffffffffffffffffffffffffffff1673ffffffffffffffffffffffffffffffffffffffff166312cae7af336040518263ffffffff1660e01b81526004016105fd9190611aef565b602060405180830381865afa158015610618573d5f5f3e3d5ffd5b505050506040513d601f19601f8201168201806040525081019061063c9190611b1c565b101561067d576040517f08c379a000000000000000000000000000000000000000000000000000000000815260040161067490611b91565b60405180910390fd5b5f5f9054906101000a900473ffffffffffffffffffffffffffffffffffffffff1673ffffffffffffffffffffffffffffffffffffffff166323b872dd3360025f8581526020019081526020015f206003015f9054906101000a900473ffffffffffffffffffffffffffffffffffffffff1660025f8681526020019081526020015f20600401546040518463ffffffff1660e01b815260040161072193929190611bbe565b6020604051808303815f875af115801561073d573d5f5f3e3d5ffd5b505050506040513d601f19601f820116820180604052508101906107619190611c1d565b5060015f9054906101000a900473ffffffffffffffffffffffffffffffffffffffff1673ffffffffffffffffffffffffffffffffffffffff16632aafe1328230336040518463ffffffff1660e01b81526004016107c093929190611c48565b5f604051808303815f87803b1580156107d7575f5ffd5b505af11580156107e9573d5f5f3e3d5ffd5b50505050600160025f8381526020019081526020015f206005015f6101000a81548160ff02191690831515021790555060045f3373ffffffffffffffffffffffffffffffffffffffff1673ffffffffffffffffffffffffffffffffffffffff1681526020019081526020015f2081908060018154018082558091505060019003905f5260205f20015f909190919091505550565b60605f5f90505f5f90505b6003805490508110156108f35760025f600383815481106108ac576108ab6118d5565b5b905f5260205f20015481526020019081526020015f206005015f9054906101000a900460ff16156108e65781806108e29061192f565b9250505b8080600101915050610888565b505f8167ffffffffffffffff81111561090f5761090e611976565b5b60405190808252806020026020018201604052801561094857816020015b610935611489565b81526020019060019003908161092d5790505b5090505f5f90505f5f90505b600380549050811015610bca5760025f60038381548110610978576109776118d5565b5b905f5260205f20015481526020019081526020015f206005015f9054906101000a900460ff1615610bbd5760025f600383815481106109ba576109b96118d5565b5b905f5260205f20015481526020019081526020015f206040518060800160405290815f82016040518060600160405290815f8201548152602001600182018054610a03906119d0565b80601f0160208091040260200160405190810160405280929190818152602001828054610a2f906119d0565b8015610a7a5780601f10610a5157610100808354040283529160200191610a7a565b820191905f5260205f20905b815481529060010190602001808311610a5d57829003601f168201915b50505050508152602001600282018054610a93906119d0565b80601f0160208091040260200160405190810160405280929190818152602001828054610abf906119d0565b8015610b0a5780601f10610ae157610100808354040283529160200191610b0a565b820191905f5260205f20905b815481529060010190602001808311610aed57829003601f168201915b5050505050815250508152602001600382015f9054906101000a900473ffffffffffffffffffffffffffffffffffffffff1673ffffffffffffffffffffffffffffffffffffffff1673ffffffffffffffffffffffffffffffffffffffff16815260200160048201548152602001600582015f9054906101000a900460ff161515151581525050838381518110610ba357610ba26118d5565b5b60200260200101819052508180610bb99061192f565b9250505b8080600101915050610954565b5081935050505090565b5f8111610c16576040517f08c379a0000000000000000000000000000000000000000000000000000000008152600401610c0d90611ced565b60405180910390fd5b5f5f5f5f60015f9054906101000a900473ffffffffffffffffffffffffffffffffffffffff1673ffffffffffffffffffffffffffffffffffffffff1663265aa621876040518263ffffffff1660e01b8152600401610c749190611d0b565b5f60405180830381865afa158015610c8e573d5f5f3e3d5ffd5b505050506040513d5f823e3d601f19601f82011682018060405250810190610cb69190611e29565b93509350935093505f73ffffffffffffffffffffffffffffffffffffffff168173ffffffffffffffffffffffffffffffffffffffff1603610d2c576040517f08c379a0000000000000000000000000000000000000000000000000000000008152600401610d2390611f0f565b60405180910390fd5b3373ffffffffffffffffffffffffffffffffffffffff168173ffffffffffffffffffffffffffffffffffffffff1614610d9a576040517f08c379a0000000000000000000000000000000000000000000000000000000008152600401610d9190611f77565b60405180910390fd5b60015f9054906101000a900473ffffffffffffffffffffffffffffffffffffffff1673ffffffffffffffffffffffffffffffffffffffff16632aafe1328733306040518463ffffffff1660e01b8152600401610df893929190611c48565b5f604051808303815f87803b158015610e0f575f5ffd5b505af1158015610e21573d5f5f3e3d5ffd5b50505050604051806080016040528060405180606001604052808781526020018681526020018581525081526020013373ffffffffffffffffffffffffffffffffffffffff1681526020018681526020015f151581525060025f8881526020019081526020015f205f820151815f015f820151815f01556020820151816001019081610ead9190612135565b506040820151816002019081610ec39190612135565b5050506020820151816003015f6101000a81548173ffffffffffffffffffffffffffffffffffffffff021916908373ffffffffffffffffffffffffffffffffffffffff160217905550604082015181600401556060820151816005015f6101000a81548160ff021916908315150217905550905050600386908060018154018082558091505060019003905f5260205f20015f9091909190915055505050505050565b610f6e611489565b60025f8381526020019081526020015f206040518060800160405290815f82016040518060600160405290815f8201548152602001600182018054610fb2906119d0565b80601f0160208091040260200160405190810160405280929190818152602001828054610fde906119d0565b80156110295780601f1061100057610100808354040283529160200191611029565b820191905f5260205f20905b81548152906001019060200180831161100c57829003601f168201915b50505050508152602001600282018054611042906119d0565b80601f016020809104026020016040519081016040528092919081815260200182805461106e906119d0565b80156110b95780601f10611090576101008083540402835291602001916110b9565b820191905f5260205f20905b81548152906001019060200180831161109c57829003601f168201915b5050505050815250508152602001600382015f9054906101000a900473ffffffffffffffffffffffffffffffffffffffff1673ffffffffffffffffffffffffffffffffffffffff1673ffffffffffffffffffffffffffffffffffffffff16815260200160048201548152602001600582015f9054906101000a900460ff1615151515815250509050919050565b60605f60045f8473ffffffffffffffffffffffffffffffffffffffff1673ffffffffffffffffffffffffffffffffffffffff1681526020019081526020015f208054905067ffffffffffffffff8111156111a3576111a2611976565b5b6040519080825280602002602001820160405280156111dc57816020015b6111c9611489565b8152602001906001900390816111c15790505b5090505f5f90505b60045f8573ffffffffffffffffffffffffffffffffffffffff1673ffffffffffffffffffffffffffffffffffffffff1681526020019081526020015f208054905081101561147f5760025f60045f8773ffffffffffffffffffffffffffffffffffffffff1673ffffffffffffffffffffffffffffffffffffffff1681526020019081526020015f20838154811061127e5761127d6118d5565b5b905f5260205f20015481526020019081526020015f206040518060800160405290815f82016040518060600160405290815f82015481526020016001820180546112c7906119d0565b80601f01602080910402602001604051908101604052809291908181526020018280546112f3906119d0565b801561133e5780601f106113155761010080835404028352916020019161133e565b820191905f5260205f20905b81548152906001019060200180831161132157829003601f168201915b50505050508152602001600282018054611357906119d0565b80601f0160208091040260200160405190810160405280929190818152602001828054611383906119d0565b80156113ce5780601f106113a5576101008083540402835291602001916113ce565b820191905f5260205f20905b8154815290600101906020018083116113b157829003601f168201915b5050505050815250508152602001600382015f9054906101000a900473ffffffffffffffffffffffffffffffffffffffff1673ffffffffffffffffffffffffffffffffffffffff1673ffffffffffffffffffffffffffffffffffffffff16815260200160048201548152602001600582015f9054906101000a900460ff161515151581525050828281518110611467576114666118d5565b5b602002602001018190525080806001019150506111e4565b5080915050919050565b604051806080016040528061149c6114cc565b81526020015f73ffffffffffffffffffffffffffffffffffffffff1681526020015f81526020015f151581525090565b60405180606001604052805f815260200160608152602001606081525090565b5f81519050919050565b5f82825260208201905092915050565b5f819050602082019050919050565b5f819050919050565b61152781611515565b82525050565b5f81519050919050565b5f82825260208201905092915050565b8281835e5f83830152505050565b5f601f19601f8301169050919050565b5f61156f8261152d565b6115798185611537565b9350611589818560208601611547565b61159281611555565b840191505092915050565b5f606083015f8301516115b25f86018261151e565b50602083015184820360208601526115ca8282611565565b915050604083015184820360408601526115e48282611565565b9150508091505092915050565b5f73ffffffffffffffffffffffffffffffffffffffff82169050919050565b5f61161a826115f1565b9050919050565b61162a81611610565b82525050565b5f8115159050919050565b61164481611630565b82525050565b5f608083015f8301518482035f860152611664828261159d565b91505060208301516116796020860182611621565b50604083015161168c604086018261151e565b50606083015161169f606086018261163b565b508091505092915050565b5f6116b5838361164a565b905092915050565b5f602082019050919050565b5f6116d3826114ec565b6116dd81856114f6565b9350836020820285016116ef85611506565b805f5b8581101561172a578484038952815161170b85826116aa565b9450611716836116bd565b925060208a019950506001810190506116f2565b50829750879550505050505092915050565b5f6020820190508181035f83015261175481846116c9565b905092915050565b5f604051905090565b5f5ffd5b5f5ffd5b61177681611515565b8114611780575f5ffd5b50565b5f813590506117918161176d565b92915050565b5f602082840312156117ac576117ab611765565b5b5f6117b984828501611783565b91505092915050565b5f5f604083850312156117d8576117d7611765565b5b5f6117e585828601611783565b92505060206117f685828601611783565b9150509250929050565b5f608083015f8301518482035f86015261181a828261159d565b915050602083015161182f6020860182611621565b506040830151611842604086018261151e565b506060830151611855606086018261163b565b508091505092915050565b5f6020820190508181035f8301526118788184611800565b905092915050565b61188981611610565b8114611893575f5ffd5b50565b5f813590506118a481611880565b92915050565b5f602082840312156118bf576118be611765565b5b5f6118cc84828501611896565b91505092915050565b7f4e487b71000000000000000000000000000000000000000000000000000000005f52603260045260245ffd5b7f4e487b71000000000000000000000000000000000000000000000000000000005f52601160045260245ffd5b5f61193982611515565b91507fffffffffffffffffffffffffffffffffffffffffffffffffffffffffffffffff820361196b5761196a611902565b5b600182019050919050565b7f4e487b71000000000000000000000000000000000000000000000000000000005f52604160045260245ffd5b7f4e487b71000000000000000000000000000000000000000000000000000000005f52602260045260245ffd5b5f60028204905060018216806119e757607f821691505b6020821081036119fa576119f96119a3565b5b50919050565b5f82825260208201905092915050565b7f4e4654206e6f74206c69737465640000000000000000000000000000000000005f82015250565b5f611a44600e83611a00565b9150611a4f82611a10565b602082019050919050565b5f6020820190508181035f830152611a7181611a38565b9050919050565b7f4e465420416c726561647920736f6c64000000000000000000000000000000005f82015250565b5f611aac601083611a00565b9150611ab782611a78565b602082019050919050565b5f6020820190508181035f830152611ad981611aa0565b9050919050565b611ae981611610565b82525050565b5f602082019050611b025f830184611ae0565b92915050565b5f81519050611b168161176d565b92915050565b5f60208284031215611b3157611b30611765565b5b5f611b3e84828501611b08565b91505092915050565b7f496e73756666696369656e7420746f6b656e7320746f20627579204e465400005f82015250565b5f611b7b601e83611a00565b9150611b8682611b47565b602082019050919050565b5f6020820190508181035f830152611ba881611b6f565b9050919050565b611bb881611515565b82525050565b5f606082019050611bd15f830186611ae0565b611bde6020830185611ae0565b611beb6040830184611baf565b949350505050565b611bfc81611630565b8114611c06575f5ffd5b50565b5f81519050611c1781611bf3565b92915050565b5f60208284031215611c3257611c31611765565b5b5f611c3f84828501611c09565b91505092915050565b5f606082019050611c5b5f830186611baf565b611c686020830185611ae0565b611c756040830184611ae0565b949350505050565b7f506c6561736520656e74657220636f727265637420707269636520666f7220745f8201527f6865204e46540000000000000000000000000000000000000000000000000000602082015250565b5f611cd7602683611a00565b9150611ce282611c7d565b604082019050919050565b5f6020820190508181035f830152611d0481611ccb565b9050919050565b5f602082019050611d1e5f830184611baf565b92915050565b5f5ffd5b5f5ffd5b611d3582611555565b810181811067ffffffffffffffff82111715611d5457611d53611976565b5b80604052505050565b5f611d6661175c565b9050611d728282611d2c565b919050565b5f67ffffffffffffffff821115611d9157611d90611976565b5b611d9a82611555565b9050602081019050919050565b5f611db9611db484611d77565b611d5d565b905082815260208101848484011115611dd557611dd4611d28565b5b611de0848285611547565b509392505050565b5f82601f830112611dfc57611dfb611d24565b5b8151611e0c848260208601611da7565b91505092915050565b5f81519050611e2381611880565b92915050565b5f5f5f5f60808587031215611e4157611e40611765565b5b5f611e4e87828801611b08565b945050602085015167ffffffffffffffff811115611e6f57611e6e611769565b5b611e7b87828801611de8565b935050604085015167ffffffffffffffff811115611e9c57611e9b611769565b5b611ea887828801611de8565b9250506060611eb987828801611e15565b91505092959194509250565b7f4e465420646f65736e27742065786973740000000000000000000000000000005f82015250565b5f611ef9601183611a00565b9150611f0482611ec5565b602082019050919050565b5f6020820190508181035f830152611f2681611eed565b9050919050565b7f596f7520617265206e6f7420746865206f776e6572206f6620746865204e46545f82015250565b5f611f61602083611a00565b9150611f6c82611f2d565b602082019050919050565b5f6020820190508181035f830152611f8e81611f55565b9050919050565b5f819050815f5260205f209050919050565b5f6020601f8301049050919050565b5f82821b905092915050565b5f60088302611ff17fffffffffffffffffffffffffffffffffffffffffffffffffffffffffffffffff82611fb6565b611ffb8683611fb6565b95508019841693508086168417925050509392505050565b5f819050919050565b5f61203661203161202c84611515565b612013565b611515565b9050919050565b5f819050919050565b61204f8361201c565b61206361205b8261203d565b848454611fc2565b825550505050565b5f5f905090565b61207a61206b565b612085818484612046565b505050565b5b818110156120a85761209d5f82612072565b60018101905061208b565b5050565b601f8211156120ed576120be81611f95565b6120c784611fa7565b810160208510156120d6578190505b6120ea6120e285611fa7565b83018261208a565b50505b505050565b5f82821c905092915050565b5f61210d5f19846008026120f2565b1980831691505092915050565b5f61212583836120fe565b9150826002028217905092915050565b61213e8261152d565b67ffffffffffffffff81111561215757612156611976565b5b61216182546119d0565b61216c8282856120ac565b5f60209050601f83116001811461219d575f841561218b578287015190505b612195858261211a565b8655506121fc565b601f1984166121ab86611f95565b5f5b828110156121d2578489015182556001820191506020850194506020810190506121ad565b868310156121ef57848901516121eb601f8916826120fe565b8355505b6001600288020188555050505b50505050505056fea264697066735822122031b211d417a755003259bca9d0553ce48e848d4d42b8844e183a2af18929e47564736f6c634300081f0033",
					"opcodes": "PUSH1 0x80 PUSH1 0x40 MSTORE CALLVALUE DUP1 ISZERO PUSH2 0xF JUMPI PUSH0 PUSH0 REVERT JUMPDEST POP PUSH1 0x40 MLOAD PUSH2 0x239A CODESIZE SUB DUP1 PUSH2 0x239A DUP4 CODECOPY DUP2 DUP2 ADD PUSH1 0x40 MSTORE DUP2 ADD SWAP1 PUSH2 0x31 SWAP2 SWAP1 PUSH2 0x115 JUMP JUMPDEST DUP2 PUSH0 PUSH0 PUSH2 0x100 EXP DUP2 SLOAD DUP2 PUSH20 0xFFFFFFFFFFFFFFFFFFFFFFFFFFFFFFFFFFFFFFFF MUL NOT AND SWAP1 DUP4 PUSH20 0xFFFFFFFFFFFFFFFFFFFFFFFFFFFFFFFFFFFFFFFF AND MUL OR SWAP1 SSTORE POP DUP1 PUSH1 0x1 PUSH0 PUSH2 0x100 EXP DUP2 SLOAD DUP2 PUSH20 0xFFFFFFFFFFFFFFFFFFFFFFFFFFFFFFFFFFFFFFFF MUL NOT AND SWAP1 DUP4 PUSH20 0xFFFFFFFFFFFFFFFFFFFFFFFFFFFFFFFFFFFFFFFF AND MUL OR SWAP1 SSTORE POP POP POP PUSH2 0x153 JUMP JUMPDEST PUSH0 PUSH0 REVERT JUMPDEST PUSH0 PUSH20 0xFFFFFFFFFFFFFFFFFFFFFFFFFFFFFFFFFFFFFFFF DUP3 AND SWAP1 POP SWAP2 SWAP1 POP JUMP JUMPDEST PUSH0 PUSH2 0xE4 DUP3 PUSH2 0xBB JUMP JUMPDEST SWAP1 POP SWAP2 SWAP1 POP JUMP JUMPDEST PUSH2 0xF4 DUP2 PUSH2 0xDA JUMP JUMPDEST DUP2 EQ PUSH2 0xFE JUMPI PUSH0 PUSH0 REVERT JUMPDEST POP JUMP JUMPDEST PUSH0 DUP2 MLOAD SWAP1 POP PUSH2 0x10F DUP2 PUSH2 0xEB JUMP JUMPDEST SWAP3 SWAP2 POP POP JUMP JUMPDEST PUSH0 PUSH0 PUSH1 0x40 DUP4 DUP6 SUB SLT ISZERO PUSH2 0x12B JUMPI PUSH2 0x12A PUSH2 0xB7 JUMP JUMPDEST JUMPDEST PUSH0 PUSH2 0x138 DUP6 DUP3 DUP7 ADD PUSH2 0x101 JUMP JUMPDEST SWAP3 POP POP PUSH1 0x20 PUSH2 0x149 DUP6 DUP3 DUP7 ADD PUSH2 0x101 JUMP JUMPDEST SWAP2 POP POP SWAP3 POP SWAP3 SWAP1 POP JUMP JUMPDEST PUSH2 0x223A DUP1 PUSH2 0x160 PUSH0 CODECOPY PUSH0 RETURN INVALID PUSH1 0x80 PUSH1 0x40 MSTORE CALLVALUE DUP1 ISZERO PUSH2 0xF JUMPI PUSH0 PUSH0 REVERT JUMPDEST POP PUSH1 0x4 CALLDATASIZE LT PUSH2 0x60 JUMPI PUSH0 CALLDATALOAD PUSH1 0xE0 SHR DUP1 PUSH4 0x2557BDC9 EQ PUSH2 0x64 JUMPI DUP1 PUSH4 0x51ED8288 EQ PUSH2 0x82 JUMPI DUP1 PUSH4 0x7A5F270D EQ PUSH2 0x9E JUMPI DUP1 PUSH4 0x94383F14 EQ PUSH2 0xBC JUMPI DUP1 PUSH4 0xCA74E355 EQ PUSH2 0xD8 JUMPI DUP1 PUSH4 0xEC01C796 EQ PUSH2 0x108 JUMPI JUMPDEST PUSH0 PUSH0 REVERT JUMPDEST PUSH2 0x6C PUSH2 0x138 JUMP JUMPDEST PUSH1 0x40 MLOAD PUSH2 0x79 SWAP2 SWAP1 PUSH2 0x173C JUMP JUMPDEST PUSH1 0x40 MLOAD DUP1 SWAP2 SUB SWAP1 RETURN JUMPDEST PUSH2 0x9C PUSH1 0x4 DUP1 CALLDATASIZE SUB DUP2 ADD SWAP1 PUSH2 0x97 SWAP2 SWAP1 PUSH2 0x1797 JUMP JUMPDEST PUSH2 0x48D JUMP JUMPDEST STOP JUMPDEST PUSH2 0xA6 PUSH2 0x87D JUMP JUMPDEST PUSH1 0x40 MLOAD PUSH2 0xB3 SWAP2 SWAP1 PUSH2 0x173C JUMP JUMPDEST PUSH1 0x40 MLOAD DUP1 SWAP2 SUB SWAP1 RETURN JUMPDEST PUSH2 0xD6 PUSH1 0x4 DUP1 CALLDATASIZE SUB DUP2 ADD SWAP1 PUSH2 0xD1 SWAP2 SWAP1 PUSH2 0x17C2 JUMP JUMPDEST PUSH2 0xBD4 JUMP JUMPDEST STOP JUMPDEST PUSH2 0xF2 PUSH1 0x4 DUP1 CALLDATASIZE SUB DUP2 ADD SWAP1 PUSH2 0xED SWAP2 SWAP1 PUSH2 0x1797 JUMP JUMPDEST PUSH2 0xF66 JUMP JUMPDEST PUSH1 0x40 MLOAD PUSH2 0xFF SWAP2 SWAP1 PUSH2 0x1860 JUMP JUMPDEST PUSH1 0x40 MLOAD DUP1 SWAP2 SUB SWAP1 RETURN JUMPDEST PUSH2 0x122 PUSH1 0x4 DUP1 CALLDATASIZE SUB DUP2 ADD SWAP1 PUSH2 0x11D SWAP2 SWAP1 PUSH2 0x18AA JUMP JUMPDEST PUSH2 0x1146 JUMP JUMPDEST PUSH1 0x40 MLOAD PUSH2 0x12F SWAP2 SWAP1 PUSH2 0x173C JUMP JUMPDEST PUSH1 0x40 MLOAD DUP1 SWAP2 SUB SWAP1 RETURN JUMPDEST PUSH1 0x60 PUSH0 PUSH0 SWAP1 POP PUSH0 PUSH0 SWAP1 POP JUMPDEST PUSH1 0x3 DUP1 SLOAD SWAP1 POP DUP2 LT ISZERO PUSH2 0x1AD JUMPI PUSH1 0x2 PUSH0 PUSH1 0x3 DUP4 DUP2 SLOAD DUP2 LT PUSH2 0x167 JUMPI PUSH2 0x166 PUSH2 0x18D5 JUMP JUMPDEST JUMPDEST SWAP1 PUSH0 MSTORE PUSH1 0x20 PUSH0 KECCAK256 ADD SLOAD DUP2 MSTORE PUSH1 0x20 ADD SWAP1 DUP2 MSTORE PUSH1 0x20 ADD PUSH0 KECCAK256 PUSH1 0x5 ADD PUSH0 SWAP1 SLOAD SWAP1 PUSH2 0x100 EXP SWAP1 DIV PUSH1 0xFF AND PUSH2 0x1A0 JUMPI DUP2 DUP1 PUSH2 0x19C SWAP1 PUSH2 0x192F JUMP JUMPDEST SWAP3 POP POP JUMPDEST DUP1 DUP1 PUSH1 0x1 ADD SWAP2 POP POP PUSH2 0x143 JUMP JUMPDEST POP PUSH0 DUP2 PUSH8 0xFFFFFFFFFFFFFFFF DUP2 GT ISZERO PUSH2 0x1C9 JUMPI PUSH2 0x1C8 PUSH2 0x1976 JUMP JUMPDEST JUMPDEST PUSH1 0x40 MLOAD SWAP1 DUP1 DUP3 MSTORE DUP1 PUSH1 0x20 MUL PUSH1 0x20 ADD DUP3 ADD PUSH1 0x40 MSTORE DUP1 ISZERO PUSH2 0x202 JUMPI DUP2 PUSH1 0x20 ADD JUMPDEST PUSH2 0x1EF PUSH2 0x1489 JUMP JUMPDEST DUP2 MSTORE PUSH1 0x20 ADD SWAP1 PUSH1 0x1 SWAP1 SUB SWAP1 DUP2 PUSH2 0x1E7 JUMPI SWAP1 POP JUMPDEST POP SWAP1 POP PUSH0 PUSH0 SWAP1 POP PUSH0 PUSH0 SWAP1 POP JUMPDEST PUSH1 0x3 DUP1 SLOAD SWAP1 POP DUP2 LT ISZERO PUSH2 0x483 JUMPI PUSH1 0x2 PUSH0 PUSH1 0x3 DUP4 DUP2 SLOAD DUP2 LT PUSH2 0x232 JUMPI PUSH2 0x231 PUSH2 0x18D5 JUMP JUMPDEST JUMPDEST SWAP1 PUSH0 MSTORE PUSH1 0x20 PUSH0 KECCAK256 ADD SLOAD DUP2 MSTORE PUSH1 0x20 ADD SWAP1 DUP2 MSTORE PUSH1 0x20 ADD PUSH0 KECCAK256 PUSH1 0x5 ADD PUSH0 SWAP1 SLOAD SWAP1 PUSH2 0x100 EXP SWAP1 DIV PUSH1 0xFF AND PUSH2 0x476 JUMPI PUSH1 0x2 PUSH0 PUSH1 0x3 DUP4 DUP2 SLOAD DUP2 LT PUSH2 0x273 JUMPI PUSH2 0x272 PUSH2 0x18D5 JUMP JUMPDEST JUMPDEST SWAP1 PUSH0 MSTORE PUSH1 0x20 PUSH0 KECCAK256 ADD SLOAD DUP2 MSTORE PUSH1 0x20 ADD SWAP1 DUP2 MSTORE PUSH1 0x20 ADD PUSH0 KECCAK256 PUSH1 0x40 MLOAD DUP1 PUSH1 0x80 ADD PUSH1 0x40 MSTORE SWAP1 DUP2 PUSH0 DUP3 ADD PUSH1 0x40 MLOAD DUP1 PUSH1 0x60 ADD PUSH1 0x40 MSTORE SWAP1 DUP2 PUSH0 DUP3 ADD SLOAD DUP2 MSTORE PUSH1 0x20 ADD PUSH1 0x1 DUP3 ADD DUP1 SLOAD PUSH2 0x2BC SWAP1 PUSH2 0x19D0 JUMP JUMPDEST DUP1 PUSH1 0x1F ADD PUSH1 0x20 DUP1 SWAP2 DIV MUL PUSH1 0x20 ADD PUSH1 0x40 MLOAD SWAP1 DUP2 ADD PUSH1 0x40 MSTORE DUP1 SWAP3 SWAP2 SWAP1 DUP2 DUP2 MSTORE PUSH1 0x20 ADD DUP3 DUP1 SLOAD PUSH2 0x2E8 SWAP1 PUSH2 0x19D0 JUMP JUMPDEST DUP1 ISZERO PUSH2 0x333 JUMPI DUP1 PUSH1 0x1F LT PUSH2 0x30A JUMPI PUSH2 0x100 DUP1 DUP4 SLOAD DIV MUL DUP4 MSTORE SWAP2 PUSH1 0x20 ADD SWAP2 PUSH2 0x333 JUMP JUMPDEST DUP3 ADD SWAP2 SWAP1 PUSH0 MSTORE PUSH1 0x20 PUSH0 KECCAK256 SWAP1 JUMPDEST DUP2 SLOAD DUP2 MSTORE SWAP1 PUSH1 0x1 ADD SWAP1 PUSH1 0x20 ADD DUP1 DUP4 GT PUSH2 0x316 JUMPI DUP3 SWAP1 SUB PUSH1 0x1F AND DUP3 ADD SWAP2 JUMPDEST POP POP POP POP POP DUP2 MSTORE PUSH1 0x20 ADD PUSH1 0x2 DUP3 ADD DUP1 SLOAD PUSH2 0x34C SWAP1 PUSH2 0x19D0 JUMP JUMPDEST DUP1 PUSH1 0x1F ADD PUSH1 0x20 DUP1 SWAP2 DIV MUL PUSH1 0x20 ADD PUSH1 0x40 MLOAD SWAP1 DUP2 ADD PUSH1 0x40 MSTORE DUP1 SWAP3 SWAP2 SWAP1 DUP2 DUP2 MSTORE PUSH1 0x20 ADD DUP3 DUP1 SLOAD PUSH2 0x378 SWAP1 PUSH2 0x19D0 JUMP JUMPDEST DUP1 ISZERO PUSH2 0x3C3 JUMPI DUP1 PUSH1 0x1F LT PUSH2 0x39A JUMPI PUSH2 0x100 DUP1 DUP4 SLOAD DIV MUL DUP4 MSTORE SWAP2 PUSH1 0x20 ADD SWAP2 PUSH2 0x3C3 JUMP JUMPDEST DUP3 ADD SWAP2 SWAP1 PUSH0 MSTORE PUSH1 0x20 PUSH0 KECCAK256 SWAP1 JUMPDEST DUP2 SLOAD DUP2 MSTORE SWAP1 PUSH1 0x1 ADD SWAP1 PUSH1 0x20 ADD DUP1 DUP4 GT PUSH2 0x3A6 JUMPI DUP3 SWAP1 SUB PUSH1 0x1F AND DUP3 ADD SWAP2 JUMPDEST POP POP POP POP POP DUP2 MSTORE POP POP DUP2 MSTORE PUSH1 0x20 ADD PUSH1 0x3 DUP3 ADD PUSH0 SWAP1 SLOAD SWAP1 PUSH2 0x100 EXP SWAP1 DIV PUSH20 0xFFFFFFFFFFFFFFFFFFFFFFFFFFFFFFFFFFFFFFFF AND PUSH20 0xFFFFFFFFFFFFFFFFFFFFFFFFFFFFFFFFFFFFFFFF AND PUSH20 0xFFFFFFFFFFFFFFFFFFFFFFFFFFFFFFFFFFFFFFFF AND DUP2 MSTORE PUSH1 0x20 ADD PUSH1 0x4 DUP3 ADD SLOAD DUP2 MSTORE PUSH1 0x20 ADD PUSH1 0x5 DUP3 ADD PUSH0 SWAP1 SLOAD SWAP1 PUSH2 0x100 EXP SWAP1 DIV PUSH1 0xFF AND ISZERO ISZERO ISZERO ISZERO DUP2 MSTORE POP POP DUP4 DUP4 DUP2 MLOAD DUP2 LT PUSH2 0x45C JUMPI PUSH2 0x45B PUSH2 0x18D5 JUMP JUMPDEST JUMPDEST PUSH1 0x20 MUL PUSH1 0x20 ADD ADD DUP2 SWAP1 MSTORE POP DUP2 DUP1 PUSH2 0x472 SWAP1 PUSH2 0x192F JUMP JUMPDEST SWAP3 POP POP JUMPDEST DUP1 DUP1 PUSH1 0x1 ADD SWAP2 POP POP PUSH2 0x20E JUMP JUMPDEST POP DUP2 SWAP4 POP POP POP POP SWAP1 JUMP JUMPDEST PUSH0 PUSH20 0xFFFFFFFFFFFFFFFFFFFFFFFFFFFFFFFFFFFFFFFF AND PUSH1 0x2 PUSH0 DUP4 DUP2 MSTORE PUSH1 0x20 ADD SWAP1 DUP2 MSTORE PUSH1 0x20 ADD PUSH0 KECCAK256 PUSH1 0x3 ADD PUSH0 SWAP1 SLOAD SWAP1 PUSH2 0x100 EXP SWAP1 DIV PUSH20 0xFFFFFFFFFFFFFFFFFFFFFFFFFFFFFFFFFFFFFFFF AND PUSH20 0xFFFFFFFFFFFFFFFFFFFFFFFFFFFFFFFFFFFFFFFF AND SUB PUSH2 0x52E JUMPI PUSH1 0x40 MLOAD PUSH32 0x8C379A000000000000000000000000000000000000000000000000000000000 DUP2 MSTORE PUSH1 0x4 ADD PUSH2 0x525 SWAP1 PUSH2 0x1A5A JUMP JUMPDEST PUSH1 0x40 MLOAD DUP1 SWAP2 SUB SWAP1 REVERT JUMPDEST PUSH1 0x2 PUSH0 DUP3 DUP2 MSTORE PUSH1 0x20 ADD SWAP1 DUP2 MSTORE PUSH1 0x20 ADD PUSH0 KECCAK256 PUSH1 0x5 ADD PUSH0 SWAP1 SLOAD SWAP1 PUSH2 0x100 EXP SWAP1 DIV PUSH1 0xFF AND ISZERO PUSH2 0x58F JUMPI PUSH1 0x40 MLOAD PUSH32 0x8C379A000000000000000000000000000000000000000000000000000000000 DUP2 MSTORE PUSH1 0x4 ADD PUSH2 0x586 SWAP1 PUSH2 0x1AC2 JUMP JUMPDEST PUSH1 0x40 MLOAD DUP1 SWAP2 SUB SWAP1 REVERT JUMPDEST PUSH1 0x2 PUSH0 DUP3 DUP2 MSTORE PUSH1 0x20 ADD SWAP1 DUP2 MSTORE PUSH1 0x20 ADD PUSH0 KECCAK256 PUSH1 0x4 ADD SLOAD PUSH0 PUSH0 SWAP1 SLOAD SWAP1 PUSH2 0x100 EXP SWAP1 DIV PUSH20 0xFFFFFFFFFFFFFFFFFFFFFFFFFFFFFFFFFFFFFFFF AND PUSH20 0xFFFFFFFFFFFFFFFFFFFFFFFFFFFFFFFFFFFFFFFF AND PUSH4 0x12CAE7AF CALLER PUSH1 0x40 MLOAD DUP3 PUSH4 0xFFFFFFFF AND PUSH1 0xE0 SHL DUP2 MSTORE PUSH1 0x4 ADD PUSH2 0x5FD SWAP2 SWAP1 PUSH2 0x1AEF JUMP JUMPDEST PUSH1 0x20 PUSH1 0x40 MLOAD DUP1 DUP4 SUB DUP2 DUP7 GAS STATICCALL ISZERO DUP1 ISZERO PUSH2 0x618 JUMPI RETURNDATASIZE PUSH0 PUSH0 RETURNDATACOPY RETURNDATASIZE PUSH0 REVERT JUMPDEST POP POP POP POP PUSH1 0x40 MLOAD RETURNDATASIZE PUSH1 0x1F NOT PUSH1 0x1F DUP3 ADD AND DUP3 ADD DUP1 PUSH1 0x40 MSTORE POP DUP2 ADD SWAP1 PUSH2 0x63C SWAP2 SWAP1 PUSH2 0x1B1C JUMP JUMPDEST LT ISZERO PUSH2 0x67D JUMPI PUSH1 0x40 MLOAD PUSH32 0x8C379A000000000000000000000000000000000000000000000000000000000 DUP2 MSTORE PUSH1 0x4 ADD PUSH2 0x674 SWAP1 PUSH2 0x1B91 JUMP JUMPDEST PUSH1 0x40 MLOAD DUP1 SWAP2 SUB SWAP1 REVERT JUMPDEST PUSH0 PUSH0 SWAP1 SLOAD SWAP1 PUSH2 0x100 EXP SWAP1 DIV PUSH20 0xFFFFFFFFFFFFFFFFFFFFFFFFFFFFFFFFFFFFFFFF AND PUSH20 0xFFFFFFFFFFFFFFFFFFFFFFFFFFFFFFFFFFFFFFFF AND PUSH4 0x23B872DD CALLER PUSH1 0x2 PUSH0 DUP6 DUP2 MSTORE PUSH1 0x20 ADD SWAP1 DUP2 MSTORE PUSH1 0x20 ADD PUSH0 KECCAK256 PUSH1 0x3 ADD PUSH0 SWAP1 SLOAD SWAP1 PUSH2 0x100 EXP SWAP1 DIV PUSH20 0xFFFFFFFFFFFFFFFFFFFFFFFFFFFFFFFFFFFFFFFF AND PUSH1 0x2 PUSH0 DUP7 DUP2 MSTORE PUSH1 0x20 ADD SWAP1 DUP2 MSTORE PUSH1 0x20 ADD PUSH0 KECCAK256 PUSH1 0x4 ADD SLOAD PUSH1 0x40 MLOAD DUP5 PUSH4 0xFFFFFFFF AND PUSH1 0xE0 SHL DUP2 MSTORE PUSH1 0x4 ADD PUSH2 0x721 SWAP4 SWAP3 SWAP2 SWAP1 PUSH2 0x1BBE JUMP JUMPDEST PUSH1 0x20 PUSH1 0x40 MLOAD DUP1 DUP4 SUB DUP2 PUSH0 DUP8 GAS CALL ISZERO DUP1 ISZERO PUSH2 0x73D JUMPI RETURNDATASIZE PUSH0 PUSH0 RETURNDATACOPY RETURNDATASIZE PUSH0 REVERT JUMPDEST POP POP POP POP PUSH1 0x40 MLOAD RETURNDATASIZE PUSH1 0x1F NOT PUSH1 0x1F DUP3 ADD AND DUP3 ADD DUP1 PUSH1 0x40 MSTORE POP DUP2 ADD SWAP1 PUSH2 0x761 SWAP2 SWAP1 PUSH2 0x1C1D JUMP JUMPDEST POP PUSH1 0x1 PUSH0 SWAP1 SLOAD SWAP1 PUSH2 0x100 EXP SWAP1 DIV PUSH20 0xFFFFFFFFFFFFFFFFFFFFFFFFFFFFFFFFFFFFFFFF AND PUSH20 0xFFFFFFFFFFFFFFFFFFFFFFFFFFFFFFFFFFFFFFFF AND PUSH4 0x2AAFE132 DUP3 ADDRESS CALLER PUSH1 0x40 MLOAD DUP5 PUSH4 0xFFFFFFFF AND PUSH1 0xE0 SHL DUP2 MSTORE PUSH1 0x4 ADD PUSH2 0x7C0 SWAP4 SWAP3 SWAP2 SWAP1 PUSH2 0x1C48 JUMP JUMPDEST PUSH0 PUSH1 0x40 MLOAD DUP1 DUP4 SUB DUP2 PUSH0 DUP8 DUP1 EXTCODESIZE ISZERO DUP1 ISZERO PUSH2 0x7D7 JUMPI PUSH0 PUSH0 REVERT JUMPDEST POP GAS CALL ISZERO DUP1 ISZERO PUSH2 0x7E9 JUMPI RETURNDATASIZE PUSH0 PUSH0 RETURNDATACOPY RETURNDATASIZE PUSH0 REVERT JUMPDEST POP POP POP POP PUSH1 0x1 PUSH1 0x2 PUSH0 DUP4 DUP2 MSTORE PUSH1 0x20 ADD SWAP1 DUP2 MSTORE PUSH1 0x20 ADD PUSH0 KECCAK256 PUSH1 0x5 ADD PUSH0 PUSH2 0x100 EXP DUP2 SLOAD DUP2 PUSH1 0xFF MUL NOT AND SWAP1 DUP4 ISZERO ISZERO MUL OR SWAP1 SSTORE POP PUSH1 0x4 PUSH0 CALLER PUSH20 0xFFFFFFFFFFFFFFFFFFFFFFFFFFFFFFFFFFFFFFFF AND PUSH20 0xFFFFFFFFFFFFFFFFFFFFFFFFFFFFFFFFFFFFFFFF AND DUP2 MSTORE PUSH1 0x20 ADD SWAP1 DUP2 MSTORE PUSH1 0x20 ADD PUSH0 KECCAK256 DUP2 SWAP1 DUP1 PUSH1 0x1 DUP2 SLOAD ADD DUP1 DUP3 SSTORE DUP1 SWAP2 POP POP PUSH1 0x1 SWAP1 SUB SWAP1 PUSH0 MSTORE PUSH1 0x20 PUSH0 KECCAK256 ADD PUSH0 SWAP1 SWAP2 SWAP1 SWAP2 SWAP1 SWAP2 POP SSTORE POP JUMP JUMPDEST PUSH1 0x60 PUSH0 PUSH0 SWAP1 POP PUSH0 PUSH0 SWAP1 POP JUMPDEST PUSH1 0x3 DUP1 SLOAD SWAP1 POP DUP2 LT ISZERO PUSH2 0x8F3 JUMPI PUSH1 0x2 PUSH0 PUSH1 0x3 DUP4 DUP2 SLOAD DUP2 LT PUSH2 0x8AC JUMPI PUSH2 0x8AB PUSH2 0x18D5 JUMP JUMPDEST JUMPDEST SWAP1 PUSH0 MSTORE PUSH1 0x20 PUSH0 KECCAK256 ADD SLOAD DUP2 MSTORE PUSH1 0x20 ADD SWAP1 DUP2 MSTORE PUSH1 0x20 ADD PUSH0 KECCAK256 PUSH1 0x5 ADD PUSH0 SWAP1 SLOAD SWAP1 PUSH2 0x100 EXP SWAP1 DIV PUSH1 0xFF AND ISZERO PUSH2 0x8E6 JUMPI DUP2 DUP1 PUSH2 0x8E2 SWAP1 PUSH2 0x192F JUMP JUMPDEST SWAP3 POP POP JUMPDEST DUP1 DUP1 PUSH1 0x1 ADD SWAP2 POP POP PUSH2 0x888 JUMP JUMPDEST POP PUSH0 DUP2 PUSH8 0xFFFFFFFFFFFFFFFF DUP2 GT ISZERO PUSH2 0x90F JUMPI PUSH2 0x90E PUSH2 0x1976 JUMP JUMPDEST JUMPDEST PUSH1 0x40 MLOAD SWAP1 DUP1 DUP3 MSTORE DUP1 PUSH1 0x20 MUL PUSH1 0x20 ADD DUP3 ADD PUSH1 0x40 MSTORE DUP1 ISZERO PUSH2 0x948 JUMPI DUP2 PUSH1 0x20 ADD JUMPDEST PUSH2 0x935 PUSH2 0x1489 JUMP JUMPDEST DUP2 MSTORE PUSH1 0x20 ADD SWAP1 PUSH1 0x1 SWAP1 SUB SWAP1 DUP2 PUSH2 0x92D JUMPI SWAP1 POP JUMPDEST POP SWAP1 POP PUSH0 PUSH0 SWAP1 POP PUSH0 PUSH0 SWAP1 POP JUMPDEST PUSH1 0x3 DUP1 SLOAD SWAP1 POP DUP2 LT ISZERO PUSH2 0xBCA JUMPI PUSH1 0x2 PUSH0 PUSH1 0x3 DUP4 DUP2 SLOAD DUP2 LT PUSH2 0x978 JUMPI PUSH2 0x977 PUSH2 0x18D5 JUMP JUMPDEST JUMPDEST SWAP1 PUSH0 MSTORE PUSH1 0x20 PUSH0 KECCAK256 ADD SLOAD DUP2 MSTORE PUSH1 0x20 ADD SWAP1 DUP2 MSTORE PUSH1 0x20 ADD PUSH0 KECCAK256 PUSH1 0x5 ADD PUSH0 SWAP1 SLOAD SWAP1 PUSH2 0x100 EXP SWAP1 DIV PUSH1 0xFF AND ISZERO PUSH2 0xBBD JUMPI PUSH1 0x2 PUSH0 PUSH1 0x3 DUP4 DUP2 SLOAD DUP2 LT PUSH2 0x9BA JUMPI PUSH2 0x9B9 PUSH2 0x18D5 JUMP JUMPDEST JUMPDEST SWAP1 PUSH0 MSTORE PUSH1 0x20 PUSH0 KECCAK256 ADD SLOAD DUP2 MSTORE PUSH1 0x20 ADD SWAP1 DUP2 MSTORE PUSH1 0x20 ADD PUSH0 KECCAK256 PUSH1 0x40 MLOAD DUP1 PUSH1 0x80 ADD PUSH1 0x40 MSTORE SWAP1 DUP2 PUSH0 DUP3 ADD PUSH1 0x40 MLOAD DUP1 PUSH1 0x60 ADD PUSH1 0x40 MSTORE SWAP1 DUP2 PUSH0 DUP3 ADD SLOAD DUP2 MSTORE PUSH1 0x20 ADD PUSH1 0x1 DUP3 ADD DUP1 SLOAD PUSH2 0xA03 SWAP1 PUSH2 0x19D0 JUMP JUMPDEST DUP1 PUSH1 0x1F ADD PUSH1 0x20 DUP1 SWAP2 DIV MUL PUSH1 0x20 ADD PUSH1 0x40 MLOAD SWAP1 DUP2 ADD PUSH1 0x40 MSTORE DUP1 SWAP3 SWAP2 SWAP1 DUP2 DUP2 MSTORE PUSH1 0x20 ADD DUP3 DUP1 SLOAD PUSH2 0xA2F SWAP1 PUSH2 0x19D0 JUMP JUMPDEST DUP1 ISZERO PUSH2 0xA7A JUMPI DUP1 PUSH1 0x1F LT PUSH2 0xA51 JUMPI PUSH2 0x100 DUP1 DUP4 SLOAD DIV MUL DUP4 MSTORE SWAP2 PUSH1 0x20 ADD SWAP2 PUSH2 0xA7A JUMP JUMPDEST DUP3 ADD SWAP2 SWAP1 PUSH0 MSTORE PUSH1 0x20 PUSH0 KECCAK256 SWAP1 JUMPDEST DUP2 SLOAD DUP2 MSTORE SWAP1 PUSH1 0x1 ADD SWAP1 PUSH1 0x20 ADD DUP1 DUP4 GT PUSH2 0xA5D JUMPI DUP3 SWAP1 SUB PUSH1 0x1F AND DUP3 ADD SWAP2 JUMPDEST POP POP POP POP POP DUP2 MSTORE PUSH1 0x20 ADD PUSH1 0x2 DUP3 ADD DUP1 SLOAD PUSH2 0xA93 SWAP1 PUSH2 0x19D0 JUMP JUMPDEST DUP1 PUSH1 0x1F ADD PUSH1 0x20 DUP1 SWAP2 DIV MUL PUSH1 0x20 ADD PUSH1 0x40 MLOAD SWAP1 DUP2 ADD PUSH1 0x40 MSTORE DUP1 SWAP3 SWAP2 SWAP1 DUP2 DUP2 MSTORE PUSH1 0x20 ADD DUP3 DUP1 SLOAD PUSH2 0xABF SWAP1 PUSH2 0x19D0 JUMP JUMPDEST DUP1 ISZERO PUSH2 0xB0A JUMPI DUP1 PUSH1 0x1F LT PUSH2 0xAE1 JUMPI PUSH2 0x100 DUP1 DUP4 SLOAD DIV MUL DUP4 MSTORE SWAP2 PUSH1 0x20 ADD SWAP2 PUSH2 0xB0A JUMP JUMPDEST DUP3 ADD SWAP2 SWAP1 PUSH0 MSTORE PUSH1 0x20 PUSH0 KECCAK256 SWAP1 JUMPDEST DUP2 SLOAD DUP2 MSTORE SWAP1 PUSH1 0x1 ADD SWAP1 PUSH1 0x20 ADD DUP1 DUP4 GT PUSH2 0xAED JUMPI DUP3 SWAP1 SUB PUSH1 0x1F AND DUP3 ADD SWAP2 JUMPDEST POP POP POP POP POP DUP2 MSTORE POP POP DUP2 MSTORE PUSH1 0x20 ADD PUSH1 0x3 DUP3 ADD PUSH0 SWAP1 SLOAD SWAP1 PUSH2 0x100 EXP SWAP1 DIV PUSH20 0xFFFFFFFFFFFFFFFFFFFFFFFFFFFFFFFFFFFFFFFF AND PUSH20 0xFFFFFFFFFFFFFFFFFFFFFFFFFFFFFFFFFFFFFFFF AND PUSH20 0xFFFFFFFFFFFFFFFFFFFFFFFFFFFFFFFFFFFFFFFF AND DUP2 MSTORE PUSH1 0x20 ADD PUSH1 0x4 DUP3 ADD SLOAD DUP2 MSTORE PUSH1 0x20 ADD PUSH1 0x5 DUP3 ADD PUSH0 SWAP1 SLOAD SWAP1 PUSH2 0x100 EXP SWAP1 DIV PUSH1 0xFF AND ISZERO ISZERO ISZERO ISZERO DUP2 MSTORE POP POP DUP4 DUP4 DUP2 MLOAD DUP2 LT PUSH2 0xBA3 JUMPI PUSH2 0xBA2 PUSH2 0x18D5 JUMP JUMPDEST JUMPDEST PUSH1 0x20 MUL PUSH1 0x20 ADD ADD DUP2 SWAP1 MSTORE POP DUP2 DUP1 PUSH2 0xBB9 SWAP1 PUSH2 0x192F JUMP JUMPDEST SWAP3 POP POP JUMPDEST DUP1 DUP1 PUSH1 0x1 ADD SWAP2 POP POP PUSH2 0x954 JUMP JUMPDEST POP DUP2 SWAP4 POP POP POP POP SWAP1 JUMP JUMPDEST PUSH0 DUP2 GT PUSH2 0xC16 JUMPI PUSH1 0x40 MLOAD PUSH32 0x8C379A000000000000000000000000000000000000000000000000000000000 DUP2 MSTORE PUSH1 0x4 ADD PUSH2 0xC0D SWAP1 PUSH2 0x1CED JUMP JUMPDEST PUSH1 0x40 MLOAD DUP1 SWAP2 SUB SWAP1 REVERT JUMPDEST PUSH0 PUSH0 PUSH0 PUSH0 PUSH1 0x1 PUSH0 SWAP1 SLOAD SWAP1 PUSH2 0x100 EXP SWAP1 DIV PUSH20 0xFFFFFFFFFFFFFFFFFFFFFFFFFFFFFFFFFFFFFFFF AND PUSH20 0xFFFFFFFFFFFFFFFFFFFFFFFFFFFFFFFFFFFFFFFF AND PUSH4 0x265AA621 DUP8 PUSH1 0x40 MLOAD DUP3 PUSH4 0xFFFFFFFF AND PUSH1 0xE0 SHL DUP2 MSTORE PUSH1 0x4 ADD PUSH2 0xC74 SWAP2 SWAP1 PUSH2 0x1D0B JUMP JUMPDEST PUSH0 PUSH1 0x40 MLOAD DUP1 DUP4 SUB DUP2 DUP7 GAS STATICCALL ISZERO DUP1 ISZERO PUSH2 0xC8E JUMPI RETURNDATASIZE PUSH0 PUSH0 RETURNDATACOPY RETURNDATASIZE PUSH0 REVERT JUMPDEST POP POP POP POP PUSH1 0x40 MLOAD RETURNDATASIZE PUSH0 DUP3 RETURNDATACOPY RETURNDATASIZE PUSH1 0x1F NOT PUSH1 0x1F DUP3 ADD AND DUP3 ADD DUP1 PUSH1 0x40 MSTORE POP DUP2 ADD SWAP1 PUSH2 0xCB6 SWAP2 SWAP1 PUSH2 0x1E29 JUMP JUMPDEST SWAP4 POP SWAP4 POP SWAP4 POP SWAP4 POP PUSH0 PUSH20 0xFFFFFFFFFFFFFFFFFFFFFFFFFFFFFFFFFFFFFFFF AND DUP2 PUSH20 0xFFFFFFFFFFFFFFFFFFFFFFFFFFFFFFFFFFFFFFFF AND SUB PUSH2 0xD2C JUMPI PUSH1 0x40 MLOAD PUSH32 0x8C379A000000000000000000000000000000000000000000000000000000000 DUP2 MSTORE PUSH1 0x4 ADD PUSH2 0xD23 SWAP1 PUSH2 0x1F0F JUMP JUMPDEST PUSH1 0x40 MLOAD DUP1 SWAP2 SUB SWAP1 REVERT JUMPDEST CALLER PUSH20 0xFFFFFFFFFFFFFFFFFFFFFFFFFFFFFFFFFFFFFFFF AND DUP2 PUSH20 0xFFFFFFFFFFFFFFFFFFFFFFFFFFFFFFFFFFFFFFFF AND EQ PUSH2 0xD9A JUMPI PUSH1 0x40 MLOAD PUSH32 0x8C379A000000000000000000000000000000000000000000000000000000000 DUP2 MSTORE PUSH1 0x4 ADD PUSH2 0xD91 SWAP1 PUSH2 0x1F77 JUMP JUMPDEST PUSH1 0x40 MLOAD DUP1 SWAP2 SUB SWAP1 REVERT JUMPDEST PUSH1 0x1 PUSH0 SWAP1 SLOAD SWAP1 PUSH2 0x100 EXP SWAP1 DIV PUSH20 0xFFFFFFFFFFFFFFFFFFFFFFFFFFFFFFFFFFFFFFFF AND PUSH20 0xFFFFFFFFFFFFFFFFFFFFFFFFFFFFFFFFFFFFFFFF AND PUSH4 0x2AAFE132 DUP8 CALLER ADDRESS PUSH1 0x40 MLOAD DUP5 PUSH4 0xFFFFFFFF AND PUSH1 0xE0 SHL DUP2 MSTORE PUSH1 0x4 ADD PUSH2 0xDF8 SWAP4 SWAP3 SWAP2 SWAP1 PUSH2 0x1C48 JUMP JUMPDEST PUSH0 PUSH1 0x40 MLOAD DUP1 DUP4 SUB DUP2 PUSH0 DUP8 DUP1 EXTCODESIZE ISZERO DUP1 ISZERO PUSH2 0xE0F JUMPI PUSH0 PUSH0 REVERT JUMPDEST POP GAS CALL ISZERO DUP1 ISZERO PUSH2 0xE21 JUMPI RETURNDATASIZE PUSH0 PUSH0 RETURNDATACOPY RETURNDATASIZE PUSH0 REVERT JUMPDEST POP POP POP POP PUSH1 0x40 MLOAD DUP1 PUSH1 0x80 ADD PUSH1 0x40 MSTORE DUP1 PUSH1 0x40 MLOAD DUP1 PUSH1 0x60 ADD PUSH1 0x40 MSTORE DUP1 DUP8 DUP2 MSTORE PUSH1 0x20 ADD DUP7 DUP2 MSTORE PUSH1 0x20 ADD DUP6 DUP2 MSTORE POP DUP2 MSTORE PUSH1 0x20 ADD CALLER PUSH20 0xFFFFFFFFFFFFFFFFFFFFFFFFFFFFFFFFFFFFFFFF AND DUP2 MSTORE PUSH1 0x20 ADD DUP7 DUP2 MSTORE PUSH1 0x20 ADD PUSH0 ISZERO ISZERO DUP2 MSTORE POP PUSH1 0x2 PUSH0 DUP9 DUP2 MSTORE PUSH1 0x20 ADD SWAP1 DUP2 MSTORE PUSH1 0x20 ADD PUSH0 KECCAK256 PUSH0 DUP3 ADD MLOAD DUP2 PUSH0 ADD PUSH0 DUP3 ADD MLOAD DUP2 PUSH0 ADD SSTORE PUSH1 0x20 DUP3 ADD MLOAD DUP2 PUSH1 0x1 ADD SWAP1 DUP2 PUSH2 0xEAD SWAP2 SWAP1 PUSH2 0x2135 JUMP JUMPDEST POP PUSH1 0x40 DUP3 ADD MLOAD DUP2 PUSH1 0x2 ADD SWAP1 DUP2 PUSH2 0xEC3 SWAP2 SWAP1 PUSH2 0x2135 JUMP JUMPDEST POP POP POP PUSH1 0x20 DUP3 ADD MLOAD DUP2 PUSH1 0x3 ADD PUSH0 PUSH2 0x100 EXP DUP2 SLOAD DUP2 PUSH20 0xFFFFFFFFFFFFFFFFFFFFFFFFFFFFFFFFFFFFFFFF MUL NOT AND SWAP1 DUP4 PUSH20 0xFFFFFFFFFFFFFFFFFFFFFFFFFFFFFFFFFFFFFFFF AND MUL OR SWAP1 SSTORE POP PUSH1 0x40 DUP3 ADD MLOAD DUP2 PUSH1 0x4 ADD SSTORE PUSH1 0x60 DUP3 ADD MLOAD DUP2 PUSH1 0x5 ADD PUSH0 PUSH2 0x100 EXP DUP2 SLOAD DUP2 PUSH1 0xFF MUL NOT AND SWAP1 DUP4 ISZERO ISZERO MUL OR SWAP1 SSTORE POP SWAP1 POP POP PUSH1 0x3 DUP7 SWAP1 DUP1 PUSH1 0x1 DUP2 SLOAD ADD DUP1 DUP3 SSTORE DUP1 SWAP2 POP POP PUSH1 0x1 SWAP1 SUB SWAP1 PUSH0 MSTORE PUSH1 0x20 PUSH0 KECCAK256 ADD PUSH0 SWAP1 SWAP2 SWAP1 SWAP2 SWAP1 SWAP2 POP SSTORE POP POP POP POP POP POP JUMP JUMPDEST PUSH2 0xF6E PUSH2 0x1489 JUMP JUMPDEST PUSH1 0x2 PUSH0 DUP4 DUP2 MSTORE PUSH1 0x20 ADD SWAP1 DUP2 MSTORE PUSH1 0x20 ADD PUSH0 KECCAK256 PUSH1 0x40 MLOAD DUP1 PUSH1 0x80 ADD PUSH1 0x40 MSTORE SWAP1 DUP2 PUSH0 DUP3 ADD PUSH1 0x40 MLOAD DUP1 PUSH1 0x60 ADD PUSH1 0x40 MSTORE SWAP1 DUP2 PUSH0 DUP3 ADD SLOAD DUP2 MSTORE PUSH1 0x20 ADD PUSH1 0x1 DUP3 ADD DUP1 SLOAD PUSH2 0xFB2 SWAP1 PUSH2 0x19D0 JUMP JUMPDEST DUP1 PUSH1 0x1F ADD PUSH1 0x20 DUP1 SWAP2 DIV MUL PUSH1 0x20 ADD PUSH1 0x40 MLOAD SWAP1 DUP2 ADD PUSH1 0x40 MSTORE DUP1 SWAP3 SWAP2 SWAP1 DUP2 DUP2 MSTORE PUSH1 0x20 ADD DUP3 DUP1 SLOAD PUSH2 0xFDE SWAP1 PUSH2 0x19D0 JUMP JUMPDEST DUP1 ISZERO PUSH2 0x1029 JUMPI DUP1 PUSH1 0x1F LT PUSH2 0x1000 JUMPI PUSH2 0x100 DUP1 DUP4 SLOAD DIV MUL DUP4 MSTORE SWAP2 PUSH1 0x20 ADD SWAP2 PUSH2 0x1029 JUMP JUMPDEST DUP3 ADD SWAP2 SWAP1 PUSH0 MSTORE PUSH1 0x20 PUSH0 KECCAK256 SWAP1 JUMPDEST DUP2 SLOAD DUP2 MSTORE SWAP1 PUSH1 0x1 ADD SWAP1 PUSH1 0x20 ADD DUP1 DUP4 GT PUSH2 0x100C JUMPI DUP3 SWAP1 SUB PUSH1 0x1F AND DUP3 ADD SWAP2 JUMPDEST POP POP POP POP POP DUP2 MSTORE PUSH1 0x20 ADD PUSH1 0x2 DUP3 ADD DUP1 SLOAD PUSH2 0x1042 SWAP1 PUSH2 0x19D0 JUMP JUMPDEST DUP1 PUSH1 0x1F ADD PUSH1 0x20 DUP1 SWAP2 DIV MUL PUSH1 0x20 ADD PUSH1 0x40 MLOAD SWAP1 DUP2 ADD PUSH1 0x40 MSTORE DUP1 SWAP3 SWAP2 SWAP1 DUP2 DUP2 MSTORE PUSH1 0x20 ADD DUP3 DUP1 SLOAD PUSH2 0x106E SWAP1 PUSH2 0x19D0 JUMP JUMPDEST DUP1 ISZERO PUSH2 0x10B9 JUMPI DUP1 PUSH1 0x1F LT PUSH2 0x1090 JUMPI PUSH2 0x100 DUP1 DUP4 SLOAD DIV MUL DUP4 MSTORE SWAP2 PUSH1 0x20 ADD SWAP2 PUSH2 0x10B9 JUMP JUMPDEST DUP3 ADD SWAP2 SWAP1 PUSH0 MSTORE PUSH1 0x20 PUSH0 KECCAK256 SWAP1 JUMPDEST DUP2 SLOAD DUP2 MSTORE SWAP1 PUSH1 0x1 ADD SWAP1 PUSH1 0x20 ADD DUP1 DUP4 GT PUSH2 0x109C JUMPI DUP3 SWAP1 SUB PUSH1 0x1F AND DUP3 ADD SWAP2 JUMPDEST POP POP POP POP POP DUP2 MSTORE POP POP DUP2 MSTORE PUSH1 0x20 ADD PUSH1 0x3 DUP3 ADD PUSH0 SWAP1 SLOAD SWAP1 PUSH2 0x100 EXP SWAP1 DIV PUSH20 0xFFFFFFFFFFFFFFFFFFFFFFFFFFFFFFFFFFFFFFFF AND PUSH20 0xFFFFFFFFFFFFFFFFFFFFFFFFFFFFFFFFFFFFFFFF AND PUSH20 0xFFFFFFFFFFFFFFFFFFFFFFFFFFFFFFFFFFFFFFFF AND DUP2 MSTORE PUSH1 0x20 ADD PUSH1 0x4 DUP3 ADD SLOAD DUP2 MSTORE PUSH1 0x20 ADD PUSH1 0x5 DUP3 ADD PUSH0 SWAP1 SLOAD SWAP1 PUSH2 0x100 EXP SWAP1 DIV PUSH1 0xFF AND ISZERO ISZERO ISZERO ISZERO DUP2 MSTORE POP POP SWAP1 POP SWAP2 SWAP1 POP JUMP JUMPDEST PUSH1 0x60 PUSH0 PUSH1 0x4 PUSH0 DUP5 PUSH20 0xFFFFFFFFFFFFFFFFFFFFFFFFFFFFFFFFFFFFFFFF AND PUSH20 0xFFFFFFFFFFFFFFFFFFFFFFFFFFFFFFFFFFFFFFFF AND DUP2 MSTORE PUSH1 0x20 ADD SWAP1 DUP2 MSTORE PUSH1 0x20 ADD PUSH0 KECCAK256 DUP1 SLOAD SWAP1 POP PUSH8 0xFFFFFFFFFFFFFFFF DUP2 GT ISZERO PUSH2 0x11A3 JUMPI PUSH2 0x11A2 PUSH2 0x1976 JUMP JUMPDEST JUMPDEST PUSH1 0x40 MLOAD SWAP1 DUP1 DUP3 MSTORE DUP1 PUSH1 0x20 MUL PUSH1 0x20 ADD DUP3 ADD PUSH1 0x40 MSTORE DUP1 ISZERO PUSH2 0x11DC JUMPI DUP2 PUSH1 0x20 ADD JUMPDEST PUSH2 0x11C9 PUSH2 0x1489 JUMP JUMPDEST DUP2 MSTORE PUSH1 0x20 ADD SWAP1 PUSH1 0x1 SWAP1 SUB SWAP1 DUP2 PUSH2 0x11C1 JUMPI SWAP1 POP JUMPDEST POP SWAP1 POP PUSH0 PUSH0 SWAP1 POP JUMPDEST PUSH1 0x4 PUSH0 DUP6 PUSH20 0xFFFFFFFFFFFFFFFFFFFFFFFFFFFFFFFFFFFFFFFF AND PUSH20 0xFFFFFFFFFFFFFFFFFFFFFFFFFFFFFFFFFFFFFFFF AND DUP2 MSTORE PUSH1 0x20 ADD SWAP1 DUP2 MSTORE PUSH1 0x20 ADD PUSH0 KECCAK256 DUP1 SLOAD SWAP1 POP DUP2 LT ISZERO PUSH2 0x147F JUMPI PUSH1 0x2 PUSH0 PUSH1 0x4 PUSH0 DUP8 PUSH20 0xFFFFFFFFFFFFFFFFFFFFFFFFFFFFFFFFFFFFFFFF AND PUSH20 0xFFFFFFFFFFFFFFFFFFFFFFFFFFFFFFFFFFFFFFFF AND DUP2 MSTORE PUSH1 0x20 ADD SWAP1 DUP2 MSTORE PUSH1 0x20 ADD PUSH0 KECCAK256 DUP4 DUP2 SLOAD DUP2 LT PUSH2 0x127E JUMPI PUSH2 0x127D PUSH2 0x18D5 JUMP JUMPDEST JUMPDEST SWAP1 PUSH0 MSTORE PUSH1 0x20 PUSH0 KECCAK256 ADD SLOAD DUP2 MSTORE PUSH1 0x20 ADD SWAP1 DUP2 MSTORE PUSH1 0x20 ADD PUSH0 KECCAK256 PUSH1 0x40 MLOAD DUP1 PUSH1 0x80 ADD PUSH1 0x40 MSTORE SWAP1 DUP2 PUSH0 DUP3 ADD PUSH1 0x40 MLOAD DUP1 PUSH1 0x60 ADD PUSH1 0x40 MSTORE SWAP1 DUP2 PUSH0 DUP3 ADD SLOAD DUP2 MSTORE PUSH1 0x20 ADD PUSH1 0x1 DUP3 ADD DUP1 SLOAD PUSH2 0x12C7 SWAP1 PUSH2 0x19D0 JUMP JUMPDEST DUP1 PUSH1 0x1F ADD PUSH1 0x20 DUP1 SWAP2 DIV MUL PUSH1 0x20 ADD PUSH1 0x40 MLOAD SWAP1 DUP2 ADD PUSH1 0x40 MSTORE DUP1 SWAP3 SWAP2 SWAP1 DUP2 DUP2 MSTORE PUSH1 0x20 ADD DUP3 DUP1 SLOAD PUSH2 0x12F3 SWAP1 PUSH2 0x19D0 JUMP JUMPDEST DUP1 ISZERO PUSH2 0x133E JUMPI DUP1 PUSH1 0x1F LT PUSH2 0x1315 JUMPI PUSH2 0x100 DUP1 DUP4 SLOAD DIV MUL DUP4 MSTORE SWAP2 PUSH1 0x20 ADD SWAP2 PUSH2 0x133E JUMP JUMPDEST DUP3 ADD SWAP2 SWAP1 PUSH0 MSTORE PUSH1 0x20 PUSH0 KECCAK256 SWAP1 JUMPDEST DUP2 SLOAD DUP2 MSTORE SWAP1 PUSH1 0x1 ADD SWAP1 PUSH1 0x20 ADD DUP1 DUP4 GT PUSH2 0x1321 JUMPI DUP3 SWAP1 SUB PUSH1 0x1F AND DUP3 ADD SWAP2 JUMPDEST POP POP POP POP POP DUP2 MSTORE PUSH1 0x20 ADD PUSH1 0x2 DUP3 ADD DUP1 SLOAD PUSH2 0x1357 SWAP1 PUSH2 0x19D0 JUMP JUMPDEST DUP1 PUSH1 0x1F ADD PUSH1 0x20 DUP1 SWAP2 DIV MUL PUSH1 0x20 ADD PUSH1 0x40 MLOAD SWAP1 DUP2 ADD PUSH1 0x40 MSTORE DUP1 SWAP3 SWAP2 SWAP1 DUP2 DUP2 MSTORE PUSH1 0x20 ADD DUP3 DUP1 SLOAD PUSH2 0x1383 SWAP1 PUSH2 0x19D0 JUMP JUMPDEST DUP1 ISZERO PUSH2 0x13CE JUMPI DUP1 PUSH1 0x1F LT PUSH2 0x13A5 JUMPI PUSH2 0x100 DUP1 DUP4 SLOAD DIV MUL DUP4 MSTORE SWAP2 PUSH1 0x20 ADD SWAP2 PUSH2 0x13CE JUMP JUMPDEST DUP3 ADD SWAP2 SWAP1 PUSH0 MSTORE PUSH1 0x20 PUSH0 KECCAK256 SWAP1 JUMPDEST DUP2 SLOAD DUP2 MSTORE SWAP1 PUSH1 0x1 ADD SWAP1 PUSH1 0x20 ADD DUP1 DUP4 GT PUSH2 0x13B1 JUMPI DUP3 SWAP1 SUB PUSH1 0x1F AND DUP3 ADD SWAP2 JUMPDEST POP POP POP POP POP DUP2 MSTORE POP POP DUP2 MSTORE PUSH1 0x20 ADD PUSH1 0x3 DUP3 ADD PUSH0 SWAP1 SLOAD SWAP1 PUSH2 0x100 EXP SWAP1 DIV PUSH20 0xFFFFFFFFFFFFFFFFFFFFFFFFFFFFFFFFFFFFFFFF AND PUSH20 0xFFFFFFFFFFFFFFFFFFFFFFFFFFFFFFFFFFFFFFFF AND PUSH20 0xFFFFFFFFFFFFFFFFFFFFFFFFFFFFFFFFFFFFFFFF AND DUP2 MSTORE PUSH1 0x20 ADD PUSH1 0x4 DUP3 ADD SLOAD DUP2 MSTORE PUSH1 0x20 ADD PUSH1 0x5 DUP3 ADD PUSH0 SWAP1 SLOAD SWAP1 PUSH2 0x100 EXP SWAP1 DIV PUSH1 0xFF AND ISZERO ISZERO ISZERO ISZERO DUP2 MSTORE POP POP DUP3 DUP3 DUP2 MLOAD DUP2 LT PUSH2 0x1467 JUMPI PUSH2 0x1466 PUSH2 0x18D5 JUMP JUMPDEST JUMPDEST PUSH1 0x20 MUL PUSH1 0x20 ADD ADD DUP2 SWAP1 MSTORE POP DUP1 DUP1 PUSH1 0x1 ADD SWAP2 POP POP PUSH2 0x11E4 JUMP JUMPDEST POP DUP1 SWAP2 POP POP SWAP2 SWAP1 POP JUMP JUMPDEST PUSH1 0x40 MLOAD DUP1 PUSH1 0x80 ADD PUSH1 0x40 MSTORE DUP1 PUSH2 0x149C PUSH2 0x14CC JUMP JUMPDEST DUP2 MSTORE PUSH1 0x20 ADD PUSH0 PUSH20 0xFFFFFFFFFFFFFFFFFFFFFFFFFFFFFFFFFFFFFFFF AND DUP2 MSTORE PUSH1 0x20 ADD PUSH0 DUP2 MSTORE PUSH1 0x20 ADD PUSH0 ISZERO ISZERO DUP2 MSTORE POP SWAP1 JUMP JUMPDEST PUSH1 0x40 MLOAD DUP1 PUSH1 0x60 ADD PUSH1 0x40 MSTORE DUP1 PUSH0 DUP2 MSTORE PUSH1 0x20 ADD PUSH1 0x60 DUP2 MSTORE PUSH1 0x20 ADD PUSH1 0x60 DUP2 MSTORE POP SWAP1 JUMP JUMPDEST PUSH0 DUP2 MLOAD SWAP1 POP SWAP2 SWAP1 POP JUMP JUMPDEST PUSH0 DUP3 DUP3 MSTORE PUSH1 0x20 DUP3 ADD SWAP1 POP SWAP3 SWAP2 POP POP JUMP JUMPDEST PUSH0 DUP2 SWAP1 POP PUSH1 0x20 DUP3 ADD SWAP1 POP SWAP2 SWAP1 POP JUMP JUMPDEST PUSH0 DUP2 SWAP1 POP SWAP2 SWAP1 POP JUMP JUMPDEST PUSH2 0x1527 DUP2 PUSH2 0x1515 JUMP JUMPDEST DUP3 MSTORE POP POP JUMP JUMPDEST PUSH0 DUP2 MLOAD SWAP1 POP SWAP2 SWAP1 POP JUMP JUMPDEST PUSH0 DUP3 DUP3 MSTORE PUSH1 0x20 DUP3 ADD SWAP1 POP SWAP3 SWAP2 POP POP JUMP JUMPDEST DUP3 DUP2 DUP4 MCOPY PUSH0 DUP4 DUP4 ADD MSTORE POP POP POP JUMP JUMPDEST PUSH0 PUSH1 0x1F NOT PUSH1 0x1F DUP4 ADD AND SWAP1 POP SWAP2 SWAP1 POP JUMP JUMPDEST PUSH0 PUSH2 0x156F DUP3 PUSH2 0x152D JUMP JUMPDEST PUSH2 0x1579 DUP2 DUP6 PUSH2 0x1537 JUMP JUMPDEST SWAP4 POP PUSH2 0x1589 DUP2 DUP6 PUSH1 0x20 DUP7 ADD PUSH2 0x1547 JUMP JUMPDEST PUSH2 0x1592 DUP2 PUSH2 0x1555 JUMP JUMPDEST DUP5 ADD SWAP2 POP POP SWAP3 SWAP2 POP POP JUMP JUMPDEST PUSH0 PUSH1 0x60 DUP4 ADD PUSH0 DUP4 ADD MLOAD PUSH2 0x15B2 PUSH0 DUP7 ADD DUP3 PUSH2 0x151E JUMP JUMPDEST POP PUSH1 0x20 DUP4 ADD MLOAD DUP5 DUP3 SUB PUSH1 0x20 DUP7 ADD MSTORE PUSH2 0x15CA DUP3 DUP3 PUSH2 0x1565 JUMP JUMPDEST SWAP2 POP POP PUSH1 0x40 DUP4 ADD MLOAD DUP5 DUP3 SUB PUSH1 0x40 DUP7 ADD MSTORE PUSH2 0x15E4 DUP3 DUP3 PUSH2 0x1565 JUMP JUMPDEST SWAP2 POP POP DUP1 SWAP2 POP POP SWAP3 SWAP2 POP POP JUMP JUMPDEST PUSH0 PUSH20 0xFFFFFFFFFFFFFFFFFFFFFFFFFFFFFFFFFFFFFFFF DUP3 AND SWAP1 POP SWAP2 SWAP1 POP JUMP JUMPDEST PUSH0 PUSH2 0x161A DUP3 PUSH2 0x15F1 JUMP JUMPDEST SWAP1 POP SWAP2 SWAP1 POP JUMP JUMPDEST PUSH2 0x162A DUP2 PUSH2 0x1610 JUMP JUMPDEST DUP3 MSTORE POP POP JUMP JUMPDEST PUSH0 DUP2 ISZERO ISZERO SWAP1 POP SWAP2 SWAP1 POP JUMP JUMPDEST PUSH2 0x1644 DUP2 PUSH2 0x1630 JUMP JUMPDEST DUP3 MSTORE POP POP JUMP JUMPDEST PUSH0 PUSH1 0x80 DUP4 ADD PUSH0 DUP4 ADD MLOAD DUP5 DUP3 SUB PUSH0 DUP7 ADD MSTORE PUSH2 0x1664 DUP3 DUP3 PUSH2 0x159D JUMP JUMPDEST SWAP2 POP POP PUSH1 0x20 DUP4 ADD MLOAD PUSH2 0x1679 PUSH1 0x20 DUP7 ADD DUP3 PUSH2 0x1621 JUMP JUMPDEST POP PUSH1 0x40 DUP4 ADD MLOAD PUSH2 0x168C PUSH1 0x40 DUP7 ADD DUP3 PUSH2 0x151E JUMP JUMPDEST POP PUSH1 0x60 DUP4 ADD MLOAD PUSH2 0x169F PUSH1 0x60 DUP7 ADD DUP3 PUSH2 0x163B JUMP JUMPDEST POP DUP1 SWAP2 POP POP SWAP3 SWAP2 POP POP JUMP JUMPDEST PUSH0 PUSH2 0x16B5 DUP4 DUP4 PUSH2 0x164A JUMP JUMPDEST SWAP1 POP SWAP3 SWAP2 POP POP JUMP JUMPDEST PUSH0 PUSH1 0x20 DUP3 ADD SWAP1 POP SWAP2 SWAP1 POP JUMP JUMPDEST PUSH0 PUSH2 0x16D3 DUP3 PUSH2 0x14EC JUMP JUMPDEST PUSH2 0x16DD DUP2 DUP6 PUSH2 0x14F6 JUMP JUMPDEST SWAP4 POP DUP4 PUSH1 0x20 DUP3 MUL DUP6 ADD PUSH2 0x16EF DUP6 PUSH2 0x1506 JUMP JUMPDEST DUP1 PUSH0 JUMPDEST DUP6 DUP2 LT ISZERO PUSH2 0x172A JUMPI DUP5 DUP5 SUB DUP10 MSTORE DUP2 MLOAD PUSH2 0x170B DUP6 DUP3 PUSH2 0x16AA JUMP JUMPDEST SWAP5 POP PUSH2 0x1716 DUP4 PUSH2 0x16BD JUMP JUMPDEST SWAP3 POP PUSH1 0x20 DUP11 ADD SWAP10 POP POP PUSH1 0x1 DUP2 ADD SWAP1 POP PUSH2 0x16F2 JUMP JUMPDEST POP DUP3 SWAP8 POP DUP8 SWAP6 POP POP POP POP POP POP SWAP3 SWAP2 POP POP JUMP JUMPDEST PUSH0 PUSH1 0x20 DUP3 ADD SWAP1 POP DUP2 DUP2 SUB PUSH0 DUP4 ADD MSTORE PUSH2 0x1754 DUP2 DUP5 PUSH2 0x16C9 JUMP JUMPDEST SWAP1 POP SWAP3 SWAP2 POP POP JUMP JUMPDEST PUSH0 PUSH1 0x40 MLOAD SWAP1 POP SWAP1 JUMP JUMPDEST PUSH0 PUSH0 REVERT JUMPDEST PUSH0 PUSH0 REVERT JUMPDEST PUSH2 0x1776 DUP2 PUSH2 0x1515 JUMP JUMPDEST DUP2 EQ PUSH2 0x1780 JUMPI PUSH0 PUSH0 REVERT JUMPDEST POP JUMP JUMPDEST PUSH0 DUP2 CALLDATALOAD SWAP1 POP PUSH2 0x1791 DUP2 PUSH2 0x176D JUMP JUMPDEST SWAP3 SWAP2 POP POP JUMP JUMPDEST PUSH0 PUSH1 0x20 DUP3 DUP5 SUB SLT ISZERO PUSH2 0x17AC JUMPI PUSH2 0x17AB PUSH2 0x1765 JUMP JUMPDEST JUMPDEST PUSH0 PUSH2 0x17B9 DUP5 DUP3 DUP6 ADD PUSH2 0x1783 JUMP JUMPDEST SWAP2 POP POP SWAP3 SWAP2 POP POP JUMP JUMPDEST PUSH0 PUSH0 PUSH1 0x40 DUP4 DUP6 SUB SLT ISZERO PUSH2 0x17D8 JUMPI PUSH2 0x17D7 PUSH2 0x1765 JUMP JUMPDEST JUMPDEST PUSH0 PUSH2 0x17E5 DUP6 DUP3 DUP7 ADD PUSH2 0x1783 JUMP JUMPDEST SWAP3 POP POP PUSH1 0x20 PUSH2 0x17F6 DUP6 DUP3 DUP7 ADD PUSH2 0x1783 JUMP JUMPDEST SWAP2 POP POP SWAP3 POP SWAP3 SWAP1 POP JUMP JUMPDEST PUSH0 PUSH1 0x80 DUP4 ADD PUSH0 DUP4 ADD MLOAD DUP5 DUP3 SUB PUSH0 DUP7 ADD MSTORE PUSH2 0x181A DUP3 DUP3 PUSH2 0x159D JUMP JUMPDEST SWAP2 POP POP PUSH1 0x20 DUP4 ADD MLOAD PUSH2 0x182F PUSH1 0x20 DUP7 ADD DUP3 PUSH2 0x1621 JUMP JUMPDEST POP PUSH1 0x40 DUP4 ADD MLOAD PUSH2 0x1842 PUSH1 0x40 DUP7 ADD DUP3 PUSH2 0x151E JUMP JUMPDEST POP PUSH1 0x60 DUP4 ADD MLOAD PUSH2 0x1855 PUSH1 0x60 DUP7 ADD DUP3 PUSH2 0x163B JUMP JUMPDEST POP DUP1 SWAP2 POP POP SWAP3 SWAP2 POP POP JUMP JUMPDEST PUSH0 PUSH1 0x20 DUP3 ADD SWAP1 POP DUP2 DUP2 SUB PUSH0 DUP4 ADD MSTORE PUSH2 0x1878 DUP2 DUP5 PUSH2 0x1800 JUMP JUMPDEST SWAP1 POP SWAP3 SWAP2 POP POP JUMP JUMPDEST PUSH2 0x1889 DUP2 PUSH2 0x1610 JUMP JUMPDEST DUP2 EQ PUSH2 0x1893 JUMPI PUSH0 PUSH0 REVERT JUMPDEST POP JUMP JUMPDEST PUSH0 DUP2 CALLDATALOAD SWAP1 POP PUSH2 0x18A4 DUP2 PUSH2 0x1880 JUMP JUMPDEST SWAP3 SWAP2 POP POP JUMP JUMPDEST PUSH0 PUSH1 0x20 DUP3 DUP5 SUB SLT ISZERO PUSH2 0x18BF JUMPI PUSH2 0x18BE PUSH2 0x1765 JUMP JUMPDEST JUMPDEST PUSH0 PUSH2 0x18CC DUP5 DUP3 DUP6 ADD PUSH2 0x1896 JUMP JUMPDEST SWAP2 POP POP SWAP3 SWAP2 POP POP JUMP JUMPDEST PUSH32 0x4E487B7100000000000000000000000000000000000000000000000000000000 PUSH0 MSTORE PUSH1 0x32 PUSH1 0x4 MSTORE PUSH1 0x24 PUSH0 REVERT JUMPDEST PUSH32 0x4E487B7100000000000000000000000000000000000000000000000000000000 PUSH0 MSTORE PUSH1 0x11 PUSH1 0x4 MSTORE PUSH1 0x24 PUSH0 REVERT JUMPDEST PUSH0 PUSH2 0x1939 DUP3 PUSH2 0x1515 JUMP JUMPDEST SWAP2 POP PUSH32 0xFFFFFFFFFFFFFFFFFFFFFFFFFFFFFFFFFFFFFFFFFFFFFFFFFFFFFFFFFFFFFFFF DUP3 SUB PUSH2 0x196B JUMPI PUSH2 0x196A PUSH2 0x1902 JUMP JUMPDEST JUMPDEST PUSH1 0x1 DUP3 ADD SWAP1 POP SWAP2 SWAP1 POP JUMP JUMPDEST PUSH32 0x4E487B7100000000000000000000000000000000000000000000000000000000 PUSH0 MSTORE PUSH1 0x41 PUSH1 0x4 MSTORE PUSH1 0x24 PUSH0 REVERT JUMPDEST PUSH32 0x4E487B7100000000000000000000000000000000000000000000000000000000 PUSH0 MSTORE PUSH1 0x22 PUSH1 0x4 MSTORE PUSH1 0x24 PUSH0 REVERT JUMPDEST PUSH0 PUSH1 0x2 DUP3 DIV SWAP1 POP PUSH1 0x1 DUP3 AND DUP1 PUSH2 0x19E7 JUMPI PUSH1 0x7F DUP3 AND SWAP2 POP JUMPDEST PUSH1 0x20 DUP3 LT DUP2 SUB PUSH2 0x19FA JUMPI PUSH2 0x19F9 PUSH2 0x19A3 JUMP JUMPDEST JUMPDEST POP SWAP2 SWAP1 POP JUMP JUMPDEST PUSH0 DUP3 DUP3 MSTORE PUSH1 0x20 DUP3 ADD SWAP1 POP SWAP3 SWAP2 POP POP JUMP JUMPDEST PUSH32 0x4E4654206E6F74206C6973746564000000000000000000000000000000000000 PUSH0 DUP3 ADD MSTORE POP JUMP JUMPDEST PUSH0 PUSH2 0x1A44 PUSH1 0xE DUP4 PUSH2 0x1A00 JUMP JUMPDEST SWAP2 POP PUSH2 0x1A4F DUP3 PUSH2 0x1A10 JUMP JUMPDEST PUSH1 0x20 DUP3 ADD SWAP1 POP SWAP2 SWAP1 POP JUMP JUMPDEST PUSH0 PUSH1 0x20 DUP3 ADD SWAP1 POP DUP2 DUP2 SUB PUSH0 DUP4 ADD MSTORE PUSH2 0x1A71 DUP2 PUSH2 0x1A38 JUMP JUMPDEST SWAP1 POP SWAP2 SWAP1 POP JUMP JUMPDEST PUSH32 0x4E465420416C726561647920736F6C6400000000000000000000000000000000 PUSH0 DUP3 ADD MSTORE POP JUMP JUMPDEST PUSH0 PUSH2 0x1AAC PUSH1 0x10 DUP4 PUSH2 0x1A00 JUMP JUMPDEST SWAP2 POP PUSH2 0x1AB7 DUP3 PUSH2 0x1A78 JUMP JUMPDEST PUSH1 0x20 DUP3 ADD SWAP1 POP SWAP2 SWAP1 POP JUMP JUMPDEST PUSH0 PUSH1 0x20 DUP3 ADD SWAP1 POP DUP2 DUP2 SUB PUSH0 DUP4 ADD MSTORE PUSH2 0x1AD9 DUP2 PUSH2 0x1AA0 JUMP JUMPDEST SWAP1 POP SWAP2 SWAP1 POP JUMP JUMPDEST PUSH2 0x1AE9 DUP2 PUSH2 0x1610 JUMP JUMPDEST DUP3 MSTORE POP POP JUMP JUMPDEST PUSH0 PUSH1 0x20 DUP3 ADD SWAP1 POP PUSH2 0x1B02 PUSH0 DUP4 ADD DUP5 PUSH2 0x1AE0 JUMP JUMPDEST SWAP3 SWAP2 POP POP JUMP JUMPDEST PUSH0 DUP2 MLOAD SWAP1 POP PUSH2 0x1B16 DUP2 PUSH2 0x176D JUMP JUMPDEST SWAP3 SWAP2 POP POP JUMP JUMPDEST PUSH0 PUSH1 0x20 DUP3 DUP5 SUB SLT ISZERO PUSH2 0x1B31 JUMPI PUSH2 0x1B30 PUSH2 0x1765 JUMP JUMPDEST JUMPDEST PUSH0 PUSH2 0x1B3E DUP5 DUP3 DUP6 ADD PUSH2 0x1B08 JUMP JUMPDEST SWAP2 POP POP SWAP3 SWAP2 POP POP JUMP JUMPDEST PUSH32 0x496E73756666696369656E7420746F6B656E7320746F20627579204E46540000 PUSH0 DUP3 ADD MSTORE POP JUMP JUMPDEST PUSH0 PUSH2 0x1B7B PUSH1 0x1E DUP4 PUSH2 0x1A00 JUMP JUMPDEST SWAP2 POP PUSH2 0x1B86 DUP3 PUSH2 0x1B47 JUMP JUMPDEST PUSH1 0x20 DUP3 ADD SWAP1 POP SWAP2 SWAP1 POP JUMP JUMPDEST PUSH0 PUSH1 0x20 DUP3 ADD SWAP1 POP DUP2 DUP2 SUB PUSH0 DUP4 ADD MSTORE PUSH2 0x1BA8 DUP2 PUSH2 0x1B6F JUMP JUMPDEST SWAP1 POP SWAP2 SWAP1 POP JUMP JUMPDEST PUSH2 0x1BB8 DUP2 PUSH2 0x1515 JUMP JUMPDEST DUP3 MSTORE POP POP JUMP JUMPDEST PUSH0 PUSH1 0x60 DUP3 ADD SWAP1 POP PUSH2 0x1BD1 PUSH0 DUP4 ADD DUP7 PUSH2 0x1AE0 JUMP JUMPDEST PUSH2 0x1BDE PUSH1 0x20 DUP4 ADD DUP6 PUSH2 0x1AE0 JUMP JUMPDEST PUSH2 0x1BEB PUSH1 0x40 DUP4 ADD DUP5 PUSH2 0x1BAF JUMP JUMPDEST SWAP5 SWAP4 POP POP POP POP JUMP JUMPDEST PUSH2 0x1BFC DUP2 PUSH2 0x1630 JUMP JUMPDEST DUP2 EQ PUSH2 0x1C06 JUMPI PUSH0 PUSH0 REVERT JUMPDEST POP JUMP JUMPDEST PUSH0 DUP2 MLOAD SWAP1 POP PUSH2 0x1C17 DUP2 PUSH2 0x1BF3 JUMP JUMPDEST SWAP3 SWAP2 POP POP JUMP JUMPDEST PUSH0 PUSH1 0x20 DUP3 DUP5 SUB SLT ISZERO PUSH2 0x1C32 JUMPI PUSH2 0x1C31 PUSH2 0x1765 JUMP JUMPDEST JUMPDEST PUSH0 PUSH2 0x1C3F DUP5 DUP3 DUP6 ADD PUSH2 0x1C09 JUMP JUMPDEST SWAP2 POP POP SWAP3 SWAP2 POP POP JUMP JUMPDEST PUSH0 PUSH1 0x60 DUP3 ADD SWAP1 POP PUSH2 0x1C5B PUSH0 DUP4 ADD DUP7 PUSH2 0x1BAF JUMP JUMPDEST PUSH2 0x1C68 PUSH1 0x20 DUP4 ADD DUP6 PUSH2 0x1AE0 JUMP JUMPDEST PUSH2 0x1C75 PUSH1 0x40 DUP4 ADD DUP5 PUSH2 0x1AE0 JUMP JUMPDEST SWAP5 SWAP4 POP POP POP POP JUMP JUMPDEST PUSH32 0x506C6561736520656E74657220636F727265637420707269636520666F722074 PUSH0 DUP3 ADD MSTORE PUSH32 0x6865204E46540000000000000000000000000000000000000000000000000000 PUSH1 0x20 DUP3 ADD MSTORE POP JUMP JUMPDEST PUSH0 PUSH2 0x1CD7 PUSH1 0x26 DUP4 PUSH2 0x1A00 JUMP JUMPDEST SWAP2 POP PUSH2 0x1CE2 DUP3 PUSH2 0x1C7D JUMP JUMPDEST PUSH1 0x40 DUP3 ADD SWAP1 POP SWAP2 SWAP1 POP JUMP JUMPDEST PUSH0 PUSH1 0x20 DUP3 ADD SWAP1 POP DUP2 DUP2 SUB PUSH0 DUP4 ADD MSTORE PUSH2 0x1D04 DUP2 PUSH2 0x1CCB JUMP JUMPDEST SWAP1 POP SWAP2 SWAP1 POP JUMP JUMPDEST PUSH0 PUSH1 0x20 DUP3 ADD SWAP1 POP PUSH2 0x1D1E PUSH0 DUP4 ADD DUP5 PUSH2 0x1BAF JUMP JUMPDEST SWAP3 SWAP2 POP POP JUMP JUMPDEST PUSH0 PUSH0 REVERT JUMPDEST PUSH0 PUSH0 REVERT JUMPDEST PUSH2 0x1D35 DUP3 PUSH2 0x1555 JUMP JUMPDEST DUP2 ADD DUP2 DUP2 LT PUSH8 0xFFFFFFFFFFFFFFFF DUP3 GT OR ISZERO PUSH2 0x1D54 JUMPI PUSH2 0x1D53 PUSH2 0x1976 JUMP JUMPDEST JUMPDEST DUP1 PUSH1 0x40 MSTORE POP POP POP JUMP JUMPDEST PUSH0 PUSH2 0x1D66 PUSH2 0x175C JUMP JUMPDEST SWAP1 POP PUSH2 0x1D72 DUP3 DUP3 PUSH2 0x1D2C JUMP JUMPDEST SWAP2 SWAP1 POP JUMP JUMPDEST PUSH0 PUSH8 0xFFFFFFFFFFFFFFFF DUP3 GT ISZERO PUSH2 0x1D91 JUMPI PUSH2 0x1D90 PUSH2 0x1976 JUMP JUMPDEST JUMPDEST PUSH2 0x1D9A DUP3 PUSH2 0x1555 JUMP JUMPDEST SWAP1 POP PUSH1 0x20 DUP2 ADD SWAP1 POP SWAP2 SWAP1 POP JUMP JUMPDEST PUSH0 PUSH2 0x1DB9 PUSH2 0x1DB4 DUP5 PUSH2 0x1D77 JUMP JUMPDEST PUSH2 0x1D5D JUMP JUMPDEST SWAP1 POP DUP3 DUP2 MSTORE PUSH1 0x20 DUP2 ADD DUP5 DUP5 DUP5 ADD GT ISZERO PUSH2 0x1DD5 JUMPI PUSH2 0x1DD4 PUSH2 0x1D28 JUMP JUMPDEST JUMPDEST PUSH2 0x1DE0 DUP5 DUP3 DUP6 PUSH2 0x1547 JUMP JUMPDEST POP SWAP4 SWAP3 POP POP POP JUMP JUMPDEST PUSH0 DUP3 PUSH1 0x1F DUP4 ADD SLT PUSH2 0x1DFC JUMPI PUSH2 0x1DFB PUSH2 0x1D24 JUMP JUMPDEST JUMPDEST DUP2 MLOAD PUSH2 0x1E0C DUP5 DUP3 PUSH1 0x20 DUP7 ADD PUSH2 0x1DA7 JUMP JUMPDEST SWAP2 POP POP SWAP3 SWAP2 POP POP JUMP JUMPDEST PUSH0 DUP2 MLOAD SWAP1 POP PUSH2 0x1E23 DUP2 PUSH2 0x1880 JUMP JUMPDEST SWAP3 SWAP2 POP POP JUMP JUMPDEST PUSH0 PUSH0 PUSH0 PUSH0 PUSH1 0x80 DUP6 DUP8 SUB SLT ISZERO PUSH2 0x1E41 JUMPI PUSH2 0x1E40 PUSH2 0x1765 JUMP JUMPDEST JUMPDEST PUSH0 PUSH2 0x1E4E DUP8 DUP3 DUP9 ADD PUSH2 0x1B08 JUMP JUMPDEST SWAP5 POP POP PUSH1 0x20 DUP6 ADD MLOAD PUSH8 0xFFFFFFFFFFFFFFFF DUP2 GT ISZERO PUSH2 0x1E6F JUMPI PUSH2 0x1E6E PUSH2 0x1769 JUMP JUMPDEST JUMPDEST PUSH2 0x1E7B DUP8 DUP3 DUP9 ADD PUSH2 0x1DE8 JUMP JUMPDEST SWAP4 POP POP PUSH1 0x40 DUP6 ADD MLOAD PUSH8 0xFFFFFFFFFFFFFFFF DUP2 GT ISZERO PUSH2 0x1E9C JUMPI PUSH2 0x1E9B PUSH2 0x1769 JUMP JUMPDEST JUMPDEST PUSH2 0x1EA8 DUP8 DUP3 DUP9 ADD PUSH2 0x1DE8 JUMP JUMPDEST SWAP3 POP POP PUSH1 0x60 PUSH2 0x1EB9 DUP8 DUP3 DUP9 ADD PUSH2 0x1E15 JUMP JUMPDEST SWAP2 POP POP SWAP3 SWAP6 SWAP2 SWAP5 POP SWAP3 POP JUMP JUMPDEST PUSH32 0x4E465420646F65736E2774206578697374000000000000000000000000000000 PUSH0 DUP3 ADD MSTORE POP JUMP JUMPDEST PUSH0 PUSH2 0x1EF9 PUSH1 0x11 DUP4 PUSH2 0x1A00 JUMP JUMPDEST SWAP2 POP PUSH2 0x1F04 DUP3 PUSH2 0x1EC5 JUMP JUMPDEST PUSH1 0x20 DUP3 ADD SWAP1 POP SWAP2 SWAP1 POP JUMP JUMPDEST PUSH0 PUSH1 0x20 DUP3 ADD SWAP1 POP DUP2 DUP2 SUB PUSH0 DUP4 ADD MSTORE PUSH2 0x1F26 DUP2 PUSH2 0x1EED JUMP JUMPDEST SWAP1 POP SWAP2 SWAP1 POP JUMP JUMPDEST PUSH32 0x596F7520617265206E6F7420746865206F776E6572206F6620746865204E4654 PUSH0 DUP3 ADD MSTORE POP JUMP JUMPDEST PUSH0 PUSH2 0x1F61 PUSH1 0x20 DUP4 PUSH2 0x1A00 JUMP JUMPDEST SWAP2 POP PUSH2 0x1F6C DUP3 PUSH2 0x1F2D JUMP JUMPDEST PUSH1 0x20 DUP3 ADD SWAP1 POP SWAP2 SWAP1 POP JUMP JUMPDEST PUSH0 PUSH1 0x20 DUP3 ADD SWAP1 POP DUP2 DUP2 SUB PUSH0 DUP4 ADD MSTORE PUSH2 0x1F8E DUP2 PUSH2 0x1F55 JUMP JUMPDEST SWAP1 POP SWAP2 SWAP1 POP JUMP JUMPDEST PUSH0 DUP2 SWAP1 POP DUP2 PUSH0 MSTORE PUSH1 0x20 PUSH0 KECCAK256 SWAP1 POP SWAP2 SWAP1 POP JUMP JUMPDEST PUSH0 PUSH1 0x20 PUSH1 0x1F DUP4 ADD DIV SWAP1 POP SWAP2 SWAP1 POP JUMP JUMPDEST PUSH0 DUP3 DUP3 SHL SWAP1 POP SWAP3 SWAP2 POP POP JUMP JUMPDEST PUSH0 PUSH1 0x8 DUP4 MUL PUSH2 0x1FF1 PUSH32 0xFFFFFFFFFFFFFFFFFFFFFFFFFFFFFFFFFFFFFFFFFFFFFFFFFFFFFFFFFFFFFFFF DUP3 PUSH2 0x1FB6 JUMP JUMPDEST PUSH2 0x1FFB DUP7 DUP4 PUSH2 0x1FB6 JUMP JUMPDEST SWAP6 POP DUP1 NOT DUP5 AND SWAP4 POP DUP1 DUP7 AND DUP5 OR SWAP3 POP POP POP SWAP4 SWAP3 POP POP POP JUMP JUMPDEST PUSH0 DUP2 SWAP1 POP SWAP2 SWAP1 POP JUMP JUMPDEST PUSH0 PUSH2 0x2036 PUSH2 0x2031 PUSH2 0x202C DUP5 PUSH2 0x1515 JUMP JUMPDEST PUSH2 0x2013 JUMP JUMPDEST PUSH2 0x1515 JUMP JUMPDEST SWAP1 POP SWAP2 SWAP1 POP JUMP JUMPDEST PUSH0 DUP2 SWAP1 POP SWAP2 SWAP1 POP JUMP JUMPDEST PUSH2 0x204F DUP4 PUSH2 0x201C JUMP JUMPDEST PUSH2 0x2063 PUSH2 0x205B DUP3 PUSH2 0x203D JUMP JUMPDEST DUP5 DUP5 SLOAD PUSH2 0x1FC2 JUMP JUMPDEST DUP3 SSTORE POP POP POP POP JUMP JUMPDEST PUSH0 PUSH0 SWAP1 POP SWAP1 JUMP JUMPDEST PUSH2 0x207A PUSH2 0x206B JUMP JUMPDEST PUSH2 0x2085 DUP2 DUP5 DUP5 PUSH2 0x2046 JUMP JUMPDEST POP POP POP JUMP JUMPDEST JUMPDEST DUP2 DUP2 LT ISZERO PUSH2 0x20A8 JUMPI PUSH2 0x209D PUSH0 DUP3 PUSH2 0x2072 JUMP JUMPDEST PUSH1 0x1 DUP2 ADD SWAP1 POP PUSH2 0x208B JUMP JUMPDEST POP POP JUMP JUMPDEST PUSH1 0x1F DUP3 GT ISZERO PUSH2 0x20ED JUMPI PUSH2 0x20BE DUP2 PUSH2 0x1F95 JUMP JUMPDEST PUSH2 0x20C7 DUP5 PUSH2 0x1FA7 JUMP JUMPDEST DUP2 ADD PUSH1 0x20 DUP6 LT ISZERO PUSH2 0x20D6 JUMPI DUP2 SWAP1 POP JUMPDEST PUSH2 0x20EA PUSH2 0x20E2 DUP6 PUSH2 0x1FA7 JUMP JUMPDEST DUP4 ADD DUP3 PUSH2 0x208A JUMP JUMPDEST POP POP JUMPDEST POP POP POP JUMP JUMPDEST PUSH0 DUP3 DUP3 SHR SWAP1 POP SWAP3 SWAP2 POP POP JUMP JUMPDEST PUSH0 PUSH2 0x210D PUSH0 NOT DUP5 PUSH1 0x8 MUL PUSH2 0x20F2 JUMP JUMPDEST NOT DUP1 DUP4 AND SWAP2 POP POP SWAP3 SWAP2 POP POP JUMP JUMPDEST PUSH0 PUSH2 0x2125 DUP4 DUP4 PUSH2 0x20FE JUMP JUMPDEST SWAP2 POP DUP3 PUSH1 0x2 MUL DUP3 OR SWAP1 POP SWAP3 SWAP2 POP POP JUMP JUMPDEST PUSH2 0x213E DUP3 PUSH2 0x152D JUMP JUMPDEST PUSH8 0xFFFFFFFFFFFFFFFF DUP2 GT ISZERO PUSH2 0x2157 JUMPI PUSH2 0x2156 PUSH2 0x1976 JUMP JUMPDEST JUMPDEST PUSH2 0x2161 DUP3 SLOAD PUSH2 0x19D0 JUMP JUMPDEST PUSH2 0x216C DUP3 DUP3 DUP6 PUSH2 0x20AC JUMP JUMPDEST PUSH0 PUSH1 0x20 SWAP1 POP PUSH1 0x1F DUP4 GT PUSH1 0x1 DUP2 EQ PUSH2 0x219D JUMPI PUSH0 DUP5 ISZERO PUSH2 0x218B JUMPI DUP3 DUP8 ADD MLOAD SWAP1 POP JUMPDEST PUSH2 0x2195 DUP6 DUP3 PUSH2 0x211A JUMP JUMPDEST DUP7 SSTORE POP PUSH2 0x21FC JUMP JUMPDEST PUSH1 0x1F NOT DUP5 AND PUSH2 0x21AB DUP7 PUSH2 0x1F95 JUMP JUMPDEST PUSH0 JUMPDEST DUP3 DUP2 LT ISZERO PUSH2 0x21D2 JUMPI DUP5 DUP10 ADD MLOAD DUP3 SSTORE PUSH1 0x1 DUP3 ADD SWAP2 POP PUSH1 0x20 DUP6 ADD SWAP5 POP PUSH1 0x20 DUP2 ADD SWAP1 POP PUSH2 0x21AD JUMP JUMPDEST DUP7 DUP4 LT ISZERO PUSH2 0x21EF JUMPI DUP5 DUP10 ADD MLOAD PUSH2 0x21EB PUSH1 0x1F DUP10 AND DUP3 PUSH2 0x20FE JUMP JUMPDEST DUP4 SSTORE POP JUMPDEST PUSH1 0x1 PUSH1 0x2 DUP9 MUL ADD DUP9 SSTORE POP POP POP JUMPDEST POP POP POP POP POP POP JUMP INVALID LOG2 PUSH5 0x6970667358 0x22 SLT KECCAK256 BALANCE 0xB2 GT 0xD4 OR 0xA7 SSTORE STOP ORIGIN MSIZE 0xBC 0xA9 0xD0 SSTORE EXTCODECOPY RETF DUP15 DUP5 DUP14 0x4D TIMESTAMP 0xB8 DUP5 0x4E XOR GASPRICE 0x2A CALL DUP10 0x29 RETF PUSH22 0x64736F6C634300081F00330000000000000000000000 "
				},
				"gasEstimates": {
					"creation": {
						"codeDepositCost": "1752400",
						"executionCost": "infinite",
						"totalCost": "infinite"
					},
					"external": {
						"aNFT(uint256)": "infinite",
						"allListedNFTs()": "infinite",
						"allNFT(address)": "infinite",
						"allSoldNFTs()": "infinite",
						"buyNFT(uint256)": "infinite",
						"listNFT(uint256,uint256)": "infinite"
					}
				},
				"methodIdentifiers": {
					"aNFT(uint256)": "ca74e355",
					"allListedNFTs()": "2557bdc9",
					"allNFT(address)": "ec01c796",
					"allSoldNFTs()": "7a5f270d",
					"buyNFT(uint256)": "51ed8288",
					"listNFT(uint256,uint256)": "94383f14"
				}
			},
			"storageLayout": {
				"storage": [
					{
						"astId": 46,
						"contract": "IT/LIT2025032/NFT_MARKETPLACE_ASSIGNMENT/MarketplaceContract.sol:Marketplace",
						"label": "token",
						"offset": 0,
						"slot": "0",
						"type": "t_contract(IToken)20"
					},
					{
						"astId": 49,
						"contract": "IT/LIT2025032/NFT_MARKETPLACE_ASSIGNMENT/MarketplaceContract.sol:Marketplace",
						"label": "nft",
						"offset": 0,
						"slot": "1",
						"type": "t_contract(INFT)43"
					},
					{
						"astId": 91,
						"contract": "IT/LIT2025032/NFT_MARKETPLACE_ASSIGNMENT/MarketplaceContract.sol:Marketplace",
						"label": "listings",
						"offset": 0,
						"slot": "2",
						"type": "t_mapping(t_uint256,t_struct(Listing)86_storage)"
					},
					{
						"astId": 94,
						"contract": "IT/LIT2025032/NFT_MARKETPLACE_ASSIGNMENT/MarketplaceContract.sol:Marketplace",
						"label": "allListedNFTsIds",
						"offset": 0,
						"slot": "3",
						"type": "t_array(t_uint256)dyn_storage"
					},
					{
						"astId": 99,
						"contract": "IT/LIT2025032/NFT_MARKETPLACE_ASSIGNMENT/MarketplaceContract.sol:Marketplace",
						"label": "purchasedNFTsOfUser",
						"offset": 0,
						"slot": "4",
						"type": "t_mapping(t_address,t_array(t_uint256)dyn_storage)"
					}
				],
				"types": {
					"t_address": {
						"encoding": "inplace",
						"label": "address",
						"numberOfBytes": "20"
					},
					"t_array(t_uint256)dyn_storage": {
						"base": "t_uint256",
						"encoding": "dynamic_array",
						"label": "uint256[]",
						"numberOfBytes": "32"
					},
					"t_bool": {
						"encoding": "inplace",
						"label": "bool",
						"numberOfBytes": "1"
					},
					"t_contract(INFT)43": {
						"encoding": "inplace",
						"label": "contract INFT",
						"numberOfBytes": "20"
					},
					"t_contract(IToken)20": {
						"encoding": "inplace",
						"label": "contract IToken",
						"numberOfBytes": "20"
					},
					"t_mapping(t_address,t_array(t_uint256)dyn_storage)": {
						"encoding": "mapping",
						"key": "t_address",
						"label": "mapping(address => uint256[])",
						"numberOfBytes": "32",
						"value": "t_array(t_uint256)dyn_storage"
					},
					"t_mapping(t_uint256,t_struct(Listing)86_storage)": {
						"encoding": "mapping",
						"key": "t_uint256",
						"label": "mapping(uint256 => struct Marketplace.Listing)",
						"numberOfBytes": "32",
						"value": "t_struct(Listing)86_storage"
					},
					"t_string_storage": {
						"encoding": "bytes",
						"label": "string",
						"numberOfBytes": "32"
					},
					"t_struct(Listing)86_storage": {
						"encoding": "inplace",
						"label": "struct Marketplace.Listing",
						"members": [
							{
								"astId": 79,
								"contract": "IT/LIT2025032/NFT_MARKETPLACE_ASSIGNMENT/MarketplaceContract.sol:Marketplace",
								"label": "nft",
								"offset": 0,
								"slot": "0",
								"type": "t_struct(NFTInfo)76_storage"
							},
							{
								"astId": 81,
								"contract": "IT/LIT2025032/NFT_MARKETPLACE_ASSIGNMENT/MarketplaceContract.sol:Marketplace",
								"label": "seller",
								"offset": 0,
								"slot": "3",
								"type": "t_address"
							},
							{
								"astId": 83,
								"contract": "IT/LIT2025032/NFT_MARKETPLACE_ASSIGNMENT/MarketplaceContract.sol:Marketplace",
								"label": "price",
								"offset": 0,
								"slot": "4",
								"type": "t_uint256"
							},
							{
								"astId": 85,
								"contract": "IT/LIT2025032/NFT_MARKETPLACE_ASSIGNMENT/MarketplaceContract.sol:Marketplace",
								"label": "sold",
								"offset": 0,
								"slot": "5",
								"type": "t_bool"
							}
						],
						"numberOfBytes": "192"
					},
					"t_struct(NFTInfo)76_storage": {
						"encoding": "inplace",
						"label": "struct Marketplace.NFTInfo",
						"members": [
							{
								"astId": 71,
								"contract": "IT/LIT2025032/NFT_MARKETPLACE_ASSIGNMENT/MarketplaceContract.sol:Marketplace",
								"label": "NFTId",
								"offset": 0,
								"slot": "0",
								"type": "t_uint256"
							},
							{
								"astId": 73,
								"contract": "IT/LIT2025032/NFT_MARKETPLACE_ASSIGNMENT/MarketplaceContract.sol:Marketplace",
								"label": "name",
								"offset": 0,
								"slot": "1",
								"type": "t_string_storage"
							},
							{
								"astId": 75,
								"contract": "IT/LIT2025032/NFT_MARKETPLACE_ASSIGNMENT/MarketplaceContract.sol:Marketplace",
								"label": "description",
								"offset": 0,
								"slot": "2",
								"type": "t_string_storage"
							}
						],
						"numberOfBytes": "96"
					},
					"t_uint256": {
						"encoding": "inplace",
						"label": "uint256",
						"numberOfBytes": "32"
					}
				}
			},
			"userdoc": {
				"kind": "user",
				"methods": {},
				"version": 1
			}
		}
	}
}