{
	"IT/LIT2025032/NFT_MARKETPLACE_ASSIGNMENT/TokenContract.sol": {
		"Token": {
			"abi": [
				{
					"inputs": [],
					"name": "MINTtokens",
					"outputs": [],
					"stateMutability": "payable",
					"type": "function"
				},
				{
					"inputs": [
						{
							"internalType": "address",
							"name": "",
							"type": "address"
						},
						{
							"internalType": "address",
							"name": "",
							"type": "address"
						}
					],
					"name": "allowance",
					"outputs": [
						{
							"internalType": "uint256",
							"name": "",
							"type": "uint256"
						}
					],
					"stateMutability": "view",
					"type": "function"
				},
				{
					"inputs": [
						{
							"internalType": "address",
							"name": "marketPlace",
							"type": "address"
						},
						{
							"internalType": "uint256",
							"name": "amount",
							"type": "uint256"
						}
					],
					"name": "approve",
					"outputs": [
						{
							"internalType": "bool",
							"name": "",
							"type": "bool"
						}
					],
					"stateMutability": "nonpayable",
					"type": "function"
				},
				{
					"inputs": [
						{
							"internalType": "address",
							"name": "",
							"type": "address"
						}
					],
					"name": "balanceOfUser",
					"outputs": [
						{
							"internalType": "uint256",
							"name": "",
							"type": "uint256"
						}
					],
					"stateMutability": "view",
					"type": "function"
				},
				{
					"inputs": [],
					"name": "showBalance",
					"outputs": [
						{
							"internalType": "uint256",
							"name": "",
							"type": "uint256"
						}
					],
					"stateMutability": "view",
					"type": "function"
				},
				{
					"inputs": [
						{
							"internalType": "address",
							"name": "from",
							"type": "address"
						},
						{
							"internalType": "address",
							"name": "to",
							"type": "address"
						},
						{
							"internalType": "uint256",
							"name": "amount",
							"type": "uint256"
						}
					],
					"name": "transferFrom",
					"outputs": [
						{
							"internalType": "bool",
							"name": "",
							"type": "bool"
						}
					],
					"stateMutability": "nonpayable",
					"type": "function"
				}
			],
			"devdoc": {
				"kind": "dev",
				"methods": {},
				"version": 1
			},
			"evm": {
				"assembly": "    /* \"IT/LIT2025032/NFT_MARKETPLACE_ASSIGNMENT/TokenContract.sol\":61:1176  contract Token {... */\n  mstore(0x40, 0x80)\n  callvalue\n  dup1\n  iszero\n  tag_1\n  jumpi\n  revert(0x00, 0x00)\ntag_1:\n  pop\n  dataSize(sub_0)\n  dup1\n  dataOffset(sub_0)\n  0x00\n  codecopy\n  0x00\n  return\nstop\n\nsub_0: assembly {\n        /* \"IT/LIT2025032/NFT_MARKETPLACE_ASSIGNMENT/TokenContract.sol\":61:1176  contract Token {... */\n      mstore(0x40, 0x80)\n      jumpi(tag_1, lt(calldatasize, 0x04))\n      shr(0xe0, calldataload(0x00))\n      dup1\n      0x095ea7b3\n      eq\n      tag_2\n      jumpi\n      dup1\n      0x12cae7af\n      eq\n      tag_3\n      jumpi\n      dup1\n      0x23b872dd\n      eq\n      tag_4\n      jumpi\n      dup1\n      0x33f44974\n      eq\n      tag_5\n      jumpi\n      dup1\n      0x81b2d07b\n      eq\n      tag_6\n      jumpi\n      dup1\n      0xdd62ed3e\n      eq\n      tag_7\n      jumpi\n    tag_1:\n      revert(0x00, 0x00)\n        /* \"IT/LIT2025032/NFT_MARKETPLACE_ASSIGNMENT/TokenContract.sol\":608:767  function approve(address marketPlace, uint256 amount) public returns (bool){... */\n    tag_2:\n      callvalue\n      dup1\n      iszero\n      tag_8\n      jumpi\n      revert(0x00, 0x00)\n    tag_8:\n      pop\n      tag_9\n      0x04\n      dup1\n      calldatasize\n      sub\n      dup2\n      add\n      swap1\n      tag_10\n      swap2\n      swap1\n      tag_11\n      jump\t// in\n    tag_10:\n      tag_12\n      jump\t// in\n    tag_9:\n      mload(0x40)\n      tag_13\n      swap2\n      swap1\n      tag_14\n      jump\t// in\n    tag_13:\n      mload(0x40)\n      dup1\n      swap2\n      sub\n      swap1\n      return\n        /* \"IT/LIT2025032/NFT_MARKETPLACE_ASSIGNMENT/TokenContract.sol\":85:133  mapping(address => uint256) public balanceOfUser */\n    tag_3:\n      callvalue\n      dup1\n      iszero\n      tag_15\n      jumpi\n      revert(0x00, 0x00)\n    tag_15:\n      pop\n      tag_16\n      0x04\n      dup1\n      calldatasize\n      sub\n      dup2\n      add\n      swap1\n      tag_17\n      swap2\n      swap1\n      tag_18\n      jump\t// in\n    tag_17:\n      tag_19\n      jump\t// in\n    tag_16:\n      mload(0x40)\n      tag_20\n      swap2\n      swap1\n      tag_21\n      jump\t// in\n    tag_20:\n      mload(0x40)\n      dup1\n      swap2\n      sub\n      swap1\n      return\n        /* \"IT/LIT2025032/NFT_MARKETPLACE_ASSIGNMENT/TokenContract.sol\":775:1171  function transferFrom(address from, address to, uint256 amount) public returns (bool){... */\n    tag_4:\n      callvalue\n      dup1\n      iszero\n      tag_22\n      jumpi\n      revert(0x00, 0x00)\n    tag_22:\n      pop\n      tag_23\n      0x04\n      dup1\n      calldatasize\n      sub\n      dup2\n      add\n      swap1\n      tag_24\n      swap2\n      swap1\n      tag_25\n      jump\t// in\n    tag_24:\n      tag_26\n      jump\t// in\n    tag_23:\n      mload(0x40)\n      tag_27\n      swap2\n      swap1\n      tag_14\n      jump\t// in\n    tag_27:\n      mload(0x40)\n      dup1\n      swap2\n      sub\n      swap1\n      return\n        /* \"IT/LIT2025032/NFT_MARKETPLACE_ASSIGNMENT/TokenContract.sol\":189:416  function MINTtokens() public payable{... */\n    tag_5:\n      tag_28\n      tag_29\n      jump\t// in\n    tag_28:\n      stop\n        /* \"IT/LIT2025032/NFT_MARKETPLACE_ASSIGNMENT/TokenContract.sol\":424:527  function showBalance() public view returns (uint256){... */\n    tag_6:\n      callvalue\n      dup1\n      iszero\n      tag_30\n      jumpi\n      revert(0x00, 0x00)\n    tag_30:\n      pop\n      tag_31\n      tag_32\n      jump\t// in\n    tag_31:\n      mload(0x40)\n      tag_33\n      swap2\n      swap1\n      tag_21\n      jump\t// in\n    tag_33:\n      mload(0x40)\n      dup1\n      swap2\n      sub\n      swap1\n      return\n        /* \"IT/LIT2025032/NFT_MARKETPLACE_ASSIGNMENT/TokenContract.sol\":535:599  mapping(address => mapping(address => uint256)) public allowance */\n    tag_7:\n      callvalue\n      dup1\n      iszero\n      tag_34\n      jumpi\n      revert(0x00, 0x00)\n    tag_34:\n      pop\n      tag_35\n      0x04\n      dup1\n      calldatasize\n      sub\n      dup2\n      add\n      swap1\n      tag_36\n      swap2\n      swap1\n      tag_37\n      jump\t// in\n    tag_36:\n      tag_38\n      jump\t// in\n    tag_35:\n      mload(0x40)\n      tag_39\n      swap2\n      swap1\n      tag_21\n      jump\t// in\n    tag_39:\n      mload(0x40)\n      dup1\n      swap2\n      sub\n      swap1\n      return\n        /* \"IT/LIT2025032/NFT_MARKETPLACE_ASSIGNMENT/TokenContract.sol\":608:767  function approve(address marketPlace, uint256 amount) public returns (bool){... */\n    tag_12:\n        /* \"IT/LIT2025032/NFT_MARKETPLACE_ASSIGNMENT/TokenContract.sol\":678:682  bool */\n      0x00\n        /* \"IT/LIT2025032/NFT_MARKETPLACE_ASSIGNMENT/TokenContract.sol\":731:737  amount */\n      dup2\n        /* \"IT/LIT2025032/NFT_MARKETPLACE_ASSIGNMENT/TokenContract.sol\":694:703  allowance */\n      0x01\n        /* \"IT/LIT2025032/NFT_MARKETPLACE_ASSIGNMENT/TokenContract.sol\":694:715  allowance[msg.sender] */\n      0x00\n        /* \"IT/LIT2025032/NFT_MARKETPLACE_ASSIGNMENT/TokenContract.sol\":704:714  msg.sender */\n      caller\n        /* \"IT/LIT2025032/NFT_MARKETPLACE_ASSIGNMENT/TokenContract.sol\":694:715  allowance[msg.sender] */\n      0xffffffffffffffffffffffffffffffffffffffff\n      and\n      0xffffffffffffffffffffffffffffffffffffffff\n      and\n      dup2\n      mstore\n      0x20\n      add\n      swap1\n      dup2\n      mstore\n      0x20\n      add\n      0x00\n      keccak256\n        /* \"IT/LIT2025032/NFT_MARKETPLACE_ASSIGNMENT/TokenContract.sol\":694:728  allowance[msg.sender][marketPlace] */\n      0x00\n        /* \"IT/LIT2025032/NFT_MARKETPLACE_ASSIGNMENT/TokenContract.sol\":716:727  marketPlace */\n      dup6\n        /* \"IT/LIT2025032/NFT_MARKETPLACE_ASSIGNMENT/TokenContract.sol\":694:728  allowance[msg.sender][marketPlace] */\n      0xffffffffffffffffffffffffffffffffffffffff\n      and\n      0xffffffffffffffffffffffffffffffffffffffff\n      and\n      dup2\n      mstore\n      0x20\n      add\n      swap1\n      dup2\n      mstore\n      0x20\n      add\n      0x00\n      keccak256\n        /* \"IT/LIT2025032/NFT_MARKETPLACE_ASSIGNMENT/TokenContract.sol\":694:737  allowance[msg.sender][marketPlace] = amount */\n      dup2\n      swap1\n      sstore\n      pop\n        /* \"IT/LIT2025032/NFT_MARKETPLACE_ASSIGNMENT/TokenContract.sol\":755:759  true */\n      0x01\n        /* \"IT/LIT2025032/NFT_MARKETPLACE_ASSIGNMENT/TokenContract.sol\":748:759  return true */\n      swap1\n      pop\n        /* \"IT/LIT2025032/NFT_MARKETPLACE_ASSIGNMENT/TokenContract.sol\":608:767  function approve(address marketPlace, uint256 amount) public returns (bool){... */\n      swap3\n      swap2\n      pop\n      pop\n      jump\t// out\n        /* \"IT/LIT2025032/NFT_MARKETPLACE_ASSIGNMENT/TokenContract.sol\":85:133  mapping(address => uint256) public balanceOfUser */\n    tag_19:\n      mstore(0x20, 0x00)\n      dup1\n      0x00\n      mstore\n      keccak256(0x00, 0x40)\n      0x00\n      swap2\n      pop\n      swap1\n      pop\n      sload\n      dup2\n      jump\t// out\n        /* \"IT/LIT2025032/NFT_MARKETPLACE_ASSIGNMENT/TokenContract.sol\":775:1171  function transferFrom(address from, address to, uint256 amount) public returns (bool){... */\n    tag_26:\n        /* \"IT/LIT2025032/NFT_MARKETPLACE_ASSIGNMENT/TokenContract.sol\":855:859  bool */\n      0x00\n        /* \"IT/LIT2025032/NFT_MARKETPLACE_ASSIGNMENT/TokenContract.sol\":900:906  amount */\n      dup2\n        /* \"IT/LIT2025032/NFT_MARKETPLACE_ASSIGNMENT/TokenContract.sol\":879:892  balanceOfUser */\n      0x00\n        /* \"IT/LIT2025032/NFT_MARKETPLACE_ASSIGNMENT/TokenContract.sol\":879:898  balanceOfUser[from] */\n      0x00\n        /* \"IT/LIT2025032/NFT_MARKETPLACE_ASSIGNMENT/TokenContract.sol\":893:897  from */\n      dup7\n        /* \"IT/LIT2025032/NFT_MARKETPLACE_ASSIGNMENT/TokenContract.sol\":879:898  balanceOfUser[from] */\n      0xffffffffffffffffffffffffffffffffffffffff\n      and\n      0xffffffffffffffffffffffffffffffffffffffff\n      and\n      dup2\n      mstore\n      0x20\n      add\n      swap1\n      dup2\n      mstore\n      0x20\n      add\n      0x00\n      keccak256\n      sload\n        /* \"IT/LIT2025032/NFT_MARKETPLACE_ASSIGNMENT/TokenContract.sol\":879:906  balanceOfUser[from]>=amount */\n      lt\n      iszero\n        /* \"IT/LIT2025032/NFT_MARKETPLACE_ASSIGNMENT/TokenContract.sol\":871:931  require(balanceOfUser[from]>=amount, \"Insufficient Balance\") */\n      tag_42\n      jumpi\n      mload(0x40)\n      0x08c379a000000000000000000000000000000000000000000000000000000000\n      dup2\n      mstore\n      0x04\n      add\n      tag_43\n      swap1\n      tag_44\n      jump\t// in\n    tag_43:\n      mload(0x40)\n      dup1\n      swap2\n      sub\n      swap1\n      revert\n    tag_42:\n        /* \"IT/LIT2025032/NFT_MARKETPLACE_ASSIGNMENT/TokenContract.sol\":981:987  amount */\n      dup2\n        /* \"IT/LIT2025032/NFT_MARKETPLACE_ASSIGNMENT/TokenContract.sol\":950:959  allowance */\n      0x01\n        /* \"IT/LIT2025032/NFT_MARKETPLACE_ASSIGNMENT/TokenContract.sol\":950:965  allowance[from] */\n      0x00\n        /* \"IT/LIT2025032/NFT_MARKETPLACE_ASSIGNMENT/TokenContract.sol\":960:964  from */\n      dup7\n        /* \"IT/LIT2025032/NFT_MARKETPLACE_ASSIGNMENT/TokenContract.sol\":950:965  allowance[from] */\n      0xffffffffffffffffffffffffffffffffffffffff\n      and\n      0xffffffffffffffffffffffffffffffffffffffff\n      and\n      dup2\n      mstore\n      0x20\n      add\n      swap1\n      dup2\n      mstore\n      0x20\n      add\n      0x00\n      keccak256\n        /* \"IT/LIT2025032/NFT_MARKETPLACE_ASSIGNMENT/TokenContract.sol\":950:977  allowance[from][msg.sender] */\n      0x00\n        /* \"IT/LIT2025032/NFT_MARKETPLACE_ASSIGNMENT/TokenContract.sol\":966:976  msg.sender */\n      caller\n        /* \"IT/LIT2025032/NFT_MARKETPLACE_ASSIGNMENT/TokenContract.sol\":950:977  allowance[from][msg.sender] */\n      0xffffffffffffffffffffffffffffffffffffffff\n      and\n      0xffffffffffffffffffffffffffffffffffffffff\n      and\n      dup2\n      mstore\n      0x20\n      add\n      swap1\n      dup2\n      mstore\n      0x20\n      add\n      0x00\n      keccak256\n      sload\n        /* \"IT/LIT2025032/NFT_MARKETPLACE_ASSIGNMENT/TokenContract.sol\":950:987  allowance[from][msg.sender] >= amount */\n      lt\n      iszero\n        /* \"IT/LIT2025032/NFT_MARKETPLACE_ASSIGNMENT/TokenContract.sol\":942:1004  require(allowance[from][msg.sender] >= amount, \"Not approved\") */\n      tag_45\n      jumpi\n      mload(0x40)\n      0x08c379a000000000000000000000000000000000000000000000000000000000\n      dup2\n      mstore\n      0x04\n      add\n      tag_46\n      swap1\n      tag_47\n      jump\t// in\n    tag_46:\n      mload(0x40)\n      dup1\n      swap2\n      sub\n      swap1\n      revert\n    tag_45:\n        /* \"IT/LIT2025032/NFT_MARKETPLACE_ASSIGNMENT/TokenContract.sol\":1047:1053  amount */\n      dup2\n        /* \"IT/LIT2025032/NFT_MARKETPLACE_ASSIGNMENT/TokenContract.sol\":1017:1026  allowance */\n      0x01\n        /* \"IT/LIT2025032/NFT_MARKETPLACE_ASSIGNMENT/TokenContract.sol\":1017:1032  allowance[from] */\n      0x00\n        /* \"IT/LIT2025032/NFT_MARKETPLACE_ASSIGNMENT/TokenContract.sol\":1027:1031  from */\n      dup7\n        /* \"IT/LIT2025032/NFT_MARKETPLACE_ASSIGNMENT/TokenContract.sol\":1017:1032  allowance[from] */\n      0xffffffffffffffffffffffffffffffffffffffff\n      and\n      0xffffffffffffffffffffffffffffffffffffffff\n      and\n      dup2\n      mstore\n      0x20\n      add\n      swap1\n      dup2\n      mstore\n      0x20\n      add\n      0x00\n      keccak256\n        /* \"IT/LIT2025032/NFT_MARKETPLACE_ASSIGNMENT/TokenContract.sol\":1017:1044  allowance[from][msg.sender] */\n      0x00\n        /* \"IT/LIT2025032/NFT_MARKETPLACE_ASSIGNMENT/TokenContract.sol\":1033:1043  msg.sender */\n      caller\n        /* \"IT/LIT2025032/NFT_MARKETPLACE_ASSIGNMENT/TokenContract.sol\":1017:1044  allowance[from][msg.sender] */\n      0xffffffffffffffffffffffffffffffffffffffff\n      and\n      0xffffffffffffffffffffffffffffffffffffffff\n      and\n      dup2\n      mstore\n      0x20\n      add\n      swap1\n      dup2\n      mstore\n      0x20\n      add\n      0x00\n      keccak256\n      0x00\n        /* \"IT/LIT2025032/NFT_MARKETPLACE_ASSIGNMENT/TokenContract.sol\":1017:1053  allowance[from][msg.sender] -=amount */\n      dup3\n      dup3\n      sload\n      tag_48\n      swap2\n      swap1\n      tag_49\n      jump\t// in\n    tag_48:\n      swap3\n      pop\n      pop\n      dup2\n      swap1\n      sstore\n      pop\n        /* \"IT/LIT2025032/NFT_MARKETPLACE_ASSIGNMENT/TokenContract.sol\":1086:1092  amount */\n      dup2\n        /* \"IT/LIT2025032/NFT_MARKETPLACE_ASSIGNMENT/TokenContract.sol\":1064:1077  balanceOfUser */\n      0x00\n        /* \"IT/LIT2025032/NFT_MARKETPLACE_ASSIGNMENT/TokenContract.sol\":1064:1083  balanceOfUser[from] */\n      0x00\n        /* \"IT/LIT2025032/NFT_MARKETPLACE_ASSIGNMENT/TokenContract.sol\":1078:1082  from */\n      dup7\n        /* \"IT/LIT2025032/NFT_MARKETPLACE_ASSIGNMENT/TokenContract.sol\":1064:1083  balanceOfUser[from] */\n      0xffffffffffffffffffffffffffffffffffffffff\n      and\n      0xffffffffffffffffffffffffffffffffffffffff\n      and\n      dup2\n      mstore\n      0x20\n      add\n      swap1\n      dup2\n      mstore\n      0x20\n      add\n      0x00\n      keccak256\n      0x00\n        /* \"IT/LIT2025032/NFT_MARKETPLACE_ASSIGNMENT/TokenContract.sol\":1064:1092  balanceOfUser[from] -=amount */\n      dup3\n      dup3\n      sload\n      tag_50\n      swap2\n      swap1\n      tag_49\n      jump\t// in\n    tag_50:\n      swap3\n      pop\n      pop\n      dup2\n      swap1\n      sstore\n      pop\n        /* \"IT/LIT2025032/NFT_MARKETPLACE_ASSIGNMENT/TokenContract.sol\":1123:1129  amount */\n      dup2\n        /* \"IT/LIT2025032/NFT_MARKETPLACE_ASSIGNMENT/TokenContract.sol\":1103:1116  balanceOfUser */\n      0x00\n        /* \"IT/LIT2025032/NFT_MARKETPLACE_ASSIGNMENT/TokenContract.sol\":1103:1120  balanceOfUser[to] */\n      0x00\n        /* \"IT/LIT2025032/NFT_MARKETPLACE_ASSIGNMENT/TokenContract.sol\":1117:1119  to */\n      dup6\n        /* \"IT/LIT2025032/NFT_MARKETPLACE_ASSIGNMENT/TokenContract.sol\":1103:1120  balanceOfUser[to] */\n      0xffffffffffffffffffffffffffffffffffffffff\n      and\n      0xffffffffffffffffffffffffffffffffffffffff\n      and\n      dup2\n      mstore\n      0x20\n      add\n      swap1\n      dup2\n      mstore\n      0x20\n      add\n      0x00\n      keccak256\n      0x00\n        /* \"IT/LIT2025032/NFT_MARKETPLACE_ASSIGNMENT/TokenContract.sol\":1103:1129  balanceOfUser[to] +=amount */\n      dup3\n      dup3\n      sload\n      tag_51\n      swap2\n      swap1\n      tag_52\n      jump\t// in\n    tag_51:\n      swap3\n      pop\n      pop\n      dup2\n      swap1\n      sstore\n      pop\n        /* \"IT/LIT2025032/NFT_MARKETPLACE_ASSIGNMENT/TokenContract.sol\":1149:1153  true */\n      0x01\n        /* \"IT/LIT2025032/NFT_MARKETPLACE_ASSIGNMENT/TokenContract.sol\":1142:1153  return true */\n      swap1\n      pop\n        /* \"IT/LIT2025032/NFT_MARKETPLACE_ASSIGNMENT/TokenContract.sol\":775:1171  function transferFrom(address from, address to, uint256 amount) public returns (bool){... */\n      swap4\n      swap3\n      pop\n      pop\n      pop\n      jump\t// out\n        /* \"IT/LIT2025032/NFT_MARKETPLACE_ASSIGNMENT/TokenContract.sol\":189:416  function MINTtokens() public payable{... */\n    tag_29:\n        /* \"IT/LIT2025032/NFT_MARKETPLACE_ASSIGNMENT/TokenContract.sol\":255:256  0 */\n      0x00\n        /* \"IT/LIT2025032/NFT_MARKETPLACE_ASSIGNMENT/TokenContract.sol\":245:254  msg.value */\n      callvalue\n        /* \"IT/LIT2025032/NFT_MARKETPLACE_ASSIGNMENT/TokenContract.sol\":245:256  msg.value>0 */\n      gt\n        /* \"IT/LIT2025032/NFT_MARKETPLACE_ASSIGNMENT/TokenContract.sol\":236:287  require (msg.value>0,\"ETH required to MINT Tokens\") */\n      tag_54\n      jumpi\n      mload(0x40)\n      0x08c379a000000000000000000000000000000000000000000000000000000000\n      dup2\n      mstore\n      0x04\n      add\n      tag_55\n      swap1\n      tag_56\n      jump\t// in\n    tag_55:\n      mload(0x40)\n      dup1\n      swap2\n      sub\n      swap1\n      revert\n    tag_54:\n        /* \"IT/LIT2025032/NFT_MARKETPLACE_ASSIGNMENT/TokenContract.sol\":300:320  uint256 tokensToMint */\n      0x00\n        /* \"IT/LIT2025032/NFT_MARKETPLACE_ASSIGNMENT/TokenContract.sol\":350:357  1 ether */\n      0x0de0b6b3a7640000\n        /* \"IT/LIT2025032/NFT_MARKETPLACE_ASSIGNMENT/TokenContract.sol\":174:180  100000 */\n      0x0186a0\n        /* \"IT/LIT2025032/NFT_MARKETPLACE_ASSIGNMENT/TokenContract.sol\":324:333  msg.value */\n      callvalue\n        /* \"IT/LIT2025032/NFT_MARKETPLACE_ASSIGNMENT/TokenContract.sol\":324:348  msg.value * tokensPerETH */\n      tag_57\n      swap2\n      swap1\n      tag_58\n      jump\t// in\n    tag_57:\n        /* \"IT/LIT2025032/NFT_MARKETPLACE_ASSIGNMENT/TokenContract.sol\":323:357  (msg.value * tokensPerETH)/1 ether */\n      tag_59\n      swap2\n      swap1\n      tag_60\n      jump\t// in\n    tag_59:\n        /* \"IT/LIT2025032/NFT_MARKETPLACE_ASSIGNMENT/TokenContract.sol\":300:357  uint256 tokensToMint = (msg.value * tokensPerETH)/1 ether */\n      swap1\n      pop\n        /* \"IT/LIT2025032/NFT_MARKETPLACE_ASSIGNMENT/TokenContract.sol\":396:408  tokensToMint */\n      dup1\n        /* \"IT/LIT2025032/NFT_MARKETPLACE_ASSIGNMENT/TokenContract.sol\":368:381  balanceOfUser */\n      0x00\n        /* \"IT/LIT2025032/NFT_MARKETPLACE_ASSIGNMENT/TokenContract.sol\":368:393  balanceOfUser[msg.sender] */\n      0x00\n        /* \"IT/LIT2025032/NFT_MARKETPLACE_ASSIGNMENT/TokenContract.sol\":382:392  msg.sender */\n      caller\n        /* \"IT/LIT2025032/NFT_MARKETPLACE_ASSIGNMENT/TokenContract.sol\":368:393  balanceOfUser[msg.sender] */\n      0xffffffffffffffffffffffffffffffffffffffff\n      and\n      0xffffffffffffffffffffffffffffffffffffffff\n      and\n      dup2\n      mstore\n      0x20\n      add\n      swap1\n      dup2\n      mstore\n      0x20\n      add\n      0x00\n      keccak256\n      0x00\n        /* \"IT/LIT2025032/NFT_MARKETPLACE_ASSIGNMENT/TokenContract.sol\":368:408  balanceOfUser[msg.sender] +=tokensToMint */\n      dup3\n      dup3\n      sload\n      tag_61\n      swap2\n      swap1\n      tag_52\n      jump\t// in\n    tag_61:\n      swap3\n      pop\n      pop\n      dup2\n      swap1\n      sstore\n      pop\n        /* \"IT/LIT2025032/NFT_MARKETPLACE_ASSIGNMENT/TokenContract.sol\":225:416  {... */\n      pop\n        /* \"IT/LIT2025032/NFT_MARKETPLACE_ASSIGNMENT/TokenContract.sol\":189:416  function MINTtokens() public payable{... */\n      jump\t// out\n        /* \"IT/LIT2025032/NFT_MARKETPLACE_ASSIGNMENT/TokenContract.sol\":424:527  function showBalance() public view returns (uint256){... */\n    tag_32:\n        /* \"IT/LIT2025032/NFT_MARKETPLACE_ASSIGNMENT/TokenContract.sol\":468:475  uint256 */\n      0x00\n        /* \"IT/LIT2025032/NFT_MARKETPLACE_ASSIGNMENT/TokenContract.sol\":494:507  balanceOfUser */\n      0x00\n        /* \"IT/LIT2025032/NFT_MARKETPLACE_ASSIGNMENT/TokenContract.sol\":494:519  balanceOfUser[msg.sender] */\n      0x00\n        /* \"IT/LIT2025032/NFT_MARKETPLACE_ASSIGNMENT/TokenContract.sol\":508:518  msg.sender */\n      caller\n        /* \"IT/LIT2025032/NFT_MARKETPLACE_ASSIGNMENT/TokenContract.sol\":494:519  balanceOfUser[msg.sender] */\n      0xffffffffffffffffffffffffffffffffffffffff\n      and\n      0xffffffffffffffffffffffffffffffffffffffff\n      and\n      dup2\n      mstore\n      0x20\n      add\n      swap1\n      dup2\n      mstore\n      0x20\n      add\n      0x00\n      keccak256\n      sload\n        /* \"IT/LIT2025032/NFT_MARKETPLACE_ASSIGNMENT/TokenContract.sol\":487:519  return balanceOfUser[msg.sender] */\n      swap1\n      pop\n        /* \"IT/LIT2025032/NFT_MARKETPLACE_ASSIGNMENT/TokenContract.sol\":424:527  function showBalance() public view returns (uint256){... */\n      swap1\n      jump\t// out\n        /* \"IT/LIT2025032/NFT_MARKETPLACE_ASSIGNMENT/TokenContract.sol\":535:599  mapping(address => mapping(address => uint256)) public allowance */\n    tag_38:\n      mstore(0x20, 0x01)\n      dup2\n      0x00\n      mstore\n      mstore(0x20, keccak256(0x00, 0x40))\n      dup1\n      0x00\n      mstore\n      keccak256(0x00, 0x40)\n      0x00\n      swap2\n      pop\n      swap2\n      pop\n      pop\n      sload\n      dup2\n      jump\t// out\n        /* \"#utility.yul\":88:205   */\n    tag_64:\n        /* \"#utility.yul\":197:198   */\n      0x00\n        /* \"#utility.yul\":194:195   */\n      0x00\n        /* \"#utility.yul\":187:199   */\n      revert\n        /* \"#utility.yul\":334:460   */\n    tag_66:\n        /* \"#utility.yul\":371:378   */\n      0x00\n        /* \"#utility.yul\":411:453   */\n      0xffffffffffffffffffffffffffffffffffffffff\n        /* \"#utility.yul\":404:409   */\n      dup3\n        /* \"#utility.yul\":400:454   */\n      and\n        /* \"#utility.yul\":389:454   */\n      swap1\n      pop\n        /* \"#utility.yul\":334:460   */\n      swap2\n      swap1\n      pop\n      jump\t// out\n        /* \"#utility.yul\":466:562   */\n    tag_67:\n        /* \"#utility.yul\":503:510   */\n      0x00\n        /* \"#utility.yul\":532:556   */\n      tag_91\n        /* \"#utility.yul\":550:555   */\n      dup3\n        /* \"#utility.yul\":532:556   */\n      tag_66\n      jump\t// in\n    tag_91:\n        /* \"#utility.yul\":521:556   */\n      swap1\n      pop\n        /* \"#utility.yul\":466:562   */\n      swap2\n      swap1\n      pop\n      jump\t// out\n        /* \"#utility.yul\":568:690   */\n    tag_68:\n        /* \"#utility.yul\":641:665   */\n      tag_93\n        /* \"#utility.yul\":659:664   */\n      dup2\n        /* \"#utility.yul\":641:665   */\n      tag_67\n      jump\t// in\n    tag_93:\n        /* \"#utility.yul\":634:639   */\n      dup2\n        /* \"#utility.yul\":631:666   */\n      eq\n        /* \"#utility.yul\":621:684   */\n      tag_94\n      jumpi\n        /* \"#utility.yul\":680:681   */\n      0x00\n        /* \"#utility.yul\":677:678   */\n      0x00\n        /* \"#utility.yul\":670:682   */\n      revert\n        /* \"#utility.yul\":621:684   */\n    tag_94:\n        /* \"#utility.yul\":568:690   */\n      pop\n      jump\t// out\n        /* \"#utility.yul\":696:835   */\n    tag_69:\n        /* \"#utility.yul\":742:747   */\n      0x00\n        /* \"#utility.yul\":780:786   */\n      dup2\n        /* \"#utility.yul\":767:787   */\n      calldataload\n        /* \"#utility.yul\":758:787   */\n      swap1\n      pop\n        /* \"#utility.yul\":796:829   */\n      tag_96\n        /* \"#utility.yul\":823:828   */\n      dup2\n        /* \"#utility.yul\":796:829   */\n      tag_68\n      jump\t// in\n    tag_96:\n        /* \"#utility.yul\":696:835   */\n      swap3\n      swap2\n      pop\n      pop\n      jump\t// out\n        /* \"#utility.yul\":841:918   */\n    tag_70:\n        /* \"#utility.yul\":878:885   */\n      0x00\n        /* \"#utility.yul\":907:912   */\n      dup2\n        /* \"#utility.yul\":896:912   */\n      swap1\n      pop\n        /* \"#utility.yul\":841:918   */\n      swap2\n      swap1\n      pop\n      jump\t// out\n        /* \"#utility.yul\":924:1046   */\n    tag_71:\n        /* \"#utility.yul\":997:1021   */\n      tag_99\n        /* \"#utility.yul\":1015:1020   */\n      dup2\n        /* \"#utility.yul\":997:1021   */\n      tag_70\n      jump\t// in\n    tag_99:\n        /* \"#utility.yul\":990:995   */\n      dup2\n        /* \"#utility.yul\":987:1022   */\n      eq\n        /* \"#utility.yul\":977:1040   */\n      tag_100\n      jumpi\n        /* \"#utility.yul\":1036:1037   */\n      0x00\n        /* \"#utility.yul\":1033:1034   */\n      0x00\n        /* \"#utility.yul\":1026:1038   */\n      revert\n        /* \"#utility.yul\":977:1040   */\n    tag_100:\n        /* \"#utility.yul\":924:1046   */\n      pop\n      jump\t// out\n        /* \"#utility.yul\":1052:1191   */\n    tag_72:\n        /* \"#utility.yul\":1098:1103   */\n      0x00\n        /* \"#utility.yul\":1136:1142   */\n      dup2\n        /* \"#utility.yul\":1123:1143   */\n      calldataload\n        /* \"#utility.yul\":1114:1143   */\n      swap1\n      pop\n        /* \"#utility.yul\":1152:1185   */\n      tag_102\n        /* \"#utility.yul\":1179:1184   */\n      dup2\n        /* \"#utility.yul\":1152:1185   */\n      tag_71\n      jump\t// in\n    tag_102:\n        /* \"#utility.yul\":1052:1191   */\n      swap3\n      swap2\n      pop\n      pop\n      jump\t// out\n        /* \"#utility.yul\":1197:1671   */\n    tag_11:\n        /* \"#utility.yul\":1265:1271   */\n      0x00\n        /* \"#utility.yul\":1273:1279   */\n      0x00\n        /* \"#utility.yul\":1322:1324   */\n      0x40\n        /* \"#utility.yul\":1310:1319   */\n      dup4\n        /* \"#utility.yul\":1301:1308   */\n      dup6\n        /* \"#utility.yul\":1297:1320   */\n      sub\n        /* \"#utility.yul\":1293:1325   */\n      slt\n        /* \"#utility.yul\":1290:1409   */\n      iszero\n      tag_104\n      jumpi\n        /* \"#utility.yul\":1328:1407   */\n      tag_105\n      tag_64\n      jump\t// in\n    tag_105:\n        /* \"#utility.yul\":1290:1409   */\n    tag_104:\n        /* \"#utility.yul\":1448:1449   */\n      0x00\n        /* \"#utility.yul\":1473:1526   */\n      tag_106\n        /* \"#utility.yul\":1518:1525   */\n      dup6\n        /* \"#utility.yul\":1509:1515   */\n      dup3\n        /* \"#utility.yul\":1498:1507   */\n      dup7\n        /* \"#utility.yul\":1494:1516   */\n      add\n        /* \"#utility.yul\":1473:1526   */\n      tag_69\n      jump\t// in\n    tag_106:\n        /* \"#utility.yul\":1463:1526   */\n      swap3\n      pop\n        /* \"#utility.yul\":1419:1536   */\n      pop\n        /* \"#utility.yul\":1575:1577   */\n      0x20\n        /* \"#utility.yul\":1601:1654   */\n      tag_107\n        /* \"#utility.yul\":1646:1653   */\n      dup6\n        /* \"#utility.yul\":1637:1643   */\n      dup3\n        /* \"#utility.yul\":1626:1635   */\n      dup7\n        /* \"#utility.yul\":1622:1644   */\n      add\n        /* \"#utility.yul\":1601:1654   */\n      tag_72\n      jump\t// in\n    tag_107:\n        /* \"#utility.yul\":1591:1654   */\n      swap2\n      pop\n        /* \"#utility.yul\":1546:1664   */\n      pop\n        /* \"#utility.yul\":1197:1671   */\n      swap3\n      pop\n      swap3\n      swap1\n      pop\n      jump\t// out\n        /* \"#utility.yul\":1677:1767   */\n    tag_73:\n        /* \"#utility.yul\":1711:1718   */\n      0x00\n        /* \"#utility.yul\":1754:1759   */\n      dup2\n        /* \"#utility.yul\":1747:1760   */\n      iszero\n        /* \"#utility.yul\":1740:1761   */\n      iszero\n        /* \"#utility.yul\":1729:1761   */\n      swap1\n      pop\n        /* \"#utility.yul\":1677:1767   */\n      swap2\n      swap1\n      pop\n      jump\t// out\n        /* \"#utility.yul\":1773:1882   */\n    tag_74:\n        /* \"#utility.yul\":1854:1875   */\n      tag_110\n        /* \"#utility.yul\":1869:1874   */\n      dup2\n        /* \"#utility.yul\":1854:1875   */\n      tag_73\n      jump\t// in\n    tag_110:\n        /* \"#utility.yul\":1849:1852   */\n      dup3\n        /* \"#utility.yul\":1842:1876   */\n      mstore\n        /* \"#utility.yul\":1773:1882   */\n      pop\n      pop\n      jump\t// out\n        /* \"#utility.yul\":1888:2098   */\n    tag_14:\n        /* \"#utility.yul\":1975:1979   */\n      0x00\n        /* \"#utility.yul\":2013:2015   */\n      0x20\n        /* \"#utility.yul\":2002:2011   */\n      dup3\n        /* \"#utility.yul\":1998:2016   */\n      add\n        /* \"#utility.yul\":1990:2016   */\n      swap1\n      pop\n        /* \"#utility.yul\":2026:2091   */\n      tag_112\n        /* \"#utility.yul\":2088:2089   */\n      0x00\n        /* \"#utility.yul\":2077:2086   */\n      dup4\n        /* \"#utility.yul\":2073:2090   */\n      add\n        /* \"#utility.yul\":2064:2070   */\n      dup5\n        /* \"#utility.yul\":2026:2091   */\n      tag_74\n      jump\t// in\n    tag_112:\n        /* \"#utility.yul\":1888:2098   */\n      swap3\n      swap2\n      pop\n      pop\n      jump\t// out\n        /* \"#utility.yul\":2104:2433   */\n    tag_18:\n        /* \"#utility.yul\":2163:2169   */\n      0x00\n        /* \"#utility.yul\":2212:2214   */\n      0x20\n        /* \"#utility.yul\":2200:2209   */\n      dup3\n        /* \"#utility.yul\":2191:2198   */\n      dup5\n        /* \"#utility.yul\":2187:2210   */\n      sub\n        /* \"#utility.yul\":2183:2215   */\n      slt\n        /* \"#utility.yul\":2180:2299   */\n      iszero\n      tag_114\n      jumpi\n        /* \"#utility.yul\":2218:2297   */\n      tag_115\n      tag_64\n      jump\t// in\n    tag_115:\n        /* \"#utility.yul\":2180:2299   */\n    tag_114:\n        /* \"#utility.yul\":2338:2339   */\n      0x00\n        /* \"#utility.yul\":2363:2416   */\n      tag_116\n        /* \"#utility.yul\":2408:2415   */\n      dup5\n        /* \"#utility.yul\":2399:2405   */\n      dup3\n        /* \"#utility.yul\":2388:2397   */\n      dup6\n        /* \"#utility.yul\":2384:2406   */\n      add\n        /* \"#utility.yul\":2363:2416   */\n      tag_69\n      jump\t// in\n    tag_116:\n        /* \"#utility.yul\":2353:2416   */\n      swap2\n      pop\n        /* \"#utility.yul\":2309:2426   */\n      pop\n        /* \"#utility.yul\":2104:2433   */\n      swap3\n      swap2\n      pop\n      pop\n      jump\t// out\n        /* \"#utility.yul\":2439:2557   */\n    tag_75:\n        /* \"#utility.yul\":2526:2550   */\n      tag_118\n        /* \"#utility.yul\":2544:2549   */\n      dup2\n        /* \"#utility.yul\":2526:2550   */\n      tag_70\n      jump\t// in\n    tag_118:\n        /* \"#utility.yul\":2521:2524   */\n      dup3\n        /* \"#utility.yul\":2514:2551   */\n      mstore\n        /* \"#utility.yul\":2439:2557   */\n      pop\n      pop\n      jump\t// out\n        /* \"#utility.yul\":2563:2785   */\n    tag_21:\n        /* \"#utility.yul\":2656:2660   */\n      0x00\n        /* \"#utility.yul\":2694:2696   */\n      0x20\n        /* \"#utility.yul\":2683:2692   */\n      dup3\n        /* \"#utility.yul\":2679:2697   */\n      add\n        /* \"#utility.yul\":2671:2697   */\n      swap1\n      pop\n        /* \"#utility.yul\":2707:2778   */\n      tag_120\n        /* \"#utility.yul\":2775:2776   */\n      0x00\n        /* \"#utility.yul\":2764:2773   */\n      dup4\n        /* \"#utility.yul\":2760:2777   */\n      add\n        /* \"#utility.yul\":2751:2757   */\n      dup5\n        /* \"#utility.yul\":2707:2778   */\n      tag_75\n      jump\t// in\n    tag_120:\n        /* \"#utility.yul\":2563:2785   */\n      swap3\n      swap2\n      pop\n      pop\n      jump\t// out\n        /* \"#utility.yul\":2791:3410   */\n    tag_25:\n        /* \"#utility.yul\":2868:2874   */\n      0x00\n        /* \"#utility.yul\":2876:2882   */\n      0x00\n        /* \"#utility.yul\":2884:2890   */\n      0x00\n        /* \"#utility.yul\":2933:2935   */\n      0x60\n        /* \"#utility.yul\":2921:2930   */\n      dup5\n        /* \"#utility.yul\":2912:2919   */\n      dup7\n        /* \"#utility.yul\":2908:2931   */\n      sub\n        /* \"#utility.yul\":2904:2936   */\n      slt\n        /* \"#utility.yul\":2901:3020   */\n      iszero\n      tag_122\n      jumpi\n        /* \"#utility.yul\":2939:3018   */\n      tag_123\n      tag_64\n      jump\t// in\n    tag_123:\n        /* \"#utility.yul\":2901:3020   */\n    tag_122:\n        /* \"#utility.yul\":3059:3060   */\n      0x00\n        /* \"#utility.yul\":3084:3137   */\n      tag_124\n        /* \"#utility.yul\":3129:3136   */\n      dup7\n        /* \"#utility.yul\":3120:3126   */\n      dup3\n        /* \"#utility.yul\":3109:3118   */\n      dup8\n        /* \"#utility.yul\":3105:3127   */\n      add\n        /* \"#utility.yul\":3084:3137   */\n      tag_69\n      jump\t// in\n    tag_124:\n        /* \"#utility.yul\":3074:3137   */\n      swap4\n      pop\n        /* \"#utility.yul\":3030:3147   */\n      pop\n        /* \"#utility.yul\":3186:3188   */\n      0x20\n        /* \"#utility.yul\":3212:3265   */\n      tag_125\n        /* \"#utility.yul\":3257:3264   */\n      dup7\n        /* \"#utility.yul\":3248:3254   */\n      dup3\n        /* \"#utility.yul\":3237:3246   */\n      dup8\n        /* \"#utility.yul\":3233:3255   */\n      add\n        /* \"#utility.yul\":3212:3265   */\n      tag_69\n      jump\t// in\n    tag_125:\n        /* \"#utility.yul\":3202:3265   */\n      swap3\n      pop\n        /* \"#utility.yul\":3157:3275   */\n      pop\n        /* \"#utility.yul\":3314:3316   */\n      0x40\n        /* \"#utility.yul\":3340:3393   */\n      tag_126\n        /* \"#utility.yul\":3385:3392   */\n      dup7\n        /* \"#utility.yul\":3376:3382   */\n      dup3\n        /* \"#utility.yul\":3365:3374   */\n      dup8\n        /* \"#utility.yul\":3361:3383   */\n      add\n        /* \"#utility.yul\":3340:3393   */\n      tag_72\n      jump\t// in\n    tag_126:\n        /* \"#utility.yul\":3330:3393   */\n      swap2\n      pop\n        /* \"#utility.yul\":3285:3403   */\n      pop\n        /* \"#utility.yul\":2791:3410   */\n      swap3\n      pop\n      swap3\n      pop\n      swap3\n      jump\t// out\n        /* \"#utility.yul\":3416:3890   */\n    tag_37:\n        /* \"#utility.yul\":3484:3490   */\n      0x00\n        /* \"#utility.yul\":3492:3498   */\n      0x00\n        /* \"#utility.yul\":3541:3543   */\n      0x40\n        /* \"#utility.yul\":3529:3538   */\n      dup4\n        /* \"#utility.yul\":3520:3527   */\n      dup6\n        /* \"#utility.yul\":3516:3539   */\n      sub\n        /* \"#utility.yul\":3512:3544   */\n      slt\n        /* \"#utility.yul\":3509:3628   */\n      iszero\n      tag_128\n      jumpi\n        /* \"#utility.yul\":3547:3626   */\n      tag_129\n      tag_64\n      jump\t// in\n    tag_129:\n        /* \"#utility.yul\":3509:3628   */\n    tag_128:\n        /* \"#utility.yul\":3667:3668   */\n      0x00\n        /* \"#utility.yul\":3692:3745   */\n      tag_130\n        /* \"#utility.yul\":3737:3744   */\n      dup6\n        /* \"#utility.yul\":3728:3734   */\n      dup3\n        /* \"#utility.yul\":3717:3726   */\n      dup7\n        /* \"#utility.yul\":3713:3735   */\n      add\n        /* \"#utility.yul\":3692:3745   */\n      tag_69\n      jump\t// in\n    tag_130:\n        /* \"#utility.yul\":3682:3745   */\n      swap3\n      pop\n        /* \"#utility.yul\":3638:3755   */\n      pop\n        /* \"#utility.yul\":3794:3796   */\n      0x20\n        /* \"#utility.yul\":3820:3873   */\n      tag_131\n        /* \"#utility.yul\":3865:3872   */\n      dup6\n        /* \"#utility.yul\":3856:3862   */\n      dup3\n        /* \"#utility.yul\":3845:3854   */\n      dup7\n        /* \"#utility.yul\":3841:3863   */\n      add\n        /* \"#utility.yul\":3820:3873   */\n      tag_69\n      jump\t// in\n    tag_131:\n        /* \"#utility.yul\":3810:3873   */\n      swap2\n      pop\n        /* \"#utility.yul\":3765:3883   */\n      pop\n        /* \"#utility.yul\":3416:3890   */\n      swap3\n      pop\n      swap3\n      swap1\n      pop\n      jump\t// out\n        /* \"#utility.yul\":3896:4065   */\n    tag_76:\n        /* \"#utility.yul\":3980:3991   */\n      0x00\n        /* \"#utility.yul\":4014:4020   */\n      dup3\n        /* \"#utility.yul\":4009:4012   */\n      dup3\n        /* \"#utility.yul\":4002:4021   */\n      mstore\n        /* \"#utility.yul\":4054:4058   */\n      0x20\n        /* \"#utility.yul\":4049:4052   */\n      dup3\n        /* \"#utility.yul\":4045:4059   */\n      add\n        /* \"#utility.yul\":4030:4059   */\n      swap1\n      pop\n        /* \"#utility.yul\":3896:4065   */\n      swap3\n      swap2\n      pop\n      pop\n      jump\t// out\n        /* \"#utility.yul\":4071:4241   */\n    tag_77:\n        /* \"#utility.yul\":4211:4233   */\n      0x496e73756666696369656e742042616c616e6365000000000000000000000000\n        /* \"#utility.yul\":4207:4208   */\n      0x00\n        /* \"#utility.yul\":4199:4205   */\n      dup3\n        /* \"#utility.yul\":4195:4209   */\n      add\n        /* \"#utility.yul\":4188:4234   */\n      mstore\n        /* \"#utility.yul\":4071:4241   */\n      pop\n      jump\t// out\n        /* \"#utility.yul\":4247:4613   */\n    tag_78:\n        /* \"#utility.yul\":4389:4392   */\n      0x00\n        /* \"#utility.yul\":4410:4477   */\n      tag_135\n        /* \"#utility.yul\":4474:4476   */\n      0x14\n        /* \"#utility.yul\":4469:4472   */\n      dup4\n        /* \"#utility.yul\":4410:4477   */\n      tag_76\n      jump\t// in\n    tag_135:\n        /* \"#utility.yul\":4403:4477   */\n      swap2\n      pop\n        /* \"#utility.yul\":4486:4579   */\n      tag_136\n        /* \"#utility.yul\":4575:4578   */\n      dup3\n        /* \"#utility.yul\":4486:4579   */\n      tag_77\n      jump\t// in\n    tag_136:\n        /* \"#utility.yul\":4604:4606   */\n      0x20\n        /* \"#utility.yul\":4599:4602   */\n      dup3\n        /* \"#utility.yul\":4595:4607   */\n      add\n        /* \"#utility.yul\":4588:4607   */\n      swap1\n      pop\n        /* \"#utility.yul\":4247:4613   */\n      swap2\n      swap1\n      pop\n      jump\t// out\n        /* \"#utility.yul\":4619:5038   */\n    tag_44:\n        /* \"#utility.yul\":4785:4789   */\n      0x00\n        /* \"#utility.yul\":4823:4825   */\n      0x20\n        /* \"#utility.yul\":4812:4821   */\n      dup3\n        /* \"#utility.yul\":4808:4826   */\n      add\n        /* \"#utility.yul\":4800:4826   */\n      swap1\n      pop\n        /* \"#utility.yul\":4872:4881   */\n      dup2\n        /* \"#utility.yul\":4866:4870   */\n      dup2\n        /* \"#utility.yul\":4862:4882   */\n      sub\n        /* \"#utility.yul\":4858:4859   */\n      0x00\n        /* \"#utility.yul\":4847:4856   */\n      dup4\n        /* \"#utility.yul\":4843:4860   */\n      add\n        /* \"#utility.yul\":4836:4883   */\n      mstore\n        /* \"#utility.yul\":4900:5031   */\n      tag_138\n        /* \"#utility.yul\":5026:5030   */\n      dup2\n        /* \"#utility.yul\":4900:5031   */\n      tag_78\n      jump\t// in\n    tag_138:\n        /* \"#utility.yul\":4892:5031   */\n      swap1\n      pop\n        /* \"#utility.yul\":4619:5038   */\n      swap2\n      swap1\n      pop\n      jump\t// out\n        /* \"#utility.yul\":5044:5206   */\n    tag_79:\n        /* \"#utility.yul\":5184:5198   */\n      0x4e6f7420617070726f7665640000000000000000000000000000000000000000\n        /* \"#utility.yul\":5180:5181   */\n      0x00\n        /* \"#utility.yul\":5172:5178   */\n      dup3\n        /* \"#utility.yul\":5168:5182   */\n      add\n        /* \"#utility.yul\":5161:5199   */\n      mstore\n        /* \"#utility.yul\":5044:5206   */\n      pop\n      jump\t// out\n        /* \"#utility.yul\":5212:5578   */\n    tag_80:\n        /* \"#utility.yul\":5354:5357   */\n      0x00\n        /* \"#utility.yul\":5375:5442   */\n      tag_141\n        /* \"#utility.yul\":5439:5441   */\n      0x0c\n        /* \"#utility.yul\":5434:5437   */\n      dup4\n        /* \"#utility.yul\":5375:5442   */\n      tag_76\n      jump\t// in\n    tag_141:\n        /* \"#utility.yul\":5368:5442   */\n      swap2\n      pop\n        /* \"#utility.yul\":5451:5544   */\n      tag_142\n        /* \"#utility.yul\":5540:5543   */\n      dup3\n        /* \"#utility.yul\":5451:5544   */\n      tag_79\n      jump\t// in\n    tag_142:\n        /* \"#utility.yul\":5569:5571   */\n      0x20\n        /* \"#utility.yul\":5564:5567   */\n      dup3\n        /* \"#utility.yul\":5560:5572   */\n      add\n        /* \"#utility.yul\":5553:5572   */\n      swap1\n      pop\n        /* \"#utility.yul\":5212:5578   */\n      swap2\n      swap1\n      pop\n      jump\t// out\n        /* \"#utility.yul\":5584:6003   */\n    tag_47:\n        /* \"#utility.yul\":5750:5754   */\n      0x00\n        /* \"#utility.yul\":5788:5790   */\n      0x20\n        /* \"#utility.yul\":5777:5786   */\n      dup3\n        /* \"#utility.yul\":5773:5791   */\n      add\n        /* \"#utility.yul\":5765:5791   */\n      swap1\n      pop\n        /* \"#utility.yul\":5837:5846   */\n      dup2\n        /* \"#utility.yul\":5831:5835   */\n      dup2\n        /* \"#utility.yul\":5827:5847   */\n      sub\n        /* \"#utility.yul\":5823:5824   */\n      0x00\n        /* \"#utility.yul\":5812:5821   */\n      dup4\n        /* \"#utility.yul\":5808:5825   */\n      add\n        /* \"#utility.yul\":5801:5848   */\n      mstore\n        /* \"#utility.yul\":5865:5996   */\n      tag_144\n        /* \"#utility.yul\":5991:5995   */\n      dup2\n        /* \"#utility.yul\":5865:5996   */\n      tag_80\n      jump\t// in\n    tag_144:\n        /* \"#utility.yul\":5857:5996   */\n      swap1\n      pop\n        /* \"#utility.yul\":5584:6003   */\n      swap2\n      swap1\n      pop\n      jump\t// out\n        /* \"#utility.yul\":6009:6189   */\n    tag_81:\n        /* \"#utility.yul\":6057:6134   */\n      0x4e487b7100000000000000000000000000000000000000000000000000000000\n        /* \"#utility.yul\":6054:6055   */\n      0x00\n        /* \"#utility.yul\":6047:6135   */\n      mstore\n        /* \"#utility.yul\":6154:6158   */\n      0x11\n        /* \"#utility.yul\":6151:6152   */\n      0x04\n        /* \"#utility.yul\":6144:6159   */\n      mstore\n        /* \"#utility.yul\":6178:6182   */\n      0x24\n        /* \"#utility.yul\":6175:6176   */\n      0x00\n        /* \"#utility.yul\":6168:6183   */\n      revert\n        /* \"#utility.yul\":6195:6389   */\n    tag_49:\n        /* \"#utility.yul\":6235:6239   */\n      0x00\n        /* \"#utility.yul\":6255:6275   */\n      tag_147\n        /* \"#utility.yul\":6273:6274   */\n      dup3\n        /* \"#utility.yul\":6255:6275   */\n      tag_70\n      jump\t// in\n    tag_147:\n        /* \"#utility.yul\":6250:6275   */\n      swap2\n      pop\n        /* \"#utility.yul\":6289:6309   */\n      tag_148\n        /* \"#utility.yul\":6307:6308   */\n      dup4\n        /* \"#utility.yul\":6289:6309   */\n      tag_70\n      jump\t// in\n    tag_148:\n        /* \"#utility.yul\":6284:6309   */\n      swap3\n      pop\n        /* \"#utility.yul\":6333:6334   */\n      dup3\n        /* \"#utility.yul\":6330:6331   */\n      dup3\n        /* \"#utility.yul\":6326:6335   */\n      sub\n        /* \"#utility.yul\":6318:6335   */\n      swap1\n      pop\n        /* \"#utility.yul\":6357:6358   */\n      dup2\n        /* \"#utility.yul\":6351:6355   */\n      dup2\n        /* \"#utility.yul\":6348:6359   */\n      gt\n        /* \"#utility.yul\":6345:6382   */\n      iszero\n      tag_149\n      jumpi\n        /* \"#utility.yul\":6362:6380   */\n      tag_150\n      tag_81\n      jump\t// in\n    tag_150:\n        /* \"#utility.yul\":6345:6382   */\n    tag_149:\n        /* \"#utility.yul\":6195:6389   */\n      swap3\n      swap2\n      pop\n      pop\n      jump\t// out\n        /* \"#utility.yul\":6395:6586   */\n    tag_52:\n        /* \"#utility.yul\":6435:6438   */\n      0x00\n        /* \"#utility.yul\":6454:6474   */\n      tag_152\n        /* \"#utility.yul\":6472:6473   */\n      dup3\n        /* \"#utility.yul\":6454:6474   */\n      tag_70\n      jump\t// in\n    tag_152:\n        /* \"#utility.yul\":6449:6474   */\n      swap2\n      pop\n        /* \"#utility.yul\":6488:6508   */\n      tag_153\n        /* \"#utility.yul\":6506:6507   */\n      dup4\n        /* \"#utility.yul\":6488:6508   */\n      tag_70\n      jump\t// in\n    tag_153:\n        /* \"#utility.yul\":6483:6508   */\n      swap3\n      pop\n        /* \"#utility.yul\":6531:6532   */\n      dup3\n        /* \"#utility.yul\":6528:6529   */\n      dup3\n        /* \"#utility.yul\":6524:6533   */\n      add\n        /* \"#utility.yul\":6517:6533   */\n      swap1\n      pop\n        /* \"#utility.yul\":6552:6555   */\n      dup1\n        /* \"#utility.yul\":6549:6550   */\n      dup3\n        /* \"#utility.yul\":6546:6556   */\n      gt\n        /* \"#utility.yul\":6543:6579   */\n      iszero\n      tag_154\n      jumpi\n        /* \"#utility.yul\":6559:6577   */\n      tag_155\n      tag_81\n      jump\t// in\n    tag_155:\n        /* \"#utility.yul\":6543:6579   */\n    tag_154:\n        /* \"#utility.yul\":6395:6586   */\n      swap3\n      swap2\n      pop\n      pop\n      jump\t// out\n        /* \"#utility.yul\":6592:6769   */\n    tag_82:\n        /* \"#utility.yul\":6732:6761   */\n      0x45544820726571756972656420746f204d494e5420546f6b656e730000000000\n        /* \"#utility.yul\":6728:6729   */\n      0x00\n        /* \"#utility.yul\":6720:6726   */\n      dup3\n        /* \"#utility.yul\":6716:6730   */\n      add\n        /* \"#utility.yul\":6709:6762   */\n      mstore\n        /* \"#utility.yul\":6592:6769   */\n      pop\n      jump\t// out\n        /* \"#utility.yul\":6775:7141   */\n    tag_83:\n        /* \"#utility.yul\":6917:6920   */\n      0x00\n        /* \"#utility.yul\":6938:7005   */\n      tag_158\n        /* \"#utility.yul\":7002:7004   */\n      0x1b\n        /* \"#utility.yul\":6997:7000   */\n      dup4\n        /* \"#utility.yul\":6938:7005   */\n      tag_76\n      jump\t// in\n    tag_158:\n        /* \"#utility.yul\":6931:7005   */\n      swap2\n      pop\n        /* \"#utility.yul\":7014:7107   */\n      tag_159\n        /* \"#utility.yul\":7103:7106   */\n      dup3\n        /* \"#utility.yul\":7014:7107   */\n      tag_82\n      jump\t// in\n    tag_159:\n        /* \"#utility.yul\":7132:7134   */\n      0x20\n        /* \"#utility.yul\":7127:7130   */\n      dup3\n        /* \"#utility.yul\":7123:7135   */\n      add\n        /* \"#utility.yul\":7116:7135   */\n      swap1\n      pop\n        /* \"#utility.yul\":6775:7141   */\n      swap2\n      swap1\n      pop\n      jump\t// out\n        /* \"#utility.yul\":7147:7566   */\n    tag_56:\n        /* \"#utility.yul\":7313:7317   */\n      0x00\n        /* \"#utility.yul\":7351:7353   */\n      0x20\n        /* \"#utility.yul\":7340:7349   */\n      dup3\n        /* \"#utility.yul\":7336:7354   */\n      add\n        /* \"#utility.yul\":7328:7354   */\n      swap1\n      pop\n        /* \"#utility.yul\":7400:7409   */\n      dup2\n        /* \"#utility.yul\":7394:7398   */\n      dup2\n        /* \"#utility.yul\":7390:7410   */\n      sub\n        /* \"#utility.yul\":7386:7387   */\n      0x00\n        /* \"#utility.yul\":7375:7384   */\n      dup4\n        /* \"#utility.yul\":7371:7388   */\n      add\n        /* \"#utility.yul\":7364:7411   */\n      mstore\n        /* \"#utility.yul\":7428:7559   */\n      tag_161\n        /* \"#utility.yul\":7554:7558   */\n      dup2\n        /* \"#utility.yul\":7428:7559   */\n      tag_83\n      jump\t// in\n    tag_161:\n        /* \"#utility.yul\":7420:7559   */\n      swap1\n      pop\n        /* \"#utility.yul\":7147:7566   */\n      swap2\n      swap1\n      pop\n      jump\t// out\n        /* \"#utility.yul\":7572:7982   */\n    tag_58:\n        /* \"#utility.yul\":7612:7619   */\n      0x00\n        /* \"#utility.yul\":7635:7655   */\n      tag_163\n        /* \"#utility.yul\":7653:7654   */\n      dup3\n        /* \"#utility.yul\":7635:7655   */\n      tag_70\n      jump\t// in\n    tag_163:\n        /* \"#utility.yul\":7630:7655   */\n      swap2\n      pop\n        /* \"#utility.yul\":7669:7689   */\n      tag_164\n        /* \"#utility.yul\":7687:7688   */\n      dup4\n        /* \"#utility.yul\":7669:7689   */\n      tag_70\n      jump\t// in\n    tag_164:\n        /* \"#utility.yul\":7664:7689   */\n      swap3\n      pop\n        /* \"#utility.yul\":7724:7725   */\n      dup3\n        /* \"#utility.yul\":7721:7722   */\n      dup3\n        /* \"#utility.yul\":7717:7726   */\n      mul\n        /* \"#utility.yul\":7746:7776   */\n      tag_165\n        /* \"#utility.yul\":7764:7775   */\n      dup2\n        /* \"#utility.yul\":7746:7776   */\n      tag_70\n      jump\t// in\n    tag_165:\n        /* \"#utility.yul\":7735:7776   */\n      swap2\n      pop\n        /* \"#utility.yul\":7925:7926   */\n      dup3\n        /* \"#utility.yul\":7916:7923   */\n      dup3\n        /* \"#utility.yul\":7912:7927   */\n      div\n        /* \"#utility.yul\":7909:7910   */\n      dup5\n        /* \"#utility.yul\":7906:7928   */\n      eq\n        /* \"#utility.yul\":7886:7887   */\n      dup4\n        /* \"#utility.yul\":7879:7888   */\n      iszero\n        /* \"#utility.yul\":7859:7942   */\n      or\n        /* \"#utility.yul\":7836:7975   */\n      tag_166\n      jumpi\n        /* \"#utility.yul\":7955:7973   */\n      tag_167\n      tag_81\n      jump\t// in\n    tag_167:\n        /* \"#utility.yul\":7836:7975   */\n    tag_166:\n        /* \"#utility.yul\":7620:7982   */\n      pop\n        /* \"#utility.yul\":7572:7982   */\n      swap3\n      swap2\n      pop\n      pop\n      jump\t// out\n        /* \"#utility.yul\":7988:8168   */\n    tag_84:\n        /* \"#utility.yul\":8036:8113   */\n      0x4e487b7100000000000000000000000000000000000000000000000000000000\n        /* \"#utility.yul\":8033:8034   */\n      0x00\n        /* \"#utility.yul\":8026:8114   */\n      mstore\n        /* \"#utility.yul\":8133:8137   */\n      0x12\n        /* \"#utility.yul\":8130:8131   */\n      0x04\n        /* \"#utility.yul\":8123:8138   */\n      mstore\n        /* \"#utility.yul\":8157:8161   */\n      0x24\n        /* \"#utility.yul\":8154:8155   */\n      0x00\n        /* \"#utility.yul\":8147:8162   */\n      revert\n        /* \"#utility.yul\":8174:8359   */\n    tag_60:\n        /* \"#utility.yul\":8214:8215   */\n      0x00\n        /* \"#utility.yul\":8231:8251   */\n      tag_170\n        /* \"#utility.yul\":8249:8250   */\n      dup3\n        /* \"#utility.yul\":8231:8251   */\n      tag_70\n      jump\t// in\n    tag_170:\n        /* \"#utility.yul\":8226:8251   */\n      swap2\n      pop\n        /* \"#utility.yul\":8265:8285   */\n      tag_171\n        /* \"#utility.yul\":8283:8284   */\n      dup4\n        /* \"#utility.yul\":8265:8285   */\n      tag_70\n      jump\t// in\n    tag_171:\n        /* \"#utility.yul\":8260:8285   */\n      swap3\n      pop\n        /* \"#utility.yul\":8304:8305   */\n      dup3\n        /* \"#utility.yul\":8294:8329   */\n      tag_172\n      jumpi\n        /* \"#utility.yul\":8309:8327   */\n      tag_173\n      tag_84\n      jump\t// in\n    tag_173:\n        /* \"#utility.yul\":8294:8329   */\n    tag_172:\n        /* \"#utility.yul\":8351:8352   */\n      dup3\n        /* \"#utility.yul\":8348:8349   */\n      dup3\n        /* \"#utility.yul\":8344:8353   */\n      div\n        /* \"#utility.yul\":8339:8353   */\n      swap1\n      pop\n        /* \"#utility.yul\":8174:8359   */\n      swap3\n      swap2\n      pop\n      pop\n      jump\t// out\n\n    auxdata: 0xa2646970667358221220cba5b9e0bfc823a38428eb811ab2bed2ba1a51bbdde6d6e3dfc2521e5551cfed64736f6c634300081f0033\n}\n",
				"bytecode": {
					"linkReferences": {},
					"object": "6080604052348015600e575f5ffd5b50610a418061001c5f395ff3fe608060405260043610610054575f3560e01c8063095ea7b31461005857806312cae7af1461009457806323b872dd146100d057806333f449741461010c57806381b2d07b14610116578063dd62ed3e14610140575b5f5ffd5b348015610063575f5ffd5b5061007e60048036038101906100799190610640565b61017c565b60405161008b9190610698565b60405180910390f35b34801561009f575f5ffd5b506100ba60048036038101906100b591906106b1565b610204565b6040516100c791906106eb565b60405180910390f35b3480156100db575f5ffd5b506100f660048036038101906100f19190610704565b610218565b6040516101039190610698565b60405180910390f35b610114610490565b005b348015610121575f5ffd5b5061012a61054c565b60405161013791906106eb565b60405180910390f35b34801561014b575f5ffd5b5061016660048036038101906101619190610754565b61058f565b60405161017391906106eb565b60405180910390f35b5f8160015f3373ffffffffffffffffffffffffffffffffffffffff1673ffffffffffffffffffffffffffffffffffffffff1681526020019081526020015f205f8573ffffffffffffffffffffffffffffffffffffffff1673ffffffffffffffffffffffffffffffffffffffff1681526020019081526020015f20819055506001905092915050565b5f602052805f5260405f205f915090505481565b5f815f5f8673ffffffffffffffffffffffffffffffffffffffff1673ffffffffffffffffffffffffffffffffffffffff1681526020019081526020015f20541015610298576040517f08c379a000000000000000000000000000000000000000000000000000000000815260040161028f906107ec565b60405180910390fd5b8160015f8673ffffffffffffffffffffffffffffffffffffffff1673ffffffffffffffffffffffffffffffffffffffff1681526020019081526020015f205f3373ffffffffffffffffffffffffffffffffffffffff1673ffffffffffffffffffffffffffffffffffffffff1681526020019081526020015f20541015610353576040517f08c379a000000000000000000000000000000000000000000000000000000000815260040161034a90610854565b60405180910390fd5b8160015f8673ffffffffffffffffffffffffffffffffffffffff1673ffffffffffffffffffffffffffffffffffffffff1681526020019081526020015f205f3373ffffffffffffffffffffffffffffffffffffffff1673ffffffffffffffffffffffffffffffffffffffff1681526020019081526020015f205f8282546103da919061089f565b92505081905550815f5f8673ffffffffffffffffffffffffffffffffffffffff1673ffffffffffffffffffffffffffffffffffffffff1681526020019081526020015f205f82825461042c919061089f565b92505081905550815f5f8573ffffffffffffffffffffffffffffffffffffffff1673ffffffffffffffffffffffffffffffffffffffff1681526020019081526020015f205f82825461047e91906108d2565b92505081905550600190509392505050565b5f34116104d2576040517f08c379a00000000000000000000000000000000000000000000000000000000081526004016104c99061094f565b60405180910390fd5b5f670de0b6b3a7640000620186a0346104eb919061096d565b6104f591906109db565b9050805f5f3373ffffffffffffffffffffffffffffffffffffffff1673ffffffffffffffffffffffffffffffffffffffff1681526020019081526020015f205f82825461054291906108d2565b9250508190555050565b5f5f5f3373ffffffffffffffffffffffffffffffffffffffff1673ffffffffffffffffffffffffffffffffffffffff1681526020019081526020015f2054905090565b6001602052815f5260405f20602052805f5260405f205f91509150505481565b5f5ffd5b5f73ffffffffffffffffffffffffffffffffffffffff82169050919050565b5f6105dc826105b3565b9050919050565b6105ec816105d2565b81146105f6575f5ffd5b50565b5f81359050610607816105e3565b92915050565b5f819050919050565b61061f8161060d565b8114610629575f5ffd5b50565b5f8135905061063a81610616565b92915050565b5f5f60408385031215610656576106556105af565b5b5f610663858286016105f9565b92505060206106748582860161062c565b9150509250929050565b5f8115159050919050565b6106928161067e565b82525050565b5f6020820190506106ab5f830184610689565b92915050565b5f602082840312156106c6576106c56105af565b5b5f6106d3848285016105f9565b91505092915050565b6106e58161060d565b82525050565b5f6020820190506106fe5f8301846106dc565b92915050565b5f5f5f6060848603121561071b5761071a6105af565b5b5f610728868287016105f9565b9350506020610739868287016105f9565b925050604061074a8682870161062c565b9150509250925092565b5f5f6040838503121561076a576107696105af565b5b5f610777858286016105f9565b9250506020610788858286016105f9565b9150509250929050565b5f82825260208201905092915050565b7f496e73756666696369656e742042616c616e63650000000000000000000000005f82015250565b5f6107d6601483610792565b91506107e1826107a2565b602082019050919050565b5f6020820190508181035f830152610803816107ca565b9050919050565b7f4e6f7420617070726f76656400000000000000000000000000000000000000005f82015250565b5f61083e600c83610792565b91506108498261080a565b602082019050919050565b5f6020820190508181035f83015261086b81610832565b9050919050565b7f4e487b71000000000000000000000000000000000000000000000000000000005f52601160045260245ffd5b5f6108a98261060d565b91506108b48361060d565b92508282039050818111156108cc576108cb610872565b5b92915050565b5f6108dc8261060d565b91506108e78361060d565b92508282019050808211156108ff576108fe610872565b5b92915050565b7f45544820726571756972656420746f204d494e5420546f6b656e7300000000005f82015250565b5f610939601b83610792565b915061094482610905565b602082019050919050565b5f6020820190508181035f8301526109668161092d565b9050919050565b5f6109778261060d565b91506109828361060d565b92508282026109908161060d565b915082820484148315176109a7576109a6610872565b5b5092915050565b7f4e487b71000000000000000000000000000000000000000000000000000000005f52601260045260245ffd5b5f6109e58261060d565b91506109f08361060d565b925082610a00576109ff6109ae565b5b82820490509291505056fea2646970667358221220cba5b9e0bfc823a38428eb811ab2bed2ba1a51bbdde6d6e3dfc2521e5551cfed64736f6c634300081f0033",
					"opcodes": "PUSH1 0x80 PUSH1 0x40 MSTORE CALLVALUE DUP1 ISZERO PUSH1 0xE JUMPI PUSH0 PUSH0 REVERT JUMPDEST POP PUSH2 0xA41 DUP1 PUSH2 0x1C PUSH0 CODECOPY PUSH0 RETURN INVALID PUSH1 0x80 PUSH1 0x40 MSTORE PUSH1 0x4 CALLDATASIZE LT PUSH2 0x54 JUMPI PUSH0 CALLDATALOAD PUSH1 0xE0 SHR DUP1 PUSH4 0x95EA7B3 EQ PUSH2 0x58 JUMPI DUP1 PUSH4 0x12CAE7AF EQ PUSH2 0x94 JUMPI DUP1 PUSH4 0x23B872DD EQ PUSH2 0xD0 JUMPI DUP1 PUSH4 0x33F44974 EQ PUSH2 0x10C JUMPI DUP1 PUSH4 0x81B2D07B EQ PUSH2 0x116 JUMPI DUP1 PUSH4 0xDD62ED3E EQ PUSH2 0x140 JUMPI JUMPDEST PUSH0 PUSH0 REVERT JUMPDEST CALLVALUE DUP1 ISZERO PUSH2 0x63 JUMPI PUSH0 PUSH0 REVERT JUMPDEST POP PUSH2 0x7E PUSH1 0x4 DUP1 CALLDATASIZE SUB DUP2 ADD SWAP1 PUSH2 0x79 SWAP2 SWAP1 PUSH2 0x640 JUMP JUMPDEST PUSH2 0x17C JUMP JUMPDEST PUSH1 0x40 MLOAD PUSH2 0x8B SWAP2 SWAP1 PUSH2 0x698 JUMP JUMPDEST PUSH1 0x40 MLOAD DUP1 SWAP2 SUB SWAP1 RETURN JUMPDEST CALLVALUE DUP1 ISZERO PUSH2 0x9F JUMPI PUSH0 PUSH0 REVERT JUMPDEST POP PUSH2 0xBA PUSH1 0x4 DUP1 CALLDATASIZE SUB DUP2 ADD SWAP1 PUSH2 0xB5 SWAP2 SWAP1 PUSH2 0x6B1 JUMP JUMPDEST PUSH2 0x204 JUMP JUMPDEST PUSH1 0x40 MLOAD PUSH2 0xC7 SWAP2 SWAP1 PUSH2 0x6EB JUMP JUMPDEST PUSH1 0x40 MLOAD DUP1 SWAP2 SUB SWAP1 RETURN JUMPDEST CALLVALUE DUP1 ISZERO PUSH2 0xDB JUMPI PUSH0 PUSH0 REVERT JUMPDEST POP PUSH2 0xF6 PUSH1 0x4 DUP1 CALLDATASIZE SUB DUP2 ADD SWAP1 PUSH2 0xF1 SWAP2 SWAP1 PUSH2 0x704 JUMP JUMPDEST PUSH2 0x218 JUMP JUMPDEST PUSH1 0x40 MLOAD PUSH2 0x103 SWAP2 SWAP1 PUSH2 0x698 JUMP JUMPDEST PUSH1 0x40 MLOAD DUP1 SWAP2 SUB SWAP1 RETURN JUMPDEST PUSH2 0x114 PUSH2 0x490 JUMP JUMPDEST STOP JUMPDEST CALLVALUE DUP1 ISZERO PUSH2 0x121 JUMPI PUSH0 PUSH0 REVERT JUMPDEST POP PUSH2 0x12A PUSH2 0x54C JUMP JUMPDEST PUSH1 0x40 MLOAD PUSH2 0x137 SWAP2 SWAP1 PUSH2 0x6EB JUMP JUMPDEST PUSH1 0x40 MLOAD DUP1 SWAP2 SUB SWAP1 RETURN JUMPDEST CALLVALUE DUP1 ISZERO PUSH2 0x14B JUMPI PUSH0 PUSH0 REVERT JUMPDEST POP PUSH2 0x166 PUSH1 0x4 DUP1 CALLDATASIZE SUB DUP2 ADD SWAP1 PUSH2 0x161 SWAP2 SWAP1 PUSH2 0x754 JUMP JUMPDEST PUSH2 0x58F JUMP JUMPDEST PUSH1 0x40 MLOAD PUSH2 0x173 SWAP2 SWAP1 PUSH2 0x6EB JUMP JUMPDEST PUSH1 0x40 MLOAD DUP1 SWAP2 SUB SWAP1 RETURN JUMPDEST PUSH0 DUP2 PUSH1 0x1 PUSH0 CALLER PUSH20 0xFFFFFFFFFFFFFFFFFFFFFFFFFFFFFFFFFFFFFFFF AND PUSH20 0xFFFFFFFFFFFFFFFFFFFFFFFFFFFFFFFFFFFFFFFF AND DUP2 MSTORE PUSH1 0x20 ADD SWAP1 DUP2 MSTORE PUSH1 0x20 ADD PUSH0 KECCAK256 PUSH0 DUP6 PUSH20 0xFFFFFFFFFFFFFFFFFFFFFFFFFFFFFFFFFFFFFFFF AND PUSH20 0xFFFFFFFFFFFFFFFFFFFFFFFFFFFFFFFFFFFFFFFF AND DUP2 MSTORE PUSH1 0x20 ADD SWAP1 DUP2 MSTORE PUSH1 0x20 ADD PUSH0 KECCAK256 DUP2 SWAP1 SSTORE POP PUSH1 0x1 SWAP1 POP SWAP3 SWAP2 POP POP JUMP JUMPDEST PUSH0 PUSH1 0x20 MSTORE DUP1 PUSH0 MSTORE PUSH1 0x40 PUSH0 KECCAK256 PUSH0 SWAP2 POP SWAP1 POP SLOAD DUP2 JUMP JUMPDEST PUSH0 DUP2 PUSH0 PUSH0 DUP7 PUSH20 0xFFFFFFFFFFFFFFFFFFFFFFFFFFFFFFFFFFFFFFFF AND PUSH20 0xFFFFFFFFFFFFFFFFFFFFFFFFFFFFFFFFFFFFFFFF AND DUP2 MSTORE PUSH1 0x20 ADD SWAP1 DUP2 MSTORE PUSH1 0x20 ADD PUSH0 KECCAK256 SLOAD LT ISZERO PUSH2 0x298 JUMPI PUSH1 0x40 MLOAD PUSH32 0x8C379A000000000000000000000000000000000000000000000000000000000 DUP2 MSTORE PUSH1 0x4 ADD PUSH2 0x28F SWAP1 PUSH2 0x7EC JUMP JUMPDEST PUSH1 0x40 MLOAD DUP1 SWAP2 SUB SWAP1 REVERT JUMPDEST DUP2 PUSH1 0x1 PUSH0 DUP7 PUSH20 0xFFFFFFFFFFFFFFFFFFFFFFFFFFFFFFFFFFFFFFFF AND PUSH20 0xFFFFFFFFFFFFFFFFFFFFFFFFFFFFFFFFFFFFFFFF AND DUP2 MSTORE PUSH1 0x20 ADD SWAP1 DUP2 MSTORE PUSH1 0x20 ADD PUSH0 KECCAK256 PUSH0 CALLER PUSH20 0xFFFFFFFFFFFFFFFFFFFFFFFFFFFFFFFFFFFFFFFF AND PUSH20 0xFFFFFFFFFFFFFFFFFFFFFFFFFFFFFFFFFFFFFFFF AND DUP2 MSTORE PUSH1 0x20 ADD SWAP1 DUP2 MSTORE PUSH1 0x20 ADD PUSH0 KECCAK256 SLOAD LT ISZERO PUSH2 0x353 JUMPI PUSH1 0x40 MLOAD PUSH32 0x8C379A000000000000000000000000000000000000000000000000000000000 DUP2 MSTORE PUSH1 0x4 ADD PUSH2 0x34A SWAP1 PUSH2 0x854 JUMP JUMPDEST PUSH1 0x40 MLOAD DUP1 SWAP2 SUB SWAP1 REVERT JUMPDEST DUP2 PUSH1 0x1 PUSH0 DUP7 PUSH20 0xFFFFFFFFFFFFFFFFFFFFFFFFFFFFFFFFFFFFFFFF AND PUSH20 0xFFFFFFFFFFFFFFFFFFFFFFFFFFFFFFFFFFFFFFFF AND DUP2 MSTORE PUSH1 0x20 ADD SWAP1 DUP2 MSTORE PUSH1 0x20 ADD PUSH0 KECCAK256 PUSH0 CALLER PUSH20 0xFFFFFFFFFFFFFFFFFFFFFFFFFFFFFFFFFFFFFFFF AND PUSH20 0xFFFFFFFFFFFFFFFFFFFFFFFFFFFFFFFFFFFFFFFF AND DUP2 MSTORE PUSH1 0x20 ADD SWAP1 DUP2 MSTORE PUSH1 0x20 ADD PUSH0 KECCAK256 PUSH0 DUP3 DUP3 SLOAD PUSH2 0x3DA SWAP2 SWAP1 PUSH2 0x89F JUMP JUMPDEST SWAP3 POP POP DUP2 SWAP1 SSTORE POP DUP2 PUSH0 PUSH0 DUP7 PUSH20 0xFFFFFFFFFFFFFFFFFFFFFFFFFFFFFFFFFFFFFFFF AND PUSH20 0xFFFFFFFFFFFFFFFFFFFFFFFFFFFFFFFFFFFFFFFF AND DUP2 MSTORE PUSH1 0x20 ADD SWAP1 DUP2 MSTORE PUSH1 0x20 ADD PUSH0 KECCAK256 PUSH0 DUP3 DUP3 SLOAD PUSH2 0x42C SWAP2 SWAP1 PUSH2 0x89F JUMP JUMPDEST SWAP3 POP POP DUP2 SWAP1 SSTORE POP DUP2 PUSH0 PUSH0 DUP6 PUSH20 0xFFFFFFFFFFFFFFFFFFFFFFFFFFFFFFFFFFFFFFFF AND PUSH20 0xFFFFFFFFFFFFFFFFFFFFFFFFFFFFFFFFFFFFFFFF AND DUP2 MSTORE PUSH1 0x20 ADD SWAP1 DUP2 MSTORE PUSH1 0x20 ADD PUSH0 KECCAK256 PUSH0 DUP3 DUP3 SLOAD PUSH2 0x47E SWAP2 SWAP1 PUSH2 0x8D2 JUMP JUMPDEST SWAP3 POP POP DUP2 SWAP1 SSTORE POP PUSH1 0x1 SWAP1 POP SWAP4 SWAP3 POP POP POP JUMP JUMPDEST PUSH0 CALLVALUE GT PUSH2 0x4D2 JUMPI PUSH1 0x40 MLOAD PUSH32 0x8C379A000000000000000000000000000000000000000000000000000000000 DUP2 MSTORE PUSH1 0x4 ADD PUSH2 0x4C9 SWAP1 PUSH2 0x94F JUMP JUMPDEST PUSH1 0x40 MLOAD DUP1 SWAP2 SUB SWAP1 REVERT JUMPDEST PUSH0 PUSH8 0xDE0B6B3A7640000 PUSH3 0x186A0 CALLVALUE PUSH2 0x4EB SWAP2 SWAP1 PUSH2 0x96D JUMP JUMPDEST PUSH2 0x4F5 SWAP2 SWAP1 PUSH2 0x9DB JUMP JUMPDEST SWAP1 POP DUP1 PUSH0 PUSH0 CALLER PUSH20 0xFFFFFFFFFFFFFFFFFFFFFFFFFFFFFFFFFFFFFFFF AND PUSH20 0xFFFFFFFFFFFFFFFFFFFFFFFFFFFFFFFFFFFFFFFF AND DUP2 MSTORE PUSH1 0x20 ADD SWAP1 DUP2 MSTORE PUSH1 0x20 ADD PUSH0 KECCAK256 PUSH0 DUP3 DUP3 SLOAD PUSH2 0x542 SWAP2 SWAP1 PUSH2 0x8D2 JUMP JUMPDEST SWAP3 POP POP DUP2 SWAP1 SSTORE POP POP JUMP JUMPDEST PUSH0 PUSH0 PUSH0 CALLER PUSH20 0xFFFFFFFFFFFFFFFFFFFFFFFFFFFFFFFFFFFFFFFF AND PUSH20 0xFFFFFFFFFFFFFFFFFFFFFFFFFFFFFFFFFFFFFFFF AND DUP2 MSTORE PUSH1 0x20 ADD SWAP1 DUP2 MSTORE PUSH1 0x20 ADD PUSH0 KECCAK256 SLOAD SWAP1 POP SWAP1 JUMP JUMPDEST PUSH1 0x1 PUSH1 0x20 MSTORE DUP2 PUSH0 MSTORE PUSH1 0x40 PUSH0 KECCAK256 PUSH1 0x20 MSTORE DUP1 PUSH0 MSTORE PUSH1 0x40 PUSH0 KECCAK256 PUSH0 SWAP2 POP SWAP2 POP POP SLOAD DUP2 JUMP JUMPDEST PUSH0 PUSH0 REVERT JUMPDEST PUSH0 PUSH20 0xFFFFFFFFFFFFFFFFFFFFFFFFFFFFFFFFFFFFFFFF DUP3 AND SWAP1 POP SWAP2 SWAP1 POP JUMP JUMPDEST PUSH0 PUSH2 0x5DC DUP3 PUSH2 0x5B3 JUMP JUMPDEST SWAP1 POP SWAP2 SWAP1 POP JUMP JUMPDEST PUSH2 0x5EC DUP2 PUSH2 0x5D2 JUMP JUMPDEST DUP2 EQ PUSH2 0x5F6 JUMPI PUSH0 PUSH0 REVERT JUMPDEST POP JUMP JUMPDEST PUSH0 DUP2 CALLDATALOAD SWAP1 POP PUSH2 0x607 DUP2 PUSH2 0x5E3 JUMP JUMPDEST SWAP3 SWAP2 POP POP JUMP JUMPDEST PUSH0 DUP2 SWAP1 POP SWAP2 SWAP1 POP JUMP JUMPDEST PUSH2 0x61F DUP2 PUSH2 0x60D JUMP JUMPDEST DUP2 EQ PUSH2 0x629 JUMPI PUSH0 PUSH0 REVERT JUMPDEST POP JUMP JUMPDEST PUSH0 DUP2 CALLDATALOAD SWAP1 POP PUSH2 0x63A DUP2 PUSH2 0x616 JUMP JUMPDEST SWAP3 SWAP2 POP POP JUMP JUMPDEST PUSH0 PUSH0 PUSH1 0x40 DUP4 DUP6 SUB SLT ISZERO PUSH2 0x656 JUMPI PUSH2 0x655 PUSH2 0x5AF JUMP JUMPDEST JUMPDEST PUSH0 PUSH2 0x663 DUP6 DUP3 DUP7 ADD PUSH2 0x5F9 JUMP JUMPDEST SWAP3 POP POP PUSH1 0x20 PUSH2 0x674 DUP6 DUP3 DUP7 ADD PUSH2 0x62C JUMP JUMPDEST SWAP2 POP POP SWAP3 POP SWAP3 SWAP1 POP JUMP JUMPDEST PUSH0 DUP2 ISZERO ISZERO SWAP1 POP SWAP2 SWAP1 POP JUMP JUMPDEST PUSH2 0x692 DUP2 PUSH2 0x67E JUMP JUMPDEST DUP3 MSTORE POP POP JUMP JUMPDEST PUSH0 PUSH1 0x20 DUP3 ADD SWAP1 POP PUSH2 0x6AB PUSH0 DUP4 ADD DUP5 PUSH2 0x689 JUMP JUMPDEST SWAP3 SWAP2 POP POP JUMP JUMPDEST PUSH0 PUSH1 0x20 DUP3 DUP5 SUB SLT ISZERO PUSH2 0x6C6 JUMPI PUSH2 0x6C5 PUSH2 0x5AF JUMP JUMPDEST JUMPDEST PUSH0 PUSH2 0x6D3 DUP5 DUP3 DUP6 ADD PUSH2 0x5F9 JUMP JUMPDEST SWAP2 POP POP SWAP3 SWAP2 POP POP JUMP JUMPDEST PUSH2 0x6E5 DUP2 PUSH2 0x60D JUMP JUMPDEST DUP3 MSTORE POP POP JUMP JUMPDEST PUSH0 PUSH1 0x20 DUP3 ADD SWAP1 POP PUSH2 0x6FE PUSH0 DUP4 ADD DUP5 PUSH2 0x6DC JUMP JUMPDEST SWAP3 SWAP2 POP POP JUMP JUMPDEST PUSH0 PUSH0 PUSH0 PUSH1 0x60 DUP5 DUP7 SUB SLT ISZERO PUSH2 0x71B JUMPI PUSH2 0x71A PUSH2 0x5AF JUMP JUMPDEST JUMPDEST PUSH0 PUSH2 0x728 DUP7 DUP3 DUP8 ADD PUSH2 0x5F9 JUMP JUMPDEST SWAP4 POP POP PUSH1 0x20 PUSH2 0x739 DUP7 DUP3 DUP8 ADD PUSH2 0x5F9 JUMP JUMPDEST SWAP3 POP POP PUSH1 0x40 PUSH2 0x74A DUP7 DUP3 DUP8 ADD PUSH2 0x62C JUMP JUMPDEST SWAP2 POP POP SWAP3 POP SWAP3 POP SWAP3 JUMP JUMPDEST PUSH0 PUSH0 PUSH1 0x40 DUP4 DUP6 SUB SLT ISZERO PUSH2 0x76A JUMPI PUSH2 0x769 PUSH2 0x5AF JUMP JUMPDEST JUMPDEST PUSH0 PUSH2 0x777 DUP6 DUP3 DUP7 ADD PUSH2 0x5F9 JUMP JUMPDEST SWAP3 POP POP PUSH1 0x20 PUSH2 0x788 DUP6 DUP3 DUP7 ADD PUSH2 0x5F9 JUMP JUMPDEST SWAP2 POP POP SWAP3 POP SWAP3 SWAP1 POP JUMP JUMPDEST PUSH0 DUP3 DUP3 MSTORE PUSH1 0x20 DUP3 ADD SWAP1 POP SWAP3 SWAP2 POP POP JUMP JUMPDEST PUSH32 0x496E73756666696369656E742042616C616E6365000000000000000000000000 PUSH0 DUP3 ADD MSTORE POP JUMP JUMPDEST PUSH0 PUSH2 0x7D6 PUSH1 0x14 DUP4 PUSH2 0x792 JUMP JUMPDEST SWAP2 POP PUSH2 0x7E1 DUP3 PUSH2 0x7A2 JUMP JUMPDEST PUSH1 0x20 DUP3 ADD SWAP1 POP SWAP2 SWAP1 POP JUMP JUMPDEST PUSH0 PUSH1 0x20 DUP3 ADD SWAP1 POP DUP2 DUP2 SUB PUSH0 DUP4 ADD MSTORE PUSH2 0x803 DUP2 PUSH2 0x7CA JUMP JUMPDEST SWAP1 POP SWAP2 SWAP1 POP JUMP JUMPDEST PUSH32 0x4E6F7420617070726F7665640000000000000000000000000000000000000000 PUSH0 DUP3 ADD MSTORE POP JUMP JUMPDEST PUSH0 PUSH2 0x83E PUSH1 0xC DUP4 PUSH2 0x792 JUMP JUMPDEST SWAP2 POP PUSH2 0x849 DUP3 PUSH2 0x80A JUMP JUMPDEST PUSH1 0x20 DUP3 ADD SWAP1 POP SWAP2 SWAP1 POP JUMP JUMPDEST PUSH0 PUSH1 0x20 DUP3 ADD SWAP1 POP DUP2 DUP2 SUB PUSH0 DUP4 ADD MSTORE PUSH2 0x86B DUP2 PUSH2 0x832 JUMP JUMPDEST SWAP1 POP SWAP2 SWAP1 POP JUMP JUMPDEST PUSH32 0x4E487B7100000000000000000000000000000000000000000000000000000000 PUSH0 MSTORE PUSH1 0x11 PUSH1 0x4 MSTORE PUSH1 0x24 PUSH0 REVERT JUMPDEST PUSH0 PUSH2 0x8A9 DUP3 PUSH2 0x60D JUMP JUMPDEST SWAP2 POP PUSH2 0x8B4 DUP4 PUSH2 0x60D JUMP JUMPDEST SWAP3 POP DUP3 DUP3 SUB SWAP1 POP DUP2 DUP2 GT ISZERO PUSH2 0x8CC JUMPI PUSH2 0x8CB PUSH2 0x872 JUMP JUMPDEST JUMPDEST SWAP3 SWAP2 POP POP JUMP JUMPDEST PUSH0 PUSH2 0x8DC DUP3 PUSH2 0x60D JUMP JUMPDEST SWAP2 POP PUSH2 0x8E7 DUP4 PUSH2 0x60D JUMP JUMPDEST SWAP3 POP DUP3 DUP3 ADD SWAP1 POP DUP1 DUP3 GT ISZERO PUSH2 0x8FF JUMPI PUSH2 0x8FE PUSH2 0x872 JUMP JUMPDEST JUMPDEST SWAP3 SWAP2 POP POP JUMP JUMPDEST PUSH32 0x45544820726571756972656420746F204D494E5420546F6B656E730000000000 PUSH0 DUP3 ADD MSTORE POP JUMP JUMPDEST PUSH0 PUSH2 0x939 PUSH1 0x1B DUP4 PUSH2 0x792 JUMP JUMPDEST SWAP2 POP PUSH2 0x944 DUP3 PUSH2 0x905 JUMP JUMPDEST PUSH1 0x20 DUP3 ADD SWAP1 POP SWAP2 SWAP1 POP JUMP JUMPDEST PUSH0 PUSH1 0x20 DUP3 ADD SWAP1 POP DUP2 DUP2 SUB PUSH0 DUP4 ADD MSTORE PUSH2 0x966 DUP2 PUSH2 0x92D JUMP JUMPDEST SWAP1 POP SWAP2 SWAP1 POP JUMP JUMPDEST PUSH0 PUSH2 0x977 DUP3 PUSH2 0x60D JUMP JUMPDEST SWAP2 POP PUSH2 0x982 DUP4 PUSH2 0x60D JUMP JUMPDEST SWAP3 POP DUP3 DUP3 MUL PUSH2 0x990 DUP2 PUSH2 0x60D JUMP JUMPDEST SWAP2 POP DUP3 DUP3 DIV DUP5 EQ DUP4 ISZERO OR PUSH2 0x9A7 JUMPI PUSH2 0x9A6 PUSH2 0x872 JUMP JUMPDEST JUMPDEST POP SWAP3 SWAP2 POP POP JUMP JUMPDEST PUSH32 0x4E487B7100000000000000000000000000000000000000000000000000000000 PUSH0 MSTORE PUSH1 0x12 PUSH1 0x4 MSTORE PUSH1 0x24 PUSH0 REVERT JUMPDEST PUSH0 PUSH2 0x9E5 DUP3 PUSH2 0x60D JUMP JUMPDEST SWAP2 POP PUSH2 0x9F0 DUP4 PUSH2 0x60D JUMP JUMPDEST SWAP3 POP DUP3 PUSH2 0xA00 JUMPI PUSH2 0x9FF PUSH2 0x9AE JUMP JUMPDEST JUMPDEST DUP3 DUP3 DIV SWAP1 POP SWAP3 SWAP2 POP POP JUMP INVALID LOG2 PUSH5 0x6970667358 0x22 SLT KECCAK256 0xCB 0xA5 0xB9 RJUMP 0xBFC8 0x23 LOG3 DUP5 0x28 0xEB DUP2 BYTE 0xB2 0xBE 0xD2 0xBA BYTE MLOAD 0xBB 0xDD DUPN 0xD6 CALLF 0xDFC2 MSTORE CLZ SSTORE MLOAD 0xCF 0xED PUSH5 0x736F6C6343 STOP ADDMOD 0x1F STOP CALLER "
				},
				"gasEstimates": {
					"creation": {
						"codeDepositCost": "525000",
						"executionCost": "560",
						"totalCost": "525560"
					},
					"external": {
						"MINTtokens()": "infinite",
						"allowance(address,address)": "infinite",
						"approve(address,uint256)": "23084",
						"balanceOfUser(address)": "2801",
						"showBalance()": "2584",
						"transferFrom(address,address,uint256)": "infinite"
					}
				},
				"methodIdentifiers": {
					"MINTtokens()": "33f44974",
					"allowance(address,address)": "dd62ed3e",
					"approve(address,uint256)": "095ea7b3",
					"balanceOfUser(address)": "12cae7af",
					"showBalance()": "81b2d07b",
					"transferFrom(address,address,uint256)": "23b872dd"
				}
			},
			"storageLayout": {
				"storage": [
					{
						"astId": 5,
						"contract": "IT/LIT2025032/NFT_MARKETPLACE_ASSIGNMENT/TokenContract.sol:Token",
						"label": "balanceOfUser",
						"offset": 0,
						"slot": "0",
						"type": "t_mapping(t_address,t_uint256)"
					},
					{
						"astId": 54,
						"contract": "IT/LIT2025032/NFT_MARKETPLACE_ASSIGNMENT/TokenContract.sol:Token",
						"label": "allowance",
						"offset": 0,
						"slot": "1",
						"type": "t_mapping(t_address,t_mapping(t_address,t_uint256))"
					}
				],
				"types": {
					"t_address": {
						"encoding": "inplace",
						"label": "address",
						"numberOfBytes": "20"
					},
					"t_mapping(t_address,t_mapping(t_address,t_uint256))": {
						"encoding": "mapping",
						"key": "t_address",
						"label": "mapping(address => mapping(address => uint256))",
						"numberOfBytes": "32",
						"value": "t_mapping(t_address,t_uint256)"
					},
					"t_mapping(t_address,t_uint256)": {
						"encoding": "mapping",
						"key": "t_address",
						"label": "mapping(address => uint256)",
						"numberOfBytes": "32",
						"value": "t_uint256"
					},
					"t_uint256": {
						"encoding": "inplace",
						"label": "uint256",
						"numberOfBytes": "32"
					}
				}
			},
			"userdoc": {
				"kind": "user",
				"methods": {},
				"version": 1
			}
		}
	}
}